{"contracts/FlashSwap.sol":{"FlashSwap":{"abi":[{"inputs":[{"internalType":"address","name":"_uniswapV3Router","type":"address"},{"internalType":"address","name":"_sushiRouter","type":"address"},{"internalType":"address","name":"_aavePoolAddress","type":"address"},{"internalType":"address","name":"_aaveAddressesProvider","type":"address"}],"stateMutability":"nonpayable","type":"constructor"},{"anonymous":false,"inputs":[{"indexed":true,"internalType":"address","name":"tokenBorrowed","type":"address"},{"indexed":false,"internalType":"uint256","name":"amountBorrowed","type":"uint256"},{"indexed":false,"internalType":"uint256","name":"feePaid","type":"uint256"}],"name":"AaveArbitrageExecution","type":"event"},{"anonymous":false,"inputs":[{"indexed":true,"internalType":"address","name":"caller","type":"address"},{"indexed":true,"internalType":"address","name":"asset","type":"address"},{"indexed":false,"internalType":"uint256","name":"amount","type":"uint256"}],"name":"AaveFlashLoanInitiated","type":"event"},{"anonymous":false,"inputs":[{"indexed":true,"internalType":"enum FlashSwap.CallbackType","name":"tradeType","type":"uint8"},{"indexed":true,"internalType":"address","name":"tokenBorrowed","type":"address"},{"indexed":false,"internalType":"uint256","name":"amountBorrowed","type":"uint256"},{"indexed":false,"internalType":"uint256","name":"feePaid","type":"uint256"}],"name":"ArbitrageExecution","type":"event"},{"anonymous":false,"inputs":[{"indexed":true,"internalType":"address","name":"token","type":"address"},{"indexed":true,"internalType":"address","name":"recipient","type":"address"},{"indexed":false,"internalType":"uint256","name":"amount","type":"uint256"}],"name":"EmergencyWithdrawal","type":"event"},{"anonymous":false,"inputs":[{"indexed":true,"internalType":"address","name":"caller","type":"address"},{"indexed":true,"internalType":"address","name":"pool","type":"address"},{"indexed":false,"internalType":"enum FlashSwap.CallbackType","name":"tradeType","type":"uint8"},{"indexed":false,"internalType":"uint256","name":"amount0","type":"uint256"},{"indexed":false,"internalType":"uint256","name":"amount1","type":"uint256"}],"name":"FlashSwapInitiated","type":"event"},{"anonymous":false,"inputs":[{"indexed":true,"internalType":"address","name":"token","type":"address"},{"indexed":true,"internalType":"address","name":"recipient","type":"address"},{"indexed":false,"internalType":"uint256","name":"amount","type":"uint256"}],"name":"ProfitTransferred","type":"event"},{"anonymous":false,"inputs":[{"indexed":true,"internalType":"address","name":"token","type":"address"},{"indexed":false,"internalType":"uint256","name":"amountRepaid","type":"uint256"}],"name":"RepaymentSuccess","type":"event"},{"anonymous":false,"inputs":[{"indexed":false,"internalType":"uint256","name":"swapNumber","type":"uint256"},{"indexed":false,"internalType":"uint8","name":"dexType","type":"uint8"},{"indexed":true,"internalType":"address","name":"tokenIn","type":"address"},{"indexed":true,"internalType":"address","name":"tokenOut","type":"address"},{"indexed":false,"internalType":"uint256","name":"amountIn","type":"uint256"},{"indexed":false,"internalType":"uint256","name":"amountOut","type":"uint256"}],"name":"SwapExecuted","type":"event"},{"anonymous":false,"inputs":[{"indexed":true,"internalType":"address","name":"token","type":"address"},{"indexed":false,"internalType":"uint256","name":"amount","type":"uint256"},{"indexed":true,"internalType":"address","name":"recipient","type":"address"}],"name":"TithePaid","type":"event"},{"anonymous":false,"inputs":[{"indexed":true,"internalType":"bytes32","name":"pathHash","type":"bytes32"},{"indexed":true,"internalType":"address","name":"tokenBorrowed","type":"address"},{"indexed":false,"internalType":"uint256","name":"grossProfit","type":"uint256"},{"indexed":false,"internalType":"uint256","name":"feePaid","type":"uint256"},{"indexed":false,"internalType":"uint256","name":"netProfit","type":"uint256"}],"name":"TradeProfit","type":"event"},{"inputs":[],"name":"AAVE_ADDRESSES_PROVIDER","outputs":[{"internalType":"address","name":"","type":"address"}],"stateMutability":"view","type":"function"},{"inputs":[],"name":"AAVE_POOL","outputs":[{"internalType":"contract IPool","name":"","type":"address"}],"stateMutability":"view","type":"function"},{"inputs":[],"name":"ADDRESSES_PROVIDER","outputs":[{"internalType":"address","name":"","type":"address"}],"stateMutability":"view","type":"function"},{"inputs":[],"name":"POOL","outputs":[{"internalType":"address","name":"","type":"address"}],"stateMutability":"view","type":"function"},{"inputs":[],"name":"SUSHI_ROUTER","outputs":[{"internalType":"contract IUniswapV2Router02","name":"","type":"address"}],"stateMutability":"view","type":"function"},{"inputs":[],"name":"SWAP_ROUTER","outputs":[{"internalType":"contract ISwapRouter","name":"","type":"address"}],"stateMutability":"view","type":"function"},{"inputs":[],"name":"V3_FACTORY","outputs":[{"internalType":"address","name":"","type":"address"}],"stateMutability":"view","type":"function"},{"inputs":[{"internalType":"address","name":"_token","type":"address"}],"name":"emergencyWithdraw","outputs":[],"stateMutability":"nonpayable","type":"function"},{"inputs":[],"name":"emergencyWithdrawETH","outputs":[],"stateMutability":"nonpayable","type":"function"},{"inputs":[{"internalType":"address[]","name":"assets","type":"address[]"},{"internalType":"uint256[]","name":"amounts","type":"uint256[]"},{"internalType":"uint256[]","name":"premiums","type":"uint256[]"},{"internalType":"address","name":"initiator","type":"address"},{"internalType":"bytes","name":"params","type":"bytes"}],"name":"executeOperation","outputs":[{"internalType":"bool","name":"","type":"bool"}],"stateMutability":"nonpayable","type":"function"},{"inputs":[{"internalType":"address","name":"_asset","type":"address"},{"internalType":"uint256","name":"_amount","type":"uint256"},{"internalType":"bytes","name":"_params","type":"bytes"}],"name":"initiateAaveFlashLoan","outputs":[],"stateMutability":"nonpayable","type":"function"},{"inputs":[{"internalType":"enum FlashSwap.CallbackType","name":"_callbackType","type":"uint8"},{"internalType":"address","name":"_poolAddress","type":"address"},{"internalType":"uint256","name":"_amount0","type":"uint256"},{"internalType":"uint256","name":"_amount1","type":"uint256"},{"internalType":"bytes","name":"_params","type":"bytes"},{"internalType":"address","name":"_titheRecipient","type":"address"}],"name":"initiateUniswapV3FlashLoan","outputs":[],"stateMutability":"nonpayable","type":"function"},{"inputs":[],"name":"owner","outputs":[{"internalType":"address payable","name":"","type":"address"}],"stateMutability":"view","type":"function"},{"inputs":[{"internalType":"uint256","name":"fee0","type":"uint256"},{"internalType":"uint256","name":"fee1","type":"uint256"},{"internalType":"bytes","name":"data","type":"bytes"}],"name":"uniswapV3FlashCallback","outputs":[],"stateMutability":"nonpayable","type":"function"},{"stateMutability":"payable","type":"receive"}],"evm":{"bytecode":{"linkReferences":{},"object":"6101406040527f1f98431c8ad98523631ae4a59f267346ea31f98400000000000000000000000060e0523480156200003657600080fd5b5060405162003d4038038062003d4083398101604081905262000059916200015f565b60016000556001600160a01b038416620000905760405162461bcd60e51b81526004016200008790620001db565b60405180910390fd5b6001600160a01b038316620000b95760405162461bcd60e51b81526004016200008790620001bb565b6001600160a01b038216620000e25760405162461bcd60e51b815260040162000087906200021c565b6001600160a01b0381166200010b5760405162461bcd60e51b81526004016200008790620001fb565b6001600160601b0319606094851b811660805292841b831660a05290831b821661010052821b166101205233901b60c0526200023c565b80516001600160a01b03811681146200015a57600080fd5b919050565b6000806000806080858703121562000175578384fd5b620001808562000142565b9350620001906020860162000142565b9250620001a06040860162000142565b9150620001b06060860162000142565b905092959194509250565b60208082526006908201526523299d24a9a960d11b604082015260600190565b60208082526006908201526523299d24aaa960d11b604082015260600190565b602080825260079082015266046533a494141560cc1b604082015260600190565b602080825260069082015265046533a4941560d41b604082015260600190565b60805160601c60a05160601c60c05160601c60e05160601c6101005160601c6101205160601c613a0d620003336000398061027152806103025250806102965280610526528061076652806109755280610bea5250806102ba528061128052508061032f528061036152806105b052806105e252806106d052806106f7528061079352806107c5528061082e528061087a52806108e95280610d465280610d6d5280610e045280610e365280611624528061164b5250806102de52806118515280611987525080611175528061181a5280611d945280611dff5280611e6e5280611ef95280611f6552806120df5250613a0d6000f3fe6080604052600436106100e15760003560e01c80637535d2461161007f578063920f5c8411610059578063920f5c84146101ed578063984c9b221461021a578063c60058931461023a578063e9cbafb01461024f576100e8565b80637535d246146101ae57806384536017146101c35780638da5cb5b146101d8576100e8565b80630c24f4fa116100bb5780630c24f4fa1461014257806311b2e10e1461015757806352530f861461016c5780636ff1c9bc1461018e576100e8565b80630542975c146100ed57806308a016751461011857806308bd1a851461012d576100e8565b366100e857005b600080fd5b3480156100f957600080fd5b5061010261026f565b60405161010f919061322d565b60405180910390f35b34801561012457600080fd5b50610102610294565b34801561013957600080fd5b506101026102b8565b34801561014e57600080fd5b506101026102dc565b34801561016357600080fd5b50610102610300565b34801561017857600080fd5b5061018c610187366004612873565b610324565b005b34801561019a57600080fd5b5061018c6101a936600461283b565b6105a5565b3480156101ba57600080fd5b50610102610764565b3480156101cf57600080fd5b5061018c610788565b3480156101e457600080fd5b506101026108e7565b3480156101f957600080fd5b5061020d6102083660046128cc565b61090b565b60405161010f9190613310565b34801561022657600080fd5b5061018c610235366004612a35565b610df9565b34801561024657600080fd5b50610102611173565b34801561025b57600080fd5b5061018c61026a366004612fdf565b611197565b7f00000000000000000000000000000000000000000000000000000000000000005b90565b7f000000000000000000000000000000000000000000000000000000000000000081565b7f000000000000000000000000000000000000000000000000000000000000000081565b7f000000000000000000000000000000000000000000000000000000000000000081565b7f000000000000000000000000000000000000000000000000000000000000000081565b336001600160a01b037f00000000000000000000000000000000000000000000000000000000000000001614806103835750326001600160a01b037f000000000000000000000000000000000000000000000000000000000000000016145b6103a85760405162461bcd60e51b815260040161039f906133ae565b60405180910390fd5b6040805160018082528183019092526000916020808301908036833701905050905084816000815181106103d857fe5b6001600160a01b039290921660209283029190910190910152604080516001808252818301909252600091816020016020820280368337019050509050848160008151811061042357fe5b602090810291909101015260408051600180825281830190925260009181602001602082028036833701905050905060008160008151811061046157fe5b602002602001018181525050600085858080601f01602080910402602001604051908101604052809392919081815260200183838082843760009201829052508451949550936104be935085016020908101925085019050612c2c565b9050886001600160a01b031681602001516001600160a01b03167f982ee83a4f94146b0aa8d4266773327071682a730aef8f249832a7c58df3b0648a6040516105079190613778565b60405180910390a360405163ab9c4b5d60e01b81526001600160a01b037f0000000000000000000000000000000000000000000000000000000000000000169063ab9c4b5d9061056890309089908990899084908a9060009060040161325b565b600060405180830381600087803b15801561058257600080fd5b505af1158015610596573d6000803e3d6000fd5b50505050505050505050505050565b336001600160a01b037f00000000000000000000000000000000000000000000000000000000000000001614806106045750326001600160a01b037f000000000000000000000000000000000000000000000000000000000000000016145b6106205760405162461bcd60e51b815260040161039f906133ae565b6040516370a0823160e01b81526000906001600160a01b038316906370a082319061064f90309060040161322d565b60206040518083038186803b15801561066757600080fd5b505afa15801561067b573d6000803e3d6000fd5b505050506040513d601f19601f8201168201806040525081019061069f9190612fc7565b9050600081116106c15760405162461bcd60e51b815260040161039f9061350b565b6106f56001600160a01b0383167f0000000000000000000000000000000000000000000000000000000000000000836116cd565b7f00000000000000000000000000000000000000000000000000000000000000006001600160a01b0316826001600160a01b03167f9495d03190a79a43e534c9e328ff322f6283261383f5f19c809564f6ad5a57b3836040516107589190613778565b60405180910390a35050565b7f000000000000000000000000000000000000000000000000000000000000000090565b336001600160a01b037f00000000000000000000000000000000000000000000000000000000000000001614806107e75750326001600160a01b037f000000000000000000000000000000000000000000000000000000000000000016145b6108035760405162461bcd60e51b815260040161039f906133ae565b47806108215760405162461bcd60e51b815260040161039f9061336d565b6040516001600160a01b037f0000000000000000000000000000000000000000000000000000000000000000169082156108fc029083906000818181858888f19350505050158015610877573d6000803e3d6000fd5b507f00000000000000000000000000000000000000000000000000000000000000006001600160a01b031660006001600160a01b03167f9495d03190a79a43e534c9e328ff322f6283261383f5f19c809564f6ad5a57b3836040516108dc9190613778565b60405180910390a350565b7f000000000000000000000000000000000000000000000000000000000000000081565b600060026000541415610965576040805162461bcd60e51b815260206004820152601f60248201527f5265656e7472616e637947756172643a207265656e7472616e742063616c6c00604482015290519081900360640190fd5b6002600055336001600160a01b037f000000000000000000000000000000000000000000000000000000000000000016146109b25760405162461bcd60e51b815260040161039f906134a6565b6001600160a01b03841630146109da5760405162461bcd60e51b815260040161039f906135ea565b600189146109fa5760405162461bcd60e51b815260040161039f9061352a565b8887148015610a0857508685145b610a245760405162461bcd60e51b815260040161039f90613589565b6000610a3283850185612ac0565b905060008b8b6000818110610a4357fe5b9050602002016020810190610a58919061283b565b905060008a8a6000818110610a6957fe5b905060200201359050600089896000818110610a8157fe5b905060200201359050826001600160a01b03167f590e310148e41f756dced96dc1b424986c6699ee980cf932434abcaf26c0474c8383604051610ac5929190613781565b60405180910390a26000610adc8560000151611724565b905060008111610afe5760405162461bcd60e51b815260040161039f906133cd565b6000610b0a8484611bb5565b90506000856001600160a01b03166370a08231306040518263ffffffff1660e01b8152600401610b3a919061322d565b60206040518083038186803b158015610b5257600080fd5b505afa158015610b66573d6000803e3d6000fd5b505050506040513d601f19601f82011682018060405250810190610b8a9190612fc7565b905081811015610bac5760405162461bcd60e51b815260040161039f906134c6565b6000858211610bbc576000610bc6565b610bc68287611c18565b90506000838311610bd8576000610be2565b610be28385611c18565b9050610c0f887f000000000000000000000000000000000000000000000000000000000000000086611c75565b876001600160a01b03167f225e94d7746fdb574aa7d9b5f49a354df34409388d4f4a2799fe421a1b5f55f285604051610c489190613778565b60405180910390a260008c8c604051610c629291906130d9565b60405180910390209050886001600160a01b0316817fc5481f3321b7a079db973b4283b2a79103c76ef1faf1a6bba6a9ee7899ed8e49858a86604051610caa939291906137cb565b60405180910390a38115610dd9576064601e8302046000610ccb8483611c18565b60408d0151909150610ce8906001600160a01b038d1690846116cd565b8b604001516001600160a01b03168b6001600160a01b03167fe2ce04dc1b96e2770411c943f97f69b902518cf2125abf6da8c33f96c663b57984604051610d2f9190613778565b60405180910390a3610d6b6001600160a01b038c167f0000000000000000000000000000000000000000000000000000000000000000836116cd565b7f00000000000000000000000000000000000000000000000000000000000000006001600160a01b03168b6001600160a01b03167ff8c1ab10239f6f37a13f2905c9b042c4c7ff13bcbf485c543d2a9ecbc5c18afa83604051610dce9190613778565b60405180910390a350505b60019a505050505050505050505060016000559998505050505050505050565b336001600160a01b037f0000000000000000000000000000000000000000000000000000000000000000161480610e585750326001600160a01b037f000000000000000000000000000000000000000000000000000000000000000016145b610e745760405162461bcd60e51b815260040161039f906133ae565b60008690506000816001600160a01b0316630dfe16816040518163ffffffff1660e01b815260040160206040518083038186803b158015610eb457600080fd5b505afa158015610ec8573d6000803e3d6000fd5b505050506040513d601f19601f82011682018060405250810190610eec9190612857565b90506000826001600160a01b031663d21220a76040518163ffffffff1660e01b815260040160206040518083038186803b158015610f2957600080fd5b505afa158015610f3d573d6000803e3d6000fd5b505050506040513d601f19601f82011682018060405250810190610f619190612857565b90506000836001600160a01b031663ddca3f436040518163ffffffff1660e01b815260040160206040518083038186803b158015610f9e57600080fd5b505afa158015610fb2573d6000803e3d6000fd5b505050506040513d601f19601f82011682018060405250810190610fd69190612fab565b905060006040518061014001604052808d6001811115610ff257fe5b81526020018b81526020018a8152602001336001600160a01b031681526020018c6001600160a01b03168152602001856001600160a01b03168152602001846001600160a01b031681526020018362ffffff16815260200189898080601f0160208091040260200160405190810160405280939291908181526020018383808284376000920191909152505050908252506001600160a01b0388166020918201526040516110a19291016136b3565b60405160208183030381529060405290508a6001600160a01b0316336001600160a01b03167f05aa02a08501ddc4f9f218a7e1318cc2582c58027d8320aa916d1688106451548e8d8d6040516110f99392919061331b565b60405180910390a36040516312439b2f60e21b81526001600160a01b0386169063490e6cbc906111339030908e908e9087906004016132d9565b600060405180830381600087803b15801561114d57600080fd5b505af1158015611161573d6000803e3d6000fd5b50505050505050505050505050505050565b7f000000000000000000000000000000000000000000000000000000000000000081565b600260005414156111ef576040805162461bcd60e51b815260206004820152601f60248201527f5265656e7472616e637947756172643a207265656e7472616e742063616c6c00604482015290519081900360640190fd5b6002600090815561120282840184612d87565b9050600060405180606001604052808360a001516001600160a01b031681526020018360c001516001600160a01b031681526020018360e0015162ffffff16815250905081608001516001600160a01b0316336001600160a01b03161461127b5760405162461bcd60e51b815260040161039f90613569565b6112a57f000000000000000000000000000000000000000000000000000000000000000082611d1d565b506000806000806000866040015111156112fd576020860151156112db5760405162461bcd60e51b815260040161039f9061334d565b5060c085015160408601519093509150876112f68382611bb5565b915061134d565b6040860151158015611313575060008660200151115b61132f5760405162461bcd60e51b815260040161039f90613549565b5060a0850151602086015190935091508861134a8382611bb5565b91505b85516001600160a01b03851690600181111561136557fe5b7fd03100470982abc26de7fc1f904cfde062a6cbdda69c624e8035a785a40482cf8584604051611396929190613781565b60405180910390a360006001875160018111156113af57fe5b14156113cc576113c58585896101000151611d40565b9050611409565b6000875160018111156113db57fe5b14156113f1576113c58585896101000151611eda565b60405162461bcd60e51b815260040161039f906133ed565b6040516370a0823160e01b81526000906001600160a01b038716906370a082319061143890309060040161322d565b60206040518083038186803b15801561145057600080fd5b505afa158015611464573d6000803e3d6000fd5b505050506040513d601f19601f820116820180604052508101906114889190612fc7565b9050838110156114aa5760405162461bcd60e51b815260040161039f906134c6565b60008582116114ba5760006114c4565b6114c48287611c18565b905060008583116114d65760006114e0565b6114e08387611c18565b90506114f66001600160a01b03891633886116cd565b876001600160a01b03167f225e94d7746fdb574aa7d9b5f49a354df34409388d4f4a2799fe421a1b5f55f28760405161152f9190613778565b60405180910390a260008a6101000151805190602001209050886001600160a01b0316817fc5481f3321b7a079db973b4283b2a79103c76ef1faf1a6bba6a9ee7899ed8e49858986604051611586939291906137cb565b60405180910390a381156116b7576064601e83020460006115a78483611c18565b6101208e01519091506115c5906001600160a01b038d1690846116cd565b8c61012001516001600160a01b03168b6001600160a01b03167fe2ce04dc1b96e2770411c943f97f69b902518cf2125abf6da8c33f96c663b5798460405161160d9190613778565b60405180910390a36116496001600160a01b038c167f0000000000000000000000000000000000000000000000000000000000000000836116cd565b7f00000000000000000000000000000000000000000000000000000000000000006001600160a01b03168b6001600160a01b03167ff8c1ab10239f6f37a13f2905c9b042c4c7ff13bcbf485c543d2a9ecbc5c18afa836040516116ac9190613778565b60405180910390a350505b5050600160005550505050505050505050505050565b604080516001600160a01b038416602482015260448082018490528251808303909101815260649091019091526020810180516001600160e01b031663a9059cbb60e01b17905261171f908490611fd0565b505050565b6000808260008151811061173457fe5b6020026020010151602001516001600160a01b03166370a08231306040518263ffffffff1660e01b815260040161176b919061322d565b60206040518083038186803b15801561178357600080fd5b505afa158015611797573d6000803e3d6000fd5b505050506040513d601f19601f820116820180604052508101906117bb9190612fc7565b9050600081116117dd5760405162461bcd60e51b815260040161039f9061343c565b60005b8351811015611bae5760008482815181106117f757fe5b60200260200101519050600080600060ff168360a0015160ff16141561183e57507f00000000000000000000000000000000000000000000000000000000000000006118a5565b60a083015160ff166001141561187557507f00000000000000000000000000000000000000000000000000000000000000006118a5565b60a083015160ff166002141561188d575081516118a5565b60405162461bcd60e51b815260040161039f9061347e565b6118b483602001518287611c75565b60a083015160ff166118e8576118e184600101846020015185604001518660600151898860800151612081565b9150611b4e565b60a083015160ff1660011415611b0c5760408051600280825260608201835260009260208301908036833701905050905083602001518160008151811061192b57fe5b60200260200101906001600160a01b031690816001600160a01b03168152505083604001518160018151811061195d57fe5b6001600160a01b03928316602091820292909201015260808501516040516338ed173960e01b81527f0000000000000000000000000000000000000000000000000000000000000000909216916338ed1739916119c8918a91908690309042603c019060040161378f565b600060405180830381600087803b1580156119e257600080fd5b505af1925050508015611a1757506040513d6000823e601f3d908101601f19168201604052611a1491908101906129a1565b60015b611a8e57611a23613875565b80611a2e5750611a72565b611a3a8660010161220c565b81604051602001611a4c9291906130e9565b60408051601f198184030181529082905262461bcd60e51b825261039f9160040161333a565b611a7e8560010161220c565b604051602001611a4c9190613137565b80600182510381518110611a9e57fe5b6020026020010151935084604001516001600160a01b031685602001516001600160a01b03167f7f0c28831dc31706c487574de03f85822b98a41eddf7577b2b7eab4d5d5da5458860010160018b89604051611afd94939291906137e1565b60405180910390a35050611b4e565b60a083015160ff1660021415611b3657825160405162461bcd60e51b815261039f9060040161340d565b60405162461bcd60e51b815260040161039f906134e6565b81945060008511611b618560010161220c565b604051602001611b7191906131f5565b60405160208183030381529060405290611b9e5760405162461bcd60e51b815260040161039f919061333a565b5050600190920191506117e09050565b5092915050565b600082820183811015611c0f576040805162461bcd60e51b815260206004820152601b60248201527f536166654d6174683a206164646974696f6e206f766572666c6f770000000000604482015290519081900360640190fd5b90505b92915050565b600082821115611c6f576040805162461bcd60e51b815260206004820152601e60248201527f536166654d6174683a207375627472616374696f6e206f766572666c6f770000604482015290519081900360640190fd5b50900390565b80611c7f5761171f565b604051636eb1769f60e11b8152600019906001600160a01b0385169063dd62ed3e90611cb19030908790600401613241565b60206040518083038186803b158015611cc957600080fd5b505afa158015611cdd573d6000803e3d6000fd5b505050506040513d601f19601f82011682018060405250810190611d019190612fc7565b101561171f5761171f6001600160a01b038416836000196122ea565b6000611d2983836123fd565b9050336001600160a01b03821614611c1257600080fd5b60008082806020019051810190611d579190612e87565b9050846001600160a01b031681600001516001600160a01b031614611d8e5760405162461bcd60e51b815260040161039f906135a9565b611db9857f000000000000000000000000000000000000000000000000000000000000000086611c75565b6000611dd360018784602001518560600151896000612081565b905060008111611df55760405162461bcd60e51b815260040161039f906135c9565b611e2482602001517f000000000000000000000000000000000000000000000000000000000000000083611c75565b6000611e426002846020015185604001518660800151866000612081565b905060008111611e645760405162461bcd60e51b815260040161039f9061338d565b611e9383604001517f000000000000000000000000000000000000000000000000000000000000000083611c75565b611eae60038460400151898660a00151858860c00151612081565b935060008411611ed05760405162461bcd60e51b815260040161039f9061345d565b5050509392505050565b60008082806020019051810190611ef19190612f2b565b9050611f1e857f000000000000000000000000000000000000000000000000000000000000000086611c75565b6000611f3b60018784600001518560200151898760600151612081565b905060008111611f5d5760405162461bcd60e51b815260040161039f9061360a565b8151611f8a907f000000000000000000000000000000000000000000000000000000000000000083611c75565b611fa560028360000151888560400151858760800151612081565b925060008311611fc75760405162461bcd60e51b815260040161039f9061362a565b50509392505050565b6000612025826040518060400160405280602081526020017f5361666545524332303a206c6f772d6c6576656c2063616c6c206661696c6564815250856001600160a01b03166124e19092919063ffffffff16565b80519091501561171f5780806020019051602081101561204457600080fd5b505161171f5760405162461bcd60e51b815260040180806020018281038252602a815260200180613978602a913960400191505060405180910390fd5b60408051610100810182526001600160a01b038088168252868116602083015262ffffff86168284015230606083015242603c01608083015260a0820185905260c08201849052600060e08301819052925163414bf38960e01b81527f00000000000000000000000000000000000000000000000000000000000000009091169063414bf3899061211690849060040161364a565b602060405180830381600087803b15801561213057600080fd5b505af1925050508015612160575060408051601f3d908101601f1916820190925261215d91810190612fc7565b60015b6121ab5761216c613875565b806121775750612192565b6121808961220c565b81604051602001611a4c929190613170565b61219b8861220c565b604051602001611a4c91906131bd565b809250866001600160a01b0316886001600160a01b03167f7f0c28831dc31706c487574de03f85822b98a41eddf7577b2b7eab4d5d5da5458b600089886040516121f894939291906137e1565b60405180910390a350509695505050505050565b60608161223157506040805180820190915260018152600360fc1b60208201526122e5565b8160005b811561224957600101600a82049150612235565b6000816001600160401b038111801561226157600080fd5b506040519080825280601f01601f19166020018201604052801561228c576020820181803683370190505b509050815b85156122df57600019016000600a8706603001905060008160f81b9050808484815181106122bb57fe5b60200101906001600160f81b031916908160001a905350600a880497505050612291565b50925050505b919050565b801580612370575060408051636eb1769f60e11b81523060048201526001600160a01b03848116602483015291519185169163dd62ed3e91604480820192602092909190829003018186803b15801561234257600080fd5b505afa158015612356573d6000803e3d6000fd5b505050506040513d602081101561236c57600080fd5b5051155b6123ab5760405162461bcd60e51b81526004018080602001828103825260368152602001806139a26036913960400191505060405180910390fd5b604080516001600160a01b038416602482015260448082018490528251808303909101815260649091019091526020810180516001600160e01b031663095ea7b360e01b17905261171f908490611fd0565b600081602001516001600160a01b031682600001516001600160a01b03161061242557600080fd5b50805160208083015160409384015184516001600160a01b0394851681850152939091168385015262ffffff166060808401919091528351808403820181526080840185528051908301206001600160f81b031960a085015294901b6bffffffffffffffffffffffff191660a183015260b58201939093527fe34f199b19b2b4f47f68442619d555527d244f78a3297ea89325f843f87b8b5460d5808301919091528251808303909101815260f5909101909152805191012090565b60606124f084846000856124fa565b90505b9392505050565b60608247101561253b5760405162461bcd60e51b81526004018080602001828103825260268152602001806139526026913960400191505060405180910390fd5b61254485612655565b612595576040805162461bcd60e51b815260206004820152601d60248201527f416464726573733a2063616c6c20746f206e6f6e2d636f6e7472616374000000604482015290519081900360640190fd5b600080866001600160a01b031685876040518082805190602001908083835b602083106125d35780518252601f1990920191602091820191016125b4565b6001836020036101000a03801982511681845116808217855250505050505090500191505060006040518083038185875af1925050503d8060008114612635576040519150601f19603f3d011682016040523d82523d6000602084013e61263a565b606091505b509150915061264a82828661265b565b979650505050505050565b3b151590565b6060831561266a5750816124f3565b82511561267a5782518084602001fd5b8160405162461bcd60e51b81526004018080602001828103825283818151815260200191508051906020019080838360005b838110156126c45781810151838201526020016126ac565b50505050905090810190601f1680156126f15780820380516001836020036101000a031916815260200191505b509250505060405180910390fd5b80356122e581613919565b80516122e581613919565b60008083601f840112612726578182fd5b5081356001600160401b0381111561273c578182fd5b602083019150836020808302850101111561275657600080fd5b9250929050565b60008083601f84011261276e578182fd5b5081356001600160401b03811115612784578182fd5b60208301915083602082850101111561275657600080fd5b600082601f8301126127ac578081fd5b81356001600160401b038111156127bf57fe5b6127d2601f8201601f19166020016137ff565b8181528460208386010111156127e6578283fd5b816020850160208301379081016020019190915292915050565b8035600281106122e557600080fd5b80356122e581613931565b80516122e581613931565b80356122e581613942565b80516122e581613942565b60006020828403121561284c578081fd5b8135611c0f81613919565b600060208284031215612868578081fd5b8151611c0f81613919565b60008060008060608587031215612888578283fd5b843561289381613919565b93506020850135925060408501356001600160401b038111156128b4578283fd5b6128c08782880161275d565b95989497509550505050565b600080600080600080600080600060a08a8c0312156128e9578687fd5b89356001600160401b03808211156128ff578889fd5b61290b8d838e01612715565b909b50995060208c0135915080821115612923578889fd5b61292f8d838e01612715565b909950975060408c0135915080821115612947578687fd5b6129538d838e01612715565b909750955060608c0135915061296882613919565b90935060808b0135908082111561297d578384fd5b5061298a8c828d0161275d565b915080935050809150509295985092959850929598565b600060208083850312156129b3578182fd5b82516001600160401b038111156129c8578283fd5b8301601f810185136129d8578283fd5b80516129eb6129e682613822565b6137ff565b8181528381019083850185840285018601891015612a07578687fd5b8694505b83851015612a29578051835260019490940193918501918501612a0b565b50979650505050505050565b600080600080600080600060c0888a031215612a4f578081fd5b612a5888612800565b96506020880135612a6881613919565b9550604088013594506060880135935060808801356001600160401b03811115612a90578182fd5b612a9c8a828b0161275d565b90945092505060a0880135612ab081613919565b8091505092959891949750929550565b60006020808385031215612ad2578182fd5b82356001600160401b0380821115612ae8578384fd5b9084019060608287031215612afb578384fd5b60408051606081018181108482111715612b1157fe5b8252833583811115612b21578687fd5b8401601f81018913612b31578687fd5b8035612b3f6129e682613822565b8181528781019083890160c080850286018b018e1015612b5d578b8cfd5b8b95505b84861015612bf95780828f031215612b77578b8cfd5b87518181018181108b82111715612b8a57fe5b89528235612b9781613919565b8152612ba4838d016126ff565b8c820152612bb38984016126ff565b89820152612bc36060840161280f565b60608201526080838101359082015260a0612bdf818501612825565b90820152845260019590950194928a019290810190612b61565b5050845250612c0c9150508486016126ff565b85820152612c1b8285016126ff565b918101919091529695505050505050565b60006020808385031215612c3e578182fd5b82516001600160401b0380821115612c54578384fd5b9084019060608287031215612c67578384fd5b60408051606081018181108482111715612c7d57fe5b8252835183811115612c8d578687fd5b8401601f81018913612c9d578687fd5b8051612cab6129e682613822565b8181528781019083890160c080850286018b018e1015612cc9578b8cfd5b8b95505b84861015612d655780828f031215612ce3578b8cfd5b87518181018181108b82111715612cf657fe5b89528251612d0381613919565b8152612d10838d0161270a565b8c820152612d1f89840161270a565b89820152612d2f6060840161281a565b60608201526080838101519082015260a0612d4b818501612830565b90820152845260019590950194928a019290810190612ccd565b5050845250612d7891505084860161270a565b85820152612c1b82850161270a565b600060208284031215612d98578081fd5b81356001600160401b0380821115612dae578283fd5b8184019150610140808387031215612dc4578384fd5b612dcd816137ff565b9050612dd883612800565b81526020830135602082015260408301356040820152612dfa606084016126ff565b6060820152612e0b608084016126ff565b6080820152612e1c60a084016126ff565b60a0820152612e2d60c084016126ff565b60c0820152612e3e60e0840161280f565b60e08201526101008084013583811115612e56578586fd5b612e628882870161279c565b8284015250506101209150612e788284016126ff565b91810191909152949350505050565b600060e08284031215612e98578081fd5b60405160e081018181106001600160401b0382111715612eb457fe5b604052612ec08361270a565b8152612ece6020840161270a565b6020820152612edf6040840161270a565b6040820152612ef06060840161281a565b6060820152612f016080840161281a565b6080820152612f1260a0840161281a565b60a082015260c083015160c08201528091505092915050565b600060a08284031215612f3c578081fd5b60405160a081018181106001600160401b0382111715612f5857fe5b6040528251612f6681613919565b81526020830151612f7681613931565b60208201526040830151612f8981613931565b6040820152606083810151908201526080928301519281019290925250919050565b600060208284031215612fbc578081fd5b8151611c0f81613931565b600060208284031215612fd8578081fd5b5051919050565b60008060008060608587031215612ff4578182fd5b843593506020850135925060408501356001600160401b038111156128b4578283fd5b6001600160a01b03169052565b6000815180845260208085019450808401835b8381101561305c5781516001600160a01b031687529582019590820190600101613037565b509495945050505050565b6000815180845260208085019450808401835b8381101561305c5781518752958201959082019060010161307a565b600081518084526130ae81602086016020860161383f565b601f01601f19169290920160200192915050565b600281106130cc57fe5b9052565b62ffffff169052565b6000828483379101908152919050565b60006346533a5360e01b8252835161310881600485016020880161383f565b6229a31d60e91b600491840191820152835161312b81600784016020880161383f565b01600701949350505050565b60006346533a5360e01b8252825161315681600485016020870161383f565b6214d19360ea1b6004939091019283015250600701919050565b60006346533a5360e01b8252835161318f81600485016020880161383f565b61231d60f11b60049184019182015283516131b181600684016020880161383f565b01600601949350505050565b60006346533a5360e01b825282516131dc81600485016020870161383f565b61119360f21b6004939091019283015250600601919050565b60006446533a505360d81b8252825161321581600585016020870161383f565b602d60f91b6005939091019283015250600601919050565b6001600160a01b0391909116815260200190565b6001600160a01b0392831681529116602082015260400190565b600060018060a01b03808a16835260e0602084015261327d60e084018a613024565b838103604085015261328f818a613067565b905083810360608501526132a38189613067565b9050818716608085015283810360a08501526132bf8187613096565b9250505061ffff831660c083015298975050505050505050565b600060018060a01b0386168252846020830152836040830152608060608301526133066080830184613096565b9695505050505050565b901515815260200190565b6060810161332982866130c2565b602082019390935260400152919050565b6000602082526124f36020830184613096565b60208082526006908201526523299d212a2160d11b604082015260600190565b60208082526006908201526546533a4e574560d01b604082015260600190565b60208082526007908201526623299d2a29992d60c91b604082015260600190565b60208082526005908201526446533a4e4160d81b604082015260600190565b60208082526006908201526546533a415a4160d01b604082015260600190565b6020808252600690820152651194ce9550d560d21b604082015260600190565b6020808252601590820152741194ce9113d113d7d511535417d11254d050931151605a1b604082015260600190565b602080825260079082015266046533a505341360cc1b604082015260600190565b60208082526007908201526623299d2a2999ad60c91b604082015260600190565b6020808252600e908201526d46533a4944545f415050524f564560901b604082015260600190565b60208082526006908201526546533a43424160d01b604082015260600190565b60208082526006908201526523299d24a32960d11b604082015260600190565b6020808252600b908201526a46533a4944545f4558454360a81b604082015260600190565b60208082526005908201526446533a4e5760d81b604082015260600190565b60208082526005908201526446533a4d4160d81b604082015260600190565b60208082526006908201526546533a424e4160d01b604082015260600190565b60208082526006908201526546533a43425760d01b604082015260600190565b60208082526006908201526546533a414c4160d01b604082015260600190565b60208082526006908201526546533a54504160d01b604082015260600190565b60208082526007908201526623299d2a2998ad60c91b604082015260600190565b60208082526006908201526546533a49464960d01b604082015260600190565b60208082526006908201526523299d2998ad60d11b604082015260600190565b60208082526006908201526523299d29992d60d11b604082015260600190565b81516001600160a01b03908116825260208084015182169083015260408084015162ffffff16908301526060808401518216908301526080808401519083015260a0838101519083015260c0808401519083015260e09283015116918101919091526101000190565b6000602082526136c76020830184516130c2565b602083015160408301526040830151606083015260608301516136ed6080840182613017565b50608083015161370060a0840182613017565b5060a083015161371360c0840182613017565b5060c083015161372660e0840182613017565b5060e083015161010061373b818501836130d0565b80850151915050610140610120818186015261375b610160860184613096565b9086015190925061376e85830182613017565b5090949350505050565b90815260200190565b918252602082015260400190565b600086825285602083015260a060408301526137ae60a0830186613024565b6001600160a01b0394909416606083015250608001529392505050565b9283526020830191909152604082015260600190565b93845260ff9290921660208401526040830152606082015260800190565b6040518181016001600160401b038111828210171561381a57fe5b604052919050565b60006001600160401b0382111561383557fe5b5060209081020190565b60005b8381101561385a578181015183820152602001613842565b83811115613869576000848401525b50505050565b60e01c90565b600060443d101561388557610291565b600481823e6308c379a0613899825161386f565b146138a357610291565b6040513d600319016004823e80513d6001600160401b0381602484011181841117156138d25750505050610291565b828401925082519150808211156138ec5750505050610291565b503d8301602082840101111561390457505050610291565b601f01601f1916810160200160405291505090565b6001600160a01b038116811461392e57600080fd5b50565b62ffffff8116811461392e57600080fd5b60ff8116811461392e57600080fdfe416464726573733a20696e73756666696369656e742062616c616e636520666f722063616c6c5361666545524332303a204552433230206f7065726174696f6e20646964206e6f7420737563636565645361666545524332303a20617070726f76652066726f6d206e6f6e2d7a65726f20746f206e6f6e2d7a65726f20616c6c6f77616e6365a26469706673582212204d81e787f02415f15309cc1b8a54cd3f430eb82d1bf171804e7ce96f983a4c8b64736f6c63430007060033","opcodes":"PUSH2 0x140 PUSH1 0x40 MSTORE PUSH32 0x1F98431C8AD98523631AE4A59F267346EA31F984000000000000000000000000 PUSH1 0xE0 MSTORE CALLVALUE DUP1 ISZERO PUSH3 0x36 JUMPI PUSH1 0x0 DUP1 REVERT JUMPDEST POP PUSH1 0x40 MLOAD PUSH3 0x3D40 CODESIZE SUB DUP1 PUSH3 0x3D40 DUP4 CODECOPY DUP2 ADD PUSH1 0x40 DUP2 SWAP1 MSTORE PUSH3 0x59 SWAP2 PUSH3 0x15F JUMP JUMPDEST PUSH1 0x1 PUSH1 0x0 SSTORE PUSH1 0x1 PUSH1 0x1 PUSH1 0xA0 SHL SUB DUP5 AND PUSH3 0x90 JUMPI PUSH1 0x40 MLOAD PUSH3 0x461BCD PUSH1 0xE5 SHL DUP2 MSTORE PUSH1 0x4 ADD PUSH3 0x87 SWAP1 PUSH3 0x1DB JUMP JUMPDEST PUSH1 0x40 MLOAD DUP1 SWAP2 SUB SWAP1 REVERT JUMPDEST PUSH1 0x1 PUSH1 0x1 PUSH1 0xA0 SHL SUB DUP4 AND PUSH3 0xB9 JUMPI PUSH1 0x40 MLOAD PUSH3 0x461BCD PUSH1 0xE5 SHL DUP2 MSTORE PUSH1 0x4 ADD PUSH3 0x87 SWAP1 PUSH3 0x1BB JUMP JUMPDEST PUSH1 0x1 PUSH1 0x1 PUSH1 0xA0 SHL SUB DUP3 AND PUSH3 0xE2 JUMPI PUSH1 0x40 MLOAD PUSH3 0x461BCD PUSH1 0xE5 SHL DUP2 MSTORE PUSH1 0x4 ADD PUSH3 0x87 SWAP1 PUSH3 0x21C JUMP JUMPDEST PUSH1 0x1 PUSH1 0x1 PUSH1 0xA0 SHL SUB DUP2 AND PUSH3 0x10B JUMPI PUSH1 0x40 MLOAD PUSH3 0x461BCD PUSH1 0xE5 SHL DUP2 MSTORE PUSH1 0x4 ADD PUSH3 0x87 SWAP1 PUSH3 0x1FB JUMP JUMPDEST PUSH1 0x1 PUSH1 0x1 PUSH1 0x60 SHL SUB NOT PUSH1 0x60 SWAP5 DUP6 SHL DUP2 AND PUSH1 0x80 MSTORE SWAP3 DUP5 SHL DUP4 AND PUSH1 0xA0 MSTORE SWAP1 DUP4 SHL DUP3 AND PUSH2 0x100 MSTORE DUP3 SHL AND PUSH2 0x120 MSTORE CALLER SWAP1 SHL PUSH1 0xC0 MSTORE PUSH3 0x23C JUMP JUMPDEST DUP1 MLOAD PUSH1 0x1 PUSH1 0x1 PUSH1 0xA0 SHL SUB DUP2 AND DUP2 EQ PUSH3 0x15A JUMPI PUSH1 0x0 DUP1 REVERT JUMPDEST SWAP2 SWAP1 POP JUMP JUMPDEST PUSH1 0x0 DUP1 PUSH1 0x0 DUP1 PUSH1 0x80 DUP6 DUP8 SUB SLT ISZERO PUSH3 0x175 JUMPI DUP4 DUP5 REVERT JUMPDEST PUSH3 0x180 DUP6 PUSH3 0x142 JUMP JUMPDEST SWAP4 POP PUSH3 0x190 PUSH1 0x20 DUP7 ADD PUSH3 0x142 JUMP JUMPDEST SWAP3 POP PUSH3 0x1A0 PUSH1 0x40 DUP7 ADD PUSH3 0x142 JUMP JUMPDEST SWAP2 POP PUSH3 0x1B0 PUSH1 0x60 DUP7 ADD PUSH3 0x142 JUMP JUMPDEST SWAP1 POP SWAP3 SWAP6 SWAP2 SWAP5 POP SWAP3 POP JUMP JUMPDEST PUSH1 0x20 DUP1 DUP3 MSTORE PUSH1 0x6 SWAP1 DUP3 ADD MSTORE PUSH6 0x23299D24A9A9 PUSH1 0xD1 SHL PUSH1 0x40 DUP3 ADD MSTORE PUSH1 0x60 ADD SWAP1 JUMP JUMPDEST PUSH1 0x20 DUP1 DUP3 MSTORE PUSH1 0x6 SWAP1 DUP3 ADD MSTORE PUSH6 0x23299D24AAA9 PUSH1 0xD1 SHL PUSH1 0x40 DUP3 ADD MSTORE PUSH1 0x60 ADD SWAP1 JUMP JUMPDEST PUSH1 0x20 DUP1 DUP3 MSTORE PUSH1 0x7 SWAP1 DUP3 ADD MSTORE PUSH7 0x46533A4941415 PUSH1 0xCC SHL PUSH1 0x40 DUP3 ADD MSTORE PUSH1 0x60 ADD SWAP1 JUMP JUMPDEST PUSH1 0x20 DUP1 DUP3 MSTORE PUSH1 0x6 SWAP1 DUP3 ADD MSTORE PUSH6 0x46533A49415 PUSH1 0xD4 SHL PUSH1 0x40 DUP3 ADD MSTORE PUSH1 0x60 ADD SWAP1 JUMP JUMPDEST PUSH1 0x80 MLOAD PUSH1 0x60 SHR PUSH1 0xA0 MLOAD PUSH1 0x60 SHR PUSH1 0xC0 MLOAD PUSH1 0x60 SHR PUSH1 0xE0 MLOAD PUSH1 0x60 SHR PUSH2 0x100 MLOAD PUSH1 0x60 SHR PUSH2 0x120 MLOAD PUSH1 0x60 SHR PUSH2 0x3A0D PUSH3 0x333 PUSH1 0x0 CODECOPY DUP1 PUSH2 0x271 MSTORE DUP1 PUSH2 0x302 MSTORE POP DUP1 PUSH2 0x296 MSTORE DUP1 PUSH2 0x526 MSTORE DUP1 PUSH2 0x766 MSTORE DUP1 PUSH2 0x975 MSTORE DUP1 PUSH2 0xBEA MSTORE POP DUP1 PUSH2 0x2BA MSTORE DUP1 PUSH2 0x1280 MSTORE POP DUP1 PUSH2 0x32F MSTORE DUP1 PUSH2 0x361 MSTORE DUP1 PUSH2 0x5B0 MSTORE DUP1 PUSH2 0x5E2 MSTORE DUP1 PUSH2 0x6D0 MSTORE DUP1 PUSH2 0x6F7 MSTORE DUP1 PUSH2 0x793 MSTORE DUP1 PUSH2 0x7C5 MSTORE DUP1 PUSH2 0x82E MSTORE DUP1 PUSH2 0x87A MSTORE DUP1 PUSH2 0x8E9 MSTORE DUP1 PUSH2 0xD46 MSTORE DUP1 PUSH2 0xD6D MSTORE DUP1 PUSH2 0xE04 MSTORE DUP1 PUSH2 0xE36 MSTORE DUP1 PUSH2 0x1624 MSTORE DUP1 PUSH2 0x164B MSTORE POP DUP1 PUSH2 0x2DE MSTORE DUP1 PUSH2 0x1851 MSTORE DUP1 PUSH2 0x1987 MSTORE POP DUP1 PUSH2 0x1175 MSTORE DUP1 PUSH2 0x181A MSTORE DUP1 PUSH2 0x1D94 MSTORE DUP1 PUSH2 0x1DFF MSTORE DUP1 PUSH2 0x1E6E MSTORE DUP1 PUSH2 0x1EF9 MSTORE DUP1 PUSH2 0x1F65 MSTORE DUP1 PUSH2 0x20DF MSTORE POP PUSH2 0x3A0D PUSH1 0x0 RETURN INVALID PUSH1 0x80 PUSH1 0x40 MSTORE PUSH1 0x4 CALLDATASIZE LT PUSH2 0xE1 JUMPI PUSH1 0x0 CALLDATALOAD PUSH1 0xE0 SHR DUP1 PUSH4 0x7535D246 GT PUSH2 0x7F JUMPI DUP1 PUSH4 0x920F5C84 GT PUSH2 0x59 JUMPI DUP1 PUSH4 0x920F5C84 EQ PUSH2 0x1ED JUMPI DUP1 PUSH4 0x984C9B22 EQ PUSH2 0x21A JUMPI DUP1 PUSH4 0xC6005893 EQ PUSH2 0x23A JUMPI DUP1 PUSH4 0xE9CBAFB0 EQ PUSH2 0x24F JUMPI PUSH2 0xE8 JUMP JUMPDEST DUP1 PUSH4 0x7535D246 EQ PUSH2 0x1AE JUMPI DUP1 PUSH4 0x84536017 EQ PUSH2 0x1C3 JUMPI DUP1 PUSH4 0x8DA5CB5B EQ PUSH2 0x1D8 JUMPI PUSH2 0xE8 JUMP JUMPDEST DUP1 PUSH4 0xC24F4FA GT PUSH2 0xBB JUMPI DUP1 PUSH4 0xC24F4FA EQ PUSH2 0x142 JUMPI DUP1 PUSH4 0x11B2E10E EQ PUSH2 0x157 JUMPI DUP1 PUSH4 0x52530F86 EQ PUSH2 0x16C JUMPI DUP1 PUSH4 0x6FF1C9BC EQ PUSH2 0x18E JUMPI PUSH2 0xE8 JUMP JUMPDEST DUP1 PUSH4 0x542975C EQ PUSH2 0xED JUMPI DUP1 PUSH4 0x8A01675 EQ PUSH2 0x118 JUMPI DUP1 PUSH4 0x8BD1A85 EQ PUSH2 0x12D JUMPI PUSH2 0xE8 JUMP JUMPDEST CALLDATASIZE PUSH2 0xE8 JUMPI STOP JUMPDEST PUSH1 0x0 DUP1 REVERT JUMPDEST CALLVALUE DUP1 ISZERO PUSH2 0xF9 JUMPI PUSH1 0x0 DUP1 REVERT JUMPDEST POP PUSH2 0x102 PUSH2 0x26F JUMP JUMPDEST PUSH1 0x40 MLOAD PUSH2 0x10F SWAP2 SWAP1 PUSH2 0x322D JUMP JUMPDEST PUSH1 0x40 MLOAD DUP1 SWAP2 SUB SWAP1 RETURN JUMPDEST CALLVALUE DUP1 ISZERO PUSH2 0x124 JUMPI PUSH1 0x0 DUP1 REVERT JUMPDEST POP PUSH2 0x102 PUSH2 0x294 JUMP JUMPDEST CALLVALUE DUP1 ISZERO PUSH2 0x139 JUMPI PUSH1 0x0 DUP1 REVERT JUMPDEST POP PUSH2 0x102 PUSH2 0x2B8 JUMP JUMPDEST CALLVALUE DUP1 ISZERO PUSH2 0x14E JUMPI PUSH1 0x0 DUP1 REVERT JUMPDEST POP PUSH2 0x102 PUSH2 0x2DC JUMP JUMPDEST CALLVALUE DUP1 ISZERO PUSH2 0x163 JUMPI PUSH1 0x0 DUP1 REVERT JUMPDEST POP PUSH2 0x102 PUSH2 0x300 JUMP JUMPDEST CALLVALUE DUP1 ISZERO PUSH2 0x178 JUMPI PUSH1 0x0 DUP1 REVERT JUMPDEST POP PUSH2 0x18C PUSH2 0x187 CALLDATASIZE PUSH1 0x4 PUSH2 0x2873 JUMP JUMPDEST PUSH2 0x324 JUMP JUMPDEST STOP JUMPDEST CALLVALUE DUP1 ISZERO PUSH2 0x19A JUMPI PUSH1 0x0 DUP1 REVERT JUMPDEST POP PUSH2 0x18C PUSH2 0x1A9 CALLDATASIZE PUSH1 0x4 PUSH2 0x283B JUMP JUMPDEST PUSH2 0x5A5 JUMP JUMPDEST CALLVALUE DUP1 ISZERO PUSH2 0x1BA JUMPI PUSH1 0x0 DUP1 REVERT JUMPDEST POP PUSH2 0x102 PUSH2 0x764 JUMP JUMPDEST CALLVALUE DUP1 ISZERO PUSH2 0x1CF JUMPI PUSH1 0x0 DUP1 REVERT JUMPDEST POP PUSH2 0x18C PUSH2 0x788 JUMP JUMPDEST CALLVALUE DUP1 ISZERO PUSH2 0x1E4 JUMPI PUSH1 0x0 DUP1 REVERT JUMPDEST POP PUSH2 0x102 PUSH2 0x8E7 JUMP JUMPDEST CALLVALUE DUP1 ISZERO PUSH2 0x1F9 JUMPI PUSH1 0x0 DUP1 REVERT JUMPDEST POP PUSH2 0x20D PUSH2 0x208 CALLDATASIZE PUSH1 0x4 PUSH2 0x28CC JUMP JUMPDEST PUSH2 0x90B JUMP JUMPDEST PUSH1 0x40 MLOAD PUSH2 0x10F SWAP2 SWAP1 PUSH2 0x3310 JUMP JUMPDEST CALLVALUE DUP1 ISZERO PUSH2 0x226 JUMPI PUSH1 0x0 DUP1 REVERT JUMPDEST POP PUSH2 0x18C PUSH2 0x235 CALLDATASIZE PUSH1 0x4 PUSH2 0x2A35 JUMP JUMPDEST PUSH2 0xDF9 JUMP JUMPDEST CALLVALUE DUP1 ISZERO PUSH2 0x246 JUMPI PUSH1 0x0 DUP1 REVERT JUMPDEST POP PUSH2 0x102 PUSH2 0x1173 JUMP JUMPDEST CALLVALUE DUP1 ISZERO PUSH2 0x25B JUMPI PUSH1 0x0 DUP1 REVERT JUMPDEST POP PUSH2 0x18C PUSH2 0x26A CALLDATASIZE PUSH1 0x4 PUSH2 0x2FDF JUMP JUMPDEST PUSH2 0x1197 JUMP JUMPDEST PUSH32 0x0 JUMPDEST SWAP1 JUMP JUMPDEST PUSH32 0x0 DUP2 JUMP JUMPDEST PUSH32 0x0 DUP2 JUMP JUMPDEST PUSH32 0x0 DUP2 JUMP JUMPDEST PUSH32 0x0 DUP2 JUMP JUMPDEST CALLER PUSH1 0x1 PUSH1 0x1 PUSH1 0xA0 SHL SUB PUSH32 0x0 AND EQ DUP1 PUSH2 0x383 JUMPI POP ORIGIN PUSH1 0x1 PUSH1 0x1 PUSH1 0xA0 SHL SUB PUSH32 0x0 AND EQ JUMPDEST PUSH2 0x3A8 JUMPI PUSH1 0x40 MLOAD PUSH3 0x461BCD PUSH1 0xE5 SHL DUP2 MSTORE PUSH1 0x4 ADD PUSH2 0x39F SWAP1 PUSH2 0x33AE JUMP JUMPDEST PUSH1 0x40 MLOAD DUP1 SWAP2 SUB SWAP1 REVERT JUMPDEST PUSH1 0x40 DUP1 MLOAD PUSH1 0x1 DUP1 DUP3 MSTORE DUP2 DUP4 ADD SWAP1 SWAP3 MSTORE PUSH1 0x0 SWAP2 PUSH1 0x20 DUP1 DUP4 ADD SWAP1 DUP1 CALLDATASIZE DUP4 CALLDATACOPY ADD SWAP1 POP POP SWAP1 POP DUP5 DUP2 PUSH1 0x0 DUP2 MLOAD DUP2 LT PUSH2 0x3D8 JUMPI INVALID JUMPDEST PUSH1 0x1 PUSH1 0x1 PUSH1 0xA0 SHL SUB SWAP3 SWAP1 SWAP3 AND PUSH1 0x20 SWAP3 DUP4 MUL SWAP2 SWAP1 SWAP2 ADD SWAP1 SWAP2 ADD MSTORE PUSH1 0x40 DUP1 MLOAD PUSH1 0x1 DUP1 DUP3 MSTORE DUP2 DUP4 ADD SWAP1 SWAP3 MSTORE PUSH1 0x0 SWAP2 DUP2 PUSH1 0x20 ADD PUSH1 0x20 DUP3 MUL DUP1 CALLDATASIZE DUP4 CALLDATACOPY ADD SWAP1 POP POP SWAP1 POP DUP5 DUP2 PUSH1 0x0 DUP2 MLOAD DUP2 LT PUSH2 0x423 JUMPI INVALID JUMPDEST PUSH1 0x20 SWAP1 DUP2 MUL SWAP2 SWAP1 SWAP2 ADD ADD MSTORE PUSH1 0x40 DUP1 MLOAD PUSH1 0x1 DUP1 DUP3 MSTORE DUP2 DUP4 ADD SWAP1 SWAP3 MSTORE PUSH1 0x0 SWAP2 DUP2 PUSH1 0x20 ADD PUSH1 0x20 DUP3 MUL DUP1 CALLDATASIZE DUP4 CALLDATACOPY ADD SWAP1 POP POP SWAP1 POP PUSH1 0x0 DUP2 PUSH1 0x0 DUP2 MLOAD DUP2 LT PUSH2 0x461 JUMPI INVALID JUMPDEST PUSH1 0x20 MUL PUSH1 0x20 ADD ADD DUP2 DUP2 MSTORE POP POP PUSH1 0x0 DUP6 DUP6 DUP1 DUP1 PUSH1 0x1F ADD PUSH1 0x20 DUP1 SWAP2 DIV MUL PUSH1 0x20 ADD PUSH1 0x40 MLOAD SWAP1 DUP2 ADD PUSH1 0x40 MSTORE DUP1 SWAP4 SWAP3 SWAP2 SWAP1 DUP2 DUP2 MSTORE PUSH1 0x20 ADD DUP4 DUP4 DUP1 DUP3 DUP5 CALLDATACOPY PUSH1 0x0 SWAP3 ADD DUP3 SWAP1 MSTORE POP DUP5 MLOAD SWAP5 SWAP6 POP SWAP4 PUSH2 0x4BE SWAP4 POP DUP6 ADD PUSH1 0x20 SWAP1 DUP2 ADD SWAP3 POP DUP6 ADD SWAP1 POP PUSH2 0x2C2C JUMP JUMPDEST SWAP1 POP DUP9 PUSH1 0x1 PUSH1 0x1 PUSH1 0xA0 SHL SUB AND DUP2 PUSH1 0x20 ADD MLOAD PUSH1 0x1 PUSH1 0x1 PUSH1 0xA0 SHL SUB AND PUSH32 0x982EE83A4F94146B0AA8D4266773327071682A730AEF8F249832A7C58DF3B064 DUP11 PUSH1 0x40 MLOAD PUSH2 0x507 SWAP2 SWAP1 PUSH2 0x3778 JUMP JUMPDEST PUSH1 0x40 MLOAD DUP1 SWAP2 SUB SWAP1 LOG3 PUSH1 0x40 MLOAD PUSH4 0xAB9C4B5D PUSH1 0xE0 SHL DUP2 MSTORE PUSH1 0x1 PUSH1 0x1 PUSH1 0xA0 SHL SUB PUSH32 0x0 AND SWAP1 PUSH4 0xAB9C4B5D SWAP1 PUSH2 0x568 SWAP1 ADDRESS SWAP1 DUP10 SWAP1 DUP10 SWAP1 DUP10 SWAP1 DUP5 SWAP1 DUP11 SWAP1 PUSH1 0x0 SWAP1 PUSH1 0x4 ADD PUSH2 0x325B JUMP JUMPDEST PUSH1 0x0 PUSH1 0x40 MLOAD DUP1 DUP4 SUB DUP2 PUSH1 0x0 DUP8 DUP1 EXTCODESIZE ISZERO DUP1 ISZERO PUSH2 0x582 JUMPI PUSH1 0x0 DUP1 REVERT JUMPDEST POP GAS CALL ISZERO DUP1 ISZERO PUSH2 0x596 JUMPI RETURNDATASIZE PUSH1 0x0 DUP1 RETURNDATACOPY RETURNDATASIZE PUSH1 0x0 REVERT JUMPDEST POP POP POP POP POP POP POP POP POP POP POP POP POP JUMP JUMPDEST CALLER PUSH1 0x1 PUSH1 0x1 PUSH1 0xA0 SHL SUB PUSH32 0x0 AND EQ DUP1 PUSH2 0x604 JUMPI POP ORIGIN PUSH1 0x1 PUSH1 0x1 PUSH1 0xA0 SHL SUB PUSH32 0x0 AND EQ JUMPDEST PUSH2 0x620 JUMPI PUSH1 0x40 MLOAD PUSH3 0x461BCD PUSH1 0xE5 SHL DUP2 MSTORE PUSH1 0x4 ADD PUSH2 0x39F SWAP1 PUSH2 0x33AE JUMP JUMPDEST PUSH1 0x40 MLOAD PUSH4 0x70A08231 PUSH1 0xE0 SHL DUP2 MSTORE PUSH1 0x0 SWAP1 PUSH1 0x1 PUSH1 0x1 PUSH1 0xA0 SHL SUB DUP4 AND SWAP1 PUSH4 0x70A08231 SWAP1 PUSH2 0x64F SWAP1 ADDRESS SWAP1 PUSH1 0x4 ADD PUSH2 0x322D JUMP JUMPDEST PUSH1 0x20 PUSH1 0x40 MLOAD DUP1 DUP4 SUB DUP2 DUP7 DUP1 EXTCODESIZE ISZERO DUP1 ISZERO PUSH2 0x667 JUMPI PUSH1 0x0 DUP1 REVERT JUMPDEST POP GAS STATICCALL ISZERO DUP1 ISZERO PUSH2 0x67B JUMPI RETURNDATASIZE PUSH1 0x0 DUP1 RETURNDATACOPY RETURNDATASIZE PUSH1 0x0 REVERT JUMPDEST POP POP POP POP PUSH1 0x40 MLOAD RETURNDATASIZE PUSH1 0x1F NOT PUSH1 0x1F DUP3 ADD AND DUP3 ADD DUP1 PUSH1 0x40 MSTORE POP DUP2 ADD SWAP1 PUSH2 0x69F SWAP2 SWAP1 PUSH2 0x2FC7 JUMP JUMPDEST SWAP1 POP PUSH1 0x0 DUP2 GT PUSH2 0x6C1 JUMPI PUSH1 0x40 MLOAD PUSH3 0x461BCD PUSH1 0xE5 SHL DUP2 MSTORE PUSH1 0x4 ADD PUSH2 0x39F SWAP1 PUSH2 0x350B JUMP JUMPDEST PUSH2 0x6F5 PUSH1 0x1 PUSH1 0x1 PUSH1 0xA0 SHL SUB DUP4 AND PUSH32 0x0 DUP4 PUSH2 0x16CD JUMP JUMPDEST PUSH32 0x0 PUSH1 0x1 PUSH1 0x1 PUSH1 0xA0 SHL SUB AND DUP3 PUSH1 0x1 PUSH1 0x1 PUSH1 0xA0 SHL SUB AND PUSH32 0x9495D03190A79A43E534C9E328FF322F6283261383F5F19C809564F6AD5A57B3 DUP4 PUSH1 0x40 MLOAD PUSH2 0x758 SWAP2 SWAP1 PUSH2 0x3778 JUMP JUMPDEST PUSH1 0x40 MLOAD DUP1 SWAP2 SUB SWAP1 LOG3 POP POP JUMP JUMPDEST PUSH32 0x0 SWAP1 JUMP JUMPDEST CALLER PUSH1 0x1 PUSH1 0x1 PUSH1 0xA0 SHL SUB PUSH32 0x0 AND EQ DUP1 PUSH2 0x7E7 JUMPI POP ORIGIN PUSH1 0x1 PUSH1 0x1 PUSH1 0xA0 SHL SUB PUSH32 0x0 AND EQ JUMPDEST PUSH2 0x803 JUMPI PUSH1 0x40 MLOAD PUSH3 0x461BCD PUSH1 0xE5 SHL DUP2 MSTORE PUSH1 0x4 ADD PUSH2 0x39F SWAP1 PUSH2 0x33AE JUMP JUMPDEST SELFBALANCE DUP1 PUSH2 0x821 JUMPI PUSH1 0x40 MLOAD PUSH3 0x461BCD PUSH1 0xE5 SHL DUP2 MSTORE PUSH1 0x4 ADD PUSH2 0x39F SWAP1 PUSH2 0x336D JUMP JUMPDEST PUSH1 0x40 MLOAD PUSH1 0x1 PUSH1 0x1 PUSH1 0xA0 SHL SUB PUSH32 0x0 AND SWAP1 DUP3 ISZERO PUSH2 0x8FC MUL SWAP1 DUP4 SWAP1 PUSH1 0x0 DUP2 DUP2 DUP2 DUP6 DUP9 DUP9 CALL SWAP4 POP POP POP POP ISZERO DUP1 ISZERO PUSH2 0x877 JUMPI RETURNDATASIZE PUSH1 0x0 DUP1 RETURNDATACOPY RETURNDATASIZE PUSH1 0x0 REVERT JUMPDEST POP PUSH32 0x0 PUSH1 0x1 PUSH1 0x1 PUSH1 0xA0 SHL SUB AND PUSH1 0x0 PUSH1 0x1 PUSH1 0x1 PUSH1 0xA0 SHL SUB AND PUSH32 0x9495D03190A79A43E534C9E328FF322F6283261383F5F19C809564F6AD5A57B3 DUP4 PUSH1 0x40 MLOAD PUSH2 0x8DC SWAP2 SWAP1 PUSH2 0x3778 JUMP JUMPDEST PUSH1 0x40 MLOAD DUP1 SWAP2 SUB SWAP1 LOG3 POP JUMP JUMPDEST PUSH32 0x0 DUP2 JUMP JUMPDEST PUSH1 0x0 PUSH1 0x2 PUSH1 0x0 SLOAD EQ ISZERO PUSH2 0x965 JUMPI PUSH1 0x40 DUP1 MLOAD PUSH3 0x461BCD PUSH1 0xE5 SHL DUP2 MSTORE PUSH1 0x20 PUSH1 0x4 DUP3 ADD MSTORE PUSH1 0x1F PUSH1 0x24 DUP3 ADD MSTORE PUSH32 0x5265656E7472616E637947756172643A207265656E7472616E742063616C6C00 PUSH1 0x44 DUP3 ADD MSTORE SWAP1 MLOAD SWAP1 DUP2 SWAP1 SUB PUSH1 0x64 ADD SWAP1 REVERT JUMPDEST PUSH1 0x2 PUSH1 0x0 SSTORE CALLER PUSH1 0x1 PUSH1 0x1 PUSH1 0xA0 SHL SUB PUSH32 0x0 AND EQ PUSH2 0x9B2 JUMPI PUSH1 0x40 MLOAD PUSH3 0x461BCD PUSH1 0xE5 SHL DUP2 MSTORE PUSH1 0x4 ADD PUSH2 0x39F SWAP1 PUSH2 0x34A6 JUMP JUMPDEST PUSH1 0x1 PUSH1 0x1 PUSH1 0xA0 SHL SUB DUP5 AND ADDRESS EQ PUSH2 0x9DA JUMPI PUSH1 0x40 MLOAD PUSH3 0x461BCD PUSH1 0xE5 SHL DUP2 MSTORE PUSH1 0x4 ADD PUSH2 0x39F SWAP1 PUSH2 0x35EA JUMP JUMPDEST PUSH1 0x1 DUP10 EQ PUSH2 0x9FA JUMPI PUSH1 0x40 MLOAD PUSH3 0x461BCD PUSH1 0xE5 SHL DUP2 MSTORE PUSH1 0x4 ADD PUSH2 0x39F SWAP1 PUSH2 0x352A JUMP JUMPDEST DUP9 DUP8 EQ DUP1 ISZERO PUSH2 0xA08 JUMPI POP DUP7 DUP6 EQ JUMPDEST PUSH2 0xA24 JUMPI PUSH1 0x40 MLOAD PUSH3 0x461BCD PUSH1 0xE5 SHL DUP2 MSTORE PUSH1 0x4 ADD PUSH2 0x39F SWAP1 PUSH2 0x3589 JUMP JUMPDEST PUSH1 0x0 PUSH2 0xA32 DUP4 DUP6 ADD DUP6 PUSH2 0x2AC0 JUMP JUMPDEST SWAP1 POP PUSH1 0x0 DUP12 DUP12 PUSH1 0x0 DUP2 DUP2 LT PUSH2 0xA43 JUMPI INVALID JUMPDEST SWAP1 POP PUSH1 0x20 MUL ADD PUSH1 0x20 DUP2 ADD SWAP1 PUSH2 0xA58 SWAP2 SWAP1 PUSH2 0x283B JUMP JUMPDEST SWAP1 POP PUSH1 0x0 DUP11 DUP11 PUSH1 0x0 DUP2 DUP2 LT PUSH2 0xA69 JUMPI INVALID JUMPDEST SWAP1 POP PUSH1 0x20 MUL ADD CALLDATALOAD SWAP1 POP PUSH1 0x0 DUP10 DUP10 PUSH1 0x0 DUP2 DUP2 LT PUSH2 0xA81 JUMPI INVALID JUMPDEST SWAP1 POP PUSH1 0x20 MUL ADD CALLDATALOAD SWAP1 POP DUP3 PUSH1 0x1 PUSH1 0x1 PUSH1 0xA0 SHL SUB AND PUSH32 0x590E310148E41F756DCED96DC1B424986C6699EE980CF932434ABCAF26C0474C DUP4 DUP4 PUSH1 0x40 MLOAD PUSH2 0xAC5 SWAP3 SWAP2 SWAP1 PUSH2 0x3781 JUMP JUMPDEST PUSH1 0x40 MLOAD DUP1 SWAP2 SUB SWAP1 LOG2 PUSH1 0x0 PUSH2 0xADC DUP6 PUSH1 0x0 ADD MLOAD PUSH2 0x1724 JUMP JUMPDEST SWAP1 POP PUSH1 0x0 DUP2 GT PUSH2 0xAFE JUMPI PUSH1 0x40 MLOAD PUSH3 0x461BCD PUSH1 0xE5 SHL DUP2 MSTORE PUSH1 0x4 ADD PUSH2 0x39F SWAP1 PUSH2 0x33CD JUMP JUMPDEST PUSH1 0x0 PUSH2 0xB0A DUP5 DUP5 PUSH2 0x1BB5 JUMP JUMPDEST SWAP1 POP PUSH1 0x0 DUP6 PUSH1 0x1 PUSH1 0x1 PUSH1 0xA0 SHL SUB AND PUSH4 0x70A08231 ADDRESS PUSH1 0x40 MLOAD DUP3 PUSH4 0xFFFFFFFF AND PUSH1 0xE0 SHL DUP2 MSTORE PUSH1 0x4 ADD PUSH2 0xB3A SWAP2 SWAP1 PUSH2 0x322D JUMP JUMPDEST PUSH1 0x20 PUSH1 0x40 MLOAD DUP1 DUP4 SUB DUP2 DUP7 DUP1 EXTCODESIZE ISZERO DUP1 ISZERO PUSH2 0xB52 JUMPI PUSH1 0x0 DUP1 REVERT JUMPDEST POP GAS STATICCALL ISZERO DUP1 ISZERO PUSH2 0xB66 JUMPI RETURNDATASIZE PUSH1 0x0 DUP1 RETURNDATACOPY RETURNDATASIZE PUSH1 0x0 REVERT JUMPDEST POP POP POP POP PUSH1 0x40 MLOAD RETURNDATASIZE PUSH1 0x1F NOT PUSH1 0x1F DUP3 ADD AND DUP3 ADD DUP1 PUSH1 0x40 MSTORE POP DUP2 ADD SWAP1 PUSH2 0xB8A SWAP2 SWAP1 PUSH2 0x2FC7 JUMP JUMPDEST SWAP1 POP DUP2 DUP2 LT ISZERO PUSH2 0xBAC JUMPI PUSH1 0x40 MLOAD PUSH3 0x461BCD PUSH1 0xE5 SHL DUP2 MSTORE PUSH1 0x4 ADD PUSH2 0x39F SWAP1 PUSH2 0x34C6 JUMP JUMPDEST PUSH1 0x0 DUP6 DUP3 GT PUSH2 0xBBC JUMPI PUSH1 0x0 PUSH2 0xBC6 JUMP JUMPDEST PUSH2 0xBC6 DUP3 DUP8 PUSH2 0x1C18 JUMP JUMPDEST SWAP1 POP PUSH1 0x0 DUP4 DUP4 GT PUSH2 0xBD8 JUMPI PUSH1 0x0 PUSH2 0xBE2 JUMP JUMPDEST PUSH2 0xBE2 DUP4 DUP6 PUSH2 0x1C18 JUMP JUMPDEST SWAP1 POP PUSH2 0xC0F DUP9 PUSH32 0x0 DUP7 PUSH2 0x1C75 JUMP JUMPDEST DUP8 PUSH1 0x1 PUSH1 0x1 PUSH1 0xA0 SHL SUB AND PUSH32 0x225E94D7746FDB574AA7D9B5F49A354DF34409388D4F4A2799FE421A1B5F55F2 DUP6 PUSH1 0x40 MLOAD PUSH2 0xC48 SWAP2 SWAP1 PUSH2 0x3778 JUMP JUMPDEST PUSH1 0x40 MLOAD DUP1 SWAP2 SUB SWAP1 LOG2 PUSH1 0x0 DUP13 DUP13 PUSH1 0x40 MLOAD PUSH2 0xC62 SWAP3 SWAP2 SWAP1 PUSH2 0x30D9 JUMP JUMPDEST PUSH1 0x40 MLOAD DUP1 SWAP2 SUB SWAP1 KECCAK256 SWAP1 POP DUP9 PUSH1 0x1 PUSH1 0x1 PUSH1 0xA0 SHL SUB AND DUP2 PUSH32 0xC5481F3321B7A079DB973B4283B2A79103C76EF1FAF1A6BBA6A9EE7899ED8E49 DUP6 DUP11 DUP7 PUSH1 0x40 MLOAD PUSH2 0xCAA SWAP4 SWAP3 SWAP2 SWAP1 PUSH2 0x37CB JUMP JUMPDEST PUSH1 0x40 MLOAD DUP1 SWAP2 SUB SWAP1 LOG3 DUP2 ISZERO PUSH2 0xDD9 JUMPI PUSH1 0x64 PUSH1 0x1E DUP4 MUL DIV PUSH1 0x0 PUSH2 0xCCB DUP5 DUP4 PUSH2 0x1C18 JUMP JUMPDEST PUSH1 0x40 DUP14 ADD MLOAD SWAP1 SWAP2 POP PUSH2 0xCE8 SWAP1 PUSH1 0x1 PUSH1 0x1 PUSH1 0xA0 SHL SUB DUP14 AND SWAP1 DUP5 PUSH2 0x16CD JUMP JUMPDEST DUP12 PUSH1 0x40 ADD MLOAD PUSH1 0x1 PUSH1 0x1 PUSH1 0xA0 SHL SUB AND DUP12 PUSH1 0x1 PUSH1 0x1 PUSH1 0xA0 SHL SUB AND PUSH32 0xE2CE04DC1B96E2770411C943F97F69B902518CF2125ABF6DA8C33F96C663B579 DUP5 PUSH1 0x40 MLOAD PUSH2 0xD2F SWAP2 SWAP1 PUSH2 0x3778 JUMP JUMPDEST PUSH1 0x40 MLOAD DUP1 SWAP2 SUB SWAP1 LOG3 PUSH2 0xD6B PUSH1 0x1 PUSH1 0x1 PUSH1 0xA0 SHL SUB DUP13 AND PUSH32 0x0 DUP4 PUSH2 0x16CD JUMP JUMPDEST PUSH32 0x0 PUSH1 0x1 PUSH1 0x1 PUSH1 0xA0 SHL SUB AND DUP12 PUSH1 0x1 PUSH1 0x1 PUSH1 0xA0 SHL SUB AND PUSH32 0xF8C1AB10239F6F37A13F2905C9B042C4C7FF13BCBF485C543D2A9ECBC5C18AFA DUP4 PUSH1 0x40 MLOAD PUSH2 0xDCE SWAP2 SWAP1 PUSH2 0x3778 JUMP JUMPDEST PUSH1 0x40 MLOAD DUP1 SWAP2 SUB SWAP1 LOG3 POP POP JUMPDEST PUSH1 0x1 SWAP11 POP POP POP POP POP POP POP POP POP POP POP PUSH1 0x1 PUSH1 0x0 SSTORE SWAP10 SWAP9 POP POP POP POP POP POP POP POP POP JUMP JUMPDEST CALLER PUSH1 0x1 PUSH1 0x1 PUSH1 0xA0 SHL SUB PUSH32 0x0 AND EQ DUP1 PUSH2 0xE58 JUMPI POP ORIGIN PUSH1 0x1 PUSH1 0x1 PUSH1 0xA0 SHL SUB PUSH32 0x0 AND EQ JUMPDEST PUSH2 0xE74 JUMPI PUSH1 0x40 MLOAD PUSH3 0x461BCD PUSH1 0xE5 SHL DUP2 MSTORE PUSH1 0x4 ADD PUSH2 0x39F SWAP1 PUSH2 0x33AE JUMP JUMPDEST PUSH1 0x0 DUP7 SWAP1 POP PUSH1 0x0 DUP2 PUSH1 0x1 PUSH1 0x1 PUSH1 0xA0 SHL SUB AND PUSH4 0xDFE1681 PUSH1 0x40 MLOAD DUP2 PUSH4 0xFFFFFFFF AND PUSH1 0xE0 SHL DUP2 MSTORE PUSH1 0x4 ADD PUSH1 0x20 PUSH1 0x40 MLOAD DUP1 DUP4 SUB DUP2 DUP7 DUP1 EXTCODESIZE ISZERO DUP1 ISZERO PUSH2 0xEB4 JUMPI PUSH1 0x0 DUP1 REVERT JUMPDEST POP GAS STATICCALL ISZERO DUP1 ISZERO PUSH2 0xEC8 JUMPI RETURNDATASIZE PUSH1 0x0 DUP1 RETURNDATACOPY RETURNDATASIZE PUSH1 0x0 REVERT JUMPDEST POP POP POP POP PUSH1 0x40 MLOAD RETURNDATASIZE PUSH1 0x1F NOT PUSH1 0x1F DUP3 ADD AND DUP3 ADD DUP1 PUSH1 0x40 MSTORE POP DUP2 ADD SWAP1 PUSH2 0xEEC SWAP2 SWAP1 PUSH2 0x2857 JUMP JUMPDEST SWAP1 POP PUSH1 0x0 DUP3 PUSH1 0x1 PUSH1 0x1 PUSH1 0xA0 SHL SUB AND PUSH4 0xD21220A7 PUSH1 0x40 MLOAD DUP2 PUSH4 0xFFFFFFFF AND PUSH1 0xE0 SHL DUP2 MSTORE PUSH1 0x4 ADD PUSH1 0x20 PUSH1 0x40 MLOAD DUP1 DUP4 SUB DUP2 DUP7 DUP1 EXTCODESIZE ISZERO DUP1 ISZERO PUSH2 0xF29 JUMPI PUSH1 0x0 DUP1 REVERT JUMPDEST POP GAS STATICCALL ISZERO DUP1 ISZERO PUSH2 0xF3D JUMPI RETURNDATASIZE PUSH1 0x0 DUP1 RETURNDATACOPY RETURNDATASIZE PUSH1 0x0 REVERT JUMPDEST POP POP POP POP PUSH1 0x40 MLOAD RETURNDATASIZE PUSH1 0x1F NOT PUSH1 0x1F DUP3 ADD AND DUP3 ADD DUP1 PUSH1 0x40 MSTORE POP DUP2 ADD SWAP1 PUSH2 0xF61 SWAP2 SWAP1 PUSH2 0x2857 JUMP JUMPDEST SWAP1 POP PUSH1 0x0 DUP4 PUSH1 0x1 PUSH1 0x1 PUSH1 0xA0 SHL SUB AND PUSH4 0xDDCA3F43 PUSH1 0x40 MLOAD DUP2 PUSH4 0xFFFFFFFF AND PUSH1 0xE0 SHL DUP2 MSTORE PUSH1 0x4 ADD PUSH1 0x20 PUSH1 0x40 MLOAD DUP1 DUP4 SUB DUP2 DUP7 DUP1 EXTCODESIZE ISZERO DUP1 ISZERO PUSH2 0xF9E JUMPI PUSH1 0x0 DUP1 REVERT JUMPDEST POP GAS STATICCALL ISZERO DUP1 ISZERO PUSH2 0xFB2 JUMPI RETURNDATASIZE PUSH1 0x0 DUP1 RETURNDATACOPY RETURNDATASIZE PUSH1 0x0 REVERT JUMPDEST POP POP POP POP PUSH1 0x40 MLOAD RETURNDATASIZE PUSH1 0x1F NOT PUSH1 0x1F DUP3 ADD AND DUP3 ADD DUP1 PUSH1 0x40 MSTORE POP DUP2 ADD SWAP1 PUSH2 0xFD6 SWAP2 SWAP1 PUSH2 0x2FAB JUMP JUMPDEST SWAP1 POP PUSH1 0x0 PUSH1 0x40 MLOAD DUP1 PUSH2 0x140 ADD PUSH1 0x40 MSTORE DUP1 DUP14 PUSH1 0x1 DUP2 GT ISZERO PUSH2 0xFF2 JUMPI INVALID JUMPDEST DUP2 MSTORE PUSH1 0x20 ADD DUP12 DUP2 MSTORE PUSH1 0x20 ADD DUP11 DUP2 MSTORE PUSH1 0x20 ADD CALLER PUSH1 0x1 PUSH1 0x1 PUSH1 0xA0 SHL SUB AND DUP2 MSTORE PUSH1 0x20 ADD DUP13 PUSH1 0x1 PUSH1 0x1 PUSH1 0xA0 SHL SUB AND DUP2 MSTORE PUSH1 0x20 ADD DUP6 PUSH1 0x1 PUSH1 0x1 PUSH1 0xA0 SHL SUB AND DUP2 MSTORE PUSH1 0x20 ADD DUP5 PUSH1 0x1 PUSH1 0x1 PUSH1 0xA0 SHL SUB AND DUP2 MSTORE PUSH1 0x20 ADD DUP4 PUSH3 0xFFFFFF AND DUP2 MSTORE PUSH1 0x20 ADD DUP10 DUP10 DUP1 DUP1 PUSH1 0x1F ADD PUSH1 0x20 DUP1 SWAP2 DIV MUL PUSH1 0x20 ADD PUSH1 0x40 MLOAD SWAP1 DUP2 ADD PUSH1 0x40 MSTORE DUP1 SWAP4 SWAP3 SWAP2 SWAP1 DUP2 DUP2 MSTORE PUSH1 0x20 ADD DUP4 DUP4 DUP1 DUP3 DUP5 CALLDATACOPY PUSH1 0x0 SWAP3 ADD SWAP2 SWAP1 SWAP2 MSTORE POP POP POP SWAP1 DUP3 MSTORE POP PUSH1 0x1 PUSH1 0x1 PUSH1 0xA0 SHL SUB DUP9 AND PUSH1 0x20 SWAP2 DUP3 ADD MSTORE PUSH1 0x40 MLOAD PUSH2 0x10A1 SWAP3 SWAP2 ADD PUSH2 0x36B3 JUMP JUMPDEST PUSH1 0x40 MLOAD PUSH1 0x20 DUP2 DUP4 SUB SUB DUP2 MSTORE SWAP1 PUSH1 0x40 MSTORE SWAP1 POP DUP11 PUSH1 0x1 PUSH1 0x1 PUSH1 0xA0 SHL SUB AND CALLER PUSH1 0x1 PUSH1 0x1 PUSH1 0xA0 SHL SUB AND PUSH32 0x5AA02A08501DDC4F9F218A7E1318CC2582C58027D8320AA916D168810645154 DUP15 DUP14 DUP14 PUSH1 0x40 MLOAD PUSH2 0x10F9 SWAP4 SWAP3 SWAP2 SWAP1 PUSH2 0x331B JUMP JUMPDEST PUSH1 0x40 MLOAD DUP1 SWAP2 SUB SWAP1 LOG3 PUSH1 0x40 MLOAD PUSH4 0x12439B2F PUSH1 0xE2 SHL DUP2 MSTORE PUSH1 0x1 PUSH1 0x1 PUSH1 0xA0 SHL SUB DUP7 AND SWAP1 PUSH4 0x490E6CBC SWAP1 PUSH2 0x1133 SWAP1 ADDRESS SWAP1 DUP15 SWAP1 DUP15 SWAP1 DUP8 SWAP1 PUSH1 0x4 ADD PUSH2 0x32D9 JUMP JUMPDEST PUSH1 0x0 PUSH1 0x40 MLOAD DUP1 DUP4 SUB DUP2 PUSH1 0x0 DUP8 DUP1 EXTCODESIZE ISZERO DUP1 ISZERO PUSH2 0x114D JUMPI PUSH1 0x0 DUP1 REVERT JUMPDEST POP GAS CALL ISZERO DUP1 ISZERO PUSH2 0x1161 JUMPI RETURNDATASIZE PUSH1 0x0 DUP1 RETURNDATACOPY RETURNDATASIZE PUSH1 0x0 REVERT JUMPDEST POP POP POP POP POP POP POP POP POP POP POP POP POP POP POP POP JUMP JUMPDEST PUSH32 0x0 DUP2 JUMP JUMPDEST PUSH1 0x2 PUSH1 0x0 SLOAD EQ ISZERO PUSH2 0x11EF JUMPI PUSH1 0x40 DUP1 MLOAD PUSH3 0x461BCD PUSH1 0xE5 SHL DUP2 MSTORE PUSH1 0x20 PUSH1 0x4 DUP3 ADD MSTORE PUSH1 0x1F PUSH1 0x24 DUP3 ADD MSTORE PUSH32 0x5265656E7472616E637947756172643A207265656E7472616E742063616C6C00 PUSH1 0x44 DUP3 ADD MSTORE SWAP1 MLOAD SWAP1 DUP2 SWAP1 SUB PUSH1 0x64 ADD SWAP1 REVERT JUMPDEST PUSH1 0x2 PUSH1 0x0 SWAP1 DUP2 SSTORE PUSH2 0x1202 DUP3 DUP5 ADD DUP5 PUSH2 0x2D87 JUMP JUMPDEST SWAP1 POP PUSH1 0x0 PUSH1 0x40 MLOAD DUP1 PUSH1 0x60 ADD PUSH1 0x40 MSTORE DUP1 DUP4 PUSH1 0xA0 ADD MLOAD PUSH1 0x1 PUSH1 0x1 PUSH1 0xA0 SHL SUB AND DUP2 MSTORE PUSH1 0x20 ADD DUP4 PUSH1 0xC0 ADD MLOAD PUSH1 0x1 PUSH1 0x1 PUSH1 0xA0 SHL SUB AND DUP2 MSTORE PUSH1 0x20 ADD DUP4 PUSH1 0xE0 ADD MLOAD PUSH3 0xFFFFFF AND DUP2 MSTORE POP SWAP1 POP DUP2 PUSH1 0x80 ADD MLOAD PUSH1 0x1 PUSH1 0x1 PUSH1 0xA0 SHL SUB AND CALLER PUSH1 0x1 PUSH1 0x1 PUSH1 0xA0 SHL SUB AND EQ PUSH2 0x127B JUMPI PUSH1 0x40 MLOAD PUSH3 0x461BCD PUSH1 0xE5 SHL DUP2 MSTORE PUSH1 0x4 ADD PUSH2 0x39F SWAP1 PUSH2 0x3569 JUMP JUMPDEST PUSH2 0x12A5 PUSH32 0x0 DUP3 PUSH2 0x1D1D JUMP JUMPDEST POP PUSH1 0x0 DUP1 PUSH1 0x0 DUP1 PUSH1 0x0 DUP7 PUSH1 0x40 ADD MLOAD GT ISZERO PUSH2 0x12FD JUMPI PUSH1 0x20 DUP7 ADD MLOAD ISZERO PUSH2 0x12DB JUMPI PUSH1 0x40 MLOAD PUSH3 0x461BCD PUSH1 0xE5 SHL DUP2 MSTORE PUSH1 0x4 ADD PUSH2 0x39F SWAP1 PUSH2 0x334D JUMP JUMPDEST POP PUSH1 0xC0 DUP6 ADD MLOAD PUSH1 0x40 DUP7 ADD MLOAD SWAP1 SWAP4 POP SWAP2 POP DUP8 PUSH2 0x12F6 DUP4 DUP3 PUSH2 0x1BB5 JUMP JUMPDEST SWAP2 POP PUSH2 0x134D JUMP JUMPDEST PUSH1 0x40 DUP7 ADD MLOAD ISZERO DUP1 ISZERO PUSH2 0x1313 JUMPI POP PUSH1 0x0 DUP7 PUSH1 0x20 ADD MLOAD GT JUMPDEST PUSH2 0x132F JUMPI PUSH1 0x40 MLOAD PUSH3 0x461BCD PUSH1 0xE5 SHL DUP2 MSTORE PUSH1 0x4 ADD PUSH2 0x39F SWAP1 PUSH2 0x3549 JUMP JUMPDEST POP PUSH1 0xA0 DUP6 ADD MLOAD PUSH1 0x20 DUP7 ADD MLOAD SWAP1 SWAP4 POP SWAP2 POP DUP9 PUSH2 0x134A DUP4 DUP3 PUSH2 0x1BB5 JUMP JUMPDEST SWAP2 POP JUMPDEST DUP6 MLOAD PUSH1 0x1 PUSH1 0x1 PUSH1 0xA0 SHL SUB DUP6 AND SWAP1 PUSH1 0x1 DUP2 GT ISZERO PUSH2 0x1365 JUMPI INVALID JUMPDEST PUSH32 0xD03100470982ABC26DE7FC1F904CFDE062A6CBDDA69C624E8035A785A40482CF DUP6 DUP5 PUSH1 0x40 MLOAD PUSH2 0x1396 SWAP3 SWAP2 SWAP1 PUSH2 0x3781 JUMP JUMPDEST PUSH1 0x40 MLOAD DUP1 SWAP2 SUB SWAP1 LOG3 PUSH1 0x0 PUSH1 0x1 DUP8 MLOAD PUSH1 0x1 DUP2 GT ISZERO PUSH2 0x13AF JUMPI INVALID JUMPDEST EQ ISZERO PUSH2 0x13CC JUMPI PUSH2 0x13C5 DUP6 DUP6 DUP10 PUSH2 0x100 ADD MLOAD PUSH2 0x1D40 JUMP JUMPDEST SWAP1 POP PUSH2 0x1409 JUMP JUMPDEST PUSH1 0x0 DUP8 MLOAD PUSH1 0x1 DUP2 GT ISZERO PUSH2 0x13DB JUMPI INVALID JUMPDEST EQ ISZERO PUSH2 0x13F1 JUMPI PUSH2 0x13C5 DUP6 DUP6 DUP10 PUSH2 0x100 ADD MLOAD PUSH2 0x1EDA JUMP JUMPDEST PUSH1 0x40 MLOAD PUSH3 0x461BCD PUSH1 0xE5 SHL DUP2 MSTORE PUSH1 0x4 ADD PUSH2 0x39F SWAP1 PUSH2 0x33ED JUMP JUMPDEST PUSH1 0x40 MLOAD PUSH4 0x70A08231 PUSH1 0xE0 SHL DUP2 MSTORE PUSH1 0x0 SWAP1 PUSH1 0x1 PUSH1 0x1 PUSH1 0xA0 SHL SUB DUP8 AND SWAP1 PUSH4 0x70A08231 SWAP1 PUSH2 0x1438 SWAP1 ADDRESS SWAP1 PUSH1 0x4 ADD PUSH2 0x322D JUMP JUMPDEST PUSH1 0x20 PUSH1 0x40 MLOAD DUP1 DUP4 SUB DUP2 DUP7 DUP1 EXTCODESIZE ISZERO DUP1 ISZERO PUSH2 0x1450 JUMPI PUSH1 0x0 DUP1 REVERT JUMPDEST POP GAS STATICCALL ISZERO DUP1 ISZERO PUSH2 0x1464 JUMPI RETURNDATASIZE PUSH1 0x0 DUP1 RETURNDATACOPY RETURNDATASIZE PUSH1 0x0 REVERT JUMPDEST POP POP POP POP PUSH1 0x40 MLOAD RETURNDATASIZE PUSH1 0x1F NOT PUSH1 0x1F DUP3 ADD AND DUP3 ADD DUP1 PUSH1 0x40 MSTORE POP DUP2 ADD SWAP1 PUSH2 0x1488 SWAP2 SWAP1 PUSH2 0x2FC7 JUMP JUMPDEST SWAP1 POP DUP4 DUP2 LT ISZERO PUSH2 0x14AA JUMPI PUSH1 0x40 MLOAD PUSH3 0x461BCD PUSH1 0xE5 SHL DUP2 MSTORE PUSH1 0x4 ADD PUSH2 0x39F SWAP1 PUSH2 0x34C6 JUMP JUMPDEST PUSH1 0x0 DUP6 DUP3 GT PUSH2 0x14BA JUMPI PUSH1 0x0 PUSH2 0x14C4 JUMP JUMPDEST PUSH2 0x14C4 DUP3 DUP8 PUSH2 0x1C18 JUMP JUMPDEST SWAP1 POP PUSH1 0x0 DUP6 DUP4 GT PUSH2 0x14D6 JUMPI PUSH1 0x0 PUSH2 0x14E0 JUMP JUMPDEST PUSH2 0x14E0 DUP4 DUP8 PUSH2 0x1C18 JUMP JUMPDEST SWAP1 POP PUSH2 0x14F6 PUSH1 0x1 PUSH1 0x1 PUSH1 0xA0 SHL SUB DUP10 AND CALLER DUP9 PUSH2 0x16CD JUMP JUMPDEST DUP8 PUSH1 0x1 PUSH1 0x1 PUSH1 0xA0 SHL SUB AND PUSH32 0x225E94D7746FDB574AA7D9B5F49A354DF34409388D4F4A2799FE421A1B5F55F2 DUP8 PUSH1 0x40 MLOAD PUSH2 0x152F SWAP2 SWAP1 PUSH2 0x3778 JUMP JUMPDEST PUSH1 0x40 MLOAD DUP1 SWAP2 SUB SWAP1 LOG2 PUSH1 0x0 DUP11 PUSH2 0x100 ADD MLOAD DUP1 MLOAD SWAP1 PUSH1 0x20 ADD KECCAK256 SWAP1 POP DUP9 PUSH1 0x1 PUSH1 0x1 PUSH1 0xA0 SHL SUB AND DUP2 PUSH32 0xC5481F3321B7A079DB973B4283B2A79103C76EF1FAF1A6BBA6A9EE7899ED8E49 DUP6 DUP10 DUP7 PUSH1 0x40 MLOAD PUSH2 0x1586 SWAP4 SWAP3 SWAP2 SWAP1 PUSH2 0x37CB JUMP JUMPDEST PUSH1 0x40 MLOAD DUP1 SWAP2 SUB SWAP1 LOG3 DUP2 ISZERO PUSH2 0x16B7 JUMPI PUSH1 0x64 PUSH1 0x1E DUP4 MUL DIV PUSH1 0x0 PUSH2 0x15A7 DUP5 DUP4 PUSH2 0x1C18 JUMP JUMPDEST PUSH2 0x120 DUP15 ADD MLOAD SWAP1 SWAP2 POP PUSH2 0x15C5 SWAP1 PUSH1 0x1 PUSH1 0x1 PUSH1 0xA0 SHL SUB DUP14 AND SWAP1 DUP5 PUSH2 0x16CD JUMP JUMPDEST DUP13 PUSH2 0x120 ADD MLOAD PUSH1 0x1 PUSH1 0x1 PUSH1 0xA0 SHL SUB AND DUP12 PUSH1 0x1 PUSH1 0x1 PUSH1 0xA0 SHL SUB AND PUSH32 0xE2CE04DC1B96E2770411C943F97F69B902518CF2125ABF6DA8C33F96C663B579 DUP5 PUSH1 0x40 MLOAD PUSH2 0x160D SWAP2 SWAP1 PUSH2 0x3778 JUMP JUMPDEST PUSH1 0x40 MLOAD DUP1 SWAP2 SUB SWAP1 LOG3 PUSH2 0x1649 PUSH1 0x1 PUSH1 0x1 PUSH1 0xA0 SHL SUB DUP13 AND PUSH32 0x0 DUP4 PUSH2 0x16CD JUMP JUMPDEST PUSH32 0x0 PUSH1 0x1 PUSH1 0x1 PUSH1 0xA0 SHL SUB AND DUP12 PUSH1 0x1 PUSH1 0x1 PUSH1 0xA0 SHL SUB AND PUSH32 0xF8C1AB10239F6F37A13F2905C9B042C4C7FF13BCBF485C543D2A9ECBC5C18AFA DUP4 PUSH1 0x40 MLOAD PUSH2 0x16AC SWAP2 SWAP1 PUSH2 0x3778 JUMP JUMPDEST PUSH1 0x40 MLOAD DUP1 SWAP2 SUB SWAP1 LOG3 POP POP JUMPDEST POP POP PUSH1 0x1 PUSH1 0x0 SSTORE POP POP POP POP POP POP POP POP POP POP POP POP POP JUMP JUMPDEST PUSH1 0x40 DUP1 MLOAD PUSH1 0x1 PUSH1 0x1 PUSH1 0xA0 SHL SUB DUP5 AND PUSH1 0x24 DUP3 ADD MSTORE PUSH1 0x44 DUP1 DUP3 ADD DUP5 SWAP1 MSTORE DUP3 MLOAD DUP1 DUP4 SUB SWAP1 SWAP2 ADD DUP2 MSTORE PUSH1 0x64 SWAP1 SWAP2 ADD SWAP1 SWAP2 MSTORE PUSH1 0x20 DUP2 ADD DUP1 MLOAD PUSH1 0x1 PUSH1 0x1 PUSH1 0xE0 SHL SUB AND PUSH4 0xA9059CBB PUSH1 0xE0 SHL OR SWAP1 MSTORE PUSH2 0x171F SWAP1 DUP5 SWAP1 PUSH2 0x1FD0 JUMP JUMPDEST POP POP POP JUMP JUMPDEST PUSH1 0x0 DUP1 DUP3 PUSH1 0x0 DUP2 MLOAD DUP2 LT PUSH2 0x1734 JUMPI INVALID JUMPDEST PUSH1 0x20 MUL PUSH1 0x20 ADD ADD MLOAD PUSH1 0x20 ADD MLOAD PUSH1 0x1 PUSH1 0x1 PUSH1 0xA0 SHL SUB AND PUSH4 0x70A08231 ADDRESS PUSH1 0x40 MLOAD DUP3 PUSH4 0xFFFFFFFF AND PUSH1 0xE0 SHL DUP2 MSTORE PUSH1 0x4 ADD PUSH2 0x176B SWAP2 SWAP1 PUSH2 0x322D JUMP JUMPDEST PUSH1 0x20 PUSH1 0x40 MLOAD DUP1 DUP4 SUB DUP2 DUP7 DUP1 EXTCODESIZE ISZERO DUP1 ISZERO PUSH2 0x1783 JUMPI PUSH1 0x0 DUP1 REVERT JUMPDEST POP GAS STATICCALL ISZERO DUP1 ISZERO PUSH2 0x1797 JUMPI RETURNDATASIZE PUSH1 0x0 DUP1 RETURNDATACOPY RETURNDATASIZE PUSH1 0x0 REVERT JUMPDEST POP POP POP POP PUSH1 0x40 MLOAD RETURNDATASIZE PUSH1 0x1F NOT PUSH1 0x1F DUP3 ADD AND DUP3 ADD DUP1 PUSH1 0x40 MSTORE POP DUP2 ADD SWAP1 PUSH2 0x17BB SWAP2 SWAP1 PUSH2 0x2FC7 JUMP JUMPDEST SWAP1 POP PUSH1 0x0 DUP2 GT PUSH2 0x17DD JUMPI PUSH1 0x40 MLOAD PUSH3 0x461BCD PUSH1 0xE5 SHL DUP2 MSTORE PUSH1 0x4 ADD PUSH2 0x39F SWAP1 PUSH2 0x343C JUMP JUMPDEST PUSH1 0x0 JUMPDEST DUP4 MLOAD DUP2 LT ISZERO PUSH2 0x1BAE JUMPI PUSH1 0x0 DUP5 DUP3 DUP2 MLOAD DUP2 LT PUSH2 0x17F7 JUMPI INVALID JUMPDEST PUSH1 0x20 MUL PUSH1 0x20 ADD ADD MLOAD SWAP1 POP PUSH1 0x0 DUP1 PUSH1 0x0 PUSH1 0xFF AND DUP4 PUSH1 0xA0 ADD MLOAD PUSH1 0xFF AND EQ ISZERO PUSH2 0x183E JUMPI POP PUSH32 0x0 PUSH2 0x18A5 JUMP JUMPDEST PUSH1 0xA0 DUP4 ADD MLOAD PUSH1 0xFF AND PUSH1 0x1 EQ ISZERO PUSH2 0x1875 JUMPI POP PUSH32 0x0 PUSH2 0x18A5 JUMP JUMPDEST PUSH1 0xA0 DUP4 ADD MLOAD PUSH1 0xFF AND PUSH1 0x2 EQ ISZERO PUSH2 0x188D JUMPI POP DUP2 MLOAD PUSH2 0x18A5 JUMP JUMPDEST PUSH1 0x40 MLOAD PUSH3 0x461BCD PUSH1 0xE5 SHL DUP2 MSTORE PUSH1 0x4 ADD PUSH2 0x39F SWAP1 PUSH2 0x347E JUMP JUMPDEST PUSH2 0x18B4 DUP4 PUSH1 0x20 ADD MLOAD DUP3 DUP8 PUSH2 0x1C75 JUMP JUMPDEST PUSH1 0xA0 DUP4 ADD MLOAD PUSH1 0xFF AND PUSH2 0x18E8 JUMPI PUSH2 0x18E1 DUP5 PUSH1 0x1 ADD DUP5 PUSH1 0x20 ADD MLOAD DUP6 PUSH1 0x40 ADD MLOAD DUP7 PUSH1 0x60 ADD MLOAD DUP10 DUP9 PUSH1 0x80 ADD MLOAD PUSH2 0x2081 JUMP JUMPDEST SWAP2 POP PUSH2 0x1B4E JUMP JUMPDEST PUSH1 0xA0 DUP4 ADD MLOAD PUSH1 0xFF AND PUSH1 0x1 EQ ISZERO PUSH2 0x1B0C JUMPI PUSH1 0x40 DUP1 MLOAD PUSH1 0x2 DUP1 DUP3 MSTORE PUSH1 0x60 DUP3 ADD DUP4 MSTORE PUSH1 0x0 SWAP3 PUSH1 0x20 DUP4 ADD SWAP1 DUP1 CALLDATASIZE DUP4 CALLDATACOPY ADD SWAP1 POP POP SWAP1 POP DUP4 PUSH1 0x20 ADD MLOAD DUP2 PUSH1 0x0 DUP2 MLOAD DUP2 LT PUSH2 0x192B JUMPI INVALID JUMPDEST PUSH1 0x20 MUL PUSH1 0x20 ADD ADD SWAP1 PUSH1 0x1 PUSH1 0x1 PUSH1 0xA0 SHL SUB AND SWAP1 DUP2 PUSH1 0x1 PUSH1 0x1 PUSH1 0xA0 SHL SUB AND DUP2 MSTORE POP POP DUP4 PUSH1 0x40 ADD MLOAD DUP2 PUSH1 0x1 DUP2 MLOAD DUP2 LT PUSH2 0x195D JUMPI INVALID JUMPDEST PUSH1 0x1 PUSH1 0x1 PUSH1 0xA0 SHL SUB SWAP3 DUP4 AND PUSH1 0x20 SWAP2 DUP3 MUL SWAP3 SWAP1 SWAP3 ADD ADD MSTORE PUSH1 0x80 DUP6 ADD MLOAD PUSH1 0x40 MLOAD PUSH4 0x38ED1739 PUSH1 0xE0 SHL DUP2 MSTORE PUSH32 0x0 SWAP1 SWAP3 AND SWAP2 PUSH4 0x38ED1739 SWAP2 PUSH2 0x19C8 SWAP2 DUP11 SWAP2 SWAP1 DUP7 SWAP1 ADDRESS SWAP1 TIMESTAMP PUSH1 0x3C ADD SWAP1 PUSH1 0x4 ADD PUSH2 0x378F JUMP JUMPDEST PUSH1 0x0 PUSH1 0x40 MLOAD DUP1 DUP4 SUB DUP2 PUSH1 0x0 DUP8 DUP1 EXTCODESIZE ISZERO DUP1 ISZERO PUSH2 0x19E2 JUMPI PUSH1 0x0 DUP1 REVERT JUMPDEST POP GAS CALL SWAP3 POP POP POP DUP1 ISZERO PUSH2 0x1A17 JUMPI POP PUSH1 0x40 MLOAD RETURNDATASIZE PUSH1 0x0 DUP3 RETURNDATACOPY PUSH1 0x1F RETURNDATASIZE SWAP1 DUP2 ADD PUSH1 0x1F NOT AND DUP3 ADD PUSH1 0x40 MSTORE PUSH2 0x1A14 SWAP2 SWAP1 DUP2 ADD SWAP1 PUSH2 0x29A1 JUMP JUMPDEST PUSH1 0x1 JUMPDEST PUSH2 0x1A8E JUMPI PUSH2 0x1A23 PUSH2 0x3875 JUMP JUMPDEST DUP1 PUSH2 0x1A2E JUMPI POP PUSH2 0x1A72 JUMP JUMPDEST PUSH2 0x1A3A DUP7 PUSH1 0x1 ADD PUSH2 0x220C JUMP JUMPDEST DUP2 PUSH1 0x40 MLOAD PUSH1 0x20 ADD PUSH2 0x1A4C SWAP3 SWAP2 SWAP1 PUSH2 0x30E9 JUMP JUMPDEST PUSH1 0x40 DUP1 MLOAD PUSH1 0x1F NOT DUP2 DUP5 SUB ADD DUP2 MSTORE SWAP1 DUP3 SWAP1 MSTORE PUSH3 0x461BCD PUSH1 0xE5 SHL DUP3 MSTORE PUSH2 0x39F SWAP2 PUSH1 0x4 ADD PUSH2 0x333A JUMP JUMPDEST PUSH2 0x1A7E DUP6 PUSH1 0x1 ADD PUSH2 0x220C JUMP JUMPDEST PUSH1 0x40 MLOAD PUSH1 0x20 ADD PUSH2 0x1A4C SWAP2 SWAP1 PUSH2 0x3137 JUMP JUMPDEST DUP1 PUSH1 0x1 DUP3 MLOAD SUB DUP2 MLOAD DUP2 LT PUSH2 0x1A9E JUMPI INVALID JUMPDEST PUSH1 0x20 MUL PUSH1 0x20 ADD ADD MLOAD SWAP4 POP DUP5 PUSH1 0x40 ADD MLOAD PUSH1 0x1 PUSH1 0x1 PUSH1 0xA0 SHL SUB AND DUP6 PUSH1 0x20 ADD MLOAD PUSH1 0x1 PUSH1 0x1 PUSH1 0xA0 SHL SUB AND PUSH32 0x7F0C28831DC31706C487574DE03F85822B98A41EDDF7577B2B7EAB4D5D5DA545 DUP9 PUSH1 0x1 ADD PUSH1 0x1 DUP12 DUP10 PUSH1 0x40 MLOAD PUSH2 0x1AFD SWAP5 SWAP4 SWAP3 SWAP2 SWAP1 PUSH2 0x37E1 JUMP JUMPDEST PUSH1 0x40 MLOAD DUP1 SWAP2 SUB SWAP1 LOG3 POP POP PUSH2 0x1B4E JUMP JUMPDEST PUSH1 0xA0 DUP4 ADD MLOAD PUSH1 0xFF AND PUSH1 0x2 EQ ISZERO PUSH2 0x1B36 JUMPI DUP3 MLOAD PUSH1 0x40 MLOAD PUSH3 0x461BCD PUSH1 0xE5 SHL DUP2 MSTORE PUSH2 0x39F SWAP1 PUSH1 0x4 ADD PUSH2 0x340D JUMP JUMPDEST PUSH1 0x40 MLOAD PUSH3 0x461BCD PUSH1 0xE5 SHL DUP2 MSTORE PUSH1 0x4 ADD PUSH2 0x39F SWAP1 PUSH2 0x34E6 JUMP JUMPDEST DUP2 SWAP5 POP PUSH1 0x0 DUP6 GT PUSH2 0x1B61 DUP6 PUSH1 0x1 ADD PUSH2 0x220C JUMP JUMPDEST PUSH1 0x40 MLOAD PUSH1 0x20 ADD PUSH2 0x1B71 SWAP2 SWAP1 PUSH2 0x31F5 JUMP JUMPDEST PUSH1 0x40 MLOAD PUSH1 0x20 DUP2 DUP4 SUB SUB DUP2 MSTORE SWAP1 PUSH1 0x40 MSTORE SWAP1 PUSH2 0x1B9E JUMPI PUSH1 0x40 MLOAD PUSH3 0x461BCD PUSH1 0xE5 SHL DUP2 MSTORE PUSH1 0x4 ADD PUSH2 0x39F SWAP2 SWAP1 PUSH2 0x333A JUMP JUMPDEST POP POP PUSH1 0x1 SWAP1 SWAP3 ADD SWAP2 POP PUSH2 0x17E0 SWAP1 POP JUMP JUMPDEST POP SWAP3 SWAP2 POP POP JUMP JUMPDEST PUSH1 0x0 DUP3 DUP3 ADD DUP4 DUP2 LT ISZERO PUSH2 0x1C0F JUMPI PUSH1 0x40 DUP1 MLOAD PUSH3 0x461BCD PUSH1 0xE5 SHL DUP2 MSTORE PUSH1 0x20 PUSH1 0x4 DUP3 ADD MSTORE PUSH1 0x1B PUSH1 0x24 DUP3 ADD MSTORE PUSH32 0x536166654D6174683A206164646974696F6E206F766572666C6F770000000000 PUSH1 0x44 DUP3 ADD MSTORE SWAP1 MLOAD SWAP1 DUP2 SWAP1 SUB PUSH1 0x64 ADD SWAP1 REVERT JUMPDEST SWAP1 POP JUMPDEST SWAP3 SWAP2 POP POP JUMP JUMPDEST PUSH1 0x0 DUP3 DUP3 GT ISZERO PUSH2 0x1C6F JUMPI PUSH1 0x40 DUP1 MLOAD PUSH3 0x461BCD PUSH1 0xE5 SHL DUP2 MSTORE PUSH1 0x20 PUSH1 0x4 DUP3 ADD MSTORE PUSH1 0x1E PUSH1 0x24 DUP3 ADD MSTORE PUSH32 0x536166654D6174683A207375627472616374696F6E206F766572666C6F770000 PUSH1 0x44 DUP3 ADD MSTORE SWAP1 MLOAD SWAP1 DUP2 SWAP1 SUB PUSH1 0x64 ADD SWAP1 REVERT JUMPDEST POP SWAP1 SUB SWAP1 JUMP JUMPDEST DUP1 PUSH2 0x1C7F JUMPI PUSH2 0x171F JUMP JUMPDEST PUSH1 0x40 MLOAD PUSH4 0x6EB1769F PUSH1 0xE1 SHL DUP2 MSTORE PUSH1 0x0 NOT SWAP1 PUSH1 0x1 PUSH1 0x1 PUSH1 0xA0 SHL SUB DUP6 AND SWAP1 PUSH4 0xDD62ED3E SWAP1 PUSH2 0x1CB1 SWAP1 ADDRESS SWAP1 DUP8 SWAP1 PUSH1 0x4 ADD PUSH2 0x3241 JUMP JUMPDEST PUSH1 0x20 PUSH1 0x40 MLOAD DUP1 DUP4 SUB DUP2 DUP7 DUP1 EXTCODESIZE ISZERO DUP1 ISZERO PUSH2 0x1CC9 JUMPI PUSH1 0x0 DUP1 REVERT JUMPDEST POP GAS STATICCALL ISZERO DUP1 ISZERO PUSH2 0x1CDD JUMPI RETURNDATASIZE PUSH1 0x0 DUP1 RETURNDATACOPY RETURNDATASIZE PUSH1 0x0 REVERT JUMPDEST POP POP POP POP PUSH1 0x40 MLOAD RETURNDATASIZE PUSH1 0x1F NOT PUSH1 0x1F DUP3 ADD AND DUP3 ADD DUP1 PUSH1 0x40 MSTORE POP DUP2 ADD SWAP1 PUSH2 0x1D01 SWAP2 SWAP1 PUSH2 0x2FC7 JUMP JUMPDEST LT ISZERO PUSH2 0x171F JUMPI PUSH2 0x171F PUSH1 0x1 PUSH1 0x1 PUSH1 0xA0 SHL SUB DUP5 AND DUP4 PUSH1 0x0 NOT PUSH2 0x22EA JUMP JUMPDEST PUSH1 0x0 PUSH2 0x1D29 DUP4 DUP4 PUSH2 0x23FD JUMP JUMPDEST SWAP1 POP CALLER PUSH1 0x1 PUSH1 0x1 PUSH1 0xA0 SHL SUB DUP3 AND EQ PUSH2 0x1C12 JUMPI PUSH1 0x0 DUP1 REVERT JUMPDEST PUSH1 0x0 DUP1 DUP3 DUP1 PUSH1 0x20 ADD SWAP1 MLOAD DUP2 ADD SWAP1 PUSH2 0x1D57 SWAP2 SWAP1 PUSH2 0x2E87 JUMP JUMPDEST SWAP1 POP DUP5 PUSH1 0x1 PUSH1 0x1 PUSH1 0xA0 SHL SUB AND DUP2 PUSH1 0x0 ADD MLOAD PUSH1 0x1 PUSH1 0x1 PUSH1 0xA0 SHL SUB AND EQ PUSH2 0x1D8E JUMPI PUSH1 0x40 MLOAD PUSH3 0x461BCD PUSH1 0xE5 SHL DUP2 MSTORE PUSH1 0x4 ADD PUSH2 0x39F SWAP1 PUSH2 0x35A9 JUMP JUMPDEST PUSH2 0x1DB9 DUP6 PUSH32 0x0 DUP7 PUSH2 0x1C75 JUMP JUMPDEST PUSH1 0x0 PUSH2 0x1DD3 PUSH1 0x1 DUP8 DUP5 PUSH1 0x20 ADD MLOAD DUP6 PUSH1 0x60 ADD MLOAD DUP10 PUSH1 0x0 PUSH2 0x2081 JUMP JUMPDEST SWAP1 POP PUSH1 0x0 DUP2 GT PUSH2 0x1DF5 JUMPI PUSH1 0x40 MLOAD PUSH3 0x461BCD PUSH1 0xE5 SHL DUP2 MSTORE PUSH1 0x4 ADD PUSH2 0x39F SWAP1 PUSH2 0x35C9 JUMP JUMPDEST PUSH2 0x1E24 DUP3 PUSH1 0x20 ADD MLOAD PUSH32 0x0 DUP4 PUSH2 0x1C75 JUMP JUMPDEST PUSH1 0x0 PUSH2 0x1E42 PUSH1 0x2 DUP5 PUSH1 0x20 ADD MLOAD DUP6 PUSH1 0x40 ADD MLOAD DUP7 PUSH1 0x80 ADD MLOAD DUP7 PUSH1 0x0 PUSH2 0x2081 JUMP JUMPDEST SWAP1 POP PUSH1 0x0 DUP2 GT PUSH2 0x1E64 JUMPI PUSH1 0x40 MLOAD PUSH3 0x461BCD PUSH1 0xE5 SHL DUP2 MSTORE PUSH1 0x4 ADD PUSH2 0x39F SWAP1 PUSH2 0x338D JUMP JUMPDEST PUSH2 0x1E93 DUP4 PUSH1 0x40 ADD MLOAD PUSH32 0x0 DUP4 PUSH2 0x1C75 JUMP JUMPDEST PUSH2 0x1EAE PUSH1 0x3 DUP5 PUSH1 0x40 ADD MLOAD DUP10 DUP7 PUSH1 0xA0 ADD MLOAD DUP6 DUP9 PUSH1 0xC0 ADD MLOAD PUSH2 0x2081 JUMP JUMPDEST SWAP4 POP PUSH1 0x0 DUP5 GT PUSH2 0x1ED0 JUMPI PUSH1 0x40 MLOAD PUSH3 0x461BCD PUSH1 0xE5 SHL DUP2 MSTORE PUSH1 0x4 ADD PUSH2 0x39F SWAP1 PUSH2 0x345D JUMP JUMPDEST POP POP POP SWAP4 SWAP3 POP POP POP JUMP JUMPDEST PUSH1 0x0 DUP1 DUP3 DUP1 PUSH1 0x20 ADD SWAP1 MLOAD DUP2 ADD SWAP1 PUSH2 0x1EF1 SWAP2 SWAP1 PUSH2 0x2F2B JUMP JUMPDEST SWAP1 POP PUSH2 0x1F1E DUP6 PUSH32 0x0 DUP7 PUSH2 0x1C75 JUMP JUMPDEST PUSH1 0x0 PUSH2 0x1F3B PUSH1 0x1 DUP8 DUP5 PUSH1 0x0 ADD MLOAD DUP6 PUSH1 0x20 ADD MLOAD DUP10 DUP8 PUSH1 0x60 ADD MLOAD PUSH2 0x2081 JUMP JUMPDEST SWAP1 POP PUSH1 0x0 DUP2 GT PUSH2 0x1F5D JUMPI PUSH1 0x40 MLOAD PUSH3 0x461BCD PUSH1 0xE5 SHL DUP2 MSTORE PUSH1 0x4 ADD PUSH2 0x39F SWAP1 PUSH2 0x360A JUMP JUMPDEST DUP2 MLOAD PUSH2 0x1F8A SWAP1 PUSH32 0x0 DUP4 PUSH2 0x1C75 JUMP JUMPDEST PUSH2 0x1FA5 PUSH1 0x2 DUP4 PUSH1 0x0 ADD MLOAD DUP9 DUP6 PUSH1 0x40 ADD MLOAD DUP6 DUP8 PUSH1 0x80 ADD MLOAD PUSH2 0x2081 JUMP JUMPDEST SWAP3 POP PUSH1 0x0 DUP4 GT PUSH2 0x1FC7 JUMPI PUSH1 0x40 MLOAD PUSH3 0x461BCD PUSH1 0xE5 SHL DUP2 MSTORE PUSH1 0x4 ADD PUSH2 0x39F SWAP1 PUSH2 0x362A JUMP JUMPDEST POP POP SWAP4 SWAP3 POP POP POP JUMP JUMPDEST PUSH1 0x0 PUSH2 0x2025 DUP3 PUSH1 0x40 MLOAD DUP1 PUSH1 0x40 ADD PUSH1 0x40 MSTORE DUP1 PUSH1 0x20 DUP2 MSTORE PUSH1 0x20 ADD PUSH32 0x5361666545524332303A206C6F772D6C6576656C2063616C6C206661696C6564 DUP2 MSTORE POP DUP6 PUSH1 0x1 PUSH1 0x1 PUSH1 0xA0 SHL SUB AND PUSH2 0x24E1 SWAP1 SWAP3 SWAP2 SWAP1 PUSH4 0xFFFFFFFF AND JUMP JUMPDEST DUP1 MLOAD SWAP1 SWAP2 POP ISZERO PUSH2 0x171F JUMPI DUP1 DUP1 PUSH1 0x20 ADD SWAP1 MLOAD PUSH1 0x20 DUP2 LT ISZERO PUSH2 0x2044 JUMPI PUSH1 0x0 DUP1 REVERT JUMPDEST POP MLOAD PUSH2 0x171F JUMPI PUSH1 0x40 MLOAD PUSH3 0x461BCD PUSH1 0xE5 SHL DUP2 MSTORE PUSH1 0x4 ADD DUP1 DUP1 PUSH1 0x20 ADD DUP3 DUP2 SUB DUP3 MSTORE PUSH1 0x2A DUP2 MSTORE PUSH1 0x20 ADD DUP1 PUSH2 0x3978 PUSH1 0x2A SWAP2 CODECOPY PUSH1 0x40 ADD SWAP2 POP POP PUSH1 0x40 MLOAD DUP1 SWAP2 SUB SWAP1 REVERT JUMPDEST PUSH1 0x40 DUP1 MLOAD PUSH2 0x100 DUP2 ADD DUP3 MSTORE PUSH1 0x1 PUSH1 0x1 PUSH1 0xA0 SHL SUB DUP1 DUP9 AND DUP3 MSTORE DUP7 DUP2 AND PUSH1 0x20 DUP4 ADD MSTORE PUSH3 0xFFFFFF DUP7 AND DUP3 DUP5 ADD MSTORE ADDRESS PUSH1 0x60 DUP4 ADD MSTORE TIMESTAMP PUSH1 0x3C ADD PUSH1 0x80 DUP4 ADD MSTORE PUSH1 0xA0 DUP3 ADD DUP6 SWAP1 MSTORE PUSH1 0xC0 DUP3 ADD DUP5 SWAP1 MSTORE PUSH1 0x0 PUSH1 0xE0 DUP4 ADD DUP2 SWAP1 MSTORE SWAP3 MLOAD PUSH4 0x414BF389 PUSH1 0xE0 SHL DUP2 MSTORE PUSH32 0x0 SWAP1 SWAP2 AND SWAP1 PUSH4 0x414BF389 SWAP1 PUSH2 0x2116 SWAP1 DUP5 SWAP1 PUSH1 0x4 ADD PUSH2 0x364A JUMP JUMPDEST PUSH1 0x20 PUSH1 0x40 MLOAD DUP1 DUP4 SUB DUP2 PUSH1 0x0 DUP8 DUP1 EXTCODESIZE ISZERO DUP1 ISZERO PUSH2 0x2130 JUMPI PUSH1 0x0 DUP1 REVERT JUMPDEST POP GAS CALL SWAP3 POP POP POP DUP1 ISZERO PUSH2 0x2160 JUMPI POP PUSH1 0x40 DUP1 MLOAD PUSH1 0x1F RETURNDATASIZE SWAP1 DUP2 ADD PUSH1 0x1F NOT AND DUP3 ADD SWAP1 SWAP3 MSTORE PUSH2 0x215D SWAP2 DUP2 ADD SWAP1 PUSH2 0x2FC7 JUMP JUMPDEST PUSH1 0x1 JUMPDEST PUSH2 0x21AB JUMPI PUSH2 0x216C PUSH2 0x3875 JUMP JUMPDEST DUP1 PUSH2 0x2177 JUMPI POP PUSH2 0x2192 JUMP JUMPDEST PUSH2 0x2180 DUP10 PUSH2 0x220C JUMP JUMPDEST DUP2 PUSH1 0x40 MLOAD PUSH1 0x20 ADD PUSH2 0x1A4C SWAP3 SWAP2 SWAP1 PUSH2 0x3170 JUMP JUMPDEST PUSH2 0x219B DUP9 PUSH2 0x220C JUMP JUMPDEST PUSH1 0x40 MLOAD PUSH1 0x20 ADD PUSH2 0x1A4C SWAP2 SWAP1 PUSH2 0x31BD JUMP JUMPDEST DUP1 SWAP3 POP DUP7 PUSH1 0x1 PUSH1 0x1 PUSH1 0xA0 SHL SUB AND DUP9 PUSH1 0x1 PUSH1 0x1 PUSH1 0xA0 SHL SUB AND PUSH32 0x7F0C28831DC31706C487574DE03F85822B98A41EDDF7577B2B7EAB4D5D5DA545 DUP12 PUSH1 0x0 DUP10 DUP9 PUSH1 0x40 MLOAD PUSH2 0x21F8 SWAP5 SWAP4 SWAP3 SWAP2 SWAP1 PUSH2 0x37E1 JUMP JUMPDEST PUSH1 0x40 MLOAD DUP1 SWAP2 SUB SWAP1 LOG3 POP POP SWAP7 SWAP6 POP POP POP POP POP POP JUMP JUMPDEST PUSH1 0x60 DUP2 PUSH2 0x2231 JUMPI POP PUSH1 0x40 DUP1 MLOAD DUP1 DUP3 ADD SWAP1 SWAP2 MSTORE PUSH1 0x1 DUP2 MSTORE PUSH1 0x3 PUSH1 0xFC SHL PUSH1 0x20 DUP3 ADD MSTORE PUSH2 0x22E5 JUMP JUMPDEST DUP2 PUSH1 0x0 JUMPDEST DUP2 ISZERO PUSH2 0x2249 JUMPI PUSH1 0x1 ADD PUSH1 0xA DUP3 DIV SWAP2 POP PUSH2 0x2235 JUMP JUMPDEST PUSH1 0x0 DUP2 PUSH1 0x1 PUSH1 0x1 PUSH1 0x40 SHL SUB DUP2 GT DUP1 ISZERO PUSH2 0x2261 JUMPI PUSH1 0x0 DUP1 REVERT JUMPDEST POP PUSH1 0x40 MLOAD SWAP1 DUP1 DUP3 MSTORE DUP1 PUSH1 0x1F ADD PUSH1 0x1F NOT AND PUSH1 0x20 ADD DUP3 ADD PUSH1 0x40 MSTORE DUP1 ISZERO PUSH2 0x228C JUMPI PUSH1 0x20 DUP3 ADD DUP2 DUP1 CALLDATASIZE DUP4 CALLDATACOPY ADD SWAP1 POP JUMPDEST POP SWAP1 POP DUP2 JUMPDEST DUP6 ISZERO PUSH2 0x22DF JUMPI PUSH1 0x0 NOT ADD PUSH1 0x0 PUSH1 0xA DUP8 MOD PUSH1 0x30 ADD SWAP1 POP PUSH1 0x0 DUP2 PUSH1 0xF8 SHL SWAP1 POP DUP1 DUP5 DUP5 DUP2 MLOAD DUP2 LT PUSH2 0x22BB JUMPI INVALID JUMPDEST PUSH1 0x20 ADD ADD SWAP1 PUSH1 0x1 PUSH1 0x1 PUSH1 0xF8 SHL SUB NOT AND SWAP1 DUP2 PUSH1 0x0 BYTE SWAP1 MSTORE8 POP PUSH1 0xA DUP9 DIV SWAP8 POP POP POP PUSH2 0x2291 JUMP JUMPDEST POP SWAP3 POP POP POP JUMPDEST SWAP2 SWAP1 POP JUMP JUMPDEST DUP1 ISZERO DUP1 PUSH2 0x2370 JUMPI POP PUSH1 0x40 DUP1 MLOAD PUSH4 0x6EB1769F PUSH1 0xE1 SHL DUP2 MSTORE ADDRESS PUSH1 0x4 DUP3 ADD MSTORE PUSH1 0x1 PUSH1 0x1 PUSH1 0xA0 SHL SUB DUP5 DUP2 AND PUSH1 0x24 DUP4 ADD MSTORE SWAP2 MLOAD SWAP2 DUP6 AND SWAP2 PUSH4 0xDD62ED3E SWAP2 PUSH1 0x44 DUP1 DUP3 ADD SWAP3 PUSH1 0x20 SWAP3 SWAP1 SWAP2 SWAP1 DUP3 SWAP1 SUB ADD DUP2 DUP7 DUP1 EXTCODESIZE ISZERO DUP1 ISZERO PUSH2 0x2342 JUMPI PUSH1 0x0 DUP1 REVERT JUMPDEST POP GAS STATICCALL ISZERO DUP1 ISZERO PUSH2 0x2356 JUMPI RETURNDATASIZE PUSH1 0x0 DUP1 RETURNDATACOPY RETURNDATASIZE PUSH1 0x0 REVERT JUMPDEST POP POP POP POP PUSH1 0x40 MLOAD RETURNDATASIZE PUSH1 0x20 DUP2 LT ISZERO PUSH2 0x236C JUMPI PUSH1 0x0 DUP1 REVERT JUMPDEST POP MLOAD ISZERO JUMPDEST PUSH2 0x23AB JUMPI PUSH1 0x40 MLOAD PUSH3 0x461BCD PUSH1 0xE5 SHL DUP2 MSTORE PUSH1 0x4 ADD DUP1 DUP1 PUSH1 0x20 ADD DUP3 DUP2 SUB DUP3 MSTORE PUSH1 0x36 DUP2 MSTORE PUSH1 0x20 ADD DUP1 PUSH2 0x39A2 PUSH1 0x36 SWAP2 CODECOPY PUSH1 0x40 ADD SWAP2 POP POP PUSH1 0x40 MLOAD DUP1 SWAP2 SUB SWAP1 REVERT JUMPDEST PUSH1 0x40 DUP1 MLOAD PUSH1 0x1 PUSH1 0x1 PUSH1 0xA0 SHL SUB DUP5 AND PUSH1 0x24 DUP3 ADD MSTORE PUSH1 0x44 DUP1 DUP3 ADD DUP5 SWAP1 MSTORE DUP3 MLOAD DUP1 DUP4 SUB SWAP1 SWAP2 ADD DUP2 MSTORE PUSH1 0x64 SWAP1 SWAP2 ADD SWAP1 SWAP2 MSTORE PUSH1 0x20 DUP2 ADD DUP1 MLOAD PUSH1 0x1 PUSH1 0x1 PUSH1 0xE0 SHL SUB AND PUSH4 0x95EA7B3 PUSH1 0xE0 SHL OR SWAP1 MSTORE PUSH2 0x171F SWAP1 DUP5 SWAP1 PUSH2 0x1FD0 JUMP JUMPDEST PUSH1 0x0 DUP2 PUSH1 0x20 ADD MLOAD PUSH1 0x1 PUSH1 0x1 PUSH1 0xA0 SHL SUB AND DUP3 PUSH1 0x0 ADD MLOAD PUSH1 0x1 PUSH1 0x1 PUSH1 0xA0 SHL SUB AND LT PUSH2 0x2425 JUMPI PUSH1 0x0 DUP1 REVERT JUMPDEST POP DUP1 MLOAD PUSH1 0x20 DUP1 DUP4 ADD MLOAD PUSH1 0x40 SWAP4 DUP5 ADD MLOAD DUP5 MLOAD PUSH1 0x1 PUSH1 0x1 PUSH1 0xA0 SHL SUB SWAP5 DUP6 AND DUP2 DUP6 ADD MSTORE SWAP4 SWAP1 SWAP2 AND DUP4 DUP6 ADD MSTORE PUSH3 0xFFFFFF AND PUSH1 0x60 DUP1 DUP5 ADD SWAP2 SWAP1 SWAP2 MSTORE DUP4 MLOAD DUP1 DUP5 SUB DUP3 ADD DUP2 MSTORE PUSH1 0x80 DUP5 ADD DUP6 MSTORE DUP1 MLOAD SWAP1 DUP4 ADD KECCAK256 PUSH1 0x1 PUSH1 0x1 PUSH1 0xF8 SHL SUB NOT PUSH1 0xA0 DUP6 ADD MSTORE SWAP5 SWAP1 SHL PUSH12 0xFFFFFFFFFFFFFFFFFFFFFFFF NOT AND PUSH1 0xA1 DUP4 ADD MSTORE PUSH1 0xB5 DUP3 ADD SWAP4 SWAP1 SWAP4 MSTORE PUSH32 0xE34F199B19B2B4F47F68442619D555527D244F78A3297EA89325F843F87B8B54 PUSH1 0xD5 DUP1 DUP4 ADD SWAP2 SWAP1 SWAP2 MSTORE DUP3 MLOAD DUP1 DUP4 SUB SWAP1 SWAP2 ADD DUP2 MSTORE PUSH1 0xF5 SWAP1 SWAP2 ADD SWAP1 SWAP2 MSTORE DUP1 MLOAD SWAP2 ADD KECCAK256 SWAP1 JUMP JUMPDEST PUSH1 0x60 PUSH2 0x24F0 DUP5 DUP5 PUSH1 0x0 DUP6 PUSH2 0x24FA JUMP JUMPDEST SWAP1 POP JUMPDEST SWAP4 SWAP3 POP POP POP JUMP JUMPDEST PUSH1 0x60 DUP3 SELFBALANCE LT ISZERO PUSH2 0x253B JUMPI PUSH1 0x40 MLOAD PUSH3 0x461BCD PUSH1 0xE5 SHL DUP2 MSTORE PUSH1 0x4 ADD DUP1 DUP1 PUSH1 0x20 ADD DUP3 DUP2 SUB DUP3 MSTORE PUSH1 0x26 DUP2 MSTORE PUSH1 0x20 ADD DUP1 PUSH2 0x3952 PUSH1 0x26 SWAP2 CODECOPY PUSH1 0x40 ADD SWAP2 POP POP PUSH1 0x40 MLOAD DUP1 SWAP2 SUB SWAP1 REVERT JUMPDEST PUSH2 0x2544 DUP6 PUSH2 0x2655 JUMP JUMPDEST PUSH2 0x2595 JUMPI PUSH1 0x40 DUP1 MLOAD PUSH3 0x461BCD PUSH1 0xE5 SHL DUP2 MSTORE PUSH1 0x20 PUSH1 0x4 DUP3 ADD MSTORE PUSH1 0x1D PUSH1 0x24 DUP3 ADD MSTORE PUSH32 0x416464726573733A2063616C6C20746F206E6F6E2D636F6E7472616374000000 PUSH1 0x44 DUP3 ADD MSTORE SWAP1 MLOAD SWAP1 DUP2 SWAP1 SUB PUSH1 0x64 ADD SWAP1 REVERT JUMPDEST PUSH1 0x0 DUP1 DUP7 PUSH1 0x1 PUSH1 0x1 PUSH1 0xA0 SHL SUB AND DUP6 DUP8 PUSH1 0x40 MLOAD DUP1 DUP3 DUP1 MLOAD SWAP1 PUSH1 0x20 ADD SWAP1 DUP1 DUP4 DUP4 JUMPDEST PUSH1 0x20 DUP4 LT PUSH2 0x25D3 JUMPI DUP1 MLOAD DUP3 MSTORE PUSH1 0x1F NOT SWAP1 SWAP3 ADD SWAP2 PUSH1 0x20 SWAP2 DUP3 ADD SWAP2 ADD PUSH2 0x25B4 JUMP JUMPDEST PUSH1 0x1 DUP4 PUSH1 0x20 SUB PUSH2 0x100 EXP SUB DUP1 NOT DUP3 MLOAD AND DUP2 DUP5 MLOAD AND DUP1 DUP3 OR DUP6 MSTORE POP POP POP POP POP POP SWAP1 POP ADD SWAP2 POP POP PUSH1 0x0 PUSH1 0x40 MLOAD DUP1 DUP4 SUB DUP2 DUP6 DUP8 GAS CALL SWAP3 POP POP POP RETURNDATASIZE DUP1 PUSH1 0x0 DUP2 EQ PUSH2 0x2635 JUMPI PUSH1 0x40 MLOAD SWAP2 POP PUSH1 0x1F NOT PUSH1 0x3F RETURNDATASIZE ADD AND DUP3 ADD PUSH1 0x40 MSTORE RETURNDATASIZE DUP3 MSTORE RETURNDATASIZE PUSH1 0x0 PUSH1 0x20 DUP5 ADD RETURNDATACOPY PUSH2 0x263A JUMP JUMPDEST PUSH1 0x60 SWAP2 POP JUMPDEST POP SWAP2 POP SWAP2 POP PUSH2 0x264A DUP3 DUP3 DUP7 PUSH2 0x265B JUMP JUMPDEST SWAP8 SWAP7 POP POP POP POP POP POP POP JUMP JUMPDEST EXTCODESIZE ISZERO ISZERO SWAP1 JUMP JUMPDEST PUSH1 0x60 DUP4 ISZERO PUSH2 0x266A JUMPI POP DUP2 PUSH2 0x24F3 JUMP JUMPDEST DUP3 MLOAD ISZERO PUSH2 0x267A JUMPI DUP3 MLOAD DUP1 DUP5 PUSH1 0x20 ADD REVERT JUMPDEST DUP2 PUSH1 0x40 MLOAD PUSH3 0x461BCD PUSH1 0xE5 SHL DUP2 MSTORE PUSH1 0x4 ADD DUP1 DUP1 PUSH1 0x20 ADD DUP3 DUP2 SUB DUP3 MSTORE DUP4 DUP2 DUP2 MLOAD DUP2 MSTORE PUSH1 0x20 ADD SWAP2 POP DUP1 MLOAD SWAP1 PUSH1 0x20 ADD SWAP1 DUP1 DUP4 DUP4 PUSH1 0x0 JUMPDEST DUP4 DUP2 LT ISZERO PUSH2 0x26C4 JUMPI DUP2 DUP2 ADD MLOAD DUP4 DUP3 ADD MSTORE PUSH1 0x20 ADD PUSH2 0x26AC JUMP JUMPDEST POP POP POP POP SWAP1 POP SWAP1 DUP2 ADD SWAP1 PUSH1 0x1F AND DUP1 ISZERO PUSH2 0x26F1 JUMPI DUP1 DUP3 SUB DUP1 MLOAD PUSH1 0x1 DUP4 PUSH1 0x20 SUB PUSH2 0x100 EXP SUB NOT AND DUP2 MSTORE PUSH1 0x20 ADD SWAP2 POP JUMPDEST POP SWAP3 POP POP POP PUSH1 0x40 MLOAD DUP1 SWAP2 SUB SWAP1 REVERT JUMPDEST DUP1 CALLDATALOAD PUSH2 0x22E5 DUP2 PUSH2 0x3919 JUMP JUMPDEST DUP1 MLOAD PUSH2 0x22E5 DUP2 PUSH2 0x3919 JUMP JUMPDEST PUSH1 0x0 DUP1 DUP4 PUSH1 0x1F DUP5 ADD SLT PUSH2 0x2726 JUMPI DUP2 DUP3 REVERT JUMPDEST POP DUP2 CALLDATALOAD PUSH1 0x1 PUSH1 0x1 PUSH1 0x40 SHL SUB DUP2 GT ISZERO PUSH2 0x273C JUMPI DUP2 DUP3 REVERT JUMPDEST PUSH1 0x20 DUP4 ADD SWAP2 POP DUP4 PUSH1 0x20 DUP1 DUP4 MUL DUP6 ADD ADD GT ISZERO PUSH2 0x2756 JUMPI PUSH1 0x0 DUP1 REVERT JUMPDEST SWAP3 POP SWAP3 SWAP1 POP JUMP JUMPDEST PUSH1 0x0 DUP1 DUP4 PUSH1 0x1F DUP5 ADD SLT PUSH2 0x276E JUMPI DUP2 DUP3 REVERT JUMPDEST POP DUP2 CALLDATALOAD PUSH1 0x1 PUSH1 0x1 PUSH1 0x40 SHL SUB DUP2 GT ISZERO PUSH2 0x2784 JUMPI DUP2 DUP3 REVERT JUMPDEST PUSH1 0x20 DUP4 ADD SWAP2 POP DUP4 PUSH1 0x20 DUP3 DUP6 ADD ADD GT ISZERO PUSH2 0x2756 JUMPI PUSH1 0x0 DUP1 REVERT JUMPDEST PUSH1 0x0 DUP3 PUSH1 0x1F DUP4 ADD SLT PUSH2 0x27AC JUMPI DUP1 DUP2 REVERT JUMPDEST DUP2 CALLDATALOAD PUSH1 0x1 PUSH1 0x1 PUSH1 0x40 SHL SUB DUP2 GT ISZERO PUSH2 0x27BF JUMPI INVALID JUMPDEST PUSH2 0x27D2 PUSH1 0x1F DUP3 ADD PUSH1 0x1F NOT AND PUSH1 0x20 ADD PUSH2 0x37FF JUMP JUMPDEST DUP2 DUP2 MSTORE DUP5 PUSH1 0x20 DUP4 DUP7 ADD ADD GT ISZERO PUSH2 0x27E6 JUMPI DUP3 DUP4 REVERT JUMPDEST DUP2 PUSH1 0x20 DUP6 ADD PUSH1 0x20 DUP4 ADD CALLDATACOPY SWAP1 DUP2 ADD PUSH1 0x20 ADD SWAP2 SWAP1 SWAP2 MSTORE SWAP3 SWAP2 POP POP JUMP JUMPDEST DUP1 CALLDATALOAD PUSH1 0x2 DUP2 LT PUSH2 0x22E5 JUMPI PUSH1 0x0 DUP1 REVERT JUMPDEST DUP1 CALLDATALOAD PUSH2 0x22E5 DUP2 PUSH2 0x3931 JUMP JUMPDEST DUP1 MLOAD PUSH2 0x22E5 DUP2 PUSH2 0x3931 JUMP JUMPDEST DUP1 CALLDATALOAD PUSH2 0x22E5 DUP2 PUSH2 0x3942 JUMP JUMPDEST DUP1 MLOAD PUSH2 0x22E5 DUP2 PUSH2 0x3942 JUMP JUMPDEST PUSH1 0x0 PUSH1 0x20 DUP3 DUP5 SUB SLT ISZERO PUSH2 0x284C JUMPI DUP1 DUP2 REVERT JUMPDEST DUP2 CALLDATALOAD PUSH2 0x1C0F DUP2 PUSH2 0x3919 JUMP JUMPDEST PUSH1 0x0 PUSH1 0x20 DUP3 DUP5 SUB SLT ISZERO PUSH2 0x2868 JUMPI DUP1 DUP2 REVERT JUMPDEST DUP2 MLOAD PUSH2 0x1C0F DUP2 PUSH2 0x3919 JUMP JUMPDEST PUSH1 0x0 DUP1 PUSH1 0x0 DUP1 PUSH1 0x60 DUP6 DUP8 SUB SLT ISZERO PUSH2 0x2888 JUMPI DUP3 DUP4 REVERT JUMPDEST DUP5 CALLDATALOAD PUSH2 0x2893 DUP2 PUSH2 0x3919 JUMP JUMPDEST SWAP4 POP PUSH1 0x20 DUP6 ADD CALLDATALOAD SWAP3 POP PUSH1 0x40 DUP6 ADD CALLDATALOAD PUSH1 0x1 PUSH1 0x1 PUSH1 0x40 SHL SUB DUP2 GT ISZERO PUSH2 0x28B4 JUMPI DUP3 DUP4 REVERT JUMPDEST PUSH2 0x28C0 DUP8 DUP3 DUP9 ADD PUSH2 0x275D JUMP JUMPDEST SWAP6 SWAP9 SWAP5 SWAP8 POP SWAP6 POP POP POP POP JUMP JUMPDEST PUSH1 0x0 DUP1 PUSH1 0x0 DUP1 PUSH1 0x0 DUP1 PUSH1 0x0 DUP1 PUSH1 0x0 PUSH1 0xA0 DUP11 DUP13 SUB SLT ISZERO PUSH2 0x28E9 JUMPI DUP7 DUP8 REVERT JUMPDEST DUP10 CALLDATALOAD PUSH1 0x1 PUSH1 0x1 PUSH1 0x40 SHL SUB DUP1 DUP3 GT ISZERO PUSH2 0x28FF JUMPI DUP9 DUP10 REVERT JUMPDEST PUSH2 0x290B DUP14 DUP4 DUP15 ADD PUSH2 0x2715 JUMP JUMPDEST SWAP1 SWAP12 POP SWAP10 POP PUSH1 0x20 DUP13 ADD CALLDATALOAD SWAP2 POP DUP1 DUP3 GT ISZERO PUSH2 0x2923 JUMPI DUP9 DUP10 REVERT JUMPDEST PUSH2 0x292F DUP14 DUP4 DUP15 ADD PUSH2 0x2715 JUMP JUMPDEST SWAP1 SWAP10 POP SWAP8 POP PUSH1 0x40 DUP13 ADD CALLDATALOAD SWAP2 POP DUP1 DUP3 GT ISZERO PUSH2 0x2947 JUMPI DUP7 DUP8 REVERT JUMPDEST PUSH2 0x2953 DUP14 DUP4 DUP15 ADD PUSH2 0x2715 JUMP JUMPDEST SWAP1 SWAP8 POP SWAP6 POP PUSH1 0x60 DUP13 ADD CALLDATALOAD SWAP2 POP PUSH2 0x2968 DUP3 PUSH2 0x3919 JUMP JUMPDEST SWAP1 SWAP4 POP PUSH1 0x80 DUP12 ADD CALLDATALOAD SWAP1 DUP1 DUP3 GT ISZERO PUSH2 0x297D JUMPI DUP4 DUP5 REVERT JUMPDEST POP PUSH2 0x298A DUP13 DUP3 DUP14 ADD PUSH2 0x275D JUMP JUMPDEST SWAP2 POP DUP1 SWAP4 POP POP DUP1 SWAP2 POP POP SWAP3 SWAP6 SWAP9 POP SWAP3 SWAP6 SWAP9 POP SWAP3 SWAP6 SWAP9 JUMP JUMPDEST PUSH1 0x0 PUSH1 0x20 DUP1 DUP4 DUP6 SUB SLT ISZERO PUSH2 0x29B3 JUMPI DUP2 DUP3 REVERT JUMPDEST DUP3 MLOAD PUSH1 0x1 PUSH1 0x1 PUSH1 0x40 SHL SUB DUP2 GT ISZERO PUSH2 0x29C8 JUMPI DUP3 DUP4 REVERT JUMPDEST DUP4 ADD PUSH1 0x1F DUP2 ADD DUP6 SGT PUSH2 0x29D8 JUMPI DUP3 DUP4 REVERT JUMPDEST DUP1 MLOAD PUSH2 0x29EB PUSH2 0x29E6 DUP3 PUSH2 0x3822 JUMP JUMPDEST PUSH2 0x37FF JUMP JUMPDEST DUP2 DUP2 MSTORE DUP4 DUP2 ADD SWAP1 DUP4 DUP6 ADD DUP6 DUP5 MUL DUP6 ADD DUP7 ADD DUP10 LT ISZERO PUSH2 0x2A07 JUMPI DUP7 DUP8 REVERT JUMPDEST DUP7 SWAP5 POP JUMPDEST DUP4 DUP6 LT ISZERO PUSH2 0x2A29 JUMPI DUP1 MLOAD DUP4 MSTORE PUSH1 0x1 SWAP5 SWAP1 SWAP5 ADD SWAP4 SWAP2 DUP6 ADD SWAP2 DUP6 ADD PUSH2 0x2A0B JUMP JUMPDEST POP SWAP8 SWAP7 POP POP POP POP POP POP POP JUMP JUMPDEST PUSH1 0x0 DUP1 PUSH1 0x0 DUP1 PUSH1 0x0 DUP1 PUSH1 0x0 PUSH1 0xC0 DUP9 DUP11 SUB SLT ISZERO PUSH2 0x2A4F JUMPI DUP1 DUP2 REVERT JUMPDEST PUSH2 0x2A58 DUP9 PUSH2 0x2800 JUMP JUMPDEST SWAP7 POP PUSH1 0x20 DUP9 ADD CALLDATALOAD PUSH2 0x2A68 DUP2 PUSH2 0x3919 JUMP JUMPDEST SWAP6 POP PUSH1 0x40 DUP9 ADD CALLDATALOAD SWAP5 POP PUSH1 0x60 DUP9 ADD CALLDATALOAD SWAP4 POP PUSH1 0x80 DUP9 ADD CALLDATALOAD PUSH1 0x1 PUSH1 0x1 PUSH1 0x40 SHL SUB DUP2 GT ISZERO PUSH2 0x2A90 JUMPI DUP2 DUP3 REVERT JUMPDEST PUSH2 0x2A9C DUP11 DUP3 DUP12 ADD PUSH2 0x275D JUMP JUMPDEST SWAP1 SWAP5 POP SWAP3 POP POP PUSH1 0xA0 DUP9 ADD CALLDATALOAD PUSH2 0x2AB0 DUP2 PUSH2 0x3919 JUMP JUMPDEST DUP1 SWAP2 POP POP SWAP3 SWAP6 SWAP9 SWAP2 SWAP5 SWAP8 POP SWAP3 SWAP6 POP JUMP JUMPDEST PUSH1 0x0 PUSH1 0x20 DUP1 DUP4 DUP6 SUB SLT ISZERO PUSH2 0x2AD2 JUMPI DUP2 DUP3 REVERT JUMPDEST DUP3 CALLDATALOAD PUSH1 0x1 PUSH1 0x1 PUSH1 0x40 SHL SUB DUP1 DUP3 GT ISZERO PUSH2 0x2AE8 JUMPI DUP4 DUP5 REVERT JUMPDEST SWAP1 DUP5 ADD SWAP1 PUSH1 0x60 DUP3 DUP8 SUB SLT ISZERO PUSH2 0x2AFB JUMPI DUP4 DUP5 REVERT JUMPDEST PUSH1 0x40 DUP1 MLOAD PUSH1 0x60 DUP2 ADD DUP2 DUP2 LT DUP5 DUP3 GT OR ISZERO PUSH2 0x2B11 JUMPI INVALID JUMPDEST DUP3 MSTORE DUP4 CALLDATALOAD DUP4 DUP2 GT ISZERO PUSH2 0x2B21 JUMPI DUP7 DUP8 REVERT JUMPDEST DUP5 ADD PUSH1 0x1F DUP2 ADD DUP10 SGT PUSH2 0x2B31 JUMPI DUP7 DUP8 REVERT JUMPDEST DUP1 CALLDATALOAD PUSH2 0x2B3F PUSH2 0x29E6 DUP3 PUSH2 0x3822 JUMP JUMPDEST DUP2 DUP2 MSTORE DUP8 DUP2 ADD SWAP1 DUP4 DUP10 ADD PUSH1 0xC0 DUP1 DUP6 MUL DUP7 ADD DUP12 ADD DUP15 LT ISZERO PUSH2 0x2B5D JUMPI DUP12 DUP13 REVERT JUMPDEST DUP12 SWAP6 POP JUMPDEST DUP5 DUP7 LT ISZERO PUSH2 0x2BF9 JUMPI DUP1 DUP3 DUP16 SUB SLT ISZERO PUSH2 0x2B77 JUMPI DUP12 DUP13 REVERT JUMPDEST DUP8 MLOAD DUP2 DUP2 ADD DUP2 DUP2 LT DUP12 DUP3 GT OR ISZERO PUSH2 0x2B8A JUMPI INVALID JUMPDEST DUP10 MSTORE DUP3 CALLDATALOAD PUSH2 0x2B97 DUP2 PUSH2 0x3919 JUMP JUMPDEST DUP2 MSTORE PUSH2 0x2BA4 DUP4 DUP14 ADD PUSH2 0x26FF JUMP JUMPDEST DUP13 DUP3 ADD MSTORE PUSH2 0x2BB3 DUP10 DUP5 ADD PUSH2 0x26FF JUMP JUMPDEST DUP10 DUP3 ADD MSTORE PUSH2 0x2BC3 PUSH1 0x60 DUP5 ADD PUSH2 0x280F JUMP JUMPDEST PUSH1 0x60 DUP3 ADD MSTORE PUSH1 0x80 DUP4 DUP2 ADD CALLDATALOAD SWAP1 DUP3 ADD MSTORE PUSH1 0xA0 PUSH2 0x2BDF DUP2 DUP6 ADD PUSH2 0x2825 JUMP JUMPDEST SWAP1 DUP3 ADD MSTORE DUP5 MSTORE PUSH1 0x1 SWAP6 SWAP1 SWAP6 ADD SWAP5 SWAP3 DUP11 ADD SWAP3 SWAP1 DUP2 ADD SWAP1 PUSH2 0x2B61 JUMP JUMPDEST POP POP DUP5 MSTORE POP PUSH2 0x2C0C SWAP2 POP POP DUP5 DUP7 ADD PUSH2 0x26FF JUMP JUMPDEST DUP6 DUP3 ADD MSTORE PUSH2 0x2C1B DUP3 DUP6 ADD PUSH2 0x26FF JUMP JUMPDEST SWAP2 DUP2 ADD SWAP2 SWAP1 SWAP2 MSTORE SWAP7 SWAP6 POP POP POP POP POP POP JUMP JUMPDEST PUSH1 0x0 PUSH1 0x20 DUP1 DUP4 DUP6 SUB SLT ISZERO PUSH2 0x2C3E JUMPI DUP2 DUP3 REVERT JUMPDEST DUP3 MLOAD PUSH1 0x1 PUSH1 0x1 PUSH1 0x40 SHL SUB DUP1 DUP3 GT ISZERO PUSH2 0x2C54 JUMPI DUP4 DUP5 REVERT JUMPDEST SWAP1 DUP5 ADD SWAP1 PUSH1 0x60 DUP3 DUP8 SUB SLT ISZERO PUSH2 0x2C67 JUMPI DUP4 DUP5 REVERT JUMPDEST PUSH1 0x40 DUP1 MLOAD PUSH1 0x60 DUP2 ADD DUP2 DUP2 LT DUP5 DUP3 GT OR ISZERO PUSH2 0x2C7D JUMPI INVALID JUMPDEST DUP3 MSTORE DUP4 MLOAD DUP4 DUP2 GT ISZERO PUSH2 0x2C8D JUMPI DUP7 DUP8 REVERT JUMPDEST DUP5 ADD PUSH1 0x1F DUP2 ADD DUP10 SGT PUSH2 0x2C9D JUMPI DUP7 DUP8 REVERT JUMPDEST DUP1 MLOAD PUSH2 0x2CAB PUSH2 0x29E6 DUP3 PUSH2 0x3822 JUMP JUMPDEST DUP2 DUP2 MSTORE DUP8 DUP2 ADD SWAP1 DUP4 DUP10 ADD PUSH1 0xC0 DUP1 DUP6 MUL DUP7 ADD DUP12 ADD DUP15 LT ISZERO PUSH2 0x2CC9 JUMPI DUP12 DUP13 REVERT JUMPDEST DUP12 SWAP6 POP JUMPDEST DUP5 DUP7 LT ISZERO PUSH2 0x2D65 JUMPI DUP1 DUP3 DUP16 SUB SLT ISZERO PUSH2 0x2CE3 JUMPI DUP12 DUP13 REVERT JUMPDEST DUP8 MLOAD DUP2 DUP2 ADD DUP2 DUP2 LT DUP12 DUP3 GT OR ISZERO PUSH2 0x2CF6 JUMPI INVALID JUMPDEST DUP10 MSTORE DUP3 MLOAD PUSH2 0x2D03 DUP2 PUSH2 0x3919 JUMP JUMPDEST DUP2 MSTORE PUSH2 0x2D10 DUP4 DUP14 ADD PUSH2 0x270A JUMP JUMPDEST DUP13 DUP3 ADD MSTORE PUSH2 0x2D1F DUP10 DUP5 ADD PUSH2 0x270A JUMP JUMPDEST DUP10 DUP3 ADD MSTORE PUSH2 0x2D2F PUSH1 0x60 DUP5 ADD PUSH2 0x281A JUMP JUMPDEST PUSH1 0x60 DUP3 ADD MSTORE PUSH1 0x80 DUP4 DUP2 ADD MLOAD SWAP1 DUP3 ADD MSTORE PUSH1 0xA0 PUSH2 0x2D4B DUP2 DUP6 ADD PUSH2 0x2830 JUMP JUMPDEST SWAP1 DUP3 ADD MSTORE DUP5 MSTORE PUSH1 0x1 SWAP6 SWAP1 SWAP6 ADD SWAP5 SWAP3 DUP11 ADD SWAP3 SWAP1 DUP2 ADD SWAP1 PUSH2 0x2CCD JUMP JUMPDEST POP POP DUP5 MSTORE POP PUSH2 0x2D78 SWAP2 POP POP DUP5 DUP7 ADD PUSH2 0x270A JUMP JUMPDEST DUP6 DUP3 ADD MSTORE PUSH2 0x2C1B DUP3 DUP6 ADD PUSH2 0x270A JUMP JUMPDEST PUSH1 0x0 PUSH1 0x20 DUP3 DUP5 SUB SLT ISZERO PUSH2 0x2D98 JUMPI DUP1 DUP2 REVERT JUMPDEST DUP2 CALLDATALOAD PUSH1 0x1 PUSH1 0x1 PUSH1 0x40 SHL SUB DUP1 DUP3 GT ISZERO PUSH2 0x2DAE JUMPI DUP3 DUP4 REVERT JUMPDEST DUP2 DUP5 ADD SWAP2 POP PUSH2 0x140 DUP1 DUP4 DUP8 SUB SLT ISZERO PUSH2 0x2DC4 JUMPI DUP4 DUP5 REVERT JUMPDEST PUSH2 0x2DCD DUP2 PUSH2 0x37FF JUMP JUMPDEST SWAP1 POP PUSH2 0x2DD8 DUP4 PUSH2 0x2800 JUMP JUMPDEST DUP2 MSTORE PUSH1 0x20 DUP4 ADD CALLDATALOAD PUSH1 0x20 DUP3 ADD MSTORE PUSH1 0x40 DUP4 ADD CALLDATALOAD PUSH1 0x40 DUP3 ADD MSTORE PUSH2 0x2DFA PUSH1 0x60 DUP5 ADD PUSH2 0x26FF JUMP JUMPDEST PUSH1 0x60 DUP3 ADD MSTORE PUSH2 0x2E0B PUSH1 0x80 DUP5 ADD PUSH2 0x26FF JUMP JUMPDEST PUSH1 0x80 DUP3 ADD MSTORE PUSH2 0x2E1C PUSH1 0xA0 DUP5 ADD PUSH2 0x26FF JUMP JUMPDEST PUSH1 0xA0 DUP3 ADD MSTORE PUSH2 0x2E2D PUSH1 0xC0 DUP5 ADD PUSH2 0x26FF JUMP JUMPDEST PUSH1 0xC0 DUP3 ADD MSTORE PUSH2 0x2E3E PUSH1 0xE0 DUP5 ADD PUSH2 0x280F JUMP JUMPDEST PUSH1 0xE0 DUP3 ADD MSTORE PUSH2 0x100 DUP1 DUP5 ADD CALLDATALOAD DUP4 DUP2 GT ISZERO PUSH2 0x2E56 JUMPI DUP6 DUP7 REVERT JUMPDEST PUSH2 0x2E62 DUP9 DUP3 DUP8 ADD PUSH2 0x279C JUMP JUMPDEST DUP3 DUP5 ADD MSTORE POP POP PUSH2 0x120 SWAP2 POP PUSH2 0x2E78 DUP3 DUP5 ADD PUSH2 0x26FF JUMP JUMPDEST SWAP2 DUP2 ADD SWAP2 SWAP1 SWAP2 MSTORE SWAP5 SWAP4 POP POP POP POP JUMP JUMPDEST PUSH1 0x0 PUSH1 0xE0 DUP3 DUP5 SUB SLT ISZERO PUSH2 0x2E98 JUMPI DUP1 DUP2 REVERT JUMPDEST PUSH1 0x40 MLOAD PUSH1 0xE0 DUP2 ADD DUP2 DUP2 LT PUSH1 0x1 PUSH1 0x1 PUSH1 0x40 SHL SUB DUP3 GT OR ISZERO PUSH2 0x2EB4 JUMPI INVALID JUMPDEST PUSH1 0x40 MSTORE PUSH2 0x2EC0 DUP4 PUSH2 0x270A JUMP JUMPDEST DUP2 MSTORE PUSH2 0x2ECE PUSH1 0x20 DUP5 ADD PUSH2 0x270A JUMP JUMPDEST PUSH1 0x20 DUP3 ADD MSTORE PUSH2 0x2EDF PUSH1 0x40 DUP5 ADD PUSH2 0x270A JUMP JUMPDEST PUSH1 0x40 DUP3 ADD MSTORE PUSH2 0x2EF0 PUSH1 0x60 DUP5 ADD PUSH2 0x281A JUMP JUMPDEST PUSH1 0x60 DUP3 ADD MSTORE PUSH2 0x2F01 PUSH1 0x80 DUP5 ADD PUSH2 0x281A JUMP JUMPDEST PUSH1 0x80 DUP3 ADD MSTORE PUSH2 0x2F12 PUSH1 0xA0 DUP5 ADD PUSH2 0x281A JUMP JUMPDEST PUSH1 0xA0 DUP3 ADD MSTORE PUSH1 0xC0 DUP4 ADD MLOAD PUSH1 0xC0 DUP3 ADD MSTORE DUP1 SWAP2 POP POP SWAP3 SWAP2 POP POP JUMP JUMPDEST PUSH1 0x0 PUSH1 0xA0 DUP3 DUP5 SUB SLT ISZERO PUSH2 0x2F3C JUMPI DUP1 DUP2 REVERT JUMPDEST PUSH1 0x40 MLOAD PUSH1 0xA0 DUP2 ADD DUP2 DUP2 LT PUSH1 0x1 PUSH1 0x1 PUSH1 0x40 SHL SUB DUP3 GT OR ISZERO PUSH2 0x2F58 JUMPI INVALID JUMPDEST PUSH1 0x40 MSTORE DUP3 MLOAD PUSH2 0x2F66 DUP2 PUSH2 0x3919 JUMP JUMPDEST DUP2 MSTORE PUSH1 0x20 DUP4 ADD MLOAD PUSH2 0x2F76 DUP2 PUSH2 0x3931 JUMP JUMPDEST PUSH1 0x20 DUP3 ADD MSTORE PUSH1 0x40 DUP4 ADD MLOAD PUSH2 0x2F89 DUP2 PUSH2 0x3931 JUMP JUMPDEST PUSH1 0x40 DUP3 ADD MSTORE PUSH1 0x60 DUP4 DUP2 ADD MLOAD SWAP1 DUP3 ADD MSTORE PUSH1 0x80 SWAP3 DUP4 ADD MLOAD SWAP3 DUP2 ADD SWAP3 SWAP1 SWAP3 MSTORE POP SWAP2 SWAP1 POP JUMP JUMPDEST PUSH1 0x0 PUSH1 0x20 DUP3 DUP5 SUB SLT ISZERO PUSH2 0x2FBC JUMPI DUP1 DUP2 REVERT JUMPDEST DUP2 MLOAD PUSH2 0x1C0F DUP2 PUSH2 0x3931 JUMP JUMPDEST PUSH1 0x0 PUSH1 0x20 DUP3 DUP5 SUB SLT ISZERO PUSH2 0x2FD8 JUMPI DUP1 DUP2 REVERT JUMPDEST POP MLOAD SWAP2 SWAP1 POP JUMP JUMPDEST PUSH1 0x0 DUP1 PUSH1 0x0 DUP1 PUSH1 0x60 DUP6 DUP8 SUB SLT ISZERO PUSH2 0x2FF4 JUMPI DUP2 DUP3 REVERT JUMPDEST DUP5 CALLDATALOAD SWAP4 POP PUSH1 0x20 DUP6 ADD CALLDATALOAD SWAP3 POP PUSH1 0x40 DUP6 ADD CALLDATALOAD PUSH1 0x1 PUSH1 0x1 PUSH1 0x40 SHL SUB DUP2 GT ISZERO PUSH2 0x28B4 JUMPI DUP3 DUP4 REVERT JUMPDEST PUSH1 0x1 PUSH1 0x1 PUSH1 0xA0 SHL SUB AND SWAP1 MSTORE JUMP JUMPDEST PUSH1 0x0 DUP2 MLOAD DUP1 DUP5 MSTORE PUSH1 0x20 DUP1 DUP6 ADD SWAP5 POP DUP1 DUP5 ADD DUP4 JUMPDEST DUP4 DUP2 LT ISZERO PUSH2 0x305C JUMPI DUP2 MLOAD PUSH1 0x1 PUSH1 0x1 PUSH1 0xA0 SHL SUB AND DUP8 MSTORE SWAP6 DUP3 ADD SWAP6 SWAP1 DUP3 ADD SWAP1 PUSH1 0x1 ADD PUSH2 0x3037 JUMP JUMPDEST POP SWAP5 SWAP6 SWAP5 POP POP POP POP POP JUMP JUMPDEST PUSH1 0x0 DUP2 MLOAD DUP1 DUP5 MSTORE PUSH1 0x20 DUP1 DUP6 ADD SWAP5 POP DUP1 DUP5 ADD DUP4 JUMPDEST DUP4 DUP2 LT ISZERO PUSH2 0x305C JUMPI DUP2 MLOAD DUP8 MSTORE SWAP6 DUP3 ADD SWAP6 SWAP1 DUP3 ADD SWAP1 PUSH1 0x1 ADD PUSH2 0x307A JUMP JUMPDEST PUSH1 0x0 DUP2 MLOAD DUP1 DUP5 MSTORE PUSH2 0x30AE DUP2 PUSH1 0x20 DUP7 ADD PUSH1 0x20 DUP7 ADD PUSH2 0x383F JUMP JUMPDEST PUSH1 0x1F ADD PUSH1 0x1F NOT AND SWAP3 SWAP1 SWAP3 ADD PUSH1 0x20 ADD SWAP3 SWAP2 POP POP JUMP JUMPDEST PUSH1 0x2 DUP2 LT PUSH2 0x30CC JUMPI INVALID JUMPDEST SWAP1 MSTORE JUMP JUMPDEST PUSH3 0xFFFFFF AND SWAP1 MSTORE JUMP JUMPDEST PUSH1 0x0 DUP3 DUP5 DUP4 CALLDATACOPY SWAP2 ADD SWAP1 DUP2 MSTORE SWAP2 SWAP1 POP JUMP JUMPDEST PUSH1 0x0 PUSH4 0x46533A53 PUSH1 0xE0 SHL DUP3 MSTORE DUP4 MLOAD PUSH2 0x3108 DUP2 PUSH1 0x4 DUP6 ADD PUSH1 0x20 DUP9 ADD PUSH2 0x383F JUMP JUMPDEST PUSH3 0x29A31D PUSH1 0xE9 SHL PUSH1 0x4 SWAP2 DUP5 ADD SWAP2 DUP3 ADD MSTORE DUP4 MLOAD PUSH2 0x312B DUP2 PUSH1 0x7 DUP5 ADD PUSH1 0x20 DUP9 ADD PUSH2 0x383F JUMP JUMPDEST ADD PUSH1 0x7 ADD SWAP5 SWAP4 POP POP POP POP JUMP JUMPDEST PUSH1 0x0 PUSH4 0x46533A53 PUSH1 0xE0 SHL DUP3 MSTORE DUP3 MLOAD PUSH2 0x3156 DUP2 PUSH1 0x4 DUP6 ADD PUSH1 0x20 DUP8 ADD PUSH2 0x383F JUMP JUMPDEST PUSH3 0x14D193 PUSH1 0xEA SHL PUSH1 0x4 SWAP4 SWAP1 SWAP2 ADD SWAP3 DUP4 ADD MSTORE POP PUSH1 0x7 ADD SWAP2 SWAP1 POP JUMP JUMPDEST PUSH1 0x0 PUSH4 0x46533A53 PUSH1 0xE0 SHL DUP3 MSTORE DUP4 MLOAD PUSH2 0x318F DUP2 PUSH1 0x4 DUP6 ADD PUSH1 0x20 DUP9 ADD PUSH2 0x383F JUMP JUMPDEST PUSH2 0x231D PUSH1 0xF1 SHL PUSH1 0x4 SWAP2 DUP5 ADD SWAP2 DUP3 ADD MSTORE DUP4 MLOAD PUSH2 0x31B1 DUP2 PUSH1 0x6 DUP5 ADD PUSH1 0x20 DUP9 ADD PUSH2 0x383F JUMP JUMPDEST ADD PUSH1 0x6 ADD SWAP5 SWAP4 POP POP POP POP JUMP JUMPDEST PUSH1 0x0 PUSH4 0x46533A53 PUSH1 0xE0 SHL DUP3 MSTORE DUP3 MLOAD PUSH2 0x31DC DUP2 PUSH1 0x4 DUP6 ADD PUSH1 0x20 DUP8 ADD PUSH2 0x383F JUMP JUMPDEST PUSH2 0x1193 PUSH1 0xF2 SHL PUSH1 0x4 SWAP4 SWAP1 SWAP2 ADD SWAP3 DUP4 ADD MSTORE POP PUSH1 0x6 ADD SWAP2 SWAP1 POP JUMP JUMPDEST PUSH1 0x0 PUSH5 0x46533A5053 PUSH1 0xD8 SHL DUP3 MSTORE DUP3 MLOAD PUSH2 0x3215 DUP2 PUSH1 0x5 DUP6 ADD PUSH1 0x20 DUP8 ADD PUSH2 0x383F JUMP JUMPDEST PUSH1 0x2D PUSH1 0xF9 SHL PUSH1 0x5 SWAP4 SWAP1 SWAP2 ADD SWAP3 DUP4 ADD MSTORE POP PUSH1 0x6 ADD SWAP2 SWAP1 POP JUMP JUMPDEST PUSH1 0x1 PUSH1 0x1 PUSH1 0xA0 SHL SUB SWAP2 SWAP1 SWAP2 AND DUP2 MSTORE PUSH1 0x20 ADD SWAP1 JUMP JUMPDEST PUSH1 0x1 PUSH1 0x1 PUSH1 0xA0 SHL SUB SWAP3 DUP4 AND DUP2 MSTORE SWAP2 AND PUSH1 0x20 DUP3 ADD MSTORE PUSH1 0x40 ADD SWAP1 JUMP JUMPDEST PUSH1 0x0 PUSH1 0x1 DUP1 PUSH1 0xA0 SHL SUB DUP1 DUP11 AND DUP4 MSTORE PUSH1 0xE0 PUSH1 0x20 DUP5 ADD MSTORE PUSH2 0x327D PUSH1 0xE0 DUP5 ADD DUP11 PUSH2 0x3024 JUMP JUMPDEST DUP4 DUP2 SUB PUSH1 0x40 DUP6 ADD MSTORE PUSH2 0x328F DUP2 DUP11 PUSH2 0x3067 JUMP JUMPDEST SWAP1 POP DUP4 DUP2 SUB PUSH1 0x60 DUP6 ADD MSTORE PUSH2 0x32A3 DUP2 DUP10 PUSH2 0x3067 JUMP JUMPDEST SWAP1 POP DUP2 DUP8 AND PUSH1 0x80 DUP6 ADD MSTORE DUP4 DUP2 SUB PUSH1 0xA0 DUP6 ADD MSTORE PUSH2 0x32BF DUP2 DUP8 PUSH2 0x3096 JUMP JUMPDEST SWAP3 POP POP POP PUSH2 0xFFFF DUP4 AND PUSH1 0xC0 DUP4 ADD MSTORE SWAP9 SWAP8 POP POP POP POP POP POP POP POP JUMP JUMPDEST PUSH1 0x0 PUSH1 0x1 DUP1 PUSH1 0xA0 SHL SUB DUP7 AND DUP3 MSTORE DUP5 PUSH1 0x20 DUP4 ADD MSTORE DUP4 PUSH1 0x40 DUP4 ADD MSTORE PUSH1 0x80 PUSH1 0x60 DUP4 ADD MSTORE PUSH2 0x3306 PUSH1 0x80 DUP4 ADD DUP5 PUSH2 0x3096 JUMP JUMPDEST SWAP7 SWAP6 POP POP POP POP POP POP JUMP JUMPDEST SWAP1 ISZERO ISZERO DUP2 MSTORE PUSH1 0x20 ADD SWAP1 JUMP JUMPDEST PUSH1 0x60 DUP2 ADD PUSH2 0x3329 DUP3 DUP7 PUSH2 0x30C2 JUMP JUMPDEST PUSH1 0x20 DUP3 ADD SWAP4 SWAP1 SWAP4 MSTORE PUSH1 0x40 ADD MSTORE SWAP2 SWAP1 POP JUMP JUMPDEST PUSH1 0x0 PUSH1 0x20 DUP3 MSTORE PUSH2 0x24F3 PUSH1 0x20 DUP4 ADD DUP5 PUSH2 0x3096 JUMP JUMPDEST PUSH1 0x20 DUP1 DUP3 MSTORE PUSH1 0x6 SWAP1 DUP3 ADD MSTORE PUSH6 0x23299D212A21 PUSH1 0xD1 SHL PUSH1 0x40 DUP3 ADD MSTORE PUSH1 0x60 ADD SWAP1 JUMP JUMPDEST PUSH1 0x20 DUP1 DUP3 MSTORE PUSH1 0x6 SWAP1 DUP3 ADD MSTORE PUSH6 0x46533A4E5745 PUSH1 0xD0 SHL PUSH1 0x40 DUP3 ADD MSTORE PUSH1 0x60 ADD SWAP1 JUMP JUMPDEST PUSH1 0x20 DUP1 DUP3 MSTORE PUSH1 0x7 SWAP1 DUP3 ADD MSTORE PUSH7 0x23299D2A29992D PUSH1 0xC9 SHL PUSH1 0x40 DUP3 ADD MSTORE PUSH1 0x60 ADD SWAP1 JUMP JUMPDEST PUSH1 0x20 DUP1 DUP3 MSTORE PUSH1 0x5 SWAP1 DUP3 ADD MSTORE PUSH5 0x46533A4E41 PUSH1 0xD8 SHL PUSH1 0x40 DUP3 ADD MSTORE PUSH1 0x60 ADD SWAP1 JUMP JUMPDEST PUSH1 0x20 DUP1 DUP3 MSTORE PUSH1 0x6 SWAP1 DUP3 ADD MSTORE PUSH6 0x46533A415A41 PUSH1 0xD0 SHL PUSH1 0x40 DUP3 ADD MSTORE PUSH1 0x60 ADD SWAP1 JUMP JUMPDEST PUSH1 0x20 DUP1 DUP3 MSTORE PUSH1 0x6 SWAP1 DUP3 ADD MSTORE PUSH6 0x1194CE9550D5 PUSH1 0xD2 SHL PUSH1 0x40 DUP3 ADD MSTORE PUSH1 0x60 ADD SWAP1 JUMP JUMPDEST PUSH1 0x20 DUP1 DUP3 MSTORE PUSH1 0x15 SWAP1 DUP3 ADD MSTORE PUSH21 0x1194CE9113D113D7D511535417D11254D050931151 PUSH1 0x5A SHL PUSH1 0x40 DUP3 ADD MSTORE PUSH1 0x60 ADD SWAP1 JUMP JUMPDEST PUSH1 0x20 DUP1 DUP3 MSTORE PUSH1 0x7 SWAP1 DUP3 ADD MSTORE PUSH7 0x46533A5053413 PUSH1 0xCC SHL PUSH1 0x40 DUP3 ADD MSTORE PUSH1 0x60 ADD SWAP1 JUMP JUMPDEST PUSH1 0x20 DUP1 DUP3 MSTORE PUSH1 0x7 SWAP1 DUP3 ADD MSTORE PUSH7 0x23299D2A2999AD PUSH1 0xC9 SHL PUSH1 0x40 DUP3 ADD MSTORE PUSH1 0x60 ADD SWAP1 JUMP JUMPDEST PUSH1 0x20 DUP1 DUP3 MSTORE PUSH1 0xE SWAP1 DUP3 ADD MSTORE PUSH14 0x46533A4944545F415050524F5645 PUSH1 0x90 SHL PUSH1 0x40 DUP3 ADD MSTORE PUSH1 0x60 ADD SWAP1 JUMP JUMPDEST PUSH1 0x20 DUP1 DUP3 MSTORE PUSH1 0x6 SWAP1 DUP3 ADD MSTORE PUSH6 0x46533A434241 PUSH1 0xD0 SHL PUSH1 0x40 DUP3 ADD MSTORE PUSH1 0x60 ADD SWAP1 JUMP JUMPDEST PUSH1 0x20 DUP1 DUP3 MSTORE PUSH1 0x6 SWAP1 DUP3 ADD MSTORE PUSH6 0x23299D24A329 PUSH1 0xD1 SHL PUSH1 0x40 DUP3 ADD MSTORE PUSH1 0x60 ADD SWAP1 JUMP JUMPDEST PUSH1 0x20 DUP1 DUP3 MSTORE PUSH1 0xB SWAP1 DUP3 ADD MSTORE PUSH11 0x46533A4944545F45584543 PUSH1 0xA8 SHL PUSH1 0x40 DUP3 ADD MSTORE PUSH1 0x60 ADD SWAP1 JUMP JUMPDEST PUSH1 0x20 DUP1 DUP3 MSTORE PUSH1 0x5 SWAP1 DUP3 ADD MSTORE PUSH5 0x46533A4E57 PUSH1 0xD8 SHL PUSH1 0x40 DUP3 ADD MSTORE PUSH1 0x60 ADD SWAP1 JUMP JUMPDEST PUSH1 0x20 DUP1 DUP3 MSTORE PUSH1 0x5 SWAP1 DUP3 ADD MSTORE PUSH5 0x46533A4D41 PUSH1 0xD8 SHL PUSH1 0x40 DUP3 ADD MSTORE PUSH1 0x60 ADD SWAP1 JUMP JUMPDEST PUSH1 0x20 DUP1 DUP3 MSTORE PUSH1 0x6 SWAP1 DUP3 ADD MSTORE PUSH6 0x46533A424E41 PUSH1 0xD0 SHL PUSH1 0x40 DUP3 ADD MSTORE PUSH1 0x60 ADD SWAP1 JUMP JUMPDEST PUSH1 0x20 DUP1 DUP3 MSTORE PUSH1 0x6 SWAP1 DUP3 ADD MSTORE PUSH6 0x46533A434257 PUSH1 0xD0 SHL PUSH1 0x40 DUP3 ADD MSTORE PUSH1 0x60 ADD SWAP1 JUMP JUMPDEST PUSH1 0x20 DUP1 DUP3 MSTORE PUSH1 0x6 SWAP1 DUP3 ADD MSTORE PUSH6 0x46533A414C41 PUSH1 0xD0 SHL PUSH1 0x40 DUP3 ADD MSTORE PUSH1 0x60 ADD SWAP1 JUMP JUMPDEST PUSH1 0x20 DUP1 DUP3 MSTORE PUSH1 0x6 SWAP1 DUP3 ADD MSTORE PUSH6 0x46533A545041 PUSH1 0xD0 SHL PUSH1 0x40 DUP3 ADD MSTORE PUSH1 0x60 ADD SWAP1 JUMP JUMPDEST PUSH1 0x20 DUP1 DUP3 MSTORE PUSH1 0x7 SWAP1 DUP3 ADD MSTORE PUSH7 0x23299D2A2998AD PUSH1 0xC9 SHL PUSH1 0x40 DUP3 ADD MSTORE PUSH1 0x60 ADD SWAP1 JUMP JUMPDEST PUSH1 0x20 DUP1 DUP3 MSTORE PUSH1 0x6 SWAP1 DUP3 ADD MSTORE PUSH6 0x46533A494649 PUSH1 0xD0 SHL PUSH1 0x40 DUP3 ADD MSTORE PUSH1 0x60 ADD SWAP1 JUMP JUMPDEST PUSH1 0x20 DUP1 DUP3 MSTORE PUSH1 0x6 SWAP1 DUP3 ADD MSTORE PUSH6 0x23299D2998AD PUSH1 0xD1 SHL PUSH1 0x40 DUP3 ADD MSTORE PUSH1 0x60 ADD SWAP1 JUMP JUMPDEST PUSH1 0x20 DUP1 DUP3 MSTORE PUSH1 0x6 SWAP1 DUP3 ADD MSTORE PUSH6 0x23299D29992D PUSH1 0xD1 SHL PUSH1 0x40 DUP3 ADD MSTORE PUSH1 0x60 ADD SWAP1 JUMP JUMPDEST DUP2 MLOAD PUSH1 0x1 PUSH1 0x1 PUSH1 0xA0 SHL SUB SWAP1 DUP2 AND DUP3 MSTORE PUSH1 0x20 DUP1 DUP5 ADD MLOAD DUP3 AND SWAP1 DUP4 ADD MSTORE PUSH1 0x40 DUP1 DUP5 ADD MLOAD PUSH3 0xFFFFFF AND SWAP1 DUP4 ADD MSTORE PUSH1 0x60 DUP1 DUP5 ADD MLOAD DUP3 AND SWAP1 DUP4 ADD MSTORE PUSH1 0x80 DUP1 DUP5 ADD MLOAD SWAP1 DUP4 ADD MSTORE PUSH1 0xA0 DUP4 DUP2 ADD MLOAD SWAP1 DUP4 ADD MSTORE PUSH1 0xC0 DUP1 DUP5 ADD MLOAD SWAP1 DUP4 ADD MSTORE PUSH1 0xE0 SWAP3 DUP4 ADD MLOAD AND SWAP2 DUP2 ADD SWAP2 SWAP1 SWAP2 MSTORE PUSH2 0x100 ADD SWAP1 JUMP JUMPDEST PUSH1 0x0 PUSH1 0x20 DUP3 MSTORE PUSH2 0x36C7 PUSH1 0x20 DUP4 ADD DUP5 MLOAD PUSH2 0x30C2 JUMP JUMPDEST PUSH1 0x20 DUP4 ADD MLOAD PUSH1 0x40 DUP4 ADD MSTORE PUSH1 0x40 DUP4 ADD MLOAD PUSH1 0x60 DUP4 ADD MSTORE PUSH1 0x60 DUP4 ADD MLOAD PUSH2 0x36ED PUSH1 0x80 DUP5 ADD DUP3 PUSH2 0x3017 JUMP JUMPDEST POP PUSH1 0x80 DUP4 ADD MLOAD PUSH2 0x3700 PUSH1 0xA0 DUP5 ADD DUP3 PUSH2 0x3017 JUMP JUMPDEST POP PUSH1 0xA0 DUP4 ADD MLOAD PUSH2 0x3713 PUSH1 0xC0 DUP5 ADD DUP3 PUSH2 0x3017 JUMP JUMPDEST POP PUSH1 0xC0 DUP4 ADD MLOAD PUSH2 0x3726 PUSH1 0xE0 DUP5 ADD DUP3 PUSH2 0x3017 JUMP JUMPDEST POP PUSH1 0xE0 DUP4 ADD MLOAD PUSH2 0x100 PUSH2 0x373B DUP2 DUP6 ADD DUP4 PUSH2 0x30D0 JUMP JUMPDEST DUP1 DUP6 ADD MLOAD SWAP2 POP POP PUSH2 0x140 PUSH2 0x120 DUP2 DUP2 DUP7 ADD MSTORE PUSH2 0x375B PUSH2 0x160 DUP7 ADD DUP5 PUSH2 0x3096 JUMP JUMPDEST SWAP1 DUP7 ADD MLOAD SWAP1 SWAP3 POP PUSH2 0x376E DUP6 DUP4 ADD DUP3 PUSH2 0x3017 JUMP JUMPDEST POP SWAP1 SWAP5 SWAP4 POP POP POP POP JUMP JUMPDEST SWAP1 DUP2 MSTORE PUSH1 0x20 ADD SWAP1 JUMP JUMPDEST SWAP2 DUP3 MSTORE PUSH1 0x20 DUP3 ADD MSTORE PUSH1 0x40 ADD SWAP1 JUMP JUMPDEST PUSH1 0x0 DUP7 DUP3 MSTORE DUP6 PUSH1 0x20 DUP4 ADD MSTORE PUSH1 0xA0 PUSH1 0x40 DUP4 ADD MSTORE PUSH2 0x37AE PUSH1 0xA0 DUP4 ADD DUP7 PUSH2 0x3024 JUMP JUMPDEST PUSH1 0x1 PUSH1 0x1 PUSH1 0xA0 SHL SUB SWAP5 SWAP1 SWAP5 AND PUSH1 0x60 DUP4 ADD MSTORE POP PUSH1 0x80 ADD MSTORE SWAP4 SWAP3 POP POP POP JUMP JUMPDEST SWAP3 DUP4 MSTORE PUSH1 0x20 DUP4 ADD SWAP2 SWAP1 SWAP2 MSTORE PUSH1 0x40 DUP3 ADD MSTORE PUSH1 0x60 ADD SWAP1 JUMP JUMPDEST SWAP4 DUP5 MSTORE PUSH1 0xFF SWAP3 SWAP1 SWAP3 AND PUSH1 0x20 DUP5 ADD MSTORE PUSH1 0x40 DUP4 ADD MSTORE PUSH1 0x60 DUP3 ADD MSTORE PUSH1 0x80 ADD SWAP1 JUMP JUMPDEST PUSH1 0x40 MLOAD DUP2 DUP2 ADD PUSH1 0x1 PUSH1 0x1 PUSH1 0x40 SHL SUB DUP2 GT DUP3 DUP3 LT OR ISZERO PUSH2 0x381A JUMPI INVALID JUMPDEST PUSH1 0x40 MSTORE SWAP2 SWAP1 POP JUMP JUMPDEST PUSH1 0x0 PUSH1 0x1 PUSH1 0x1 PUSH1 0x40 SHL SUB DUP3 GT ISZERO PUSH2 0x3835 JUMPI INVALID JUMPDEST POP PUSH1 0x20 SWAP1 DUP2 MUL ADD SWAP1 JUMP JUMPDEST PUSH1 0x0 JUMPDEST DUP4 DUP2 LT ISZERO PUSH2 0x385A JUMPI DUP2 DUP2 ADD MLOAD DUP4 DUP3 ADD MSTORE PUSH1 0x20 ADD PUSH2 0x3842 JUMP JUMPDEST DUP4 DUP2 GT ISZERO PUSH2 0x3869 JUMPI PUSH1 0x0 DUP5 DUP5 ADD MSTORE JUMPDEST POP POP POP POP JUMP JUMPDEST PUSH1 0xE0 SHR SWAP1 JUMP JUMPDEST PUSH1 0x0 PUSH1 0x44 RETURNDATASIZE LT ISZERO PUSH2 0x3885 JUMPI PUSH2 0x291 JUMP JUMPDEST PUSH1 0x4 DUP2 DUP3 RETURNDATACOPY PUSH4 0x8C379A0 PUSH2 0x3899 DUP3 MLOAD PUSH2 0x386F JUMP JUMPDEST EQ PUSH2 0x38A3 JUMPI PUSH2 0x291 JUMP JUMPDEST PUSH1 0x40 MLOAD RETURNDATASIZE PUSH1 0x3 NOT ADD PUSH1 0x4 DUP3 RETURNDATACOPY DUP1 MLOAD RETURNDATASIZE PUSH1 0x1 PUSH1 0x1 PUSH1 0x40 SHL SUB DUP2 PUSH1 0x24 DUP5 ADD GT DUP2 DUP5 GT OR ISZERO PUSH2 0x38D2 JUMPI POP POP POP POP PUSH2 0x291 JUMP JUMPDEST DUP3 DUP5 ADD SWAP3 POP DUP3 MLOAD SWAP2 POP DUP1 DUP3 GT ISZERO PUSH2 0x38EC JUMPI POP POP POP POP PUSH2 0x291 JUMP JUMPDEST POP RETURNDATASIZE DUP4 ADD PUSH1 0x20 DUP3 DUP5 ADD ADD GT ISZERO PUSH2 0x3904 JUMPI POP POP POP PUSH2 0x291 JUMP JUMPDEST PUSH1 0x1F ADD PUSH1 0x1F NOT AND DUP2 ADD PUSH1 0x20 ADD PUSH1 0x40 MSTORE SWAP2 POP POP SWAP1 JUMP JUMPDEST PUSH1 0x1 PUSH1 0x1 PUSH1 0xA0 SHL SUB DUP2 AND DUP2 EQ PUSH2 0x392E JUMPI PUSH1 0x0 DUP1 REVERT JUMPDEST POP JUMP JUMPDEST PUSH3 0xFFFFFF DUP2 AND DUP2 EQ PUSH2 0x392E JUMPI PUSH1 0x0 DUP1 REVERT JUMPDEST PUSH1 0xFF DUP2 AND DUP2 EQ PUSH2 0x392E JUMPI PUSH1 0x0 DUP1 REVERT INVALID COINBASE PUSH5 0x6472657373 GASPRICE KECCAK256 PUSH10 0x6E73756666696369656E PUSH21 0x2062616C616E636520666F722063616C6C53616665 GASLIMIT MSTORE NUMBER ORIGIN ADDRESS GASPRICE KECCAK256 GASLIMIT MSTORE NUMBER ORIGIN ADDRESS KECCAK256 PUSH16 0x7065726174696F6E20646964206E6F74 KECCAK256 PUSH20 0x7563636565645361666545524332303A20617070 PUSH19 0x6F76652066726F6D206E6F6E2D7A65726F2074 PUSH16 0x206E6F6E2D7A65726F20616C6C6F7761 PUSH15 0x6365A26469706673582212204D81E7 DUP8 CREATE 0x24 ISZERO CALL MSTORE8 MULMOD 0xCC SHL DUP11 SLOAD 0xCD EXTCODEHASH NUMBER 0xE 0xB8 0x2D SHL CALL PUSH18 0x804E7CE96F983A4C8B64736F6C6343000706 STOP CALLER "},"methodIdentifiers":{"AAVE_ADDRESSES_PROVIDER()":"11b2e10e","AAVE_POOL()":"08a01675","ADDRESSES_PROVIDER()":"0542975c","POOL()":"7535d246","SUSHI_ROUTER()":"0c24f4fa","SWAP_ROUTER()":"c6005893","V3_FACTORY()":"08bd1a85","emergencyWithdraw(address)":"6ff1c9bc","emergencyWithdrawETH()":"84536017","executeOperation(address[],uint256[],uint256[],address,bytes)":"920f5c84","initiateAaveFlashLoan(address,uint256,bytes)":"52530f86","initiateUniswapV3FlashLoan(uint8,address,uint256,uint256,bytes,address)":"984c9b22","owner()":"8da5cb5b","uniswapV3FlashCallback(uint256,uint256,bytes)":"e9cbafb0"}}}}}