{
  "_format": "hh-sol-artifact-1",
  "contractName": "FlashSwap",
  "sourceName": "contracts/FlashSwap.sol",
  "abi": [
    {
      "inputs": [
        {
          "internalType": "address",
          "name": "_uniswapV3Router",
          "type": "address"
        },
        {
          "internalType": "address",
          "name": "_sushiRouter",
          "type": "address"
        },
        {
          "internalType": "address",
          "name": "_aavePoolAddress",
          "type": "address"
        },
        {
          "internalType": "address",
          "name": "_aaveAddressesProvider",
          "type": "address"
        }
      ],
      "stateMutability": "nonpayable",
      "type": "constructor"
    },
    {
      "anonymous": false,
      "inputs": [
        {
          "indexed": true,
          "internalType": "address",
          "name": "tokenBorrowed",
          "type": "address"
        },
        {
          "indexed": false,
          "internalType": "uint256",
          "name": "amountBorrowed",
          "type": "uint256"
        },
        {
          "indexed": false,
          "internalType": "uint256",
          "name": "feePaid",
          "type": "uint256"
        }
      ],
      "name": "AaveArbitrageExecution",
      "type": "event"
    },
    {
      "anonymous": false,
      "inputs": [
        {
          "indexed": true,
          "internalType": "address",
          "name": "caller",
          "type": "address"
        },
        {
          "indexed": true,
          "internalType": "address",
          "name": "asset",
          "type": "address"
        },
        {
          "indexed": false,
          "internalType": "uint256",
          "name": "amount",
          "type": "uint256"
        }
      ],
      "name": "AaveFlashLoanInitiated",
      "type": "event"
    },
    {
      "anonymous": false,
      "inputs": [
        {
          "indexed": true,
          "internalType": "enum FlashSwap.CallbackType",
          "name": "tradeType",
          "type": "uint8"
        },
        {
          "indexed": true,
          "internalType": "address",
          "name": "tokenBorrowed",
          "type": "address"
        },
        {
          "indexed": false,
          "internalType": "uint256",
          "name": "amountBorrowed",
          "type": "uint256"
        },
        {
          "indexed": false,
          "internalType": "uint256",
          "name": "feePaid",
          "type": "uint256"
        }
      ],
      "name": "ArbitrageExecution",
      "type": "event"
    },
    {
      "anonymous": false,
      "inputs": [
        {
          "indexed": true,
          "internalType": "address",
          "name": "token",
          "type": "address"
        },
        {
          "indexed": true,
          "internalType": "address",
          "name": "recipient",
          "type": "address"
        },
        {
          "indexed": false,
          "internalType": "uint256",
          "name": "amount",
          "type": "uint256"
        }
      ],
      "name": "EmergencyWithdrawal",
      "type": "event"
    },
    {
      "anonymous": false,
      "inputs": [
        {
          "indexed": true,
          "internalType": "address",
          "name": "caller",
          "type": "address"
        },
        {
          "indexed": true,
          "internalType": "address",
          "name": "pool",
          "type": "address"
        },
        {
          "indexed": false,
          "internalType": "enum FlashSwap.CallbackType",
          "name": "tradeType",
          "type": "uint8"
        },
        {
          "indexed": false,
          "internalType": "uint256",
          "name": "amount0",
          "type": "uint256"
        },
        {
          "indexed": false,
          "internalType": "uint256",
          "name": "amount1",
          "type": "uint256"
        }
      ],
      "name": "FlashSwapInitiated",
      "type": "event"
    },
    {
      "anonymous": false,
      "inputs": [
        {
          "indexed": true,
          "internalType": "address",
          "name": "token",
          "type": "address"
        },
        {
          "indexed": true,
          "internalType": "address",
          "name": "recipient",
          "type": "address"
        },
        {
          "indexed": false,
          "internalType": "uint256",
          "name": "amount",
          "type": "uint256"
        }
      ],
      "name": "ProfitTransferred",
      "type": "event"
    },
    {
      "anonymous": false,
      "inputs": [
        {
          "indexed": true,
          "internalType": "address",
          "name": "token",
          "type": "address"
        },
        {
          "indexed": false,
          "internalType": "uint256",
          "name": "amountRepaid",
          "type": "uint256"
        }
      ],
      "name": "RepaymentSuccess",
      "type": "event"
    },
    {
      "anonymous": false,
      "inputs": [
        {
          "indexed": false,
          "internalType": "uint256",
          "name": "swapNumber",
          "type": "uint256"
        },
        {
          "indexed": false,
          "internalType": "uint8",
          "name": "dexType",
          "type": "uint8"
        },
        {
          "indexed": true,
          "internalType": "address",
          "name": "tokenIn",
          "type": "address"
        },
        {
          "indexed": true,
          "internalType": "address",
          "name": "tokenOut",
          "type": "address"
        },
        {
          "indexed": false,
          "internalType": "uint256",
          "name": "amountIn",
          "type": "uint256"
        },
        {
          "indexed": false,
          "internalType": "uint256",
          "name": "amountOut",
          "type": "uint256"
        }
      ],
      "name": "SwapExecuted",
      "type": "event"
    },
    {
      "inputs": [],
      "name": "AAVE_ADDRESSES_PROVIDER",
      "outputs": [
        {
          "internalType": "address",
          "name": "",
          "type": "address"
        }
      ],
      "stateMutability": "view",
      "type": "function"
    },
    {
      "inputs": [],
      "name": "AAVE_POOL",
      "outputs": [
        {
          "internalType": "contract IPool",
          "name": "",
          "type": "address"
        }
      ],
      "stateMutability": "view",
      "type": "function"
    },
    {
      "inputs": [],
      "name": "ADDRESSES_PROVIDER",
      "outputs": [
        {
          "internalType": "address",
          "name": "",
          "type": "address"
        }
      ],
      "stateMutability": "view",
      "type": "function"
    },
    {
      "inputs": [],
      "name": "POOL",
      "outputs": [
        {
          "internalType": "address",
          "name": "",
          "type": "address"
        }
      ],
      "stateMutability": "view",
      "type": "function"
    },
    {
      "inputs": [],
      "name": "SUSHI_ROUTER",
      "outputs": [
        {
          "internalType": "contract IUniswapV2Router02",
          "name": "",
          "type": "address"
        }
      ],
      "stateMutability": "view",
      "type": "function"
    },
    {
      "inputs": [],
      "name": "SWAP_ROUTER",
      "outputs": [
        {
          "internalType": "contract ISwapRouter",
          "name": "",
          "type": "address"
        }
      ],
      "stateMutability": "view",
      "type": "function"
    },
    {
      "inputs": [],
      "name": "V3_FACTORY",
      "outputs": [
        {
          "internalType": "address",
          "name": "",
          "type": "address"
        }
      ],
      "stateMutability": "view",
      "type": "function"
    },
    {
      "inputs": [
        {
          "internalType": "address[]",
          "name": "assets",
          "type": "address[]"
        },
        {
          "internalType": "uint256[]",
          "name": "amounts",
          "type": "uint256[]"
        },
        {
          "internalType": "uint256[]",
          "name": "premiums",
          "type": "uint256[]"
        },
        {
          "internalType": "address",
          "name": "initiator",
          "type": "address"
        },
        {
          "internalType": "bytes",
          "name": "params",
          "type": "bytes"
        }
      ],
      "name": "executeOperation",
      "outputs": [
        {
          "internalType": "bool",
          "name": "",
          "type": "bool"
        }
      ],
      "stateMutability": "nonpayable",
      "type": "function"
    },
    {
      "inputs": [
        {
          "internalType": "address[]",
          "name": "assets",
          "type": "address[]"
        },
        {
          "internalType": "uint256[]",
          "name": "amounts",
          "type": "uint256[]"
        },
        {
          "internalType": "bytes",
          "name": "params",
          "type": "bytes"
        }
      ],
      "name": "initiateAaveFlashLoan",
      "outputs": [],
      "stateMutability": "nonpayable",
      "type": "function"
    },
    {
      "inputs": [
        {
          "internalType": "address",
          "name": "_poolAddress",
          "type": "address"
        },
        {
          "internalType": "uint256",
          "name": "_amount0",
          "type": "uint256"
        },
        {
          "internalType": "uint256",
          "name": "_amount1",
          "type": "uint256"
        },
        {
          "internalType": "bytes",
          "name": "_params",
          "type": "bytes"
        }
      ],
      "name": "initiateFlashSwap",
      "outputs": [],
      "stateMutability": "nonpayable",
      "type": "function"
    },
    {
      "inputs": [
        {
          "internalType": "address",
          "name": "_poolAddress",
          "type": "address"
        },
        {
          "internalType": "uint256",
          "name": "_amount0",
          "type": "uint256"
        },
        {
          "internalType": "uint256",
          "name": "_amount1",
          "type": "uint256"
        },
        {
          "internalType": "bytes",
          "name": "_params",
          "type": "bytes"
        }
      ],
      "name": "initiateTriangularFlashSwap",
      "outputs": [],
      "stateMutability": "nonpayable",
      "type": "function"
    },
    {
      "inputs": [],
      "name": "owner",
      "outputs": [
        {
          "internalType": "address payable",
          "name": "",
          "type": "address"
        }
      ],
      "stateMutability": "view",
      "type": "function"
    },
    {
      "inputs": [
        {
          "internalType": "uint256",
          "name": "fee0",
          "type": "uint256"
        },
        {
          "internalType": "uint256",
          "name": "fee1",
          "type": "uint256"
        },
        {
          "internalType": "bytes",
          "name": "data",
          "type": "bytes"
        }
      ],
      "name": "uniswapV3FlashCallback",
      "outputs": [],
      "stateMutability": "nonpayable",
      "type": "function"
    },
    {
      "inputs": [],
      "name": "withdrawEther",
      "outputs": [],
      "stateMutability": "nonpayable",
      "type": "function"
    },
    {
      "inputs": [
        {
          "internalType": "address",
          "name": "tokenAddress",
          "type": "address"
        }
      ],
      "name": "withdrawToken",
      "outputs": [],
      "stateMutability": "nonpayable",
      "type": "function"
    },
    {
      "stateMutability": "payable",
      "type": "receive"
    }
  ],
  "bytecode": "0x6101406040527f1f98431c8ad98523631ae4a59f267346ea31f98400000000000000000000000060e0523480156200003657600080fd5b50604051620043763803806200437683398101604081905262000059916200015f565b60016000556001600160a01b038416620000905760405162461bcd60e51b81526004016200008790620001db565b60405180910390fd5b6001600160a01b038316620000b95760405162461bcd60e51b81526004016200008790620001bb565b6001600160a01b038216620000e25760405162461bcd60e51b815260040162000087906200021c565b6001600160a01b0381166200010b5760405162461bcd60e51b81526004016200008790620001fb565b6001600160601b0319606094851b811660805292841b831660a05290831b821661010052821b166101205233901b60c0526200023c565b80516001600160a01b03811681146200015a57600080fd5b919050565b6000806000806080858703121562000175578384fd5b620001808562000142565b9350620001906020860162000142565b9250620001a06040860162000142565b9150620001b06060860162000142565b905092959194509250565b60208082526006908201526523299d24a9a960d11b604082015260600190565b60208082526006908201526523299d24aaa960d11b604082015260600190565b602080825260079082015266046533a494141560cc1b604082015260600190565b602080825260069082015265046533a4941560d41b604082015260600190565b60805160601c60a05160601c60c05160601c60e05160601c6101005160601c6101205160601c6140396200033d6000398061029c528061071f5250806102c15280610baf5280610e225280611145528061143d5250806102e552806115c75250806103125280610344528061074c528061077e5280610a135280610a455280610aa55280610b3f5280610bdc5280610c0e5280610d085280610d2f5280610d9652806111c15280611239528061128852806112ba528061185c52806118d45250806106fb5280610ff25280611ca8525080610fbb52806114bc528061237452806123df528061244e52806124b85280612524528061279052506140396000f3fe6080604052600436106100ec5760003560e01c80637362377b1161008a578063920f5c8411610059578063920f5c8414610218578063be1ef10214610245578063c600589314610265578063e9cbafb01461027a576100f3565b80637362377b146101b95780637535d246146101ce57806389476069146101e35780638da5cb5b14610203576100f3565b806309c3da87116100c657806309c3da871461014d5780630c24f4fa1461016f57806311b2e10e146101845780632f36d1e014610199576100f3565b80630542975c146100f857806308a016751461012357806308bd1a8514610138576100f3565b366100f357005b600080fd5b34801561010457600080fd5b5061010d61029a565b60405161011a919061378e565b60405180910390f35b34801561012f57600080fd5b5061010d6102bf565b34801561014457600080fd5b5061010d6102e3565b34801561015957600080fd5b5061016d610168366004612e60565b610307565b005b34801561017b57600080fd5b5061010d6106f9565b34801561019057600080fd5b5061010d61071d565b3480156101a557600080fd5b5061016d6101b4366004612e60565b610741565b3480156101c557600080fd5b5061016d610a08565b3480156101da57600080fd5b5061010d610bad565b3480156101ef57600080fd5b5061016d6101fe366004612e28565b610bd1565b34801561020f57600080fd5b5061010d610d94565b34801561022457600080fd5b50610238610233366004612ec7565b610db8565b60405161011a919061387d565b34801561025157600080fd5b5061016d610260366004612f9c565b61127d565b34801561027157600080fd5b5061010d6114ba565b34801561028657600080fd5b5061016d6102953660046134b1565b6114de565b7f00000000000000000000000000000000000000000000000000000000000000005b90565b7f000000000000000000000000000000000000000000000000000000000000000081565b7f000000000000000000000000000000000000000000000000000000000000000081565b336001600160a01b037f00000000000000000000000000000000000000000000000000000000000000001614806103665750326001600160a01b037f000000000000000000000000000000000000000000000000000000000000000016145b61038b5760405162461bcd60e51b81526004016103829061393b565b60405180910390fd5b6001600160a01b0385166103b15760405162461bcd60e51b815260040161038290613a99565b6000841180156103bf575082155b806103d357506000831180156103d3575083155b6103ef5760405162461bcd60e51b81526004016103829061397a565b8061040c5760405162461bcd60e51b81526004016103829061399a565b60008590506000816001600160a01b0316630dfe16816040518163ffffffff1660e01b815260040160206040518083038186803b15801561044c57600080fd5b505afa158015610460573d6000803e3d6000fd5b505050506040513d601f19601f820116820180604052508101906104849190612e44565b90506000826001600160a01b031663d21220a76040518163ffffffff1660e01b815260040160206040518083038186803b1580156104c157600080fd5b505afa1580156104d5573d6000803e3d6000fd5b505050506040513d601f19601f820116820180604052508101906104f99190612e44565b90506000836001600160a01b031663ddca3f436040518163ffffffff1660e01b815260040160206040518083038186803b15801561053657600080fd5b505afa15801561054a573d6000803e3d6000fd5b505050506040513d601f19601f8201168201806040525081019061056e919061347d565b9050886001600160a01b0316336001600160a01b03167f05aa02a08501ddc4f9f218a7e1318cc2582c58027d8320aa916d16881064515460008b8b6040516105b893929190613888565b60405180910390a360408051610120810190915260009080825b81526020018a8152602001898152602001336001600160a01b031681526020018b6001600160a01b03168152602001856001600160a01b03168152602001846001600160a01b031681526020018362ffffff16815260200188888080601f01602080910402602001604051908101604052809392919081815260200183838082843760009201919091525050509152506040519091506001600160a01b0386169063490e6cbc9030908c908c9061068d908790602001613ce2565b6040516020818303038152906040526040518563ffffffff1660e01b81526004016106bb9493929190613850565b600060405180830381600087803b1580156106d557600080fd5b505af11580156106e9573d6000803e3d6000fd5b5050505050505050505050505050565b7f000000000000000000000000000000000000000000000000000000000000000081565b7f000000000000000000000000000000000000000000000000000000000000000081565b336001600160a01b037f00000000000000000000000000000000000000000000000000000000000000001614806107a05750326001600160a01b037f000000000000000000000000000000000000000000000000000000000000000016145b6107bc5760405162461bcd60e51b81526004016103829061393b565b6001600160a01b0385166107e25760405162461bcd60e51b815260040161038290613a99565b6000841180156107f0575082155b806108045750600083118015610804575083155b6108205760405162461bcd60e51b81526004016103829061397a565b8061083d5760405162461bcd60e51b81526004016103829061399a565b60008590506000816001600160a01b0316630dfe16816040518163ffffffff1660e01b815260040160206040518083038186803b15801561087d57600080fd5b505afa158015610891573d6000803e3d6000fd5b505050506040513d601f19601f820116820180604052508101906108b59190612e44565b90506000826001600160a01b031663d21220a76040518163ffffffff1660e01b815260040160206040518083038186803b1580156108f257600080fd5b505afa158015610906573d6000803e3d6000fd5b505050506040513d601f19601f8201168201806040525081019061092a9190612e44565b90506000836001600160a01b031663ddca3f436040518163ffffffff1660e01b815260040160206040518083038186803b15801561096757600080fd5b505afa15801561097b573d6000803e3d6000fd5b505050506040513d601f19601f8201168201806040525081019061099f919061347d565b9050886001600160a01b0316336001600160a01b03167f05aa02a08501ddc4f9f218a7e1318cc2582c58027d8320aa916d16881064515460018b8b6040516109e993929190613888565b60405180910390a36040805161012081019091526000908060016105d2565b336001600160a01b037f0000000000000000000000000000000000000000000000000000000000000000161480610a675750326001600160a01b037f000000000000000000000000000000000000000000000000000000000000000016145b610a835760405162461bcd60e51b81526004016103829061393b565b4780610aa15760405162461bcd60e51b815260040161038290613bb8565b60007f00000000000000000000000000000000000000000000000000000000000000006001600160a01b031682604051610ada906102bc565b60006040518083038185875af1925050503d8060008114610b17576040519150601f19603f3d011682016040523d82523d6000602084013e610b1c565b606091505b5050905080610b3d5760405162461bcd60e51b815260040161038290613a39565b7f00000000000000000000000000000000000000000000000000000000000000006001600160a01b031660006001600160a01b03167f9495d03190a79a43e534c9e328ff322f6283261383f5f19c809564f6ad5a57b384604051610ba19190613d8c565b60405180910390a35050565b7f000000000000000000000000000000000000000000000000000000000000000090565b336001600160a01b037f0000000000000000000000000000000000000000000000000000000000000000161480610c305750326001600160a01b037f000000000000000000000000000000000000000000000000000000000000000016145b610c4c5760405162461bcd60e51b81526004016103829061393b565b6001600160a01b038116610c725760405162461bcd60e51b8152600401610382906139f9565b6040516370a0823160e01b81526000906001600160a01b038316906370a0823190610ca190309060040161378e565b60206040518083038186803b158015610cb957600080fd5b505afa158015610ccd573d6000803e3d6000fd5b505050506040513d601f19601f82011682018060405250810190610cf19190613499565b90508015610d9057610d2d6001600160a01b0383167f00000000000000000000000000000000000000000000000000000000000000008361190d565b7f00000000000000000000000000000000000000000000000000000000000000006001600160a01b0316826001600160a01b03167f9495d03190a79a43e534c9e328ff322f6283261383f5f19c809564f6ad5a57b383604051610ba19190613d8c565b5050565b7f000000000000000000000000000000000000000000000000000000000000000081565b600060026000541415610e12576040805162461bcd60e51b815260206004820152601f60248201527f5265656e7472616e637947756172643a207265656e7472616e742063616c6c00604482015290519081900360640190fd5b6002600055336001600160a01b037f00000000000000000000000000000000000000000000000000000000000000001614610e5f5760405162461bcd60e51b815260040161038290613a59565b6001600160a01b0384163014610e875760405162461bcd60e51b815260040161038290613c39565b60018914610ea75760405162461bcd60e51b815260040161038290613af8565b8887148015610eb557508685145b610ed15760405162461bcd60e51b815260040161038290613b77565b6000610edf83850185613110565b905060008b8b6000818110610ef057fe5b9050602002016020810190610f059190612e28565b905060008a8a6000818110610f1657fe5b905060200201359050600089896000818110610f2e57fe5b905060200201359050826001600160a01b03167f590e310148e41f756dced96dc1b424986c6699ee980cf932434abcaf26c0474c8383604051610f72929190613d95565b60405180910390a28160005b85515181101561105f57600086600001518281518110610f9a57fe5b6020026020010151905060008060ff168260a0015160ff161415610fdf57507f0000000000000000000000000000000000000000000000000000000000000000611046565b60a082015160ff166001141561101657507f0000000000000000000000000000000000000000000000000000000000000000611046565b60a082015160ff166002141561102e57508051611046565b60405162461bcd60e51b815260040161038290613a19565b61105582602001518286611964565b5050600101610f7e565b50600061106f8660000151611a9a565b9050600081116110915760405162461bcd60e51b81526004016103829061395a565b600061109d858561223d565b90506000866001600160a01b03166370a08231306040518263ffffffff1660e01b81526004016110cd919061378e565b60206040518083038186803b1580156110e557600080fd5b505afa1580156110f9573d6000803e3d6000fd5b505050506040513d601f19601f8201168201806040525081019061111d9190613499565b90508181101561113f5760405162461bcd60e51b815260040161038290613a79565b61116a877f000000000000000000000000000000000000000000000000000000000000000084611964565b866001600160a01b03167f225e94d7746fdb574aa7d9b5f49a354df34409388d4f4a2799fe421a1b5f55f2836040516111a39190613d8c565b60405180910390a260006111b782846122a0565b9050801561125e577f00000000000000000000000000000000000000000000000000000000000000006001600160a01b0316886001600160a01b03167ff8c1ab10239f6f37a13f2905c9b042c4c7ff13bcbf485c543d2a9ecbc5c18afa836040516112229190613d8c565b60405180910390a361125e6001600160a01b0389167f00000000000000000000000000000000000000000000000000000000000000008361190d565b6001995050505050505050505060016000559998505050505050505050565b336001600160a01b037f00000000000000000000000000000000000000000000000000000000000000001614806112dc5750326001600160a01b037f000000000000000000000000000000000000000000000000000000000000000016145b6112f85760405162461bcd60e51b81526004016103829061393b565b8351600114801561130a575082516001145b6113265760405162461bcd60e51b8152600401610382906139d9565b60008360008151811061133557fe5b60200260200101511161135a5760405162461bcd60e51b81526004016103829061395a565b806113775760405162461bcd60e51b81526004016103829061399a565b8360008151811061138457fe5b60200260200101516001600160a01b0316336001600160a01b03167f982ee83a4f94146b0aa8d4266773327071682a730aef8f249832a7c58df3b064856000815181106113cd57fe5b60200260200101516040516113e29190613d8c565b60405180910390a36040805160018082528183019092526000916020808301908036833701905050905060008160008151811061141b57fe5b602090810291909101015260405163ab9c4b5d60e01b81526001600160a01b037f0000000000000000000000000000000000000000000000000000000000000000169063ab9c4b5d9061148190309089908990879084908b908b906000906004016137bc565b600060405180830381600087803b15801561149b57600080fd5b505af11580156114af573d6000803e3d6000fd5b505050505050505050565b7f000000000000000000000000000000000000000000000000000000000000000081565b60026000541415611536576040805162461bcd60e51b815260206004820152601f60248201527f5265656e7472616e637947756172643a207265656e7472616e742063616c6c00604482015290519081900360640190fd5b600260009081556115498284018461326d565b9050600060405180606001604052808360a001516001600160a01b031681526020018360c001516001600160a01b031681526020018360e0015162ffffff16815250905081608001516001600160a01b0316336001600160a01b0316146115c25760405162461bcd60e51b815260040161038290613b37565b6115ec7f0000000000000000000000000000000000000000000000000000000000000000826122fd565b50600080600080600086604001511115611644576020860151156116225760405162461bcd60e51b8152600401610382906138ba565b5060c0850151604086015190935091508761163d838261223d565b9150611694565b604086015115801561165a575060008660200151115b6116765760405162461bcd60e51b815260040161038290613b17565b5060a08501516020860151909350915088611691838261223d565b91505b85516001600160a01b0385169060018111156116ac57fe5b7fd03100470982abc26de7fc1f904cfde062a6cbdda69c624e8035a785a40482cf85846040516116dd929190613d95565b60405180910390a360006001875160018111156116f657fe5b14156117135761170c8585896101000151612320565b9050611750565b60008751600181111561172257fe5b14156117385761170c8585896101000151612499565b60405162461bcd60e51b8152600401610382906139b9565b6040516370a0823160e01b81526000906001600160a01b038716906370a082319061177f90309060040161378e565b60206040518083038186803b15801561179757600080fd5b505afa1580156117ab573d6000803e3d6000fd5b505050506040513d601f19601f820116820180604052508101906117cf9190613499565b9050838110156117f15760405162461bcd60e51b815260040161038290613a79565b6118056001600160a01b038716338661190d565b856001600160a01b03167f225e94d7746fdb574aa7d9b5f49a354df34409388d4f4a2799fe421a1b5f55f28560405161183e9190613d8c565b60405180910390a2600061185282866122a0565b905080156118f9577f00000000000000000000000000000000000000000000000000000000000000006001600160a01b0316876001600160a01b03167ff8c1ab10239f6f37a13f2905c9b042c4c7ff13bcbf485c543d2a9ecbc5c18afa836040516118bd9190613d8c565b60405180910390a36118f96001600160a01b0388167f00000000000000000000000000000000000000000000000000000000000000008361190d565b505060016000555050505050505050505050565b604080516001600160a01b038416602482015260448082018490528251808303909101815260649091019091526020810180516001600160e01b031663a9059cbb60e01b17905261195f90849061256e565b505050565b604051636eb1769f60e11b815281906001600160a01b0385169063dd62ed3e9061199490309087906004016137a2565b60206040518083038186803b1580156119ac57600080fd5b505afa1580156119c0573d6000803e3d6000fd5b505050506040513d601f19601f820116820180604052508101906119e49190613499565b101561195f57604051636eb1769f60e11b81526000906001600160a01b0385169063dd62ed3e90611a1b90309087906004016137a2565b60206040518083038186803b158015611a3357600080fd5b505afa158015611a47573d6000803e3d6000fd5b505050506040513d601f19601f82011682018060405250810190611a6b9190613499565b1115611a8657611a866001600160a01b03841683600061261f565b61195f6001600160a01b038416838361261f565b600080825111611abc5760405162461bcd60e51b815260040161038290613c19565b600082600081518110611acb57fe5b6020026020010151602001516001600160a01b03166370a08231306040518263ffffffff1660e01b8152600401611b02919061378e565b60206040518083038186803b158015611b1a57600080fd5b505afa158015611b2e573d6000803e3d6000fd5b505050506040513d601f19601f82011682018060405250810190611b529190613499565b905060005b8351811015612236576000848281518110611b6e57fe5b6020026020010151905060008311611b985760405162461bcd60e51b815260040161038290613b57565b60a081015160009060ff16611bef57611bc883600101836020015184604001518560600151888760800151612732565b905060008111611bea5760405162461bcd60e51b815260040161038290613b97565b61222b565b60a082015160ff1660011415611e5557604080516002808252606082018352600092602083019080368337019050509050826020015181600081518110611c3257fe5b60200260200101906001600160a01b031690816001600160a01b031681525050826040015181600181518110611c6457fe5b6001600160a01b03909216602092830291909101909101526000611c8942603c61223d565b60808501516040516338ed173960e01b81529192506001600160a01b037f000000000000000000000000000000000000000000000000000000000000000016916338ed173991611ce4918a9190879030908890600401613da3565b600060405180830381600087803b158015611cfe57600080fd5b505af1925050508015611d3357506040513d6000823e601f3d908101601f19168201604052611d309190810190613081565b60015b611daa57611d3f613e90565b80611d4a5750611d8e565b611d56866001016128ab565b81604051602001611d689291906136c5565b60408051601f198184030181529082905262461bcd60e51b8252610382916004016138a7565b611d9a856001016128ab565b604051602001611d689190613713565b8051600214611dcb5760405162461bcd60e51b815260040161038290613ab8565b80600181518110611dd857fe5b6020026020010151935084604001516001600160a01b031685602001516001600160a01b0316600080516020613f5e8339815191528860010160018b89604051611e259493929190613dfc565b60405180910390a35060008311611e4e5760405162461bcd60e51b815260040161038290613ad8565b505061222b565b60a082015160ff1660021415612213576000826000015190506000816001600160a01b0316634a248d2a6040518163ffffffff1660e01b815260040160206040518083038186803b158015611ea957600080fd5b505afa158015611ebd573d6000803e3d6000fd5b505050506040513d601f19601f82011682018060405250810190611ee19190612e44565b9050806001600160a01b031684602001516001600160a01b03161415612021576080840151604051638dae733360e01b81526001600160a01b03841691638dae733391611f32918a91600401613ddf565b602060405180830381600087803b158015611f4c57600080fd5b505af1925050508015611f7c575060408051601f3d908101601f19168201909252611f7991810190613499565b60015b611fcd57611f88613e90565b80611f935750611fb1565b611f9f866001016128ab565b81604051602001611d6892919061374c565b611fbd856001016128ab565b604051602001611d68919061376d565b80935084604001516001600160a01b031685602001516001600160a01b0316600080516020613f5e8339815191528860010160028b896040516120139493929190613dfc565b60405180910390a3506121f3565b608084015160405163733e738360e11b81526000916001600160a01b0385169163e67ce70691612055918b90600401613ddf565b602060405180830381600087803b15801561206f57600080fd5b505af192505050801561209f575060408051601f3d908101601f1916820190925261209c91810190613499565b60015b6120f0576120ab613e90565b806120b657506120d4565b6120c2876001016128ab565b81604051602001611d6892919061363c565b6120e0866001016128ab565b604051602001611d68919061368b565b809150600086604001516001600160a01b03166370a08231306040518263ffffffff1660e01b8152600401612125919061378e565b60206040518083038186803b15801561213d57600080fd5b505afa158015612151573d6000803e3d6000fd5b505050506040513d601f19601f820116820180604052508101906121759190613499565b11612181576000612187565b85608001515b6080870151909550156121a057856080015194506121a5565b600094505b85604001516001600160a01b031686602001516001600160a01b0316600080516020613f5e833981519152896001016002868a6040516121e89493929190613dfc565b60405180910390a350505b60008311611e4e5760405162461bcd60e51b8152600401610382906138fb565b60405162461bcd60e51b81526004016103829061391b565b925050600101611b57565b5092915050565b600082820183811015612297576040805162461bcd60e51b815260206004820152601b60248201527f536166654d6174683a206164646974696f6e206f766572666c6f770000000000604482015290519081900360640190fd5b90505b92915050565b6000828211156122f7576040805162461bcd60e51b815260206004820152601e60248201527f536166654d6174683a207375627472616374696f6e206f766572666c6f770000604482015290519081900360640190fd5b50900390565b6000612309838361298e565b9050336001600160a01b0382161461229a57600080fd5b600080828060200190518101906123379190613359565b9050846001600160a01b031681600001516001600160a01b03161461236e5760405162461bcd60e51b815260040161038290613bd8565b612399857f000000000000000000000000000000000000000000000000000000000000000086611964565b60006123b360018784602001518560600151896000612732565b9050600081116123d55760405162461bcd60e51b815260040161038290613bf8565b61240482602001517f000000000000000000000000000000000000000000000000000000000000000083611964565b60006124226002846020015185604001518660800151866000612732565b9050600081116124445760405162461bcd60e51b8152600401610382906138da565b61247383604001517f000000000000000000000000000000000000000000000000000000000000000083611964565b61248e60038460400151898660a00151858860c00151612732565b979650505050505050565b600080828060200190518101906124b091906133fd565b90506124dd857f000000000000000000000000000000000000000000000000000000000000000086611964565b60006124fa60018784600001518560200151898760600151612732565b90506000811161251c5760405162461bcd60e51b815260040161038290613c59565b8151612549907f000000000000000000000000000000000000000000000000000000000000000083611964565b61256460028360000151888560400151858760800151612732565b9695505050505050565b60006125c3826040518060400160405280602081526020017f5361666545524332303a206c6f772d6c6576656c2063616c6c206661696c6564815250856001600160a01b0316612a729092919063ffffffff16565b80519091501561195f578080602001905160208110156125e257600080fd5b505161195f5760405162461bcd60e51b815260040180806020018281038252602a815260200180613fa4602a913960400191505060405180910390fd5b8015806126a5575060408051636eb1769f60e11b81523060048201526001600160a01b03848116602483015291519185169163dd62ed3e91604480820192602092909190829003018186803b15801561267757600080fd5b505afa15801561268b573d6000803e3d6000fd5b505050506040513d60208110156126a157600080fd5b5051155b6126e05760405162461bcd60e51b8152600401808060200182810382526036815260200180613fce6036913960400191505060405180910390fd5b604080516001600160a01b038416602482015260448082018490528251808303909101815260649091019091526020810180516001600160e01b031663095ea7b360e01b17905261195f90849061256e565b60408051610100810182526001600160a01b038088168252868116602083015262ffffff86168284015230606083015242603c01608083015260a0820185905260c08201849052600060e08301819052925163414bf38960e01b81527f00000000000000000000000000000000000000000000000000000000000000009091169063414bf389906127c7908490600401613c79565b602060405180830381600087803b1580156127e157600080fd5b505af1925050508015612811575060408051601f3d908101601f1916820190925261280e91810190613499565b60015b61285c5761281d613e90565b806128285750612843565b612831896128ab565b81604051602001611d689291906135b7565b61284c886128ab565b604051602001611d689190613604565b809250866001600160a01b0316886001600160a01b0316600080516020613f5e8339815191528b600089886040516128979493929190613dfc565b60405180910390a350509695505050505050565b6060816128d057506040805180820190915260018152600360fc1b6020820152612989565b8160005b81156128e857600101600a820491506128d4565b6000816001600160401b038111801561290057600080fd5b506040519080825280601f01601f19166020018201604052801561292b576020820181803683370190505b509050815b851561298357600019016000600a8704600a028703603001905060008160f81b90508084848151811061295f57fe5b60200101906001600160f81b031916908160001a905350600a880497505050612930565b50925050505b919050565b600081602001516001600160a01b031682600001516001600160a01b0316106129b657600080fd5b50805160208083015160409384015184516001600160a01b0394851681850152939091168385015262ffffff166060808401919091528351808403820181526080840185528051908301206001600160f81b031960a085015294901b6bffffffffffffffffffffffff191660a183015260b58201939093527fe34f199b19b2b4f47f68442619d555527d244f78a3297ea89325f843f87b8b5460d5808301919091528251808303909101815260f5909101909152805191012090565b6060612a818484600085612a8b565b90505b9392505050565b606082471015612acc5760405162461bcd60e51b8152600401808060200182810382526026815260200180613f7e6026913960400191505060405180910390fd5b612ad585612bdb565b612b26576040805162461bcd60e51b815260206004820152601d60248201527f416464726573733a2063616c6c20746f206e6f6e2d636f6e7472616374000000604482015290519081900360640190fd5b600080866001600160a01b031685876040518082805190602001908083835b60208310612b645780518252601f199092019160209182019101612b45565b6001836020036101000a03801982511681845116808217855250505050505090500191505060006040518083038185875af1925050503d8060008114612bc6576040519150601f19603f3d011682016040523d82523d6000602084013e612bcb565b606091505b509150915061248e828286612be1565b3b151590565b60608315612bf0575081612a84565b825115612c005782518084602001fd5b8160405162461bcd60e51b81526004018080602001828103825283818151815260200191508051906020019080838360005b83811015612c4a578181015183820152602001612c32565b50505050905090810190601f168015612c775780820380516001836020036101000a031916815260200191505b509250505060405180910390fd5b803561298981613f34565b805161298981613f34565b60008083601f840112612cac578182fd5b5081356001600160401b03811115612cc2578182fd5b6020830191508360208083028501011115612cdc57600080fd5b9250929050565b600082601f830112612cf3578081fd5b81356020612d08612d0383613e3d565b613e1a565b8281528181019085830183850287018401881015612d24578586fd5b855b85811015612d4257813584529284019290840190600101612d26565b5090979650505050505050565b60008083601f840112612d60578182fd5b5081356001600160401b03811115612d76578182fd5b602083019150836020828501011115612cdc57600080fd5b600082601f830112612d9e578081fd5b81356001600160401b03811115612db157fe5b612dc4601f8201601f1916602001613e1a565b818152846020838601011115612dd8578283fd5b816020850160208301379081016020019190915292915050565b80356002811061298957600080fd5b803561298981613f4c565b805161298981613f4c565b803560ff8116811461298957600080fd5b600060208284031215612e39578081fd5b813561229781613f34565b600060208284031215612e55578081fd5b815161229781613f34565b600080600080600060808688031215612e77578081fd5b8535612e8281613f34565b9450602086013593506040860135925060608601356001600160401b03811115612eaa578182fd5b612eb688828901612d4f565b969995985093965092949392505050565b600080600080600080600080600060a08a8c031215612ee4578687fd5b89356001600160401b0380821115612efa578889fd5b612f068d838e01612c9b565b909b50995060208c0135915080821115612f1e578889fd5b612f2a8d838e01612c9b565b909950975060408c0135915080821115612f42578586fd5b612f4e8d838e01612c9b565b909750955060608c01359150612f6382613f34565b90935060808b01359080821115612f78578384fd5b50612f858c828d01612d4f565b915080935050809150509295985092959850929598565b60008060008060608587031215612fb1578182fd5b84356001600160401b0380821115612fc7578384fd5b818701915087601f830112612fda578384fd5b81356020612fea612d0383613e3d565b82815281810190858301838502870184018d1015613006578889fd5b8896505b8487101561303157803561301d81613f34565b83526001969096019591830191830161300a565b5098505088013592505080821115613047578384fd5b61305388838901612ce3565b94506040870135915080821115613068578384fd5b5061307587828801612d4f565b95989497509550505050565b60006020808385031215613093578182fd5b82516001600160401b038111156130a8578283fd5b8301601f810185136130b8578283fd5b80516130c6612d0382613e3d565b81815283810190838501858402850186018910156130e2578687fd5b8694505b838510156131045780518352600194909401939185019185016130e6565b50979650505050505050565b60006020808385031215613122578182fd5b82356001600160401b0380821115613138578384fd5b8185019150604080838803121561314d578485fd5b8051818101818110848211171561316057fe5b8252833583811115613170578687fd5b8401601f81018913613180578687fd5b803561318e612d0382613e3d565b8181528781019083890160c080850286018b018e10156131ac578b8cfd5b8b95505b848610156132485780828f0312156131c6578b8cfd5b87518181018181108b821117156131d957fe5b895282356131e681613f34565b81526131f3838d01612c85565b8c820152613202898401612c85565b898201526060613213818501612e01565b908201526080838101359082015260a061322e818501612e17565b90820152845260019590950194928a0192908101906131b0565b505084525061325b915050848601612c85565b85820152809550505050505092915050565b60006020828403121561327e578081fd5b81356001600160401b0380821115613294578283fd5b81840191506101208083870312156132aa578384fd5b6132b381613e1a565b90506132be83612df2565b815260208301356020820152604083013560408201526132e060608401612c85565b60608201526132f160808401612c85565b608082015261330260a08401612c85565b60a082015261331360c08401612c85565b60c082015261332460e08401612e01565b60e0820152610100808401358381111561333c578586fd5b61334888828701612d8e565b918301919091525095945050505050565b600060e0828403121561336a578081fd5b60405160e081018181106001600160401b038211171561338657fe5b60405261339283612c90565b81526133a060208401612c90565b60208201526133b160408401612c90565b60408201526133c260608401612e0c565b60608201526133d360808401612e0c565b60808201526133e460a08401612e0c565b60a082015260c083015160c08201528091505092915050565b600060a0828403121561340e578081fd5b60405160a081018181106001600160401b038211171561342a57fe5b604052825161343881613f34565b8152602083015161344881613f4c565b6020820152604083015161345b81613f4c565b6040820152606083810151908201526080928301519281019290925250919050565b60006020828403121561348e578081fd5b815161229781613f4c565b6000602082840312156134aa578081fd5b5051919050565b600080600080606085870312156134c6578182fd5b843593506020850135925060408501356001600160401b038111156134e9578283fd5b61307587828801612d4f565b6001600160a01b03169052565b6000815180845260208085019450808401835b8381101561353a5781516001600160a01b031687529582019590820190600101613515565b509495945050505050565b6000815180845260208085019450808401835b8381101561353a57815187529582019590820190600101613558565b6000815180845261358c816020860160208601613e5a565b601f01601f19169290920160200192915050565b600281106135aa57fe5b9052565b62ffffff169052565b60006346533a5360e01b825283516135d6816004850160208801613e5a565b61231d60f11b60049184019182015283516135f8816006840160208801613e5a565b01600601949350505050565b60006346533a5360e01b82528251613623816004850160208701613e5a565b61119360f21b6004939091019283015250600601919050565b60006523299d2228a160d11b8252835161365d816006850160208801613e5a565b61231d60f11b600691840191820152835161367f816008840160208801613e5a565b01600801949350505050565b60006523299d2228a160d11b825282516136ac816006850160208701613e5a565b61119360f21b6006939091019283015250600801919050565b60006446533a535360d81b825283516136e5816005850160208801613e5a565b61231d60f11b6005918401918201528351613707816007840160208801613e5a565b01600701949350505050565b60006446533a535360d81b82528251613733816005850160208701613e5a565b61119360f21b6005939091019283015250600701919050565b60006523299d2229a160d11b8252835161365d816006850160208801613e5a565b60006523299d2229a160d11b825282516136ac816006850160208701613e5a565b6001600160a01b0391909116815260200190565b6001600160a01b0392831681529116602082015260400190565b600060018060a01b03808b16835260e060208401526137de60e084018b613502565b83810360408501526137f0818b613545565b90508381036060850152613804818a613545565b9050818816608085015283810360a08501528581528587602083013782602087830101526020601f19601f8801168201019250505061ffff831660c08301529998505050505050505050565b600060018060a01b0386168252846020830152836040830152608060608301526125646080830184613574565b901515815260200190565b6060810161389682866135a0565b602082019390935260400152919050565b600060208252612a846020830184613574565b60208082526006908201526523299d212a2160d11b604082015260600190565b60208082526007908201526623299d2a29992d60c91b604082015260600190565b60208082526006908201526523299d2229ad60d11b604082015260600190565b6020808252600690820152651194ce95511560d21b604082015260600190565b60208082526005908201526446533a4e4160d81b604082015260600190565b60208082526006908201526546533a415a4160d01b604082015260600190565b60208082526006908201526546533a42414f60d01b604082015260600190565b602080825260059082015264046533a45560dc1b604082015260600190565b6020808252600690820152651194ce9550d560d21b604082015260600190565b60208082526006908201526546533a53414160d01b604082015260600190565b60208082526006908201526546533a5a544160d01b604082015260600190565b60208082526006908201526546533a55444160d01b604082015260600190565b60208082526006908201526523299d22aa2360d11b604082015260600190565b60208082526006908201526546533a43424160d01b604082015260600190565b60208082526006908201526523299d24a32960d11b604082015260600190565b602080825260059082015264046533a49560dc1b604082015260600190565b60208082526006908201526546533a534c4160d01b604082015260600190565b60208082526006908201526523299d29a9ad60d11b604082015260600190565b60208082526005908201526446533a4d4160d81b604082015260600190565b60208082526006908201526546533a424e4160d01b604082015260600190565b60208082526006908201526546533a43425760d01b604082015260600190565b60208082526006908201526546533a415a5360d01b604082015260600190565b60208082526006908201526546533a414c4160d01b604082015260600190565b60208082526007908201526623299d2b19a9ad60c91b604082015260600190565b60208082526006908201526523299d2722a360d11b604082015260600190565b60208082526006908201526546533a54504160d01b604082015260600190565b60208082526007908201526623299d2a2998ad60c91b604082015260600190565b602080825260069082015265046533a4553560d41b604082015260600190565b60208082526006908201526546533a49464960d01b604082015260600190565b60208082526006908201526523299d2998ad60d11b604082015260600190565b81516001600160a01b03908116825260208084015182169083015260408084015162ffffff16908301526060808401518216908301526080808401519083015260a0838101519083015260c0808401519083015260e09283015116918101919091526101000190565b600060208252613cf66020830184516135a0565b60208301516040830152604083015160608301526060830151613d1c60808401826134f5565b506080830151613d2f60a08401826134f5565b5060a0830151613d4260c08401826134f5565b5060c0830151613d5560e08401826134f5565b5060e0830151610100613d6a818501836135ae565b840151610120848101529050613d84610140840182613574565b949350505050565b90815260200190565b918252602082015260400190565b600086825285602083015260a06040830152613dc260a0830186613502565b6001600160a01b0394909416606083015250608001529392505050565b918252602082015260606040820181905260009082015260800190565b93845260ff9290921660208401526040830152606082015260800190565b6040518181016001600160401b0381118282101715613e3557fe5b604052919050565b60006001600160401b03821115613e5057fe5b5060209081020190565b60005b83811015613e75578181015183820152602001613e5d565b83811115613e84576000848401525b50505050565b60e01c90565b600060443d1015613ea0576102bc565b600481823e6308c379a0613eb48251613e8a565b14613ebe576102bc565b6040513d600319016004823e80513d6001600160401b038160248401118184111715613eed57505050506102bc565b82840192508251915080821115613f0757505050506102bc565b503d83016020828401011115613f1f575050506102bc565b601f01601f1916810160200160405291505090565b6001600160a01b0381168114613f4957600080fd5b50565b62ffffff81168114613f4957600080fdfe7f0c28831dc31706c487574de03f85822b98a41eddf7577b2b7eab4d5d5da545416464726573733a20696e73756666696369656e742062616c616e636520666f722063616c6c5361666545524332303a204552433230206f7065726174696f6e20646964206e6f7420737563636565645361666545524332303a20617070726f76652066726f6d206e6f6e2d7a65726f20746f206e6f6e2d7a65726f20616c6c6f77616e6365a2646970667358221220fe76ac14a7360c315f385d58c5142f3cd7e7037bd988d62f367ac7251f1413c464736f6c63430007060033",
  "linkReferences": {},
  "deployedLinkReferences": {}
}