{
  "_format": "hh-sol-artifact-1",
  "contractName": "FlashSwap",
  "sourceName": "contracts/FlashSwap.sol",
  "abi": [
    {
      "inputs": [
        {
          "internalType": "address",
          "name": "_swapRouter",
          "type": "address"
        }
      ],
      "stateMutability": "nonpayable",
      "type": "constructor"
    },
    {
      "anonymous": false,
      "inputs": [
        {
          "indexed": true,
          "internalType": "address",
          "name": "poolA",
          "type": "address"
        },
        {
          "indexed": true,
          "internalType": "address",
          "name": "poolB",
          "type": "address"
        },
        {
          "indexed": false,
          "internalType": "address",
          "name": "tokenBorrowed",
          "type": "address"
        },
        {
          "indexed": false,
          "internalType": "uint256",
          "name": "amountBorrowed",
          "type": "uint256"
        },
        {
          "indexed": false,
          "internalType": "uint256",
          "name": "feePaid",
          "type": "uint256"
        }
      ],
      "name": "ArbitrageAttempt",
      "type": "event"
    },
    {
      "anonymous": false,
      "inputs": [
        {
          "indexed": false,
          "internalType": "uint256",
          "name": "amountOutMin1",
          "type": "uint256"
        },
        {
          "indexed": false,
          "internalType": "uint256",
          "name": "actualAmountIntermediate",
          "type": "uint256"
        },
        {
          "indexed": false,
          "internalType": "uint256",
          "name": "amountOutMin2",
          "type": "uint256"
        },
        {
          "indexed": false,
          "internalType": "uint256",
          "name": "actualFinalAmount",
          "type": "uint256"
        },
        {
          "indexed": false,
          "internalType": "uint256",
          "name": "requiredRepayment",
          "type": "uint256"
        }
      ],
      "name": "DebugSwapValues",
      "type": "event"
    },
    {
      "anonymous": false,
      "inputs": [
        {
          "indexed": true,
          "internalType": "address",
          "name": "token",
          "type": "address"
        },
        {
          "indexed": true,
          "internalType": "address",
          "name": "recipient",
          "type": "address"
        },
        {
          "indexed": false,
          "internalType": "uint256",
          "name": "amount",
          "type": "uint256"
        }
      ],
      "name": "EmergencyWithdrawal",
      "type": "event"
    },
    {
      "anonymous": false,
      "inputs": [
        {
          "indexed": true,
          "internalType": "address",
          "name": "caller",
          "type": "address"
        },
        {
          "indexed": true,
          "internalType": "address",
          "name": "pool",
          "type": "address"
        },
        {
          "indexed": false,
          "internalType": "uint256",
          "name": "amount0",
          "type": "uint256"
        },
        {
          "indexed": false,
          "internalType": "uint256",
          "name": "amount1",
          "type": "uint256"
        }
      ],
      "name": "FlashSwapInitiated",
      "type": "event"
    },
    {
      "anonymous": false,
      "inputs": [
        {
          "indexed": true,
          "internalType": "address",
          "name": "token",
          "type": "address"
        },
        {
          "indexed": true,
          "internalType": "address",
          "name": "recipient",
          "type": "address"
        },
        {
          "indexed": false,
          "internalType": "uint256",
          "name": "amount",
          "type": "uint256"
        }
      ],
      "name": "ProfitTransferred",
      "type": "event"
    },
    {
      "anonymous": false,
      "inputs": [
        {
          "indexed": true,
          "internalType": "address",
          "name": "token",
          "type": "address"
        },
        {
          "indexed": false,
          "internalType": "uint256",
          "name": "amountRepaid",
          "type": "uint256"
        }
      ],
      "name": "RepaymentSuccess",
      "type": "event"
    },
    {
      "anonymous": false,
      "inputs": [
        {
          "indexed": true,
          "internalType": "uint256",
          "name": "swapNumber",
          "type": "uint256"
        },
        {
          "indexed": true,
          "internalType": "address",
          "name": "tokenIn",
          "type": "address"
        },
        {
          "indexed": true,
          "internalType": "address",
          "name": "tokenOut",
          "type": "address"
        },
        {
          "indexed": false,
          "internalType": "uint256",
          "name": "amountIn",
          "type": "uint256"
        },
        {
          "indexed": false,
          "internalType": "uint256",
          "name": "amountOut",
          "type": "uint256"
        }
      ],
      "name": "SwapExecuted",
      "type": "event"
    },
    {
      "inputs": [],
      "name": "SWAP_ROUTER",
      "outputs": [
        {
          "internalType": "contract ISwapRouter",
          "name": "",
          "type": "address"
        }
      ],
      "stateMutability": "view",
      "type": "function"
    },
    {
      "inputs": [],
      "name": "V3_FACTORY",
      "outputs": [
        {
          "internalType": "address",
          "name": "",
          "type": "address"
        }
      ],
      "stateMutability": "view",
      "type": "function"
    },
    {
      "inputs": [
        {
          "internalType": "address",
          "name": "_poolAddress",
          "type": "address"
        },
        {
          "internalType": "uint256",
          "name": "_amount0",
          "type": "uint256"
        },
        {
          "internalType": "uint256",
          "name": "_amount1",
          "type": "uint256"
        },
        {
          "internalType": "bytes",
          "name": "_params",
          "type": "bytes"
        }
      ],
      "name": "initiateFlashSwap",
      "outputs": [],
      "stateMutability": "nonpayable",
      "type": "function"
    },
    {
      "inputs": [],
      "name": "owner",
      "outputs": [
        {
          "internalType": "address",
          "name": "",
          "type": "address"
        }
      ],
      "stateMutability": "view",
      "type": "function"
    },
    {
      "inputs": [
        {
          "internalType": "uint256",
          "name": "fee0",
          "type": "uint256"
        },
        {
          "internalType": "uint256",
          "name": "fee1",
          "type": "uint256"
        },
        {
          "internalType": "bytes",
          "name": "data",
          "type": "bytes"
        }
      ],
      "name": "uniswapV3FlashCallback",
      "outputs": [],
      "stateMutability": "nonpayable",
      "type": "function"
    },
    {
      "inputs": [],
      "name": "withdrawEther",
      "outputs": [],
      "stateMutability": "nonpayable",
      "type": "function"
    },
    {
      "inputs": [
        {
          "internalType": "address",
          "name": "tokenAddress",
          "type": "address"
        }
      ],
      "name": "withdrawToken",
      "outputs": [],
      "stateMutability": "nonpayable",
      "type": "function"
    },
    {
      "stateMutability": "payable",
      "type": "receive"
    }
  ],
  "bytecode": "0x60e06040527f1f98431c8ad98523631ae4a59f267346ea31f98400000000000000000000000060c0523480156200003557600080fd5b506040516200263d3803806200263d8339810160408190526200005891620000ad565b60016000556001600160a01b0381166200008f5760405162461bcd60e51b81526004016200008690620000dd565b60405180910390fd5b6001600160601b0319606091821b1660805233901b60a05262000122565b600060208284031215620000bf578081fd5b81516001600160a01b0381168114620000d6578182fd5b9392505050565b60208082526025908201527f466c617368537761703a20496e76616c69642053776170526f75746572206164604082015264647265737360d81b606082015260800190565b60805160601c60a05160601c60c05160601c612495620001a86000398061014e528061090952508061017b528061051e528061057b52806105f2528061064a528061076b52806107e3528061080f52806110a152806111195250806108335280610b005280610b345280610bd65280610d435280610d7a5280610e1f52506124956000f3fe6080604052600436106100745760003560e01c8063894760691161004e57806389476069146100e25780638da5cb5b14610102578063c600589314610117578063e9cbafb01461012c5761007b565b806308bd1a851461008057806309c3da87146100ab5780637362377b146100cd5761007b565b3661007b57005b600080fd5b34801561008c57600080fd5b5061009561014c565b6040516100a29190611c4a565b60405180910390f35b3480156100b757600080fd5b506100cb6100c6366004611907565b610170565b005b3480156100d957600080fd5b506100cb610513565b3480156100ee57600080fd5b506100cb6100fd3660046118cf565b61063f565b34801561010e57600080fd5b5061009561080d565b34801561012357600080fd5b50610095610831565b34801561013857600080fd5b506100cb610147366004611b04565b610855565b7f000000000000000000000000000000000000000000000000000000000000000081565b336001600160a01b037f000000000000000000000000000000000000000000000000000000000000000016146101c15760405162461bcd60e51b81526004016101b890611d27565b60405180910390fd5b6001600160a01b0385166101e75760405162461bcd60e51b81526004016101b890611f3e565b6000841180156101f5575082155b806102095750600083118015610209575083155b6102255760405162461bcd60e51b81526004016101b890611e4f565b806102425760405162461bcd60e51b81526004016101b890611d95565b60008590506000816001600160a01b0316630dfe16816040518163ffffffff1660e01b815260040160206040518083038186803b15801561028257600080fd5b505afa158015610296573d6000803e3d6000fd5b505050506040513d601f19601f820116820180604052508101906102ba91906118eb565b90506000826001600160a01b031663d21220a76040518163ffffffff1660e01b815260040160206040518083038186803b1580156102f757600080fd5b505afa15801561030b573d6000803e3d6000fd5b505050506040513d601f19601f8201168201806040525081019061032f91906118eb565b90506000836001600160a01b031663ddca3f436040518163ffffffff1660e01b815260040160206040518083038186803b15801561036c57600080fd5b505afa158015610380573d6000803e3d6000fd5b505050506040513d601f19601f820116820180604052508101906103a49190611ad0565b9050886001600160a01b0316336001600160a01b03167f60a0826de1d12f4d50bdc4bfd9ab3704cb6f5b2b21ad49f5c0cedebd4a5109948a8a6040516103eb929190612261565b60405180910390a360006040518060e001604052808a8152602001898152602001336001600160a01b03168152602001856001600160a01b03168152602001846001600160a01b031681526020018362ffffff16815260200188888080601f01602080910402602001604051908101604052809392919081815260200183838082843760009201919091525050509152506040519091506001600160a01b0386169063490e6cbc9030908c908c906104a79087906020016121ea565b6040516020818303038152906040526040518563ffffffff1660e01b81526004016104d59493929190611c5e565b600060405180830381600087803b1580156104ef57600080fd5b505af1158015610503573d6000803e3d6000fd5b5050505050505050505050505050565b336001600160a01b037f0000000000000000000000000000000000000000000000000000000000000000161461055b5760405162461bcd60e51b81526004016101b890611d27565b47806105795760405162461bcd60e51b81526004016101b8906120c1565b7f00000000000000000000000000000000000000000000000000000000000000006001600160a01b031660006001600160a01b03167f9495d03190a79a43e534c9e328ff322f6283261383f5f19c809564f6ad5a57b3836040516105dd9190612258565b60405180910390a36040516001600160a01b037f0000000000000000000000000000000000000000000000000000000000000000169082156108fc029083906000818181858888f1935050505015801561063b573d6000803e3d6000fd5b5050565b336001600160a01b037f000000000000000000000000000000000000000000000000000000000000000016146106875760405162461bcd60e51b81526004016101b890611d27565b6001600160a01b0381166106ad5760405162461bcd60e51b81526004016101b890611fd2565b6040517f70a0823100000000000000000000000000000000000000000000000000000000815281906000906001600160a01b038316906370a08231906106f7903090600401611c4a565b60206040518083038186803b15801561070f57600080fd5b505afa158015610723573d6000803e3d6000fd5b505050506040513d601f19601f820116820180604052508101906107479190611aec565b9050600081116107695760405162461bcd60e51b81526004016101b890611ee1565b7f00000000000000000000000000000000000000000000000000000000000000006001600160a01b0316836001600160a01b03167f9495d03190a79a43e534c9e328ff322f6283261383f5f19c809564f6ad5a57b3836040516107cc9190612258565b60405180910390a36108086001600160a01b0383167f000000000000000000000000000000000000000000000000000000000000000083611156565b505050565b7f000000000000000000000000000000000000000000000000000000000000000081565b7f000000000000000000000000000000000000000000000000000000000000000081565b600260005414156108ad576040805162461bcd60e51b815260206004820152601f60248201527f5265656e7472616e637947756172643a207265656e7472616e742063616c6c00604482015290519081900360640190fd5b600260009081556108c082840184611a0d565b90506000604051806060016040528083606001516001600160a01b0316815260200183608001516001600160a01b031681526020018360a0015162ffffff16815250905061092e7f0000000000000000000000000000000000000000000000000000000000000000826111d6565b5060008260c00151806020019051810190610949919061196f565b90506000806000806000876020015111156109a057506080860151602087015190935091508861097983826111ff565b87519092501561099b5760405162461bcd60e51b81526004016101b890611eac565b6109de565b50606086015186519093509150896109b883826111ff565b915086602001516000146109de5760405162461bcd60e51b81526004016101b890611eac565b600083116109fe5760405162461bcd60e51b81526004016101b890611d5e565b60208501516001600160a01b031615801590610a26575060608501516001600160a01b031615155b610a425760405162461bcd60e51b81526004016101b89061211e565b86606001516001600160a01b0316846001600160a01b03161480610a7b575086608001516001600160a01b0316846001600160a01b0316145b610a975760405162461bcd60e51b81526004016101b890611cca565b84606001516001600160a01b031685602001516001600160a01b03167fa457c64abe129299afc8d72d59bbe280d0e40868b92e4c374c9afe4f8f865fb2868685604051610ae693929190611c96565b60405180910390a3600080610b256001600160a01b0387167f000000000000000000000000000000000000000000000000000000000000000083611260565b610b596001600160a01b0387167f000000000000000000000000000000000000000000000000000000000000000087611260565b60408051610100810182526001600160a01b0380891682528951811660208301528983015162ffffff168284015230606083015242603c01608083015260a08083018990528a015160c0830152600060e083015291517f414bf38900000000000000000000000000000000000000000000000000000000815290917f0000000000000000000000000000000000000000000000000000000000000000169063414bf38990610c0b90849060040161217b565b602060405180830381600087803b158015610c2557600080fd5b505af1925050508015610c55575060408051601f3d908101601f19168201909252610c5291810190611aec565b60015b610cbb57610c616122ec565b80610c6c5750610ca3565b80604051602001610c7d9190611b81565b60408051601f198184030181529082905262461bcd60e51b82526101b891600401611cb7565b60405162461bcd60e51b81526004016101b890612064565b80935088600001516001600160a01b0316886001600160a01b031660017fc320f2cc808ecb8cf34ad2d8535065e4d4a766f7526f00abc0acd2a19c8beeb18a88604051610d09929190612261565b60405180910390a45060008311610d325760405162461bcd60e51b81526004016101b890612007565b8751610d69906001600160a01b03167f00000000000000000000000000000000000000000000000000000000000000006000611260565b8751610d9f906001600160a01b03167f000000000000000000000000000000000000000000000000000000000000000085611260565b604080516101008101825289516001600160a01b03908116825289811660208301526080808c015162ffffff168385015230606084015242603c019083015260a0820186905260c0808c015190830152600060e083015291517f414bf38900000000000000000000000000000000000000000000000000000000815290917f0000000000000000000000000000000000000000000000000000000000000000169063414bf38990610e5490849060040161217b565b602060405180830381600087803b158015610e6e57600080fd5b505af1925050508015610e9e575060408051601f3d908101601f19168201909252610e9b91810190611aec565b60015b610ede57610eaa6122ec565b80610eb55750610ec6565b80604051602001610c7d9190611bec565b60405162461bcd60e51b81526004016101b890611f75565b809350886001600160a01b03168a600001516001600160a01b031660027fc320f2cc808ecb8cf34ad2d8535065e4d4a766f7526f00abc0acd2a19c8beeb18888604051610f2c929190612261565b60405180910390a4507f437214fe8c1a37c15075e9cba249bdb47d57c0fb65f6121ca69c68105d60445a8960a00151858b60c00151868a604051610f7495949392919061226f565b60405180910390a16040517f70a082310000000000000000000000000000000000000000000000000000000081526000906001600160a01b038a16906370a0823190610fc4903090600401611c4a565b60206040518083038186803b158015610fdc57600080fd5b505afa158015610ff0573d6000803e3d6000fd5b505050506040513d601f19601f820116820180604052508101906110149190611aec565b9050868110156110365760405162461bcd60e51b81526004016101b890611df2565b61104a6001600160a01b038a163389611156565b886001600160a01b03167f225e94d7746fdb574aa7d9b5f49a354df34409388d4f4a2799fe421a1b5f55f2886040516110839190612258565b60405180910390a2600061109782896113ba565b9050801561113e577f00000000000000000000000000000000000000000000000000000000000000006001600160a01b03168a6001600160a01b03167ff8c1ab10239f6f37a13f2905c9b042c4c7ff13bcbf485c543d2a9ecbc5c18afa836040516111029190612258565b60405180910390a361113e6001600160a01b038b167f000000000000000000000000000000000000000000000000000000000000000083611156565b50506001600055505050505050505050505050505050565b604080516001600160a01b038416602482015260448082018490528251808303909101815260649091019091526020810180517bffffffffffffffffffffffffffffffffffffffffffffffffffffffff167fa9059cbb00000000000000000000000000000000000000000000000000000000179052610808908490611417565b60006111e283836114c8565b9050336001600160a01b038216146111f957600080fd5b92915050565b600082820183811015611259576040805162461bcd60e51b815260206004820152601b60248201527f536166654d6174683a206164646974696f6e206f766572666c6f770000000000604482015290519081900360640190fd5b9392505050565b8015806112ff5750604080517fdd62ed3e0000000000000000000000000000000000000000000000000000000081523060048201526001600160a01b03848116602483015291519185169163dd62ed3e91604480820192602092909190829003018186803b1580156112d157600080fd5b505afa1580156112e5573d6000803e3d6000fd5b505050506040513d60208110156112fb57600080fd5b5051155b61133a5760405162461bcd60e51b815260040180806020018281038252603681526020018061242a6036913960400191505060405180910390fd5b604080516001600160a01b038416602482015260448082018490528251808303909101815260649091019091526020810180517bffffffffffffffffffffffffffffffffffffffffffffffffffffffff167f095ea7b300000000000000000000000000000000000000000000000000000000179052610808908490611417565b600082821115611411576040805162461bcd60e51b815260206004820152601e60248201527f536166654d6174683a207375627472616374696f6e206f766572666c6f770000604482015290519081900360640190fd5b50900390565b600061146c826040518060400160405280602081526020017f5361666545524332303a206c6f772d6c6576656c2063616c6c206661696c6564815250856001600160a01b03166115d79092919063ffffffff16565b8051909150156108085780806020019051602081101561148b57600080fd5b50516108085760405162461bcd60e51b815260040180806020018281038252602a815260200180612400602a913960400191505060405180910390fd5b600081602001516001600160a01b031682600001516001600160a01b0316106114f057600080fd5b50805160208083015160409384015184516001600160a01b0394851681850152939091168385015262ffffff166060808401919091528351808403820181526080840185528051908301207fff0000000000000000000000000000000000000000000000000000000000000060a085015294901b7fffffffffffffffffffffffffffffffffffffffff0000000000000000000000001660a183015260b58201939093527fe34f199b19b2b4f47f68442619d555527d244f78a3297ea89325f843f87b8b5460d5808301919091528251808303909101815260f5909101909152805191012090565b60606115e684846000856115ee565b949350505050565b60608247101561162f5760405162461bcd60e51b81526004018080602001828103825260268152602001806123da6026913960400191505060405180910390fd5b61163885611749565b611689576040805162461bcd60e51b815260206004820152601d60248201527f416464726573733a2063616c6c20746f206e6f6e2d636f6e7472616374000000604482015290519081900360640190fd5b600080866001600160a01b031685876040518082805190602001908083835b602083106116c75780518252601f1990920191602091820191016116a8565b6001836020036101000a03801982511681845116808217855250505050505090500191505060006040518083038185875af1925050503d8060008114611729576040519150601f19603f3d011682016040523d82523d6000602084013e61172e565b606091505b509150915061173e828286611753565b979650505050505050565b803b15155b919050565b60608315611762575081611259565b8251156117725782518084602001fd5b8160405162461bcd60e51b81526004018080602001828103825283818151815260200191508051906020019080838360005b838110156117bc5781810151838201526020016117a4565b50505050905090810190601f1680156117e95780820380516001836020036101000a031916815260200191505b509250505060405180910390fd5b803561174e816123b0565b805161174e816123b0565b60008083601f84011261181e578081fd5b50813567ffffffffffffffff811115611835578182fd5b60208301915083602082850101111561184d57600080fd5b9250929050565b600082601f830112611864578081fd5b813567ffffffffffffffff81111561187857fe5b61188b6020601f19601f84011601612292565b81815284602083860101111561189f578283fd5b816020850160208301379081016020019190915292915050565b803561174e816123c8565b805161174e816123c8565b6000602082840312156118e0578081fd5b8135611259816123b0565b6000602082840312156118fc578081fd5b8151611259816123b0565b60008060008060006080868803121561191e578081fd5b8535611929816123b0565b94506020860135935060408601359250606086013567ffffffffffffffff811115611952578182fd5b61195e8882890161180d565b969995985093965092949392505050565b600060e08284031215611980578081fd5b60405160e0810181811067ffffffffffffffff8211171561199d57fe5b6040526119a983611802565b81526119b760208401611802565b60208201526119c8604084016118c4565b60408201526119d960608401611802565b60608201526119ea608084016118c4565b608082015260a083015160a082015260c083015160c08201528091505092915050565b600060208284031215611a1e578081fd5b813567ffffffffffffffff80821115611a35578283fd5b9083019060e08286031215611a48578283fd5b611a5260e0612292565b8235815260208301356020820152611a6c604084016117f7565b6040820152611a7d606084016117f7565b6060820152611a8e608084016117f7565b6080820152611a9f60a084016118b9565b60a082015260c083013582811115611ab5578485fd5b611ac187828601611854565b60c08301525095945050505050565b600060208284031215611ae1578081fd5b8151611259816123c8565b600060208284031215611afd578081fd5b5051919050565b60008060008060608587031215611b19578384fd5b8435935060208501359250604085013567ffffffffffffffff811115611b3d578283fd5b611b498782880161180d565b95989497509550505050565b60008151808452611b6d8160208601602086016122b6565b601f01601f19169290920160200192915050565b60007f466c617368537761703a2053776170203120657865637574696f6e206661696c82527f65643a200000000000000000000000000000000000000000000000000000000060208301528251611bdf8160248501602087016122b6565b9190910160240192915050565b60007f466c617368537761703a2053776170203220657865637574696f6e206661696c82527f65643a200000000000000000000000000000000000000000000000000000000060208301528251611bdf8160248501602087016122b6565b6001600160a01b0391909116815260200190565b60006001600160a01b038616825284602083015283604083015260806060830152611c8c6080830184611b55565b9695505050505050565b6001600160a01b039390931683526020830191909152604082015260600190565b6000602082526112596020830184611b55565b60208082526022908201527f466c617368537761703a20426f72726f77656420746f6b656e206d69736d617460408201527f6368000000000000000000000000000000000000000000000000000000000000606082015260800190565b60208082526014908201527f466c617368537761703a204e6f74206f776e6572000000000000000000000000604082015260600190565b6020808252601d908201527f466c617368537761703a205a65726f20626f72726f7720616d6f756e74000000604082015260600190565b60208082526021908201527f466c617368537761703a20506172616d732063616e6e6f7420626520656d707460408201527f7900000000000000000000000000000000000000000000000000000000000000606082015260800190565b60208082526031908201527f466c617368537761703a20496e73756666696369656e742066756e647320746f60408201527f207265706179206c6f616e202b20666565000000000000000000000000000000606082015260800190565b6020808252602d908201527f466c617368537761703a204d75737420626f72726f772065786163746c79206f60408201527f6e6520746f6b656e207479706500000000000000000000000000000000000000606082015260800190565b6020808252818101527f466c617368537761703a20426f746820746f6b656e7320626f72726f7765643f604082015260600190565b60208082526027908201527f466c617368537761703a204e6f20746f6b656e2062616c616e636520746f207760408201527f6974686472617700000000000000000000000000000000000000000000000000606082015260800190565b6020808252601f908201527f466c617368537761703a20496e76616c696420706f6f6c206164647265737300604082015260600190565b6020808252602a908201527f466c617368537761703a20537761702032206661696c656420284c6f772d4c6560408201527f76656c204572726f722900000000000000000000000000000000000000000000606082015260800190565b6020808252818101527f466c617368537761703a20496e76616c696420746f6b656e2061646472657373604082015260600190565b60208082526026908201527f466c617368537761703a205377617020312070726f6475636564207a65726f2060408201527f6f75747075740000000000000000000000000000000000000000000000000000606082015260800190565b6020808252602a908201527f466c617368537761703a20537761702031206661696c656420284c6f772d4c6560408201527f76656c204572726f722900000000000000000000000000000000000000000000606082015260800190565b60208082526027908201527f466c617368537761703a204e6f2045746865722062616c616e636520746f207760408201527f6974686472617700000000000000000000000000000000000000000000000000606082015260800190565b60208082526029908201527f466c617368537761703a20496e76616c696420706f6f6c20616464726573732060408201527f696e20706172616d730000000000000000000000000000000000000000000000606082015260800190565b6000610100820190506001600160a01b0380845116835280602085015116602084015262ffffff60408501511660408401528060608501511660608401526080840151608084015260a084015160a084015260c084015160c08401528060e08501511660e08401525092915050565b600060208252825160208301526020830151604083015260408301516001600160a01b0380821660608501528060608601511660808501528060808601511660a0850152505062ffffff60a08401511660c083015260c083015160e0808401526115e6610100840182611b55565b90815260200190565b918252602082015260400190565b948552602085019390935260408401919091526060830152608082015260a00190565b60405181810167ffffffffffffffff811182821017156122ae57fe5b604052919050565b60005b838110156122d15781810151838201526020016122b9565b838111156122e0576000848401525b50505050565b60e01c90565b600060443d10156122fc576123ad565b600481823e6308c379a061231082516122e6565b1461231a576123ad565b6040517ffffffffffffffffffffffffffffffffffffffffffffffffffffffffffffffffc3d016004823e80513d67ffffffffffffffff816024840111818411171561236857505050506123ad565b8284019250825191508082111561238257505050506123ad565b503d8301602082840101111561239a575050506123ad565b601f01601f191681016020016040529150505b90565b6001600160a01b03811681146123c557600080fd5b50565b62ffffff811681146123c557600080fdfe416464726573733a20696e73756666696369656e742062616c616e636520666f722063616c6c5361666545524332303a204552433230206f7065726174696f6e20646964206e6f7420737563636565645361666545524332303a20617070726f76652066726f6d206e6f6e2d7a65726f20746f206e6f6e2d7a65726f20616c6c6f77616e6365a26469706673582212206e3fc45ded1376ac1b2e825d1cf338e150540fea719f5b99971fa92f67a035ad64736f6c63430007060033",
  "linkReferences": {},
  "deployedLinkReferences": {}
}