{
  "_format": "hh-sol-artifact-1",
  "contractName": "FlashSwap",
  "sourceName": "contracts/FlashSwap.sol",
  "abi": [
    {
      "inputs": [
        {
          "internalType": "address",
          "name": "_uniswapV3Router",
          "type": "address"
        },
        {
          "internalType": "address",
          "name": "_sushiRouter",
          "type": "address"
        },
        {
          "internalType": "address",
          "name": "_aavePoolAddress",
          "type": "address"
        },
        {
          "internalType": "address",
          "name": "_aaveAddressesProvider",
          "type": "address"
        }
      ],
      "stateMutability": "nonpayable",
      "type": "constructor"
    },
    {
      "anonymous": false,
      "inputs": [
        {
          "indexed": true,
          "internalType": "address",
          "name": "tokenBorrowed",
          "type": "address"
        },
        {
          "indexed": false,
          "internalType": "uint256",
          "name": "amountBorrowed",
          "type": "uint256"
        },
        {
          "indexed": false,
          "internalType": "uint256",
          "name": "feePaid",
          "type": "uint256"
        }
      ],
      "name": "AaveArbitrageExecution",
      "type": "event"
    },
    {
      "anonymous": false,
      "inputs": [
        {
          "indexed": true,
          "internalType": "address",
          "name": "caller",
          "type": "address"
        },
        {
          "indexed": true,
          "internalType": "address",
          "name": "asset",
          "type": "address"
        },
        {
          "indexed": false,
          "internalType": "uint256",
          "name": "amount",
          "type": "uint256"
        }
      ],
      "name": "AaveFlashLoanInitiated",
      "type": "event"
    },
    {
      "anonymous": false,
      "inputs": [
        {
          "indexed": true,
          "internalType": "enum FlashSwap.CallbackType",
          "name": "tradeType",
          "type": "uint8"
        },
        {
          "indexed": true,
          "internalType": "address",
          "name": "tokenBorrowed",
          "type": "address"
        },
        {
          "indexed": false,
          "internalType": "uint256",
          "name": "amountBorrowed",
          "type": "uint256"
        },
        {
          "indexed": false,
          "internalType": "uint256",
          "name": "feePaid",
          "type": "uint256"
        }
      ],
      "name": "ArbitrageExecution",
      "type": "event"
    },
    {
      "anonymous": false,
      "inputs": [
        {
          "indexed": true,
          "internalType": "address",
          "name": "token",
          "type": "address"
        },
        {
          "indexed": true,
          "internalType": "address",
          "name": "recipient",
          "type": "address"
        },
        {
          "indexed": false,
          "internalType": "uint256",
          "name": "amount",
          "type": "uint256"
        }
      ],
      "name": "EmergencyWithdrawal",
      "type": "event"
    },
    {
      "anonymous": false,
      "inputs": [
        {
          "indexed": true,
          "internalType": "address",
          "name": "caller",
          "type": "address"
        },
        {
          "indexed": true,
          "internalType": "address",
          "name": "pool",
          "type": "address"
        },
        {
          "indexed": false,
          "internalType": "enum FlashSwap.CallbackType",
          "name": "tradeType",
          "type": "uint8"
        },
        {
          "indexed": false,
          "internalType": "uint256",
          "name": "amount0",
          "type": "uint256"
        },
        {
          "indexed": false,
          "internalType": "uint256",
          "name": "amount1",
          "type": "uint256"
        }
      ],
      "name": "FlashSwapInitiated",
      "type": "event"
    },
    {
      "anonymous": false,
      "inputs": [
        {
          "indexed": true,
          "internalType": "address",
          "name": "token",
          "type": "address"
        },
        {
          "indexed": true,
          "internalType": "address",
          "name": "recipient",
          "type": "address"
        },
        {
          "indexed": false,
          "internalType": "uint256",
          "name": "amount",
          "type": "uint256"
        }
      ],
      "name": "ProfitTransferred",
      "type": "event"
    },
    {
      "anonymous": false,
      "inputs": [
        {
          "indexed": true,
          "internalType": "address",
          "name": "token",
          "type": "address"
        },
        {
          "indexed": false,
          "internalType": "uint256",
          "name": "amountRepaid",
          "type": "uint256"
        }
      ],
      "name": "RepaymentSuccess",
      "type": "event"
    },
    {
      "anonymous": false,
      "inputs": [
        {
          "indexed": false,
          "internalType": "uint256",
          "name": "swapNumber",
          "type": "uint256"
        },
        {
          "indexed": false,
          "internalType": "uint8",
          "name": "dexType",
          "type": "uint8"
        },
        {
          "indexed": true,
          "internalType": "address",
          "name": "tokenIn",
          "type": "address"
        },
        {
          "indexed": true,
          "internalType": "address",
          "name": "tokenOut",
          "type": "address"
        },
        {
          "indexed": false,
          "internalType": "uint256",
          "name": "amountIn",
          "type": "uint256"
        },
        {
          "indexed": false,
          "internalType": "uint256",
          "name": "amountOut",
          "type": "uint256"
        }
      ],
      "name": "SwapExecuted",
      "type": "event"
    },
    {
      "inputs": [],
      "name": "AAVE_ADDRESSES_PROVIDER",
      "outputs": [
        {
          "internalType": "address",
          "name": "",
          "type": "address"
        }
      ],
      "stateMutability": "view",
      "type": "function"
    },
    {
      "inputs": [],
      "name": "AAVE_POOL",
      "outputs": [
        {
          "internalType": "contract IPool",
          "name": "",
          "type": "address"
        }
      ],
      "stateMutability": "view",
      "type": "function"
    },
    {
      "inputs": [],
      "name": "ADDRESSES_PROVIDER",
      "outputs": [
        {
          "internalType": "address",
          "name": "",
          "type": "address"
        }
      ],
      "stateMutability": "view",
      "type": "function"
    },
    {
      "inputs": [],
      "name": "POOL",
      "outputs": [
        {
          "internalType": "address",
          "name": "",
          "type": "address"
        }
      ],
      "stateMutability": "view",
      "type": "function"
    },
    {
      "inputs": [],
      "name": "SUSHI_ROUTER",
      "outputs": [
        {
          "internalType": "contract IUniswapV2Router02",
          "name": "",
          "type": "address"
        }
      ],
      "stateMutability": "view",
      "type": "function"
    },
    {
      "inputs": [],
      "name": "SWAP_ROUTER",
      "outputs": [
        {
          "internalType": "contract ISwapRouter",
          "name": "",
          "type": "address"
        }
      ],
      "stateMutability": "view",
      "type": "function"
    },
    {
      "inputs": [],
      "name": "V3_FACTORY",
      "outputs": [
        {
          "internalType": "address",
          "name": "",
          "type": "address"
        }
      ],
      "stateMutability": "view",
      "type": "function"
    },
    {
      "inputs": [
        {
          "internalType": "address[]",
          "name": "assets",
          "type": "address[]"
        },
        {
          "internalType": "uint256[]",
          "name": "amounts",
          "type": "uint256[]"
        },
        {
          "internalType": "uint256[]",
          "name": "premiums",
          "type": "uint256[]"
        },
        {
          "internalType": "address",
          "name": "initiator",
          "type": "address"
        },
        {
          "internalType": "bytes",
          "name": "params",
          "type": "bytes"
        }
      ],
      "name": "executeOperation",
      "outputs": [
        {
          "internalType": "bool",
          "name": "",
          "type": "bool"
        }
      ],
      "stateMutability": "nonpayable",
      "type": "function"
    },
    {
      "inputs": [
        {
          "internalType": "address[]",
          "name": "assets",
          "type": "address[]"
        },
        {
          "internalType": "uint256[]",
          "name": "amounts",
          "type": "uint256[]"
        },
        {
          "internalType": "bytes",
          "name": "params",
          "type": "bytes"
        }
      ],
      "name": "initiateAaveFlashLoan",
      "outputs": [],
      "stateMutability": "nonpayable",
      "type": "function"
    },
    {
      "inputs": [
        {
          "internalType": "address",
          "name": "_poolAddress",
          "type": "address"
        },
        {
          "internalType": "uint256",
          "name": "_amount0",
          "type": "uint256"
        },
        {
          "internalType": "uint256",
          "name": "_amount1",
          "type": "uint256"
        },
        {
          "internalType": "bytes",
          "name": "_params",
          "type": "bytes"
        }
      ],
      "name": "initiateFlashSwap",
      "outputs": [],
      "stateMutability": "nonpayable",
      "type": "function"
    },
    {
      "inputs": [
        {
          "internalType": "address",
          "name": "_poolAddress",
          "type": "address"
        },
        {
          "internalType": "uint256",
          "name": "_amount0",
          "type": "uint256"
        },
        {
          "internalType": "uint256",
          "name": "_amount1",
          "type": "uint256"
        },
        {
          "internalType": "bytes",
          "name": "_params",
          "type": "bytes"
        }
      ],
      "name": "initiateTriangularFlashSwap",
      "outputs": [],
      "stateMutability": "nonpayable",
      "type": "function"
    },
    {
      "inputs": [],
      "name": "owner",
      "outputs": [
        {
          "internalType": "address payable",
          "name": "",
          "type": "address"
        }
      ],
      "stateMutability": "view",
      "type": "function"
    },
    {
      "inputs": [
        {
          "internalType": "uint256",
          "name": "fee0",
          "type": "uint256"
        },
        {
          "internalType": "uint256",
          "name": "fee1",
          "type": "uint256"
        },
        {
          "internalType": "bytes",
          "name": "data",
          "type": "bytes"
        }
      ],
      "name": "uniswapV3FlashCallback",
      "outputs": [],
      "stateMutability": "nonpayable",
      "type": "function"
    },
    {
      "inputs": [],
      "name": "withdrawEther",
      "outputs": [],
      "stateMutability": "nonpayable",
      "type": "function"
    },
    {
      "inputs": [
        {
          "internalType": "address",
          "name": "tokenAddress",
          "type": "address"
        }
      ],
      "name": "withdrawToken",
      "outputs": [],
      "stateMutability": "nonpayable",
      "type": "function"
    },
    {
      "stateMutability": "payable",
      "type": "receive"
    }
  ],
  "bytecode": "0x6101406040527f1f98431c8ad98523631ae4a59f267346ea31f98400000000000000000000000060e0523480156200003657600080fd5b506040516200430f3803806200430f83398101604081905262000059916200015f565b60016000556001600160a01b038416620000905760405162461bcd60e51b81526004016200008790620001db565b60405180910390fd5b6001600160a01b038316620000b95760405162461bcd60e51b81526004016200008790620001bb565b6001600160a01b038216620000e25760405162461bcd60e51b815260040162000087906200021c565b6001600160a01b0381166200010b5760405162461bcd60e51b81526004016200008790620001fb565b6001600160601b0319606094851b811660805292841b831660a05290831b821661010052821b166101205233901b60c0526200023c565b80516001600160a01b03811681146200015a57600080fd5b919050565b6000806000806080858703121562000175578384fd5b620001808562000142565b9350620001906020860162000142565b9250620001a06040860162000142565b9150620001b06060860162000142565b905092959194509250565b60208082526006908201526523299d24a9a960d11b604082015260600190565b60208082526006908201526523299d24aaa960d11b604082015260600190565b602080825260079082015266046533a494141560cc1b604082015260600190565b602080825260069082015265046533a4941560d41b604082015260600190565b60805160601c60a05160601c60c05160601c60e05160601c6101005160601c6101205160601c613fd26200033d6000398061029c528061071f5250806102c15280610baf5280610e225280611145528061143d5250806102e552806115c75250806103125280610344528061074c528061077e5280610a135280610a455280610aa55280610b3f5280610bdc5280610c0e5280610d085280610d2f5280610d9652806111c15280611239528061128852806112ba528061185c52806118d45250806106fb5280610ff25280611ca8525080610fbb52806114bc52806122ed528061235852806123c75280612431528061249d52806127095250613fd26000f3fe6080604052600436106100ec5760003560e01c80637362377b1161008a578063920f5c8411610059578063920f5c8414610218578063be1ef10214610245578063c600589314610265578063e9cbafb01461027a576100f3565b80637362377b146101b95780637535d246146101ce57806389476069146101e35780638da5cb5b14610203576100f3565b806309c3da87116100c657806309c3da871461014d5780630c24f4fa1461016f57806311b2e10e146101845780632f36d1e014610199576100f3565b80630542975c146100f857806308a016751461012357806308bd1a8514610138576100f3565b366100f357005b600080fd5b34801561010457600080fd5b5061010d61029a565b60405161011a9190613707565b60405180910390f35b34801561012f57600080fd5b5061010d6102bf565b34801561014457600080fd5b5061010d6102e3565b34801561015957600080fd5b5061016d610168366004612dd9565b610307565b005b34801561017b57600080fd5b5061010d6106f9565b34801561019057600080fd5b5061010d61071d565b3480156101a557600080fd5b5061016d6101b4366004612dd9565b610741565b3480156101c557600080fd5b5061016d610a08565b3480156101da57600080fd5b5061010d610bad565b3480156101ef57600080fd5b5061016d6101fe366004612da1565b610bd1565b34801561020f57600080fd5b5061010d610d94565b34801561022457600080fd5b50610238610233366004612e40565b610db8565b60405161011a91906137f6565b34801561025157600080fd5b5061016d610260366004612f15565b61127d565b34801561027157600080fd5b5061010d6114ba565b34801561028657600080fd5b5061016d61029536600461342a565b6114de565b7f00000000000000000000000000000000000000000000000000000000000000005b90565b7f000000000000000000000000000000000000000000000000000000000000000081565b7f000000000000000000000000000000000000000000000000000000000000000081565b336001600160a01b037f00000000000000000000000000000000000000000000000000000000000000001614806103665750326001600160a01b037f000000000000000000000000000000000000000000000000000000000000000016145b61038b5760405162461bcd60e51b8152600401610382906138b4565b60405180910390fd5b6001600160a01b0385166103b15760405162461bcd60e51b815260040161038290613a32565b6000841180156103bf575082155b806103d357506000831180156103d3575083155b6103ef5760405162461bcd60e51b815260040161038290613913565b8061040c5760405162461bcd60e51b815260040161038290613933565b60008590506000816001600160a01b0316630dfe16816040518163ffffffff1660e01b815260040160206040518083038186803b15801561044c57600080fd5b505afa158015610460573d6000803e3d6000fd5b505050506040513d601f19601f820116820180604052508101906104849190612dbd565b90506000826001600160a01b031663d21220a76040518163ffffffff1660e01b815260040160206040518083038186803b1580156104c157600080fd5b505afa1580156104d5573d6000803e3d6000fd5b505050506040513d601f19601f820116820180604052508101906104f99190612dbd565b90506000836001600160a01b031663ddca3f436040518163ffffffff1660e01b815260040160206040518083038186803b15801561053657600080fd5b505afa15801561054a573d6000803e3d6000fd5b505050506040513d601f19601f8201168201806040525081019061056e91906133f6565b9050886001600160a01b0316336001600160a01b03167f05aa02a08501ddc4f9f218a7e1318cc2582c58027d8320aa916d16881064515460008b8b6040516105b893929190613801565b60405180910390a360408051610120810190915260009080825b81526020018a8152602001898152602001336001600160a01b031681526020018b6001600160a01b03168152602001856001600160a01b03168152602001846001600160a01b031681526020018362ffffff16815260200188888080601f01602080910402602001604051908101604052809392919081815260200183838082843760009201919091525050509152506040519091506001600160a01b0386169063490e6cbc9030908c908c9061068d908790602001613c7b565b6040516020818303038152906040526040518563ffffffff1660e01b81526004016106bb94939291906137c9565b600060405180830381600087803b1580156106d557600080fd5b505af11580156106e9573d6000803e3d6000fd5b5050505050505050505050505050565b7f000000000000000000000000000000000000000000000000000000000000000081565b7f000000000000000000000000000000000000000000000000000000000000000081565b336001600160a01b037f00000000000000000000000000000000000000000000000000000000000000001614806107a05750326001600160a01b037f000000000000000000000000000000000000000000000000000000000000000016145b6107bc5760405162461bcd60e51b8152600401610382906138b4565b6001600160a01b0385166107e25760405162461bcd60e51b815260040161038290613a32565b6000841180156107f0575082155b806108045750600083118015610804575083155b6108205760405162461bcd60e51b815260040161038290613913565b8061083d5760405162461bcd60e51b815260040161038290613933565b60008590506000816001600160a01b0316630dfe16816040518163ffffffff1660e01b815260040160206040518083038186803b15801561087d57600080fd5b505afa158015610891573d6000803e3d6000fd5b505050506040513d601f19601f820116820180604052508101906108b59190612dbd565b90506000826001600160a01b031663d21220a76040518163ffffffff1660e01b815260040160206040518083038186803b1580156108f257600080fd5b505afa158015610906573d6000803e3d6000fd5b505050506040513d601f19601f8201168201806040525081019061092a9190612dbd565b90506000836001600160a01b031663ddca3f436040518163ffffffff1660e01b815260040160206040518083038186803b15801561096757600080fd5b505afa15801561097b573d6000803e3d6000fd5b505050506040513d601f19601f8201168201806040525081019061099f91906133f6565b9050886001600160a01b0316336001600160a01b03167f05aa02a08501ddc4f9f218a7e1318cc2582c58027d8320aa916d16881064515460018b8b6040516109e993929190613801565b60405180910390a36040805161012081019091526000908060016105d2565b336001600160a01b037f0000000000000000000000000000000000000000000000000000000000000000161480610a675750326001600160a01b037f000000000000000000000000000000000000000000000000000000000000000016145b610a835760405162461bcd60e51b8152600401610382906138b4565b4780610aa15760405162461bcd60e51b815260040161038290613b51565b60007f00000000000000000000000000000000000000000000000000000000000000006001600160a01b031682604051610ada906102bc565b60006040518083038185875af1925050503d8060008114610b17576040519150601f19603f3d011682016040523d82523d6000602084013e610b1c565b606091505b5050905080610b3d5760405162461bcd60e51b8152600401610382906139d2565b7f00000000000000000000000000000000000000000000000000000000000000006001600160a01b031660006001600160a01b03167f9495d03190a79a43e534c9e328ff322f6283261383f5f19c809564f6ad5a57b384604051610ba19190613d25565b60405180910390a35050565b7f000000000000000000000000000000000000000000000000000000000000000090565b336001600160a01b037f0000000000000000000000000000000000000000000000000000000000000000161480610c305750326001600160a01b037f000000000000000000000000000000000000000000000000000000000000000016145b610c4c5760405162461bcd60e51b8152600401610382906138b4565b6001600160a01b038116610c725760405162461bcd60e51b815260040161038290613992565b6040516370a0823160e01b81526000906001600160a01b038316906370a0823190610ca1903090600401613707565b60206040518083038186803b158015610cb957600080fd5b505afa158015610ccd573d6000803e3d6000fd5b505050506040513d601f19601f82011682018060405250810190610cf19190613412565b90508015610d9057610d2d6001600160a01b0383167f00000000000000000000000000000000000000000000000000000000000000008361190d565b7f00000000000000000000000000000000000000000000000000000000000000006001600160a01b0316826001600160a01b03167f9495d03190a79a43e534c9e328ff322f6283261383f5f19c809564f6ad5a57b383604051610ba19190613d25565b5050565b7f000000000000000000000000000000000000000000000000000000000000000081565b600060026000541415610e12576040805162461bcd60e51b815260206004820152601f60248201527f5265656e7472616e637947756172643a207265656e7472616e742063616c6c00604482015290519081900360640190fd5b6002600055336001600160a01b037f00000000000000000000000000000000000000000000000000000000000000001614610e5f5760405162461bcd60e51b8152600401610382906139f2565b6001600160a01b0384163014610e875760405162461bcd60e51b815260040161038290613bd2565b60018914610ea75760405162461bcd60e51b815260040161038290613a91565b8887148015610eb557508685145b610ed15760405162461bcd60e51b815260040161038290613b10565b6000610edf83850185613089565b905060008b8b6000818110610ef057fe5b9050602002016020810190610f059190612da1565b905060008a8a6000818110610f1657fe5b905060200201359050600089896000818110610f2e57fe5b905060200201359050826001600160a01b03167f590e310148e41f756dced96dc1b424986c6699ee980cf932434abcaf26c0474c8383604051610f72929190613d2e565b60405180910390a28160005b85515181101561105f57600086600001518281518110610f9a57fe5b6020026020010151905060008060ff168260a0015160ff161415610fdf57507f0000000000000000000000000000000000000000000000000000000000000000611046565b60a082015160ff166001141561101657507f0000000000000000000000000000000000000000000000000000000000000000611046565b60a082015160ff166002141561102e57508051611046565b60405162461bcd60e51b8152600401610382906139b2565b61105582602001518286611964565b5050600101610f7e565b50600061106f8660000151611a9a565b9050600081116110915760405162461bcd60e51b8152600401610382906138f3565b600061109d85856121b6565b90506000866001600160a01b03166370a08231306040518263ffffffff1660e01b81526004016110cd9190613707565b60206040518083038186803b1580156110e557600080fd5b505afa1580156110f9573d6000803e3d6000fd5b505050506040513d601f19601f8201168201806040525081019061111d9190613412565b90508181101561113f5760405162461bcd60e51b815260040161038290613a12565b61116a877f000000000000000000000000000000000000000000000000000000000000000084611964565b866001600160a01b03167f225e94d7746fdb574aa7d9b5f49a354df34409388d4f4a2799fe421a1b5f55f2836040516111a39190613d25565b60405180910390a260006111b78284612219565b9050801561125e577f00000000000000000000000000000000000000000000000000000000000000006001600160a01b0316886001600160a01b03167ff8c1ab10239f6f37a13f2905c9b042c4c7ff13bcbf485c543d2a9ecbc5c18afa836040516112229190613d25565b60405180910390a361125e6001600160a01b0389167f00000000000000000000000000000000000000000000000000000000000000008361190d565b6001995050505050505050505060016000559998505050505050505050565b336001600160a01b037f00000000000000000000000000000000000000000000000000000000000000001614806112dc5750326001600160a01b037f000000000000000000000000000000000000000000000000000000000000000016145b6112f85760405162461bcd60e51b8152600401610382906138b4565b8351600114801561130a575082516001145b6113265760405162461bcd60e51b815260040161038290613972565b60008360008151811061133557fe5b60200260200101511161135a5760405162461bcd60e51b8152600401610382906138f3565b806113775760405162461bcd60e51b815260040161038290613933565b8360008151811061138457fe5b60200260200101516001600160a01b0316336001600160a01b03167f982ee83a4f94146b0aa8d4266773327071682a730aef8f249832a7c58df3b064856000815181106113cd57fe5b60200260200101516040516113e29190613d25565b60405180910390a36040805160018082528183019092526000916020808301908036833701905050905060008160008151811061141b57fe5b602090810291909101015260405163ab9c4b5d60e01b81526001600160a01b037f0000000000000000000000000000000000000000000000000000000000000000169063ab9c4b5d9061148190309089908990879084908b908b90600090600401613735565b600060405180830381600087803b15801561149b57600080fd5b505af11580156114af573d6000803e3d6000fd5b505050505050505050565b7f000000000000000000000000000000000000000000000000000000000000000081565b60026000541415611536576040805162461bcd60e51b815260206004820152601f60248201527f5265656e7472616e637947756172643a207265656e7472616e742063616c6c00604482015290519081900360640190fd5b60026000908155611549828401846131e6565b9050600060405180606001604052808360a001516001600160a01b031681526020018360c001516001600160a01b031681526020018360e0015162ffffff16815250905081608001516001600160a01b0316336001600160a01b0316146115c25760405162461bcd60e51b815260040161038290613ad0565b6115ec7f000000000000000000000000000000000000000000000000000000000000000082612276565b50600080600080600086604001511115611644576020860151156116225760405162461bcd60e51b815260040161038290613833565b5060c0850151604086015190935091508761163d83826121b6565b9150611694565b604086015115801561165a575060008660200151115b6116765760405162461bcd60e51b815260040161038290613ab0565b5060a0850151602086015190935091508861169183826121b6565b91505b85516001600160a01b0385169060018111156116ac57fe5b7fd03100470982abc26de7fc1f904cfde062a6cbdda69c624e8035a785a40482cf85846040516116dd929190613d2e565b60405180910390a360006001875160018111156116f657fe5b14156117135761170c8585896101000151612299565b9050611750565b60008751600181111561172257fe5b14156117385761170c8585896101000151612412565b60405162461bcd60e51b815260040161038290613952565b6040516370a0823160e01b81526000906001600160a01b038716906370a082319061177f903090600401613707565b60206040518083038186803b15801561179757600080fd5b505afa1580156117ab573d6000803e3d6000fd5b505050506040513d601f19601f820116820180604052508101906117cf9190613412565b9050838110156117f15760405162461bcd60e51b815260040161038290613a12565b6118056001600160a01b038716338661190d565b856001600160a01b03167f225e94d7746fdb574aa7d9b5f49a354df34409388d4f4a2799fe421a1b5f55f28560405161183e9190613d25565b60405180910390a260006118528286612219565b905080156118f9577f00000000000000000000000000000000000000000000000000000000000000006001600160a01b0316876001600160a01b03167ff8c1ab10239f6f37a13f2905c9b042c4c7ff13bcbf485c543d2a9ecbc5c18afa836040516118bd9190613d25565b60405180910390a36118f96001600160a01b0388167f00000000000000000000000000000000000000000000000000000000000000008361190d565b505060016000555050505050505050505050565b604080516001600160a01b038416602482015260448082018490528251808303909101815260649091019091526020810180516001600160e01b031663a9059cbb60e01b17905261195f9084906124e7565b505050565b604051636eb1769f60e11b815281906001600160a01b0385169063dd62ed3e90611994903090879060040161371b565b60206040518083038186803b1580156119ac57600080fd5b505afa1580156119c0573d6000803e3d6000fd5b505050506040513d601f19601f820116820180604052508101906119e49190613412565b101561195f57604051636eb1769f60e11b81526000906001600160a01b0385169063dd62ed3e90611a1b903090879060040161371b565b60206040518083038186803b158015611a3357600080fd5b505afa158015611a47573d6000803e3d6000fd5b505050506040513d601f19601f82011682018060405250810190611a6b9190613412565b1115611a8657611a866001600160a01b038416836000612598565b61195f6001600160a01b0384168383612598565b600080825111611abc5760405162461bcd60e51b815260040161038290613bb2565b600082600081518110611acb57fe5b6020026020010151602001516001600160a01b03166370a08231306040518263ffffffff1660e01b8152600401611b029190613707565b60206040518083038186803b158015611b1a57600080fd5b505afa158015611b2e573d6000803e3d6000fd5b505050506040513d601f19601f82011682018060405250810190611b529190613412565b905060005b83518110156121af576000848281518110611b6e57fe5b6020026020010151905060008311611b985760405162461bcd60e51b815260040161038290613af0565b60a081015160009060ff16611bef57611bc8836001018360200151846040015185606001518887608001516126ab565b905060008111611bea5760405162461bcd60e51b815260040161038290613b30565b6121a4565b60a082015160ff1660011415611e5557604080516002808252606082018352600092602083019080368337019050509050826020015181600081518110611c3257fe5b60200260200101906001600160a01b031690816001600160a01b031681525050826040015181600181518110611c6457fe5b6001600160a01b03909216602092830291909101909101526000611c8942603c6121b6565b60808501516040516338ed173960e01b81529192506001600160a01b037f000000000000000000000000000000000000000000000000000000000000000016916338ed173991611ce4918a9190879030908890600401613d3c565b600060405180830381600087803b158015611cfe57600080fd5b505af1925050508015611d3357506040513d6000823e601f3d908101601f19168201604052611d309190810190612ffa565b60015b611daa57611d3f613e29565b80611d4a5750611d8e565b611d5686600101612824565b81604051602001611d6892919061363e565b60408051601f198184030181529082905262461bcd60e51b825261038291600401613820565b611d9a85600101612824565b604051602001611d68919061368c565b8051600214611dcb5760405162461bcd60e51b815260040161038290613a51565b80600181518110611dd857fe5b6020026020010151935084604001516001600160a01b031685602001516001600160a01b0316600080516020613ef78339815191528860010160018b89604051611e259493929190613d95565b60405180910390a35060008311611e4e5760405162461bcd60e51b815260040161038290613a71565b50506121a4565b60a082015160ff166002141561218c576000826000015190506000816001600160a01b0316634a248d2a6040518163ffffffff1660e01b815260040160206040518083038186803b158015611ea957600080fd5b505afa158015611ebd573d6000803e3d6000fd5b505050506040513d601f19601f82011682018060405250810190611ee19190612dbd565b9050806001600160a01b031684602001516001600160a01b03161415612021576080840151604051638dae733360e01b81526001600160a01b03841691638dae733391611f32918a91600401613d78565b602060405180830381600087803b158015611f4c57600080fd5b505af1925050508015611f7c575060408051601f3d908101601f19168201909252611f7991810190613412565b60015b611fcd57611f88613e29565b80611f935750611fb1565b611f9f86600101612824565b81604051602001611d689291906136c5565b611fbd85600101612824565b604051602001611d6891906136e6565b80935084604001516001600160a01b031685602001516001600160a01b0316600080516020613ef78339815191528860010160028b896040516120139493929190613d95565b60405180910390a35061216c565b60008460800151116120455760405162461bcd60e51b8152600401610382906138d3565b608084015160405163733e738360e11b81526000916001600160a01b0385169163e67ce70691612079918b90600401613d78565b602060405180830381600087803b15801561209357600080fd5b505af19250505080156120c3575060408051601f3d908101601f191682019092526120c091810190613412565b60015b612114576120cf613e29565b806120da57506120f8565b6120e687600101612824565b81604051602001611d689291906135b5565b61210486600101612824565b604051602001611d689190613604565b8091508560800151945085604001516001600160a01b031686602001516001600160a01b0316600080516020613ef7833981519152896001016002868a6040516121619493929190613d95565b60405180910390a350505b60008311611e4e5760405162461bcd60e51b815260040161038290613874565b60405162461bcd60e51b815260040161038290613894565b925050600101611b57565b5092915050565b600082820183811015612210576040805162461bcd60e51b815260206004820152601b60248201527f536166654d6174683a206164646974696f6e206f766572666c6f770000000000604482015290519081900360640190fd5b90505b92915050565b600082821115612270576040805162461bcd60e51b815260206004820152601e60248201527f536166654d6174683a207375627472616374696f6e206f766572666c6f770000604482015290519081900360640190fd5b50900390565b60006122828383612907565b9050336001600160a01b0382161461221357600080fd5b600080828060200190518101906122b091906132d2565b9050846001600160a01b031681600001516001600160a01b0316146122e75760405162461bcd60e51b815260040161038290613b71565b612312857f000000000000000000000000000000000000000000000000000000000000000086611964565b600061232c600187846020015185606001518960006126ab565b90506000811161234e5760405162461bcd60e51b815260040161038290613b91565b61237d82602001517f000000000000000000000000000000000000000000000000000000000000000083611964565b600061239b60028460200151856040015186608001518660006126ab565b9050600081116123bd5760405162461bcd60e51b815260040161038290613853565b6123ec83604001517f000000000000000000000000000000000000000000000000000000000000000083611964565b61240760038460400151898660a00151858860c001516126ab565b979650505050505050565b600080828060200190518101906124299190613376565b9050612456857f000000000000000000000000000000000000000000000000000000000000000086611964565b6000612473600187846000015185602001518987606001516126ab565b9050600081116124955760405162461bcd60e51b815260040161038290613bf2565b81516124c2907f000000000000000000000000000000000000000000000000000000000000000083611964565b6124dd600283600001518885604001518587608001516126ab565b9695505050505050565b600061253c826040518060400160405280602081526020017f5361666545524332303a206c6f772d6c6576656c2063616c6c206661696c6564815250856001600160a01b03166129eb9092919063ffffffff16565b80519091501561195f5780806020019051602081101561255b57600080fd5b505161195f5760405162461bcd60e51b815260040180806020018281038252602a815260200180613f3d602a913960400191505060405180910390fd5b80158061261e575060408051636eb1769f60e11b81523060048201526001600160a01b03848116602483015291519185169163dd62ed3e91604480820192602092909190829003018186803b1580156125f057600080fd5b505afa158015612604573d6000803e3d6000fd5b505050506040513d602081101561261a57600080fd5b5051155b6126595760405162461bcd60e51b8152600401808060200182810382526036815260200180613f676036913960400191505060405180910390fd5b604080516001600160a01b038416602482015260448082018490528251808303909101815260649091019091526020810180516001600160e01b031663095ea7b360e01b17905261195f9084906124e7565b60408051610100810182526001600160a01b038088168252868116602083015262ffffff86168284015230606083015242603c01608083015260a0820185905260c08201849052600060e08301819052925163414bf38960e01b81527f00000000000000000000000000000000000000000000000000000000000000009091169063414bf38990612740908490600401613c12565b602060405180830381600087803b15801561275a57600080fd5b505af192505050801561278a575060408051601f3d908101601f1916820190925261278791810190613412565b60015b6127d557612796613e29565b806127a157506127bc565b6127aa89612824565b81604051602001611d68929190613530565b6127c588612824565b604051602001611d68919061357d565b809250866001600160a01b0316886001600160a01b0316600080516020613ef78339815191528b600089886040516128109493929190613d95565b60405180910390a350509695505050505050565b60608161284957506040805180820190915260018152600360fc1b6020820152612902565b8160005b811561286157600101600a8204915061284d565b6000816001600160401b038111801561287957600080fd5b506040519080825280601f01601f1916602001820160405280156128a4576020820181803683370190505b509050815b85156128fc57600019016000600a8704600a028703603001905060008160f81b9050808484815181106128d857fe5b60200101906001600160f81b031916908160001a905350600a8804975050506128a9565b50925050505b919050565b600081602001516001600160a01b031682600001516001600160a01b03161061292f57600080fd5b50805160208083015160409384015184516001600160a01b0394851681850152939091168385015262ffffff166060808401919091528351808403820181526080840185528051908301206001600160f81b031960a085015294901b6bffffffffffffffffffffffff191660a183015260b58201939093527fe34f199b19b2b4f47f68442619d555527d244f78a3297ea89325f843f87b8b5460d5808301919091528251808303909101815260f5909101909152805191012090565b60606129fa8484600085612a04565b90505b9392505050565b606082471015612a455760405162461bcd60e51b8152600401808060200182810382526026815260200180613f176026913960400191505060405180910390fd5b612a4e85612b54565b612a9f576040805162461bcd60e51b815260206004820152601d60248201527f416464726573733a2063616c6c20746f206e6f6e2d636f6e7472616374000000604482015290519081900360640190fd5b600080866001600160a01b031685876040518082805190602001908083835b60208310612add5780518252601f199092019160209182019101612abe565b6001836020036101000a03801982511681845116808217855250505050505090500191505060006040518083038185875af1925050503d8060008114612b3f576040519150601f19603f3d011682016040523d82523d6000602084013e612b44565b606091505b5091509150612407828286612b5a565b3b151590565b60608315612b695750816129fd565b825115612b795782518084602001fd5b8160405162461bcd60e51b81526004018080602001828103825283818151815260200191508051906020019080838360005b83811015612bc3578181015183820152602001612bab565b50505050905090810190601f168015612bf05780820380516001836020036101000a031916815260200191505b509250505060405180910390fd5b803561290281613ecd565b805161290281613ecd565b60008083601f840112612c25578182fd5b5081356001600160401b03811115612c3b578182fd5b6020830191508360208083028501011115612c5557600080fd5b9250929050565b600082601f830112612c6c578081fd5b81356020612c81612c7c83613dd6565b613db3565b8281528181019085830183850287018401881015612c9d578586fd5b855b85811015612cbb57813584529284019290840190600101612c9f565b5090979650505050505050565b60008083601f840112612cd9578182fd5b5081356001600160401b03811115612cef578182fd5b602083019150836020828501011115612c5557600080fd5b600082601f830112612d17578081fd5b81356001600160401b03811115612d2a57fe5b612d3d601f8201601f1916602001613db3565b818152846020838601011115612d51578283fd5b816020850160208301379081016020019190915292915050565b80356002811061290257600080fd5b803561290281613ee5565b805161290281613ee5565b803560ff8116811461290257600080fd5b600060208284031215612db2578081fd5b813561221081613ecd565b600060208284031215612dce578081fd5b815161221081613ecd565b600080600080600060808688031215612df0578081fd5b8535612dfb81613ecd565b9450602086013593506040860135925060608601356001600160401b03811115612e23578182fd5b612e2f88828901612cc8565b969995985093965092949392505050565b600080600080600080600080600060a08a8c031215612e5d578687fd5b89356001600160401b0380821115612e73578889fd5b612e7f8d838e01612c14565b909b50995060208c0135915080821115612e97578889fd5b612ea38d838e01612c14565b909950975060408c0135915080821115612ebb578586fd5b612ec78d838e01612c14565b909750955060608c01359150612edc82613ecd565b90935060808b01359080821115612ef1578384fd5b50612efe8c828d01612cc8565b915080935050809150509295985092959850929598565b60008060008060608587031215612f2a578182fd5b84356001600160401b0380821115612f40578384fd5b818701915087601f830112612f53578384fd5b81356020612f63612c7c83613dd6565b82815281810190858301838502870184018d1015612f7f578889fd5b8896505b84871015612faa578035612f9681613ecd565b835260019690960195918301918301612f83565b5098505088013592505080821115612fc0578384fd5b612fcc88838901612c5c565b94506040870135915080821115612fe1578384fd5b50612fee87828801612cc8565b95989497509550505050565b6000602080838503121561300c578182fd5b82516001600160401b03811115613021578283fd5b8301601f81018513613031578283fd5b805161303f612c7c82613dd6565b818152838101908385018584028501860189101561305b578687fd5b8694505b8385101561307d57805183526001949094019391850191850161305f565b50979650505050505050565b6000602080838503121561309b578182fd5b82356001600160401b03808211156130b1578384fd5b818501915060408083880312156130c6578485fd5b805181810181811084821117156130d957fe5b82528335838111156130e9578687fd5b8401601f810189136130f9578687fd5b8035613107612c7c82613dd6565b8181528781019083890160c080850286018b018e1015613125578b8cfd5b8b95505b848610156131c15780828f03121561313f578b8cfd5b87518181018181108b8211171561315257fe5b8952823561315f81613ecd565b815261316c838d01612bfe565b8c82015261317b898401612bfe565b89820152606061318c818501612d7a565b908201526080838101359082015260a06131a7818501612d90565b90820152845260019590950194928a019290810190613129565b50508452506131d4915050848601612bfe565b85820152809550505050505092915050565b6000602082840312156131f7578081fd5b81356001600160401b038082111561320d578283fd5b8184019150610120808387031215613223578384fd5b61322c81613db3565b905061323783612d6b565b8152602083013560208201526040830135604082015261325960608401612bfe565b606082015261326a60808401612bfe565b608082015261327b60a08401612bfe565b60a082015261328c60c08401612bfe565b60c082015261329d60e08401612d7a565b60e082015261010080840135838111156132b5578586fd5b6132c188828701612d07565b918301919091525095945050505050565b600060e082840312156132e3578081fd5b60405160e081018181106001600160401b03821117156132ff57fe5b60405261330b83612c09565b815261331960208401612c09565b602082015261332a60408401612c09565b604082015261333b60608401612d85565b606082015261334c60808401612d85565b608082015261335d60a08401612d85565b60a082015260c083015160c08201528091505092915050565b600060a08284031215613387578081fd5b60405160a081018181106001600160401b03821117156133a357fe5b60405282516133b181613ecd565b815260208301516133c181613ee5565b602082015260408301516133d481613ee5565b6040820152606083810151908201526080928301519281019290925250919050565b600060208284031215613407578081fd5b815161221081613ee5565b600060208284031215613423578081fd5b5051919050565b6000806000806060858703121561343f578182fd5b843593506020850135925060408501356001600160401b03811115613462578283fd5b612fee87828801612cc8565b6001600160a01b03169052565b6000815180845260208085019450808401835b838110156134b35781516001600160a01b03168752958201959082019060010161348e565b509495945050505050565b6000815180845260208085019450808401835b838110156134b3578151875295820195908201906001016134d1565b60008151808452613505816020860160208601613df3565b601f01601f19169290920160200192915050565b6002811061352357fe5b9052565b62ffffff169052565b60006346533a5360e01b8252835161354f816004850160208801613df3565b61231d60f11b6004918401918201528351613571816006840160208801613df3565b01600601949350505050565b60006346533a5360e01b8252825161359c816004850160208701613df3565b61119360f21b6004939091019283015250600601919050565b60006523299d2228a160d11b825283516135d6816006850160208801613df3565b61231d60f11b60069184019182015283516135f8816008840160208801613df3565b01600801949350505050565b60006523299d2228a160d11b82528251613625816006850160208701613df3565b61119360f21b6006939091019283015250600801919050565b60006446533a535360d81b8252835161365e816005850160208801613df3565b61231d60f11b6005918401918201528351613680816007840160208801613df3565b01600701949350505050565b60006446533a535360d81b825282516136ac816005850160208701613df3565b61119360f21b6005939091019283015250600701919050565b60006523299d2229a160d11b825283516135d6816006850160208801613df3565b60006523299d2229a160d11b82528251613625816006850160208701613df3565b6001600160a01b0391909116815260200190565b6001600160a01b0392831681529116602082015260400190565b600060018060a01b03808b16835260e0602084015261375760e084018b61347b565b8381036040850152613769818b6134be565b9050838103606085015261377d818a6134be565b9050818816608085015283810360a08501528581528587602083013782602087830101526020601f19601f8801168201019250505061ffff831660c08301529998505050505050505050565b600060018060a01b0386168252846020830152836040830152608060608301526124dd60808301846134ed565b901515815260200190565b6060810161380f8286613519565b602082019390935260400152919050565b6000602082526129fd60208301846134ed565b60208082526006908201526523299d212a2160d11b604082015260600190565b60208082526007908201526623299d2a29992d60c91b604082015260600190565b60208082526006908201526523299d2229ad60d11b604082015260600190565b6020808252600690820152651194ce95511560d21b604082015260600190565b60208082526005908201526446533a4e4160d81b604082015260600190565b60208082526006908201526546533a44514160d01b604082015260600190565b60208082526006908201526546533a415a4160d01b604082015260600190565b60208082526006908201526546533a42414f60d01b604082015260600190565b602080825260059082015264046533a45560dc1b604082015260600190565b6020808252600690820152651194ce9550d560d21b604082015260600190565b60208082526006908201526546533a53414160d01b604082015260600190565b60208082526006908201526546533a5a544160d01b604082015260600190565b60208082526006908201526546533a55444160d01b604082015260600190565b60208082526006908201526523299d22aa2360d11b604082015260600190565b60208082526006908201526546533a43424160d01b604082015260600190565b60208082526006908201526523299d24a32960d11b604082015260600190565b602080825260059082015264046533a49560dc1b604082015260600190565b60208082526006908201526546533a534c4160d01b604082015260600190565b60208082526006908201526523299d29a9ad60d11b604082015260600190565b60208082526005908201526446533a4d4160d81b604082015260600190565b60208082526006908201526546533a424e4160d01b604082015260600190565b60208082526006908201526546533a43425760d01b604082015260600190565b60208082526006908201526546533a415a5360d01b604082015260600190565b60208082526006908201526546533a414c4160d01b604082015260600190565b60208082526007908201526623299d2b19a9ad60c91b604082015260600190565b60208082526006908201526523299d2722a360d11b604082015260600190565b60208082526006908201526546533a54504160d01b604082015260600190565b60208082526007908201526623299d2a2998ad60c91b604082015260600190565b602080825260069082015265046533a4553560d41b604082015260600190565b60208082526006908201526546533a49464960d01b604082015260600190565b60208082526006908201526523299d2998ad60d11b604082015260600190565b81516001600160a01b03908116825260208084015182169083015260408084015162ffffff16908301526060808401518216908301526080808401519083015260a0838101519083015260c0808401519083015260e09283015116918101919091526101000190565b600060208252613c8f602083018451613519565b60208301516040830152604083015160608301526060830151613cb5608084018261346e565b506080830151613cc860a084018261346e565b5060a0830151613cdb60c084018261346e565b5060c0830151613cee60e084018261346e565b5060e0830151610100613d0381850183613527565b840151610120848101529050613d1d6101408401826134ed565b949350505050565b90815260200190565b918252602082015260400190565b600086825285602083015260a06040830152613d5b60a083018661347b565b6001600160a01b0394909416606083015250608001529392505050565b918252602082015260606040820181905260009082015260800190565b93845260ff9290921660208401526040830152606082015260800190565b6040518181016001600160401b0381118282101715613dce57fe5b604052919050565b60006001600160401b03821115613de957fe5b5060209081020190565b60005b83811015613e0e578181015183820152602001613df6565b83811115613e1d576000848401525b50505050565b60e01c90565b600060443d1015613e39576102bc565b600481823e6308c379a0613e4d8251613e23565b14613e57576102bc565b6040513d600319016004823e80513d6001600160401b038160248401118184111715613e8657505050506102bc565b82840192508251915080821115613ea057505050506102bc565b503d83016020828401011115613eb8575050506102bc565b601f01601f1916810160200160405291505090565b6001600160a01b0381168114613ee257600080fd5b50565b62ffffff81168114613ee257600080fdfe7f0c28831dc31706c487574de03f85822b98a41eddf7577b2b7eab4d5d5da545416464726573733a20696e73756666696369656e742062616c616e636520666f722063616c6c5361666545524332303a204552433230206f7065726174696f6e20646964206e6f7420737563636565645361666545524332303a20617070726f76652066726f6d206e6f6e2d7a65726f20746f206e6f6e2d7a65726f20616c6c6f77616e6365a2646970667358221220019df23bc7b12e045d406c8a1e37df2bea1d5c7c7552dac55e09a20f7e6d659864736f6c63430007060033",
  "linkReferences": {},
  "deployedLinkReferences": {}
}