{
  "_format": "hh-sol-artifact-1",
  "contractName": "FlashSwap",
  "sourceName": "contracts/FlashSwap.sol",
  "abi": [
    {
      "inputs": [
        {
          "internalType": "address",
          "name": "_uniswapV3Router",
          "type": "address"
        },
        {
          "internalType": "address",
          "name": "_sushiRouter",
          "type": "address"
        },
        {
          "internalType": "address",
          "name": "_aavePoolAddress",
          "type": "address"
        },
        {
          "internalType": "address",
          "name": "_aaveAddressesProvider",
          "type": "address"
        }
      ],
      "stateMutability": "nonpayable",
      "type": "constructor"
    },
    {
      "anonymous": false,
      "inputs": [
        {
          "indexed": true,
          "internalType": "address",
          "name": "tokenBorrowed",
          "type": "address"
        },
        {
          "indexed": false,
          "internalType": "uint256",
          "name": "amountBorrowed",
          "type": "uint256"
        },
        {
          "indexed": false,
          "internalType": "uint256",
          "name": "feePaid",
          "type": "uint256"
        }
      ],
      "name": "AaveArbitrageExecution",
      "type": "event"
    },
    {
      "anonymous": false,
      "inputs": [
        {
          "indexed": true,
          "internalType": "address",
          "name": "caller",
          "type": "address"
        },
        {
          "indexed": true,
          "internalType": "address",
          "name": "asset",
          "type": "address"
        },
        {
          "indexed": false,
          "internalType": "uint256",
          "name": "amount",
          "type": "uint256"
        }
      ],
      "name": "AaveFlashLoanInitiated",
      "type": "event"
    },
    {
      "anonymous": false,
      "inputs": [
        {
          "indexed": true,
          "internalType": "enum FlashSwap.CallbackType",
          "name": "tradeType",
          "type": "uint8"
        },
        {
          "indexed": true,
          "internalType": "address",
          "name": "tokenBorrowed",
          "type": "address"
        },
        {
          "indexed": false,
          "internalType": "uint256",
          "name": "amountBorrowed",
          "type": "uint256"
        },
        {
          "indexed": false,
          "internalType": "uint256",
          "name": "feePaid",
          "type": "uint256"
        }
      ],
      "name": "ArbitrageExecution",
      "type": "event"
    },
    {
      "anonymous": false,
      "inputs": [
        {
          "indexed": true,
          "internalType": "address",
          "name": "token",
          "type": "address"
        },
        {
          "indexed": true,
          "internalType": "address",
          "name": "recipient",
          "type": "address"
        },
        {
          "indexed": false,
          "internalType": "uint256",
          "name": "amount",
          "type": "uint256"
        }
      ],
      "name": "EmergencyWithdrawal",
      "type": "event"
    },
    {
      "anonymous": false,
      "inputs": [
        {
          "indexed": true,
          "internalType": "address",
          "name": "caller",
          "type": "address"
        },
        {
          "indexed": true,
          "internalType": "address",
          "name": "pool",
          "type": "address"
        },
        {
          "indexed": false,
          "internalType": "enum FlashSwap.CallbackType",
          "name": "tradeType",
          "type": "uint8"
        },
        {
          "indexed": false,
          "internalType": "uint256",
          "name": "amount0",
          "type": "uint256"
        },
        {
          "indexed": false,
          "internalType": "uint256",
          "name": "amount1",
          "type": "uint256"
        }
      ],
      "name": "FlashSwapInitiated",
      "type": "event"
    },
    {
      "anonymous": false,
      "inputs": [
        {
          "indexed": true,
          "internalType": "address",
          "name": "token",
          "type": "address"
        },
        {
          "indexed": true,
          "internalType": "address",
          "name": "recipient",
          "type": "address"
        },
        {
          "indexed": false,
          "internalType": "uint256",
          "name": "amount",
          "type": "uint256"
        }
      ],
      "name": "ProfitTransferred",
      "type": "event"
    },
    {
      "anonymous": false,
      "inputs": [
        {
          "indexed": true,
          "internalType": "address",
          "name": "token",
          "type": "address"
        },
        {
          "indexed": false,
          "internalType": "uint256",
          "name": "amountRepaid",
          "type": "uint256"
        }
      ],
      "name": "RepaymentSuccess",
      "type": "event"
    },
    {
      "anonymous": false,
      "inputs": [
        {
          "indexed": false,
          "internalType": "uint256",
          "name": "swapNumber",
          "type": "uint256"
        },
        {
          "indexed": false,
          "internalType": "uint8",
          "name": "dexType",
          "type": "uint8"
        },
        {
          "indexed": true,
          "internalType": "address",
          "name": "tokenIn",
          "type": "address"
        },
        {
          "indexed": true,
          "internalType": "address",
          "name": "tokenOut",
          "type": "address"
        },
        {
          "indexed": false,
          "internalType": "uint256",
          "name": "amountIn",
          "type": "uint256"
        },
        {
          "indexed": false,
          "internalType": "uint256",
          "name": "amountOut",
          "type": "uint256"
        }
      ],
      "name": "SwapExecuted",
      "type": "event"
    },
    {
      "anonymous": false,
      "inputs": [
        {
          "indexed": true,
          "internalType": "address",
          "name": "token",
          "type": "address"
        },
        {
          "indexed": false,
          "internalType": "uint256",
          "name": "amount",
          "type": "uint256"
        }
      ],
      "name": "TithePaid",
      "type": "event"
    },
    {
      "anonymous": false,
      "inputs": [
        {
          "indexed": true,
          "internalType": "bytes32",
          "name": "pathHash",
          "type": "bytes32"
        },
        {
          "indexed": true,
          "internalType": "address",
          "name": "token",
          "type": "address"
        },
        {
          "indexed": false,
          "internalType": "uint256",
          "name": "grossProfit",
          "type": "uint256"
        },
        {
          "indexed": false,
          "internalType": "uint256",
          "name": "feesPaid",
          "type": "uint256"
        },
        {
          "indexed": false,
          "internalType": "uint256",
          "name": "netProfit",
          "type": "uint256"
        }
      ],
      "name": "TradeProfit",
      "type": "event"
    },
    {
      "inputs": [],
      "name": "AAVE_ADDRESSES_PROVIDER",
      "outputs": [
        {
          "internalType": "address",
          "name": "",
          "type": "address"
        }
      ],
      "stateMutability": "view",
      "type": "function"
    },
    {
      "inputs": [],
      "name": "AAVE_POOL",
      "outputs": [
        {
          "internalType": "contract IPool",
          "name": "",
          "type": "address"
        }
      ],
      "stateMutability": "view",
      "type": "function"
    },
    {
      "inputs": [],
      "name": "ADDRESSES_PROVIDER",
      "outputs": [
        {
          "internalType": "address",
          "name": "",
          "type": "address"
        }
      ],
      "stateMutability": "view",
      "type": "function"
    },
    {
      "inputs": [],
      "name": "POOL",
      "outputs": [
        {
          "internalType": "address",
          "name": "",
          "type": "address"
        }
      ],
      "stateMutability": "view",
      "type": "function"
    },
    {
      "inputs": [],
      "name": "SUSHI_ROUTER",
      "outputs": [
        {
          "internalType": "contract IUniswapV2Router02",
          "name": "",
          "type": "address"
        }
      ],
      "stateMutability": "view",
      "type": "function"
    },
    {
      "inputs": [],
      "name": "SWAP_ROUTER",
      "outputs": [
        {
          "internalType": "contract ISwapRouter",
          "name": "",
          "type": "address"
        }
      ],
      "stateMutability": "view",
      "type": "function"
    },
    {
      "inputs": [],
      "name": "TREASURY",
      "outputs": [
        {
          "internalType": "address",
          "name": "",
          "type": "address"
        }
      ],
      "stateMutability": "view",
      "type": "function"
    },
    {
      "inputs": [],
      "name": "V3_FACTORY",
      "outputs": [
        {
          "internalType": "address",
          "name": "",
          "type": "address"
        }
      ],
      "stateMutability": "view",
      "type": "function"
    },
    {
      "inputs": [
        {
          "internalType": "address",
          "name": "_token",
          "type": "address"
        }
      ],
      "name": "emergencyWithdraw",
      "outputs": [],
      "stateMutability": "nonpayable",
      "type": "function"
    },
    {
      "inputs": [],
      "name": "emergencyWithdrawETH",
      "outputs": [],
      "stateMutability": "nonpayable",
      "type": "function"
    },
    {
      "inputs": [
        {
          "internalType": "address[]",
          "name": "assets",
          "type": "address[]"
        },
        {
          "internalType": "uint256[]",
          "name": "amounts",
          "type": "uint256[]"
        },
        {
          "internalType": "uint256[]",
          "name": "premiums",
          "type": "uint256[]"
        },
        {
          "internalType": "address",
          "name": "initiator",
          "type": "address"
        },
        {
          "internalType": "bytes",
          "name": "params",
          "type": "bytes"
        }
      ],
      "name": "executeOperation",
      "outputs": [
        {
          "internalType": "bool",
          "name": "",
          "type": "bool"
        }
      ],
      "stateMutability": "nonpayable",
      "type": "function"
    },
    {
      "inputs": [
        {
          "internalType": "address",
          "name": "_asset",
          "type": "address"
        },
        {
          "internalType": "uint256",
          "name": "_amount",
          "type": "uint256"
        },
        {
          "components": [
            {
              "internalType": "address",
              "name": "pool",
              "type": "address"
            },
            {
              "internalType": "address",
              "name": "tokenIn",
              "type": "address"
            },
            {
              "internalType": "address",
              "name": "tokenOut",
              "type": "address"
            },
            {
              "internalType": "uint24",
              "name": "fee",
              "type": "uint24"
            },
            {
              "internalType": "uint256",
              "name": "minOut",
              "type": "uint256"
            },
            {
              "internalType": "uint8",
              "name": "dexType",
              "type": "uint8"
            }
          ],
          "internalType": "struct FlashSwap.SwapStep[]",
          "name": "_path",
          "type": "tuple[]"
        }
      ],
      "name": "initiateAaveFlashLoan",
      "outputs": [],
      "stateMutability": "nonpayable",
      "type": "function"
    },
    {
      "inputs": [
        {
          "internalType": "enum FlashSwap.CallbackType",
          "name": "_callbackType",
          "type": "uint8"
        },
        {
          "internalType": "address",
          "name": "_poolAddress",
          "type": "address"
        },
        {
          "internalType": "uint256",
          "name": "_amount0",
          "type": "uint256"
        },
        {
          "internalType": "uint256",
          "name": "_amount1",
          "type": "uint256"
        },
        {
          "internalType": "bytes",
          "name": "_params",
          "type": "bytes"
        }
      ],
      "name": "initiateUniswapV3FlashLoan",
      "outputs": [],
      "stateMutability": "nonpayable",
      "type": "function"
    },
    {
      "inputs": [],
      "name": "owner",
      "outputs": [
        {
          "internalType": "address payable",
          "name": "",
          "type": "address"
        }
      ],
      "stateMutability": "view",
      "type": "function"
    },
    {
      "inputs": [
        {
          "internalType": "uint256",
          "name": "fee0",
          "type": "uint256"
        },
        {
          "internalType": "uint256",
          "name": "fee1",
          "type": "uint256"
        },
        {
          "internalType": "bytes",
          "name": "data",
          "type": "bytes"
        }
      ],
      "name": "uniswapV3FlashCallback",
      "outputs": [],
      "stateMutability": "nonpayable",
      "type": "function"
    },
    {
      "stateMutability": "payable",
      "type": "receive"
    }
  ],
  "bytecode": "0x6101406040527f1f98431c8ad98523631ae4a59f267346ea31f98400000000000000000000000060e0523480156200003657600080fd5b5060405162003cf038038062003cf083398101604081905262000059916200015f565b60016000556001600160a01b038416620000905760405162461bcd60e51b81526004016200008790620001db565b60405180910390fd5b6001600160a01b038316620000b95760405162461bcd60e51b81526004016200008790620001bb565b6001600160a01b038216620000e25760405162461bcd60e51b815260040162000087906200021c565b6001600160a01b0381166200010b5760405162461bcd60e51b81526004016200008790620001fb565b6001600160601b0319606094851b811660805292841b831660a05290831b821661010052821b166101205233901b60c0526200023c565b80516001600160a01b03811681146200015a57600080fd5b919050565b6000806000806080858703121562000175578384fd5b620001808562000142565b9350620001906020860162000142565b9250620001a06040860162000142565b9150620001b06060860162000142565b905092959194509250565b60208082526006908201526523299d24a9a960d11b604082015260600190565b60208082526006908201526523299d24aaa960d11b604082015260600190565b602080825260079082015266046533a494141560cc1b604082015260600190565b602080825260069082015265046533a4941560d41b604082015260600190565b60805160601c60a05160601c60c05160601c60e05160601c6101005160601c6101205160601c6139bd620003336000398061029152806103225250806102b6528061059052806107cf52806109de5280610c535250806102da52806112cd52508061036752806103995280610619528061064b5280610739528061076052806107fc528061082e528061089752806108e352806109525280610da35280610dca5280610e855280610eb75280611663528061168a5250806102fe528061189052806119c6525080610e5852806118595280611dd15280611e3c5280611eab5280611f365280611fa2528061211c52506139bd6000f3fe6080604052600436106100ec5760003560e01c80636ff1c9bc1161008a578063920f5c8411610059578063920f5c841461020d578063c60058931461023a578063e5cf91051461024f578063e9cbafb01461026f576100f3565b80636ff1c9bc146101ae5780637535d246146101ce57806384536017146101e35780638da5cb5b146101f8576100f3565b80630c24f4fa116100c65780630c24f4fa1461014d57806311b2e10e146101625780632d2c556514610177578063696388a51461018c576100f3565b80630542975c146100f857806308a016751461012357806308bd1a8514610138576100f3565b366100f357005b600080fd5b34801561010457600080fd5b5061010d61028f565b60405161011a919061315d565b60405180910390f35b34801561012f57600080fd5b5061010d6102b4565b34801561014457600080fd5b5061010d6102d8565b34801561015957600080fd5b5061010d6102fc565b34801561016e57600080fd5b5061010d610320565b34801561018357600080fd5b5061010d610344565b34801561019857600080fd5b506101ac6101a7366004612944565b61035c565b005b3480156101ba57600080fd5b506101ac6101c936600461290c565b61060e565b3480156101da57600080fd5b5061010d6107cd565b3480156101ef57600080fd5b506101ac6107f1565b34801561020457600080fd5b5061010d610950565b34801561021957600080fd5b5061022d6102283660046129ca565b610974565b60405161011a9190613240565b34801561024657600080fd5b5061010d610e56565b34801561025b57600080fd5b506101ac61026a366004612b33565b610e7a565b34801561027b57600080fd5b506101ac61028a366004612ef7565b6111e4565b7f00000000000000000000000000000000000000000000000000000000000000005b90565b7f000000000000000000000000000000000000000000000000000000000000000081565b7f000000000000000000000000000000000000000000000000000000000000000081565b7f000000000000000000000000000000000000000000000000000000000000000081565b7f000000000000000000000000000000000000000000000000000000000000000081565b7350d3414c549a0a9df8d29ed5872fdaef97d6748d81565b336001600160a01b037f00000000000000000000000000000000000000000000000000000000000000001614806103bb5750326001600160a01b037f000000000000000000000000000000000000000000000000000000000000000016145b6103e05760405162461bcd60e51b81526004016103d7906132de565b60405180910390fd5b60408051600180825281830190925260009160208083019080368337019050509050848160008151811061041057fe5b6001600160a01b039290921660209283029190910190910152604080516001808252818301909252600091816020016020820280368337019050509050848160008151811061045b57fe5b602090810291909101015260408051600180825281830190925260009181602001602082028036833701905050905060008160008151811061049957fe5b602002602001018181525050600060405180604001604052808787808060200260200160405190810160405280939291908181526020016000905b82821015610500576104f160c08302860136819003810190612d84565b815260200190600101906104d4565b50505091835250503360209182015260405161051d92910161357a565b6040516020818303038152906040529050876001600160a01b0316336001600160a01b03167f982ee83a4f94146b0aa8d4266773327071682a730aef8f249832a7c58df3b064896040516105719190613737565b60405180910390a360405163ab9c4b5d60e01b81526001600160a01b037f0000000000000000000000000000000000000000000000000000000000000000169063ab9c4b5d906105d29030908890889088908490899060009060040161318b565b600060405180830381600087803b1580156105ec57600080fd5b505af1158015610600573d6000803e3d6000fd5b505050505050505050505050565b336001600160a01b037f000000000000000000000000000000000000000000000000000000000000000016148061066d5750326001600160a01b037f000000000000000000000000000000000000000000000000000000000000000016145b6106895760405162461bcd60e51b81526004016103d7906132de565b6040516370a0823160e01b81526000906001600160a01b038316906370a08231906106b890309060040161315d565b60206040518083038186803b1580156106d057600080fd5b505afa1580156106e4573d6000803e3d6000fd5b505050506040513d601f19601f820116820180604052508101906107089190612edf565b90506000811161072a5760405162461bcd60e51b81526004016103d79061343b565b61075e6001600160a01b0383167f00000000000000000000000000000000000000000000000000000000000000008361170c565b7f00000000000000000000000000000000000000000000000000000000000000006001600160a01b0316826001600160a01b03167f9495d03190a79a43e534c9e328ff322f6283261383f5f19c809564f6ad5a57b3836040516107c19190613737565b60405180910390a35050565b7f000000000000000000000000000000000000000000000000000000000000000090565b336001600160a01b037f00000000000000000000000000000000000000000000000000000000000000001614806108505750326001600160a01b037f000000000000000000000000000000000000000000000000000000000000000016145b61086c5760405162461bcd60e51b81526004016103d7906132de565b478061088a5760405162461bcd60e51b81526004016103d79061329d565b6040516001600160a01b037f0000000000000000000000000000000000000000000000000000000000000000169082156108fc029083906000818181858888f193505050501580156108e0573d6000803e3d6000fd5b507f00000000000000000000000000000000000000000000000000000000000000006001600160a01b031660006001600160a01b03167f9495d03190a79a43e534c9e328ff322f6283261383f5f19c809564f6ad5a57b3836040516109459190613737565b60405180910390a350565b7f000000000000000000000000000000000000000000000000000000000000000081565b6000600260005414156109ce576040805162461bcd60e51b815260206004820152601f60248201527f5265656e7472616e637947756172643a207265656e7472616e742063616c6c00604482015290519081900360640190fd5b6002600055336001600160a01b037f00000000000000000000000000000000000000000000000000000000000000001614610a1b5760405162461bcd60e51b81526004016103d7906133d6565b6001600160a01b0384163014610a435760405162461bcd60e51b81526004016103d79061351a565b60018914610a635760405162461bcd60e51b81526004016103d79061345a565b8887148015610a7157508685145b610a8d5760405162461bcd60e51b81526004016103d7906134b9565b6000610a9b83850185612baa565b905060008b8b6000818110610aac57fe5b9050602002016020810190610ac1919061290c565b905060008a8a6000818110610ad257fe5b905060200201359050600089896000818110610aea57fe5b905060200201359050826001600160a01b03167f590e310148e41f756dced96dc1b424986c6699ee980cf932434abcaf26c0474c8383604051610b2e929190613740565b60405180910390a26000610b458560000151611763565b905060008111610b675760405162461bcd60e51b81526004016103d7906132fd565b6000610b738484611bf2565b90506000856001600160a01b03166370a08231306040518263ffffffff1660e01b8152600401610ba3919061315d565b60206040518083038186803b158015610bbb57600080fd5b505afa158015610bcf573d6000803e3d6000fd5b505050506040513d601f19601f82011682018060405250810190610bf39190612edf565b905081811015610c155760405162461bcd60e51b81526004016103d7906133f6565b6000858211610c25576000610c2f565b610c2f8287611c55565b90506000838311610c41576000610c4b565b610c4b8385611c55565b9050610c78887f000000000000000000000000000000000000000000000000000000000000000086611cb2565b876001600160a01b03167f225e94d7746fdb574aa7d9b5f49a354df34409388d4f4a2799fe421a1b5f55f285604051610cb19190613737565b60405180910390a260008c8c604051610ccb929190613009565b60405180910390209050886001600160a01b0316817fc5481f3321b7a079db973b4283b2a79103c76ef1faf1a6bba6a9ee7899ed8e49858a86604051610d139392919061378a565b60405180910390a38115610e36576064601e830204808303610d536001600160a01b038c167350d3414c549a0a9df8d29ed5872fdaef97d6748d8461170c565b8a6001600160a01b03167fad30209262b1ca5a52857232db7fa38af996bd06929e3af289c41a01b7b0587d83604051610d8c9190613737565b60405180910390a2610dc86001600160a01b038c167f00000000000000000000000000000000000000000000000000000000000000008361170c565b7f00000000000000000000000000000000000000000000000000000000000000006001600160a01b03168b6001600160a01b03167ff8c1ab10239f6f37a13f2905c9b042c4c7ff13bcbf485c543d2a9ecbc5c18afa83604051610e2b9190613737565b60405180910390a350505b60019a505050505050505050505060016000559998505050505050505050565b7f000000000000000000000000000000000000000000000000000000000000000081565b336001600160a01b037f0000000000000000000000000000000000000000000000000000000000000000161480610ed95750326001600160a01b037f000000000000000000000000000000000000000000000000000000000000000016145b610ef55760405162461bcd60e51b81526004016103d7906132de565b60008590506000816001600160a01b0316630dfe16816040518163ffffffff1660e01b815260040160206040518083038186803b158015610f3557600080fd5b505afa158015610f49573d6000803e3d6000fd5b505050506040513d601f19601f82011682018060405250810190610f6d9190612928565b90506000826001600160a01b031663d21220a76040518163ffffffff1660e01b815260040160206040518083038186803b158015610faa57600080fd5b505afa158015610fbe573d6000803e3d6000fd5b505050506040513d601f19601f82011682018060405250810190610fe29190612928565b90506000836001600160a01b031663ddca3f436040518163ffffffff1660e01b815260040160206040518083038186803b15801561101f57600080fd5b505afa158015611033573d6000803e3d6000fd5b505050506040513d601f19601f820116820180604052508101906110579190612ec3565b905060006040518061012001604052808c600181111561107357fe5b81526020018a8152602001898152602001336001600160a01b031681526020018b6001600160a01b03168152602001856001600160a01b03168152602001846001600160a01b031681526020018362ffffff16815260200188888080601f0160208091040260200160405190810160405280939291908181526020018383808284376000920191909152505050915250604051611113919060200161368d565b6040516020818303038152906040529050896001600160a01b0316336001600160a01b03167f05aa02a08501ddc4f9f218a7e1318cc2582c58027d8320aa916d1688106451548d8c8c60405161116b9392919061324b565b60405180910390a36040516312439b2f60e21b81526001600160a01b0386169063490e6cbc906111a59030908d908d908790600401613209565b600060405180830381600087803b1580156111bf57600080fd5b505af11580156111d3573d6000803e3d6000fd5b505050505050505050505050505050565b6002600054141561123c576040805162461bcd60e51b815260206004820152601f60248201527f5265656e7472616e637947756172643a207265656e7472616e742063616c6c00604482015290519081900360640190fd5b6002600090815561124f82840184612c98565b9050600060405180606001604052808360a001516001600160a01b031681526020018360c001516001600160a01b031681526020018360e0015162ffffff16815250905081608001516001600160a01b0316336001600160a01b0316146112c85760405162461bcd60e51b81526004016103d790613499565b6112f27f000000000000000000000000000000000000000000000000000000000000000082611d5a565b5060008060008060008660400151111561134a576020860151156113285760405162461bcd60e51b81526004016103d79061327d565b5060c085015160408601519093509150876113438382611bf2565b915061139a565b6040860151158015611360575060008660200151115b61137c5760405162461bcd60e51b81526004016103d790613479565b5060a085015160208601519093509150886113978382611bf2565b91505b85516001600160a01b0385169060018111156113b257fe5b7fd03100470982abc26de7fc1f904cfde062a6cbdda69c624e8035a785a40482cf85846040516113e3929190613740565b60405180910390a360006001875160018111156113fc57fe5b1415611419576114128585896101000151611d7d565b9050611456565b60008751600181111561142857fe5b141561143e576114128585896101000151611f17565b60405162461bcd60e51b81526004016103d79061331d565b6040516370a0823160e01b81526000906001600160a01b038716906370a082319061148590309060040161315d565b60206040518083038186803b15801561149d57600080fd5b505afa1580156114b1573d6000803e3d6000fd5b505050506040513d601f19601f820116820180604052508101906114d59190612edf565b905060008582116114e75760006114f1565b6114f18287611c55565b9050600085831161150357600061150d565b61150d8387611c55565b90508583101561152f5760405162461bcd60e51b81526004016103d7906133f6565b6115436001600160a01b038916338861170c565b876001600160a01b03167f225e94d7746fdb574aa7d9b5f49a354df34409388d4f4a2799fe421a1b5f55f28760405161157c9190613737565b60405180910390a260008a6101000151805190602001209050886001600160a01b0316817fc5481f3321b7a079db973b4283b2a79103c76ef1faf1a6bba6a9ee7899ed8e498589866040516115d39392919061378a565b60405180910390a381156116f6576064601e8302048083036116136001600160a01b038c167350d3414c549a0a9df8d29ed5872fdaef97d6748d8461170c565b8a6001600160a01b03167fad30209262b1ca5a52857232db7fa38af996bd06929e3af289c41a01b7b0587d8360405161164c9190613737565b60405180910390a26116886001600160a01b038c167f00000000000000000000000000000000000000000000000000000000000000008361170c565b7f00000000000000000000000000000000000000000000000000000000000000006001600160a01b03168b6001600160a01b03167ff8c1ab10239f6f37a13f2905c9b042c4c7ff13bcbf485c543d2a9ecbc5c18afa836040516116eb9190613737565b60405180910390a350505b5050600160005550505050505050505050505050565b604080516001600160a01b038416602482015260448082018490528251808303909101815260649091019091526020810180516001600160e01b031663a9059cbb60e01b17905261175e90849061200d565b505050565b6000808260008151811061177357fe5b6020026020010151602001516001600160a01b03166370a08231306040518263ffffffff1660e01b81526004016117aa919061315d565b60206040518083038186803b1580156117c257600080fd5b505afa1580156117d6573d6000803e3d6000fd5b505050506040513d601f19601f820116820180604052508101906117fa9190612edf565b90506000811161181c5760405162461bcd60e51b81526004016103d79061336c565b60005b8351811015611beb57600084828151811061183657fe5b60200260200101519050600080600060ff168360a0015160ff16141561187d57507f00000000000000000000000000000000000000000000000000000000000000006118e4565b60a083015160ff16600114156118b457507f00000000000000000000000000000000000000000000000000000000000000006118e4565b60a083015160ff16600214156118cc575081516118e4565b60405162461bcd60e51b81526004016103d7906133ae565b6118f383602001518287611cb2565b60a083015160ff1661192757611920846001018460200151856040015186606001518988608001516120be565b9150611b8b565b60a083015160ff1660011415611b4b5760408051600280825260608201835260009260208301908036833701905050905083602001518160008151811061196a57fe5b60200260200101906001600160a01b031690816001600160a01b03168152505083604001518160018151811061199c57fe5b6001600160a01b03928316602091820292909201015260808501516040516338ed173960e01b81527f0000000000000000000000000000000000000000000000000000000000000000909216916338ed173991611a07918a91908690309042603c019060040161374e565b600060405180830381600087803b158015611a2157600080fd5b505af1925050508015611a5657506040513d6000823e601f3d908101601f19168201604052611a539190810190612a9f565b60015b611acd57611a62613834565b80611a6d5750611ab1565b611a7986600101612249565b81604051602001611a8b929190613019565b60408051601f198184030181529082905262461bcd60e51b82526103d79160040161326a565b611abd85600101612249565b604051602001611a8b9190613067565b80600182510381518110611add57fe5b6020026020010151935084604001516001600160a01b031685602001516001600160a01b03167f7f0c28831dc31706c487574de03f85822b98a41eddf7577b2b7eab4d5d5da5458860010160018b89604051611b3c94939291906137a0565b60405180910390a35050611b8b565b60a083015160ff1660021415611b735760405162461bcd60e51b81526004016103d79061333d565b60405162461bcd60e51b81526004016103d790613416565b81945060008511611b9e85600101612249565b604051602001611bae9190613125565b60405160208183030381529060405290611bdb5760405162461bcd60e51b81526004016103d7919061326a565b50506001909201915061181f9050565b5092915050565b600082820183811015611c4c576040805162461bcd60e51b815260206004820152601b60248201527f536166654d6174683a206164646974696f6e206f766572666c6f770000000000604482015290519081900360640190fd5b90505b92915050565b600082821115611cac576040805162461bcd60e51b815260206004820152601e60248201527f536166654d6174683a207375627472616374696f6e206f766572666c6f770000604482015290519081900360640190fd5b50900390565b80611cbc5761175e565b604051636eb1769f60e11b8152600019906001600160a01b0385169063dd62ed3e90611cee9030908790600401613171565b60206040518083038186803b158015611d0657600080fd5b505afa158015611d1a573d6000803e3d6000fd5b505050506040513d601f19601f82011682018060405250810190611d3e9190612edf565b101561175e5761175e6001600160a01b03841683600019612327565b6000611d66838361243a565b9050336001600160a01b03821614611c4f57600080fd5b60008082806020019051810190611d949190612d9f565b9050846001600160a01b031681600001516001600160a01b031614611dcb5760405162461bcd60e51b81526004016103d7906134d9565b611df6857f000000000000000000000000000000000000000000000000000000000000000086611cb2565b6000611e10600187846020015185606001518960006120be565b905060008111611e325760405162461bcd60e51b81526004016103d7906134f9565b611e6182602001517f000000000000000000000000000000000000000000000000000000000000000083611cb2565b6000611e7f60028460200151856040015186608001518660006120be565b905060008111611ea15760405162461bcd60e51b81526004016103d7906132bd565b611ed083604001517f000000000000000000000000000000000000000000000000000000000000000083611cb2565b611eeb60038460400151898660a00151858860c001516120be565b935060008411611f0d5760405162461bcd60e51b81526004016103d79061338d565b5050509392505050565b60008082806020019051810190611f2e9190612e43565b9050611f5b857f000000000000000000000000000000000000000000000000000000000000000086611cb2565b6000611f78600187846000015185602001518987606001516120be565b905060008111611f9a5760405162461bcd60e51b81526004016103d79061353a565b8151611fc7907f000000000000000000000000000000000000000000000000000000000000000083611cb2565b611fe2600283600001518885604001518587608001516120be565b9250600083116120045760405162461bcd60e51b81526004016103d79061355a565b50509392505050565b6000612062826040518060400160405280602081526020017f5361666545524332303a206c6f772d6c6576656c2063616c6c206661696c6564815250856001600160a01b031661251e9092919063ffffffff16565b80519091501561175e5780806020019051602081101561208157600080fd5b505161175e5760405162461bcd60e51b815260040180806020018281038252602a815260200180613928602a913960400191505060405180910390fd5b60408051610100810182526001600160a01b038088168252868116602083015262ffffff86168284015230606083015242603c01608083015260a0820185905260c08201849052600060e08301819052925163414bf38960e01b81527f00000000000000000000000000000000000000000000000000000000000000009091169063414bf38990612153908490600401613624565b602060405180830381600087803b15801561216d57600080fd5b505af192505050801561219d575060408051601f3d908101601f1916820190925261219a91810190612edf565b60015b6121e8576121a9613834565b806121b457506121cf565b6121bd89612249565b81604051602001611a8b9291906130a0565b6121d888612249565b604051602001611a8b91906130ed565b809250866001600160a01b0316886001600160a01b03167f7f0c28831dc31706c487574de03f85822b98a41eddf7577b2b7eab4d5d5da5458b6000898860405161223594939291906137a0565b60405180910390a350509695505050505050565b60608161226e57506040805180820190915260018152600360fc1b6020820152612322565b8160005b811561228657600101600a82049150612272565b6000816001600160401b038111801561229e57600080fd5b506040519080825280601f01601f1916602001820160405280156122c9576020820181803683370190505b509050815b851561231c57600019016000600a8706603001905060008160f81b9050808484815181106122f857fe5b60200101906001600160f81b031916908160001a905350600a8804975050506122ce565b50925050505b919050565b8015806123ad575060408051636eb1769f60e11b81523060048201526001600160a01b03848116602483015291519185169163dd62ed3e91604480820192602092909190829003018186803b15801561237f57600080fd5b505afa158015612393573d6000803e3d6000fd5b505050506040513d60208110156123a957600080fd5b5051155b6123e85760405162461bcd60e51b81526004018080602001828103825260368152602001806139526036913960400191505060405180910390fd5b604080516001600160a01b038416602482015260448082018490528251808303909101815260649091019091526020810180516001600160e01b031663095ea7b360e01b17905261175e90849061200d565b600081602001516001600160a01b031682600001516001600160a01b03161061246257600080fd5b50805160208083015160409384015184516001600160a01b0394851681850152939091168385015262ffffff166060808401919091528351808403820181526080840185528051908301206001600160f81b031960a085015294901b6bffffffffffffffffffffffff191660a183015260b58201939093527fe34f199b19b2b4f47f68442619d555527d244f78a3297ea89325f843f87b8b5460d5808301919091528251808303909101815260f5909101909152805191012090565b606061252d8484600085612537565b90505b9392505050565b6060824710156125785760405162461bcd60e51b81526004018080602001828103825260268152602001806139026026913960400191505060405180910390fd5b61258185612692565b6125d2576040805162461bcd60e51b815260206004820152601d60248201527f416464726573733a2063616c6c20746f206e6f6e2d636f6e7472616374000000604482015290519081900360640190fd5b600080866001600160a01b031685876040518082805190602001908083835b602083106126105780518252601f1990920191602091820191016125f1565b6001836020036101000a03801982511681845116808217855250505050505090500191505060006040518083038185875af1925050503d8060008114612672576040519150601f19603f3d011682016040523d82523d6000602084013e612677565b606091505b5091509150612687828286612698565b979650505050505050565b3b151590565b606083156126a7575081612530565b8251156126b75782518084602001fd5b8160405162461bcd60e51b81526004018080602001828103825283818151815260200191508051906020019080838360005b838110156127015781810151838201526020016126e9565b50505050905090810190601f16801561272e5780820380516001836020036101000a031916815260200191505b509250505060405180910390fd5b8035612322816138d8565b8051612322816138d8565b60008083601f840112612763578182fd5b5081356001600160401b03811115612779578182fd5b602083019150836020808302850101111561279357600080fd5b9250929050565b60008083601f8401126127ab578182fd5b5081356001600160401b038111156127c1578182fd5b60208301915083602082850101111561279357600080fd5b600082601f8301126127e9578081fd5b81356001600160401b038111156127fc57fe5b61280f601f8201601f19166020016137be565b818152846020838601011115612823578283fd5b816020850160208301379081016020019190915292915050565b80356002811061232257600080fd5b600060c0828403121561285d578081fd5b60405160c081018181106001600160401b038211171561287957fe5b604052905080823561288a816138d8565b8152602083013561289a816138d8565b602082015260408301356128ad816138d8565b60408201526128be606084016128e5565b6060820152608083013560808201526128d960a084016128fb565b60a08201525092915050565b8035612322816138f0565b8051612322816138f0565b803560ff8116811461232257600080fd5b60006020828403121561291d578081fd5b8135611c4c816138d8565b600060208284031215612939578081fd5b8151611c4c816138d8565b60008060008060608587031215612959578283fd5b8435612964816138d8565b93506020850135925060408501356001600160401b0380821115612986578384fd5b818701915087601f830112612999578384fd5b8135818111156129a7578485fd5b88602060c0830285010111156129bb578485fd5b95989497505060200194505050565b600080600080600080600080600060a08a8c0312156129e7578687fd5b89356001600160401b03808211156129fd578889fd5b612a098d838e01612752565b909b50995060208c0135915080821115612a21578889fd5b612a2d8d838e01612752565b909950975060408c0135915080821115612a45578687fd5b612a518d838e01612752565b909750955060608c01359150612a66826138d8565b90935060808b01359080821115612a7b578384fd5b50612a888c828d0161279a565b915080935050809150509295985092959850929598565b60006020808385031215612ab1578182fd5b82516001600160401b03811115612ac6578283fd5b8301601f81018513612ad6578283fd5b8051612ae9612ae4826137e1565b6137be565b8181528381019083850185840285018601891015612b05578687fd5b8694505b83851015612b27578051835260019490940193918501918501612b09565b50979650505050505050565b60008060008060008060a08789031215612b4b578384fd5b612b548761283d565b95506020870135612b64816138d8565b9450604087013593506060870135925060808701356001600160401b03811115612b8c578283fd5b612b9889828a0161279a565b979a9699509497509295939492505050565b60006020808385031215612bbc578182fd5b82356001600160401b0380821115612bd2578384fd5b9084019060408287031215612be5578384fd5b604051604081018181108382111715612bfa57fe5b604052823582811115612c0b578586fd5b83019150601f82018713612c1d578485fd5b8135612c2b612ae4826137e1565b8181528581019084870160c0808502870189018c1015612c4957898afd5b8996505b84871015612c7557612c5f8c8361284c565b8452600196909601959288019290810190612c4d565b5050835250612c87905083850161273c565b848201528094505050505092915050565b600060208284031215612ca9578081fd5b81356001600160401b0380821115612cbf578283fd5b8184019150610120808387031215612cd5578384fd5b612cde816137be565b9050612ce98361283d565b81526020830135602082015260408301356040820152612d0b6060840161273c565b6060820152612d1c6080840161273c565b6080820152612d2d60a0840161273c565b60a0820152612d3e60c0840161273c565b60c0820152612d4f60e084016128e5565b60e08201526101008084013583811115612d67578586fd5b612d73888287016127d9565b918301919091525095945050505050565b600060c08284031215612d95578081fd5b612530838361284c565b600060e08284031215612db0578081fd5b60405160e081018181106001600160401b0382111715612dcc57fe5b604052612dd883612747565b8152612de660208401612747565b6020820152612df760408401612747565b6040820152612e08606084016128f0565b6060820152612e19608084016128f0565b6080820152612e2a60a084016128f0565b60a082015260c083015160c08201528091505092915050565b600060a08284031215612e54578081fd5b60405160a081018181106001600160401b0382111715612e7057fe5b6040528251612e7e816138d8565b81526020830151612e8e816138f0565b60208201526040830151612ea1816138f0565b6040820152606083810151908201526080928301519281019290925250919050565b600060208284031215612ed4578081fd5b8151611c4c816138f0565b600060208284031215612ef0578081fd5b5051919050565b60008060008060608587031215612f0c578182fd5b843593506020850135925060408501356001600160401b03811115612f2f578283fd5b612f3b8782880161279a565b95989497509550505050565b6001600160a01b03169052565b6000815180845260208085019450808401835b83811015612f8c5781516001600160a01b031687529582019590820190600101612f67565b509495945050505050565b6000815180845260208085019450808401835b83811015612f8c57815187529582019590820190600101612faa565b60008151808452612fde8160208601602086016137fe565b601f01601f19169290920160200192915050565b60028110612ffc57fe5b9052565b62ffffff169052565b6000828483379101908152919050565b60006346533a5360e01b825283516130388160048501602088016137fe565b6229a31d60e91b600491840191820152835161305b8160078401602088016137fe565b01600701949350505050565b60006346533a5360e01b825282516130868160048501602087016137fe565b6214d19360ea1b6004939091019283015250600701919050565b60006346533a5360e01b825283516130bf8160048501602088016137fe565b61231d60f11b60049184019182015283516130e18160068401602088016137fe565b01600601949350505050565b60006346533a5360e01b8252825161310c8160048501602087016137fe565b61119360f21b6004939091019283015250600601919050565b60006446533a505360d81b825282516131458160058501602087016137fe565b602d60f91b6005939091019283015250600601919050565b6001600160a01b0391909116815260200190565b6001600160a01b0392831681529116602082015260400190565b600060018060a01b03808a16835260e060208401526131ad60e084018a612f54565b83810360408501526131bf818a612f97565b905083810360608501526131d38189612f97565b9050818716608085015283810360a08501526131ef8187612fc6565b9250505061ffff831660c083015298975050505050505050565b600060018060a01b0386168252846020830152836040830152608060608301526132366080830184612fc6565b9695505050505050565b901515815260200190565b606081016132598286612ff2565b602082019390935260400152919050565b6000602082526125306020830184612fc6565b60208082526006908201526523299d212a2160d11b604082015260600190565b60208082526006908201526546533a4e574560d01b604082015260600190565b60208082526007908201526623299d2a29992d60c91b604082015260600190565b60208082526005908201526446533a4e4160d81b604082015260600190565b60208082526006908201526546533a415a4160d01b604082015260600190565b6020808252600690820152651194ce9550d560d21b604082015260600190565b6020808252601590820152741194ce9113d113d7d511535417d11254d050931151605a1b604082015260600190565b602080825260079082015266046533a505341360cc1b604082015260600190565b60208082526007908201526623299d2a2999ad60c91b604082015260600190565b6020808252600e908201526d46533a4944545f415050524f564560901b604082015260600190565b60208082526006908201526546533a43424160d01b604082015260600190565b60208082526006908201526523299d24a32960d11b604082015260600190565b6020808252600b908201526a46533a4944545f4558454360a81b604082015260600190565b60208082526005908201526446533a4e5760d81b604082015260600190565b60208082526005908201526446533a4d4160d81b604082015260600190565b60208082526006908201526546533a424e4160d01b604082015260600190565b60208082526006908201526546533a43425760d01b604082015260600190565b60208082526006908201526546533a414c4160d01b604082015260600190565b60208082526006908201526546533a54504160d01b604082015260600190565b60208082526007908201526623299d2a2998ad60c91b604082015260600190565b60208082526006908201526546533a49464960d01b604082015260600190565b60208082526006908201526523299d2998ad60d11b604082015260600190565b60208082526006908201526523299d29992d60d11b604082015260600190565b6000602080835260608084018551604080858801528282518085526080945084890191508684019350875b8181101561360557845180516001600160a01b0390811685528982015181168a8601528582015116858501528781015162ffffff1688850152868101518785015260a09081015160ff16908401529387019360c0909201916001016135a5565b5050948801519461361888830187612f47565b98975050505050505050565b81516001600160a01b03908116825260208084015182169083015260408084015162ffffff16908301526060808401518216908301526080808401519083015260a0838101519083015260c0808401519083015260e09283015116918101919091526101000190565b6000602082526136a1602083018451612ff2565b602083015160408301526040830151606083015260608301516136c76080840182612f47565b5060808301516136da60a0840182612f47565b5060a08301516136ed60c0840182612f47565b5060c083015161370060e0840182612f47565b5060e083015161010061371581850183613000565b84015161012084810152905061372f610140840182612fc6565b949350505050565b90815260200190565b918252602082015260400190565b600086825285602083015260a0604083015261376d60a0830186612f54565b6001600160a01b0394909416606083015250608001529392505050565b9283526020830191909152604082015260600190565b93845260ff9290921660208401526040830152606082015260800190565b6040518181016001600160401b03811182821017156137d957fe5b604052919050565b60006001600160401b038211156137f457fe5b5060209081020190565b60005b83811015613819578181015183820152602001613801565b83811115613828576000848401525b50505050565b60e01c90565b600060443d1015613844576102b1565b600481823e6308c379a0613858825161382e565b14613862576102b1565b6040513d600319016004823e80513d6001600160401b03816024840111818411171561389157505050506102b1565b828401925082519150808211156138ab57505050506102b1565b503d830160208284010111156138c3575050506102b1565b601f01601f1916810160200160405291505090565b6001600160a01b03811681146138ed57600080fd5b50565b62ffffff811681146138ed57600080fdfe416464726573733a20696e73756666696369656e742062616c616e636520666f722063616c6c5361666545524332303a204552433230206f7065726174696f6e20646964206e6f7420737563636565645361666545524332303a20617070726f76652066726f6d206e6f6e2d7a65726f20746f206e6f6e2d7a65726f20616c6c6f77616e6365a2646970667358221220ed118a67c4fb4086e3c657160e07106829e6e2feb454d47314f9777b3884417e64736f6c63430007060033",
  "linkReferences": {},
  "deployedLinkReferences": {}
}