{
  "_format": "hh-sol-artifact-1",
  "contractName": "FlashSwap",
  "sourceName": "contracts/FlashSwap.sol",
  "abi": [
    {
      "inputs": [
        {
          "internalType": "address",
          "name": "_swapRouter",
          "type": "address"
        }
      ],
      "stateMutability": "nonpayable",
      "type": "constructor"
    },
    {
      "anonymous": false,
      "inputs": [
        {
          "indexed": true,
          "internalType": "enum FlashSwap.CallbackType",
          "name": "tradeType",
          "type": "uint8"
        },
        {
          "indexed": true,
          "internalType": "address",
          "name": "tokenBorrowed",
          "type": "address"
        },
        {
          "indexed": false,
          "internalType": "uint256",
          "name": "amountBorrowed",
          "type": "uint256"
        },
        {
          "indexed": false,
          "internalType": "uint256",
          "name": "feePaid",
          "type": "uint256"
        }
      ],
      "name": "ArbitrageExecution",
      "type": "event"
    },
    {
      "anonymous": false,
      "inputs": [
        {
          "indexed": true,
          "internalType": "address",
          "name": "token",
          "type": "address"
        },
        {
          "indexed": true,
          "internalType": "address",
          "name": "recipient",
          "type": "address"
        },
        {
          "indexed": false,
          "internalType": "uint256",
          "name": "amount",
          "type": "uint256"
        }
      ],
      "name": "EmergencyWithdrawal",
      "type": "event"
    },
    {
      "anonymous": false,
      "inputs": [
        {
          "indexed": true,
          "internalType": "address",
          "name": "caller",
          "type": "address"
        },
        {
          "indexed": true,
          "internalType": "address",
          "name": "pool",
          "type": "address"
        },
        {
          "indexed": false,
          "internalType": "enum FlashSwap.CallbackType",
          "name": "tradeType",
          "type": "uint8"
        },
        {
          "indexed": false,
          "internalType": "uint256",
          "name": "amount0",
          "type": "uint256"
        },
        {
          "indexed": false,
          "internalType": "uint256",
          "name": "amount1",
          "type": "uint256"
        }
      ],
      "name": "FlashSwapInitiated",
      "type": "event"
    },
    {
      "anonymous": false,
      "inputs": [
        {
          "indexed": true,
          "internalType": "address",
          "name": "token",
          "type": "address"
        },
        {
          "indexed": true,
          "internalType": "address",
          "name": "recipient",
          "type": "address"
        },
        {
          "indexed": false,
          "internalType": "uint256",
          "name": "amount",
          "type": "uint256"
        }
      ],
      "name": "ProfitTransferred",
      "type": "event"
    },
    {
      "anonymous": false,
      "inputs": [
        {
          "indexed": true,
          "internalType": "address",
          "name": "token",
          "type": "address"
        },
        {
          "indexed": false,
          "internalType": "uint256",
          "name": "amountRepaid",
          "type": "uint256"
        }
      ],
      "name": "RepaymentSuccess",
      "type": "event"
    },
    {
      "anonymous": false,
      "inputs": [
        {
          "indexed": true,
          "internalType": "uint256",
          "name": "swapNumber",
          "type": "uint256"
        },
        {
          "indexed": true,
          "internalType": "address",
          "name": "tokenIn",
          "type": "address"
        },
        {
          "indexed": true,
          "internalType": "address",
          "name": "tokenOut",
          "type": "address"
        },
        {
          "indexed": false,
          "internalType": "uint256",
          "name": "amountIn",
          "type": "uint256"
        },
        {
          "indexed": false,
          "internalType": "uint256",
          "name": "amountOut",
          "type": "uint256"
        }
      ],
      "name": "SwapExecuted",
      "type": "event"
    },
    {
      "inputs": [],
      "name": "SWAP_ROUTER",
      "outputs": [
        {
          "internalType": "contract ISwapRouter",
          "name": "",
          "type": "address"
        }
      ],
      "stateMutability": "view",
      "type": "function"
    },
    {
      "inputs": [],
      "name": "V3_FACTORY",
      "outputs": [
        {
          "internalType": "address",
          "name": "",
          "type": "address"
        }
      ],
      "stateMutability": "view",
      "type": "function"
    },
    {
      "inputs": [
        {
          "internalType": "address",
          "name": "_poolAddress",
          "type": "address"
        },
        {
          "internalType": "uint256",
          "name": "_amount0",
          "type": "uint256"
        },
        {
          "internalType": "uint256",
          "name": "_amount1",
          "type": "uint256"
        },
        {
          "internalType": "bytes",
          "name": "_params",
          "type": "bytes"
        }
      ],
      "name": "initiateFlashSwap",
      "outputs": [],
      "stateMutability": "nonpayable",
      "type": "function"
    },
    {
      "inputs": [
        {
          "internalType": "address",
          "name": "_poolAddress",
          "type": "address"
        },
        {
          "internalType": "uint256",
          "name": "_amount0",
          "type": "uint256"
        },
        {
          "internalType": "uint256",
          "name": "_amount1",
          "type": "uint256"
        },
        {
          "internalType": "bytes",
          "name": "_params",
          "type": "bytes"
        }
      ],
      "name": "initiateTriangularFlashSwap",
      "outputs": [],
      "stateMutability": "nonpayable",
      "type": "function"
    },
    {
      "inputs": [],
      "name": "owner",
      "outputs": [
        {
          "internalType": "address",
          "name": "",
          "type": "address"
        }
      ],
      "stateMutability": "view",
      "type": "function"
    },
    {
      "inputs": [
        {
          "internalType": "uint256",
          "name": "fee0",
          "type": "uint256"
        },
        {
          "internalType": "uint256",
          "name": "fee1",
          "type": "uint256"
        },
        {
          "internalType": "bytes",
          "name": "data",
          "type": "bytes"
        }
      ],
      "name": "uniswapV3FlashCallback",
      "outputs": [],
      "stateMutability": "nonpayable",
      "type": "function"
    },
    {
      "inputs": [],
      "name": "withdrawEther",
      "outputs": [],
      "stateMutability": "nonpayable",
      "type": "function"
    },
    {
      "inputs": [
        {
          "internalType": "address",
          "name": "tokenAddress",
          "type": "address"
        }
      ],
      "name": "withdrawToken",
      "outputs": [],
      "stateMutability": "nonpayable",
      "type": "function"
    },
    {
      "stateMutability": "payable",
      "type": "receive"
    }
  ],
  "bytecode": "0x60e06040527f1f98431c8ad98523631ae4a59f267346ea31f98400000000000000000000000060c0523480156200003557600080fd5b5060405162002a2f38038062002a2f8339810160408190526200005891620000ad565b60016000556001600160a01b0381166200008f5760405162461bcd60e51b81526004016200008690620000dd565b60405180910390fd5b6001600160601b0319606091821b1660805233901b60a052620000fd565b600060208284031215620000bf578081fd5b81516001600160a01b0381168114620000d6578182fd5b9392505050565b60208082526006908201526523299d24a9a960d11b604082015260600190565b60805160601c60a05160601c60c05160601c6128b16200017e600039806101795280610c195250806101a6528061056552806107f9528061085652806108cd52806109255280610a465280610abe5280610aea5280610edb5280610f53525080610b0e52806114a05280611537528061156c528061160852506128b16000f3fe60806040526004361061007f5760003560e01c8063894760691161004e578063894760691461010d5780638da5cb5b1461012d578063c600589314610142578063e9cbafb01461015757610086565b806308bd1a851461008b57806309c3da87146100b65780632f36d1e0146100d85780637362377b146100f857610086565b3661008657005b600080fd5b34801561009757600080fd5b506100a0610177565b6040516100ad9190612188565b60405180910390f35b3480156100c257600080fd5b506100d66100d1366004611d0d565b61019b565b005b3480156100e457600080fd5b506100d66100f3366004611d0d565b61055a565b34801561010457600080fd5b506100d66107ee565b34801561011957600080fd5b506100d6610128366004611cd5565b61091a565b34801561013957600080fd5b506100a0610ae8565b34801561014e57600080fd5b506100a0610b0c565b34801561016357600080fd5b506100d6610172366004611ffa565b610b30565b7f000000000000000000000000000000000000000000000000000000000000000081565b336001600160a01b037f000000000000000000000000000000000000000000000000000000000000000016146101ec5760405162461bcd60e51b81526004016101e3906122bb565b60405180910390fd5b6001600160a01b0385166102125760405162461bcd60e51b81526004016101e39061243c565b600084118015610220575082155b806102345750600083118015610234575083155b6102505760405162461bcd60e51b81526004016101e3906122f2565b8061026d5760405162461bcd60e51b81526004016101e390612329565b60008590506000816001600160a01b0316630dfe16816040518163ffffffff1660e01b815260040160206040518083038186803b1580156102ad57600080fd5b505afa1580156102c1573d6000803e3d6000fd5b505050506040513d601f19601f820116820180604052508101906102e59190611cf1565b90506000826001600160a01b031663d21220a76040518163ffffffff1660e01b815260040160206040518083038186803b15801561032257600080fd5b505afa158015610336573d6000803e3d6000fd5b505050506040513d601f19601f8201168201806040525081019061035a9190611cf1565b90506000836001600160a01b031663ddca3f436040518163ffffffff1660e01b815260040160206040518083038186803b15801561039757600080fd5b505afa1580156103ab573d6000803e3d6000fd5b505050506040513d601f19601f820116820180604052508101906103cf9190611fc6565b9050886001600160a01b0316336001600160a01b03167f05aa02a08501ddc4f9f218a7e1318cc2582c58027d8320aa916d16881064515460008b8b604051610419939291906121e4565b60405180910390a360408051610120810190915260009080825b81526020018a8152602001898152602001336001600160a01b031681526020018b6001600160a01b03168152602001856001600160a01b03168152602001846001600160a01b031681526020018362ffffff16815260200188888080601f01602080910402602001604051908101604052809392919081815260200183838082843760009201919091525050509152506040519091506001600160a01b0386169063490e6cbc9030908c908c906104ee9087906020016125f5565b6040516020818303038152906040526040518563ffffffff1660e01b815260040161051c94939291906121b6565b600060405180830381600087803b15801561053657600080fd5b505af115801561054a573d6000803e3d6000fd5b5050505050505050505050505050565b336001600160a01b037f000000000000000000000000000000000000000000000000000000000000000016146105a25760405162461bcd60e51b81526004016101e3906122bb565b6001600160a01b0385166105c85760405162461bcd60e51b81526004016101e39061243c565b6000841180156105d6575082155b806105ea57506000831180156105ea575083155b6106065760405162461bcd60e51b81526004016101e3906122f2565b806106235760405162461bcd60e51b81526004016101e390612329565b60008590506000816001600160a01b0316630dfe16816040518163ffffffff1660e01b815260040160206040518083038186803b15801561066357600080fd5b505afa158015610677573d6000803e3d6000fd5b505050506040513d601f19601f8201168201806040525081019061069b9190611cf1565b90506000826001600160a01b031663d21220a76040518163ffffffff1660e01b815260040160206040518083038186803b1580156106d857600080fd5b505afa1580156106ec573d6000803e3d6000fd5b505050506040513d601f19601f820116820180604052508101906107109190611cf1565b90506000836001600160a01b031663ddca3f436040518163ffffffff1660e01b815260040160206040518083038186803b15801561074d57600080fd5b505afa158015610761573d6000803e3d6000fd5b505050506040513d601f19601f820116820180604052508101906107859190611fc6565b9050886001600160a01b0316336001600160a01b03167f05aa02a08501ddc4f9f218a7e1318cc2582c58027d8320aa916d16881064515460018b8b6040516107cf939291906121e4565b60405180910390a3604080516101208101909152600090806001610433565b336001600160a01b037f000000000000000000000000000000000000000000000000000000000000000016146108365760405162461bcd60e51b81526004016101e3906122bb565b47806108545760405162461bcd60e51b81526004016101e39061224d565b7f00000000000000000000000000000000000000000000000000000000000000006001600160a01b031660006001600160a01b03167f9495d03190a79a43e534c9e328ff322f6283261383f5f19c809564f6ad5a57b3836040516108b89190612697565b60405180910390a36040516001600160a01b037f0000000000000000000000000000000000000000000000000000000000000000169082156108fc029083906000818181858888f19350505050158015610916573d6000803e3d6000fd5b5050565b336001600160a01b037f000000000000000000000000000000000000000000000000000000000000000016146109625760405162461bcd60e51b81526004016101e3906122bb565b6001600160a01b0381166109885760405162461bcd60e51b81526004016101e3906123ce565b6040517f70a0823100000000000000000000000000000000000000000000000000000000815281906000906001600160a01b038316906370a08231906109d2903090600401612188565b60206040518083038186803b1580156109ea57600080fd5b505afa1580156109fe573d6000803e3d6000fd5b505050506040513d601f19601f82011682018060405250810190610a229190611fe2565b905060008111610a445760405162461bcd60e51b81526004016101e390612397565b7f00000000000000000000000000000000000000000000000000000000000000006001600160a01b0316836001600160a01b03167f9495d03190a79a43e534c9e328ff322f6283261383f5f19c809564f6ad5a57b383604051610aa79190612697565b60405180910390a3610ae36001600160a01b0383167f000000000000000000000000000000000000000000000000000000000000000083610f8c565b505050565b7f000000000000000000000000000000000000000000000000000000000000000081565b7f000000000000000000000000000000000000000000000000000000000000000081565b60026000541415610b88576040805162461bcd60e51b815260206004820152601f60248201527f5265656e7472616e637947756172643a207265656e7472616e742063616c6c00604482015290519081900360640190fd5b60026000908155610b9b82840184611d75565b9050600060405180606001604052808360a001516001600160a01b031681526020018360c001516001600160a01b031681526020018360e0015162ffffff16815250905081608001516001600160a01b0316336001600160a01b031614610c145760405162461bcd60e51b81526004016101e3906124aa565b610c3e7f00000000000000000000000000000000000000000000000000000000000000008261100c565b50600080600080600086604001511115610c9657602086015115610c745760405162461bcd60e51b81526004016101e390612216565b5060c08501516040860151909350915087610c8f8382611035565b9150610cfa565b604086015115610cb85760405162461bcd60e51b81526004016101e390612216565b6000866020015111610cdc5760405162461bcd60e51b81526004016101e390612473565b5060a08501516020860151909350915088610cf78382611035565b91505b85516001600160a01b038516906001811115610d1257fe5b7fd03100470982abc26de7fc1f904cfde062a6cbdda69c624e8035a785a40482cf8584604051610d439291906126a0565b60405180910390a36000600187516001811115610d5c57fe5b1415610d7957610d728585896101000151611096565b9050610db6565b600087516001811115610d8857fe5b1415610d9e57610d7285858961010001516111ae565b60405162461bcd60e51b81526004016101e390612360565b6040517f70a082310000000000000000000000000000000000000000000000000000000081526000906001600160a01b038716906370a0823190610dfe903090600401612188565b60206040518083038186803b158015610e1657600080fd5b505afa158015610e2a573d6000803e3d6000fd5b505050506040513d601f19601f82011682018060405250810190610e4e9190611fe2565b905083811015610e705760405162461bcd60e51b81526004016101e390612405565b610e846001600160a01b0387163386610f8c565b856001600160a01b03167f225e94d7746fdb574aa7d9b5f49a354df34409388d4f4a2799fe421a1b5f55f285604051610ebd9190612697565b60405180910390a26000610ed18286611241565b90508015610f78577f00000000000000000000000000000000000000000000000000000000000000006001600160a01b0316876001600160a01b03167ff8c1ab10239f6f37a13f2905c9b042c4c7ff13bcbf485c543d2a9ecbc5c18afa83604051610f3c9190612697565b60405180910390a3610f786001600160a01b0388167f000000000000000000000000000000000000000000000000000000000000000083610f8c565b505060016000555050505050505050505050565b604080516001600160a01b038416602482015260448082018490528251808303909101815260649091019091526020810180517bffffffffffffffffffffffffffffffffffffffffffffffffffffffff167fa9059cbb00000000000000000000000000000000000000000000000000000000179052610ae390849061129e565b6000611018838361134f565b9050336001600160a01b0382161461102f57600080fd5b92915050565b60008282018381101561108f576040805162461bcd60e51b815260206004820152601b60248201527f536166654d6174683a206164646974696f6e206f766572666c6f770000000000604482015290519081900360640190fd5b9392505050565b600080828060200190518101906110ad9190611e62565b9050846001600160a01b031681606001516001600160a01b0316146110e45760405162461bcd60e51b81526004016101e3906124e1565b6110ee858561145e565b600061110860018784608001518560c00151896000611591565b90506000811161112a5760405162461bcd60e51b81526004016101e390612518565b61113882608001518261145e565b6000611156600284608001518560a001518660e00151866000611591565b9050600081116111785760405162461bcd60e51b81526004016101e390612284565b6111868360a001518261145e565b6111a360038460a001518986610100015185886101200151611591565b979650505050505050565b600080828060200190518101906111c59190611f28565b90506111d1858561145e565b60006111ee60018784600001518560400151898760a00151611591565b9050600081116112105760405162461bcd60e51b81526004016101e39061254f565b815161121c908261145e565b61123760028360000151888560800151858760c00151611591565b9695505050505050565b600082821115611298576040805162461bcd60e51b815260206004820152601e60248201527f536166654d6174683a207375627472616374696f6e206f766572666c6f770000604482015290519081900360640190fd5b50900390565b60006112f3826040518060400160405280602081526020017f5361666545524332303a206c6f772d6c6576656c2063616c6c206661696c6564815250856001600160a01b03166117579092919063ffffffff16565b805190915015610ae35780806020019051602081101561131257600080fd5b5051610ae35760405162461bcd60e51b815260040180806020018281038252602a81526020018061281c602a913960400191505060405180910390fd5b600081602001516001600160a01b031682600001516001600160a01b03161061137757600080fd5b50805160208083015160409384015184516001600160a01b0394851681850152939091168385015262ffffff166060808401919091528351808403820181526080840185528051908301207fff0000000000000000000000000000000000000000000000000000000000000060a085015294901b7fffffffffffffffffffffffffffffffffffffffff0000000000000000000000001660a183015260b58201939093527fe34f199b19b2b4f47f68442619d555527d244f78a3297ea89325f843f87b8b5460d5808301919091528251808303909101815260f5909101909152805191012090565b6040517fdd62ed3e0000000000000000000000000000000000000000000000000000000081526000906001600160a01b0384169063dd62ed3e906114c89030907f00000000000000000000000000000000000000000000000000000000000000009060040161219c565b60206040518083038186803b1580156114e057600080fd5b505afa1580156114f4573d6000803e3d6000fd5b505050506040513d601f19601f820116820180604052508101906115189190611fe2565b905081811015610ae357801561155d5761155d6001600160a01b0384167f0000000000000000000000000000000000000000000000000000000000000000600061176e565b610ae36001600160a01b0384167f00000000000000000000000000000000000000000000000000000000000000008461176e565b60408051610100810182526001600160a01b038088168252868116602083015262ffffff86168284015230606083015242603c01608083015260a0820185905260c08201849052600060e0830181905292517f414bf3890000000000000000000000000000000000000000000000000000000081527f00000000000000000000000000000000000000000000000000000000000000009091169063414bf3899061163f908490600401612586565b602060405180830381600087803b15801561165957600080fd5b505af1925050508015611689575060408051601f3d908101601f1916820190925261168691810190611fe2565b60015b6116fa57611695612708565b806116a057506116e1565b6116a9896118c8565b816040516020016116bb92919061209b565b60408051601f198184030181529082905262461bcd60e51b82526101e391600401612203565b6116ea886118c8565b6040516020016116bb919061211c565b809250866001600160a01b0316886001600160a01b03168a7fc320f2cc808ecb8cf34ad2d8535065e4d4a766f7526f00abc0acd2a19c8beeb188876040516117439291906126a0565b60405180910390a450509695505050505050565b606061176684846000856119f4565b949350505050565b80158061180d5750604080517fdd62ed3e0000000000000000000000000000000000000000000000000000000081523060048201526001600160a01b03848116602483015291519185169163dd62ed3e91604480820192602092909190829003018186803b1580156117df57600080fd5b505afa1580156117f3573d6000803e3d6000fd5b505050506040513d602081101561180957600080fd5b5051155b6118485760405162461bcd60e51b81526004018080602001828103825260368152602001806128466036913960400191505060405180910390fd5b604080516001600160a01b038416602482015260448082018490528251808303909101815260649091019091526020810180517bffffffffffffffffffffffffffffffffffffffffffffffffffffffff167f095ea7b300000000000000000000000000000000000000000000000000000000179052610ae390849061129e565b606081611909575060408051808201909152600181527f300000000000000000000000000000000000000000000000000000000000000060208201526119ef565b8160005b811561192157600101600a8204915061190d565b60008167ffffffffffffffff8111801561193a57600080fd5b506040519080825280601f01601f191660200182016040528015611965576020820181803683370190505b5090507fffffffffffffffffffffffffffffffffffffffffffffffffffffffffffffffff82015b85156119e957600a860660300160f81b828280600190039350815181106119af57fe5b60200101907effffffffffffffffffffffffffffffffffffffffffffffffffffffffffffff1916908160001a905350600a8604955061198c565b50925050505b919050565b606082471015611a355760405162461bcd60e51b81526004018080602001828103825260268152602001806127f66026913960400191505060405180910390fd5b611a3e85611b44565b611a8f576040805162461bcd60e51b815260206004820152601d60248201527f416464726573733a2063616c6c20746f206e6f6e2d636f6e7472616374000000604482015290519081900360640190fd5b600080866001600160a01b031685876040518082805190602001908083835b60208310611acd5780518252601f199092019160209182019101611aae565b6001836020036101000a03801982511681845116808217855250505050505090500191505060006040518083038185875af1925050503d8060008114611b2f576040519150601f19603f3d011682016040523d82523d6000602084013e611b34565b606091505b50915091506111a3828286611b4a565b3b151590565b60608315611b5957508161108f565b825115611b695782518084602001fd5b8160405162461bcd60e51b81526004018080602001828103825283818151815260200191508051906020019080838360005b83811015611bb3578181015183820152602001611b9b565b50505050905090810190601f168015611be05780820380516001836020036101000a031916815260200191505b509250505060405180910390fd5b80356119ef816127cc565b80516119ef816127cc565b60008083601f840112611c15578081fd5b50813567ffffffffffffffff811115611c2c578182fd5b602083019150836020828501011115611c4457600080fd5b9250929050565b600082601f830112611c5b578081fd5b813567ffffffffffffffff811115611c6f57fe5b611c826020601f19601f840116016126ae565b818152846020838601011115611c96578283fd5b816020850160208301379081016020019190915292915050565b8035600281106119ef57600080fd5b80356119ef816127e4565b80516119ef816127e4565b600060208284031215611ce6578081fd5b813561108f816127cc565b600060208284031215611d02578081fd5b815161108f816127cc565b600080600080600060808688031215611d24578081fd5b8535611d2f816127cc565b94506020860135935060408601359250606086013567ffffffffffffffff811115611d58578182fd5b611d6488828901611c04565b969995985093965092949392505050565b600060208284031215611d86578081fd5b813567ffffffffffffffff80821115611d9d578283fd5b8184019150610120808387031215611db3578384fd5b611dbc816126ae565b9050611dc783611cb0565b81526020830135602082015260408301356040820152611de960608401611bee565b6060820152611dfa60808401611bee565b6080820152611e0b60a08401611bee565b60a0820152611e1c60c08401611bee565b60c0820152611e2d60e08401611cbf565b60e08201526101008084013583811115611e45578586fd5b611e5188828701611c4b565b918301919091525095945050505050565b6000610140808385031215611e75578182fd5b611e7e816126ae565b9050611e8983611bf9565b8152611e9760208401611bf9565b6020820152611ea860408401611bf9565b6040820152611eb960608401611bf9565b6060820152611eca60808401611bf9565b6080820152611edb60a08401611bf9565b60a0820152611eec60c08401611cca565b60c0820152611efd60e08401611cca565b60e0820152610100611f10818501611cca565b90820152610120928301519281019290925250919050565b600060e08284031215611f39578081fd5b60405160e0810181811067ffffffffffffffff82111715611f5657fe5b604052611f6283611bf9565b8152611f7060208401611bf9565b6020820152611f8160408401611cca565b6040820152611f9260608401611bf9565b6060820152611fa360808401611cca565b608082015260a083015160a082015260c083015160c08201528091505092915050565b600060208284031215611fd7578081fd5b815161108f816127e4565b600060208284031215611ff3578081fd5b5051919050565b6000806000806060858703121561200f578384fd5b8435935060208501359250604085013567ffffffffffffffff811115612033578283fd5b61203f87828801611c04565b95989497509550505050565b6001600160a01b03169052565b600081518084526120708160208601602086016126d2565b601f01601f19169290920160200192915050565b6002811061208e57fe5b9052565b62ffffff169052565b60007f46533a5300000000000000000000000000000000000000000000000000000000825283516120d38160048501602088016126d2565b7f463a00000000000000000000000000000000000000000000000000000000000060049184019182015283516121108160068401602088016126d2565b01600601949350505050565b60007f46533a5300000000000000000000000000000000000000000000000000000000825282516121548160048501602087016126d2565b7f464c0000000000000000000000000000000000000000000000000000000000006004939091019283015250600601919050565b6001600160a01b0391909116815260200190565b6001600160a01b0392831681529116602082015260400190565b60006001600160a01b0386168252846020830152836040830152608060608301526112376080830184612058565b606081016121f28286612084565b602082019390935260400152919050565b60006020825261108f6020830184612058565b60208082526006908201527f46533a4254420000000000000000000000000000000000000000000000000000604082015260600190565b60208082526006908201527f46533a4e57450000000000000000000000000000000000000000000000000000604082015260600190565b60208082526007908201527f46533a5453325a00000000000000000000000000000000000000000000000000604082015260600190565b60208082526005908201527f46533a4e41000000000000000000000000000000000000000000000000000000604082015260600190565b60208082526006908201527f46533a42414f0000000000000000000000000000000000000000000000000000604082015260600190565b60208082526005908201527f46533a4550000000000000000000000000000000000000000000000000000000604082015260600190565b60208082526006908201527f46533a5543540000000000000000000000000000000000000000000000000000604082015260600190565b60208082526006908201527f46533a4e57540000000000000000000000000000000000000000000000000000604082015260600190565b60208082526005908201527f46533a4954000000000000000000000000000000000000000000000000000000604082015260600190565b60208082526006908201527f46533a4946520000000000000000000000000000000000000000000000000000604082015260600190565b60208082526005908201527f46533a4950000000000000000000000000000000000000000000000000000000604082015260600190565b60208082526006908201527f46533a424e410000000000000000000000000000000000000000000000000000604082015260600190565b60208082526006908201527f46533a4342570000000000000000000000000000000000000000000000000000604082015260600190565b60208082526006908201527f46533a5450410000000000000000000000000000000000000000000000000000604082015260600190565b60208082526007908201527f46533a5453315a00000000000000000000000000000000000000000000000000604082015260600190565b60208082526006908201527f46533a53315a0000000000000000000000000000000000000000000000000000604082015260600190565b6000610100820190506001600160a01b0380845116835280602085015116602084015262ffffff60408501511660408401528060608501511660608401526080840151608084015260a084015160a084015260c084015160c08401528060e08501511660e08401525092915050565b600060208252612609602083018451612084565b6020830151604083015260408301516060830152606083015161262f608084018261204b565b50608083015161264260a084018261204b565b5060a083015161265560c084018261204b565b5060c083015161266860e084018261204b565b5060e083015161010061267d81850183612092565b840151610120848101529050611766610140840182612058565b90815260200190565b918252602082015260400190565b60405181810167ffffffffffffffff811182821017156126ca57fe5b604052919050565b60005b838110156126ed5781810151838201526020016126d5565b838111156126fc576000848401525b50505050565b60e01c90565b600060443d1015612718576127c9565b600481823e6308c379a061272c8251612702565b14612736576127c9565b6040517ffffffffffffffffffffffffffffffffffffffffffffffffffffffffffffffffc3d016004823e80513d67ffffffffffffffff816024840111818411171561278457505050506127c9565b8284019250825191508082111561279e57505050506127c9565b503d830160208284010111156127b6575050506127c9565b601f01601f191681016020016040529150505b90565b6001600160a01b03811681146127e157600080fd5b50565b62ffffff811681146127e157600080fdfe416464726573733a20696e73756666696369656e742062616c616e636520666f722063616c6c5361666545524332303a204552433230206f7065726174696f6e20646964206e6f7420737563636565645361666545524332303a20617070726f76652066726f6d206e6f6e2d7a65726f20746f206e6f6e2d7a65726f20616c6c6f77616e6365a26469706673582212206b4da5bb5c9cb1a1bdc4b2987ae05520ae5a73555a8dcac5498b8feb641b88bc64736f6c63430007060033",
  "linkReferences": {},
  "deployedLinkReferences": {}
}