{
  "_format": "hh-sol-artifact-1",
  "contractName": "FlashSwap",
  "sourceName": "contracts/FlashSwap.sol",
  "abi": [
    {
      "inputs": [
        {
          "internalType": "address",
          "name": "_swapRouter",
          "type": "address"
        },
        {
          "internalType": "address",
          "name": "_aavePoolAddress",
          "type": "address"
        }
      ],
      "stateMutability": "nonpayable",
      "type": "constructor"
    },
    {
      "anonymous": false,
      "inputs": [
        {
          "indexed": true,
          "internalType": "address",
          "name": "tokenBorrowed",
          "type": "address"
        },
        {
          "indexed": false,
          "internalType": "uint256",
          "name": "amountBorrowed",
          "type": "uint256"
        },
        {
          "indexed": false,
          "internalType": "uint256",
          "name": "feePaid",
          "type": "uint256"
        }
      ],
      "name": "AaveArbitrageExecution",
      "type": "event"
    },
    {
      "anonymous": false,
      "inputs": [
        {
          "indexed": true,
          "internalType": "address",
          "name": "caller",
          "type": "address"
        },
        {
          "indexed": true,
          "internalType": "address",
          "name": "asset",
          "type": "address"
        },
        {
          "indexed": false,
          "internalType": "uint256",
          "name": "amount",
          "type": "uint256"
        }
      ],
      "name": "AaveFlashLoanInitiated",
      "type": "event"
    },
    {
      "anonymous": false,
      "inputs": [
        {
          "indexed": true,
          "internalType": "enum FlashSwap.CallbackType",
          "name": "tradeType",
          "type": "uint8"
        },
        {
          "indexed": true,
          "internalType": "address",
          "name": "tokenBorrowed",
          "type": "address"
        },
        {
          "indexed": false,
          "internalType": "uint256",
          "name": "amountBorrowed",
          "type": "uint256"
        },
        {
          "indexed": false,
          "internalType": "uint256",
          "name": "feePaid",
          "type": "uint256"
        }
      ],
      "name": "ArbitrageExecution",
      "type": "event"
    },
    {
      "anonymous": false,
      "inputs": [
        {
          "indexed": true,
          "internalType": "address",
          "name": "token",
          "type": "address"
        },
        {
          "indexed": true,
          "internalType": "address",
          "name": "recipient",
          "type": "address"
        },
        {
          "indexed": false,
          "internalType": "uint256",
          "name": "amount",
          "type": "uint256"
        }
      ],
      "name": "EmergencyWithdrawal",
      "type": "event"
    },
    {
      "anonymous": false,
      "inputs": [
        {
          "indexed": true,
          "internalType": "address",
          "name": "caller",
          "type": "address"
        },
        {
          "indexed": true,
          "internalType": "address",
          "name": "pool",
          "type": "address"
        },
        {
          "indexed": false,
          "internalType": "enum FlashSwap.CallbackType",
          "name": "tradeType",
          "type": "uint8"
        },
        {
          "indexed": false,
          "internalType": "uint256",
          "name": "amount0",
          "type": "uint256"
        },
        {
          "indexed": false,
          "internalType": "uint256",
          "name": "amount1",
          "type": "uint256"
        }
      ],
      "name": "FlashSwapInitiated",
      "type": "event"
    },
    {
      "anonymous": false,
      "inputs": [
        {
          "indexed": true,
          "internalType": "address",
          "name": "token",
          "type": "address"
        },
        {
          "indexed": true,
          "internalType": "address",
          "name": "recipient",
          "type": "address"
        },
        {
          "indexed": false,
          "internalType": "uint256",
          "name": "amount",
          "type": "uint256"
        }
      ],
      "name": "ProfitTransferred",
      "type": "event"
    },
    {
      "anonymous": false,
      "inputs": [
        {
          "indexed": true,
          "internalType": "address",
          "name": "token",
          "type": "address"
        },
        {
          "indexed": false,
          "internalType": "uint256",
          "name": "amountRepaid",
          "type": "uint256"
        }
      ],
      "name": "RepaymentSuccess",
      "type": "event"
    },
    {
      "anonymous": false,
      "inputs": [
        {
          "indexed": true,
          "internalType": "uint256",
          "name": "swapNumber",
          "type": "uint256"
        },
        {
          "indexed": true,
          "internalType": "address",
          "name": "tokenIn",
          "type": "address"
        },
        {
          "indexed": true,
          "internalType": "address",
          "name": "tokenOut",
          "type": "address"
        },
        {
          "indexed": false,
          "internalType": "uint256",
          "name": "amountIn",
          "type": "uint256"
        },
        {
          "indexed": false,
          "internalType": "uint256",
          "name": "amountOut",
          "type": "uint256"
        }
      ],
      "name": "SwapExecuted",
      "type": "event"
    },
    {
      "inputs": [],
      "name": "AAVE_POOL",
      "outputs": [
        {
          "internalType": "contract IPool",
          "name": "",
          "type": "address"
        }
      ],
      "stateMutability": "view",
      "type": "function"
    },
    {
      "inputs": [],
      "name": "ADDRESSES_PROVIDER",
      "outputs": [
        {
          "internalType": "address",
          "name": "",
          "type": "address"
        }
      ],
      "stateMutability": "view",
      "type": "function"
    },
    {
      "inputs": [],
      "name": "POOL",
      "outputs": [
        {
          "internalType": "address",
          "name": "",
          "type": "address"
        }
      ],
      "stateMutability": "view",
      "type": "function"
    },
    {
      "inputs": [],
      "name": "SWAP_ROUTER",
      "outputs": [
        {
          "internalType": "contract ISwapRouter",
          "name": "",
          "type": "address"
        }
      ],
      "stateMutability": "view",
      "type": "function"
    },
    {
      "inputs": [],
      "name": "V3_FACTORY",
      "outputs": [
        {
          "internalType": "address",
          "name": "",
          "type": "address"
        }
      ],
      "stateMutability": "view",
      "type": "function"
    },
    {
      "inputs": [
        {
          "internalType": "address[]",
          "name": "assets",
          "type": "address[]"
        },
        {
          "internalType": "uint256[]",
          "name": "amounts",
          "type": "uint256[]"
        },
        {
          "internalType": "uint256[]",
          "name": "premiums",
          "type": "uint256[]"
        },
        {
          "internalType": "address",
          "name": "initiator",
          "type": "address"
        },
        {
          "internalType": "bytes",
          "name": "params",
          "type": "bytes"
        }
      ],
      "name": "executeOperation",
      "outputs": [
        {
          "internalType": "bool",
          "name": "",
          "type": "bool"
        }
      ],
      "stateMutability": "nonpayable",
      "type": "function"
    },
    {
      "inputs": [
        {
          "internalType": "address[]",
          "name": "assets",
          "type": "address[]"
        },
        {
          "internalType": "uint256[]",
          "name": "amounts",
          "type": "uint256[]"
        },
        {
          "internalType": "bytes",
          "name": "params",
          "type": "bytes"
        }
      ],
      "name": "initiateAaveFlashLoan",
      "outputs": [],
      "stateMutability": "nonpayable",
      "type": "function"
    },
    {
      "inputs": [
        {
          "internalType": "address",
          "name": "_poolAddress",
          "type": "address"
        },
        {
          "internalType": "uint256",
          "name": "_amount0",
          "type": "uint256"
        },
        {
          "internalType": "uint256",
          "name": "_amount1",
          "type": "uint256"
        },
        {
          "internalType": "bytes",
          "name": "_params",
          "type": "bytes"
        }
      ],
      "name": "initiateFlashSwap",
      "outputs": [],
      "stateMutability": "nonpayable",
      "type": "function"
    },
    {
      "inputs": [
        {
          "internalType": "address",
          "name": "_poolAddress",
          "type": "address"
        },
        {
          "internalType": "uint256",
          "name": "_amount0",
          "type": "uint256"
        },
        {
          "internalType": "uint256",
          "name": "_amount1",
          "type": "uint256"
        },
        {
          "internalType": "bytes",
          "name": "_params",
          "type": "bytes"
        }
      ],
      "name": "initiateTriangularFlashSwap",
      "outputs": [],
      "stateMutability": "nonpayable",
      "type": "function"
    },
    {
      "inputs": [],
      "name": "owner",
      "outputs": [
        {
          "internalType": "address",
          "name": "",
          "type": "address"
        }
      ],
      "stateMutability": "view",
      "type": "function"
    },
    {
      "inputs": [
        {
          "internalType": "uint256",
          "name": "fee0",
          "type": "uint256"
        },
        {
          "internalType": "uint256",
          "name": "fee1",
          "type": "uint256"
        },
        {
          "internalType": "bytes",
          "name": "data",
          "type": "bytes"
        }
      ],
      "name": "uniswapV3FlashCallback",
      "outputs": [],
      "stateMutability": "nonpayable",
      "type": "function"
    },
    {
      "inputs": [],
      "name": "withdrawEther",
      "outputs": [],
      "stateMutability": "nonpayable",
      "type": "function"
    },
    {
      "inputs": [
        {
          "internalType": "address",
          "name": "tokenAddress",
          "type": "address"
        }
      ],
      "name": "withdrawToken",
      "outputs": [],
      "stateMutability": "nonpayable",
      "type": "function"
    },
    {
      "stateMutability": "payable",
      "type": "receive"
    }
  ],
  "bytecode": "0x6101006040527f1f98431c8ad98523631ae4a59f267346ea31f98400000000000000000000000060c0523480156200003657600080fd5b506040516200378a3803806200378a8339810160408190526200005991620000fc565b60016000556001600160a01b038216620000905760405162461bcd60e51b8152600401620000879062000133565b60405180910390fd5b6001600160a01b038116620000b95760405162461bcd60e51b8152600401620000879062000153565b6001600160601b0319606092831b811660805290821b1660e05233901b60a05262000173565b80516001600160a01b0381168114620000f757600080fd5b919050565b600080604083850312156200010f578182fd5b6200011a83620000df565b91506200012a60208401620000df565b90509250929050565b60208082526006908201526523299d24a9a960d11b604082015260600190565b602080825260069082015265046533a4941560d41b604082015260600190565b60805160601c60a05160601c60c05160601c60e05160601c61353f6200024b600039806102655280610aa55280610d215280610f5e528061125552508061028952806113df5250806102b652806102e852806106a852806106da528061096f52806109a152806109ec5280610a375280610ad25280610b045280610bfe5280610c255280610c955280610fda528061105252806110a052806110d2528061167452806116ec5250806112d452806118825280611b225280611b8d5280611bfc5280611c685280611cd45280611e2d525061353f6000f3fe6080604052600436106100c65760003560e01c80637535d2461161007f578063920f5c8411610059578063920f5c84146101c8578063be1ef102146101f5578063c600589314610215578063e9cbafb01461022a576100cd565b80637535d2461461017e57806389476069146101935780638da5cb5b146101b3576100cd565b80630542975c146100d257806308a01675146100fd57806308bd1a851461011257806309c3da87146101275780632f36d1e0146101495780637362377b14610169576100cd565b366100cd57005b600080fd5b3480156100de57600080fd5b506100e761024a565b6040516100f49190612dca565b60405180910390f35b34801561010957600080fd5b506100e7610263565b34801561011e57600080fd5b506100e7610287565b34801561013357600080fd5b50610147610142366004612644565b6102ab565b005b34801561015557600080fd5b50610147610164366004612644565b61069d565b34801561017557600080fd5b50610147610964565b34801561018a57600080fd5b506100e7610aa3565b34801561019f57600080fd5b506101476101ae36600461260c565b610ac7565b3480156101bf57600080fd5b506100e7610c93565b3480156101d457600080fd5b506101e86101e33660046126ab565b610cb7565b6040516100f49190612ede565b34801561020157600080fd5b50610147610210366004612780565b611095565b34801561022157600080fd5b506100e76112d2565b34801561023657600080fd5b50610147610245366004612c45565b6112f6565b73a97684ead0e402dc232d5a977953df7ecbab3cdb5b90565b7f000000000000000000000000000000000000000000000000000000000000000081565b7f000000000000000000000000000000000000000000000000000000000000000081565b336001600160a01b037f000000000000000000000000000000000000000000000000000000000000000016148061030a5750326001600160a01b037f000000000000000000000000000000000000000000000000000000000000000016145b61032f5760405162461bcd60e51b815260040161032690612f7c565b60405180910390fd5b6001600160a01b0385166103555760405162461bcd60e51b81526004016103269061309a565b600084118015610363575082155b806103775750600083118015610377575083155b6103935760405162461bcd60e51b815260040161032690612fdb565b806103b05760405162461bcd60e51b815260040161032690612ffb565b60008590506000816001600160a01b0316630dfe16816040518163ffffffff1660e01b815260040160206040518083038186803b1580156103f057600080fd5b505afa158015610404573d6000803e3d6000fd5b505050506040513d601f19601f820116820180604052508101906104289190612628565b90506000826001600160a01b031663d21220a76040518163ffffffff1660e01b815260040160206040518083038186803b15801561046557600080fd5b505afa158015610479573d6000803e3d6000fd5b505050506040513d601f19601f8201168201806040525081019061049d9190612628565b90506000836001600160a01b031663ddca3f436040518163ffffffff1660e01b815260040160206040518083038186803b1580156104da57600080fd5b505afa1580156104ee573d6000803e3d6000fd5b505050506040513d601f19601f820116820180604052508101906105129190612c11565b9050886001600160a01b0316336001600160a01b03167f05aa02a08501ddc4f9f218a7e1318cc2582c58027d8320aa916d16881064515460008b8b60405161055c93929190612ee9565b60405180910390a360408051610120810190915260009080825b81526020018a8152602001898152602001336001600160a01b031681526020018b6001600160a01b03168152602001856001600160a01b03168152602001846001600160a01b031681526020018362ffffff16815260200188888080601f01602080910402602001604051908101604052809392919081815260200183838082843760009201919091525050509152506040519091506001600160a01b0386169063490e6cbc9030908c908c90610631908790602001613283565b6040516020818303038152906040526040518563ffffffff1660e01b815260040161065f9493929190612eb1565b600060405180830381600087803b15801561067957600080fd5b505af115801561068d573d6000803e3d6000fd5b5050505050505050505050505050565b336001600160a01b037f00000000000000000000000000000000000000000000000000000000000000001614806106fc5750326001600160a01b037f000000000000000000000000000000000000000000000000000000000000000016145b6107185760405162461bcd60e51b815260040161032690612f7c565b6001600160a01b03851661073e5760405162461bcd60e51b81526004016103269061309a565b60008411801561074c575082155b806107605750600083118015610760575083155b61077c5760405162461bcd60e51b815260040161032690612fdb565b806107995760405162461bcd60e51b815260040161032690612ffb565b60008590506000816001600160a01b0316630dfe16816040518163ffffffff1660e01b815260040160206040518083038186803b1580156107d957600080fd5b505afa1580156107ed573d6000803e3d6000fd5b505050506040513d601f19601f820116820180604052508101906108119190612628565b90506000826001600160a01b031663d21220a76040518163ffffffff1660e01b815260040160206040518083038186803b15801561084e57600080fd5b505afa158015610862573d6000803e3d6000fd5b505050506040513d601f19601f820116820180604052508101906108869190612628565b90506000836001600160a01b031663ddca3f436040518163ffffffff1660e01b815260040160206040518083038186803b1580156108c357600080fd5b505afa1580156108d7573d6000803e3d6000fd5b505050506040513d601f19601f820116820180604052508101906108fb9190612c11565b9050886001600160a01b0316336001600160a01b03167f05aa02a08501ddc4f9f218a7e1318cc2582c58027d8320aa916d16881064515460018b8b60405161094593929190612ee9565b60405180910390a3604080516101208101909152600090806001610576565b336001600160a01b037f00000000000000000000000000000000000000000000000000000000000000001614806109c35750326001600160a01b037f000000000000000000000000000000000000000000000000000000000000000016145b6109df5760405162461bcd60e51b815260040161032690612f7c565b6040516001600160a01b037f000000000000000000000000000000000000000000000000000000000000000016904780156108fc02916000818181858888f19350505050158015610a34573d6000803e3d6000fd5b507f00000000000000000000000000000000000000000000000000000000000000006001600160a01b031660006001600160a01b03167f9495d03190a79a43e534c9e328ff322f6283261383f5f19c809564f6ad5a57b347604051610a99919061332d565b60405180910390a3565b7f000000000000000000000000000000000000000000000000000000000000000090565b336001600160a01b037f0000000000000000000000000000000000000000000000000000000000000000161480610b265750326001600160a01b037f000000000000000000000000000000000000000000000000000000000000000016145b610b425760405162461bcd60e51b815260040161032690612f7c565b6001600160a01b038116610b685760405162461bcd60e51b815260040161032690612f9b565b6040516370a0823160e01b81526000906001600160a01b038316906370a0823190610b97903090600401612dca565b60206040518083038186803b158015610baf57600080fd5b505afa158015610bc3573d6000803e3d6000fd5b505050506040513d601f19601f82011682018060405250810190610be79190612c2d565b90508015610c8f57610c236001600160a01b0383167f000000000000000000000000000000000000000000000000000000000000000083611725565b7f00000000000000000000000000000000000000000000000000000000000000006001600160a01b0316826001600160a01b03167f9495d03190a79a43e534c9e328ff322f6283261383f5f19c809564f6ad5a57b383604051610c86919061332d565b60405180910390a35b5050565b7f000000000000000000000000000000000000000000000000000000000000000081565b600060026000541415610d11576040805162461bcd60e51b815260206004820152601f60248201527f5265656e7472616e637947756172643a207265656e7472616e742063616c6c00604482015290519081900360640190fd5b6002600055336001600160a01b037f00000000000000000000000000000000000000000000000000000000000000001614610d5e5760405162461bcd60e51b81526004016103269061305a565b6001600160a01b0384163014610d865760405162461bcd60e51b8152600401610326906131da565b60018914610da65760405162461bcd60e51b8152600401610326906130b9565b8887148015610db457508685145b610dd05760405162461bcd60e51b815260040161032690613138565b6000610dde83850185612865565b905060008b8b6000818110610def57fe5b9050602002016020810190610e04919061260c565b905060008a8a6000818110610e1557fe5b905060200201359050600089896000818110610e2d57fe5b905060200201359050826001600160a01b03167f590e310148e41f756dced96dc1b424986c6699ee980cf932434abcaf26c0474c8383604051610e71929190613336565b60405180910390a26000610e88856000015161177c565b905060008111610eaa5760405162461bcd60e51b815260040161032690612fbb565b6000610eb6848461192b565b90506000856001600160a01b03166370a08231306040518263ffffffff1660e01b8152600401610ee69190612dca565b60206040518083038186803b158015610efe57600080fd5b505afa158015610f12573d6000803e3d6000fd5b505050506040513d601f19601f82011682018060405250810190610f369190612c2d565b905081811015610f585760405162461bcd60e51b81526004016103269061307a565b610f83867f00000000000000000000000000000000000000000000000000000000000000008461198e565b856001600160a01b03167f225e94d7746fdb574aa7d9b5f49a354df34409388d4f4a2799fe421a1b5f55f283604051610fbc919061332d565b60405180910390a26000610fd08284611a4e565b90508015611077577f00000000000000000000000000000000000000000000000000000000000000006001600160a01b0316876001600160a01b03167ff8c1ab10239f6f37a13f2905c9b042c4c7ff13bcbf485c543d2a9ecbc5c18afa8360405161103b919061332d565b60405180910390a36110776001600160a01b0388167f000000000000000000000000000000000000000000000000000000000000000083611725565b60019850505050505050505060016000559998505050505050505050565b336001600160a01b037f00000000000000000000000000000000000000000000000000000000000000001614806110f45750326001600160a01b037f000000000000000000000000000000000000000000000000000000000000000016145b6111105760405162461bcd60e51b815260040161032690612f7c565b83516001148015611122575082516001145b61113e5760405162461bcd60e51b81526004016103269061303a565b60008360008151811061114d57fe5b6020026020010151116111725760405162461bcd60e51b815260040161032690612fbb565b8061118f5760405162461bcd60e51b815260040161032690612ffb565b8360008151811061119c57fe5b60200260200101516001600160a01b0316336001600160a01b03167f982ee83a4f94146b0aa8d4266773327071682a730aef8f249832a7c58df3b064856000815181106111e557fe5b60200260200101516040516111fa919061332d565b60405180910390a36040805160018082528183019092526000916020808301908036833701905050905060008160008151811061123357fe5b602090810291909101015260405163ab9c4b5d60e01b81526001600160a01b037f0000000000000000000000000000000000000000000000000000000000000000169063ab9c4b5d9061129990309089908990879084908b908b90600090600401612df8565b600060405180830381600087803b1580156112b357600080fd5b505af11580156112c7573d6000803e3d6000fd5b505050505050505050565b7f000000000000000000000000000000000000000000000000000000000000000081565b6002600054141561134e576040805162461bcd60e51b815260206004820152601f60248201527f5265656e7472616e637947756172643a207265656e7472616e742063616c6c00604482015290519081900360640190fd5b60026000908155611361828401846129c2565b9050600060405180606001604052808360a001516001600160a01b031681526020018360c001516001600160a01b031681526020018360e0015162ffffff16815250905081608001516001600160a01b0316336001600160a01b0316146113da5760405162461bcd60e51b8152600401610326906130f8565b6114047f000000000000000000000000000000000000000000000000000000000000000082611aab565b5060008060008060008660400151111561145c5760208601511561143a5760405162461bcd60e51b815260040161032690612f1b565b5060c08501516040860151909350915087611455838261192b565b91506114ac565b6040860151158015611472575060008660200151115b61148e5760405162461bcd60e51b8152600401610326906130d8565b5060a085015160208601519093509150886114a9838261192b565b91505b85516001600160a01b0385169060018111156114c457fe5b7fd03100470982abc26de7fc1f904cfde062a6cbdda69c624e8035a785a40482cf85846040516114f5929190613336565b60405180910390a3600060018751600181111561150e57fe5b141561152b576115248585896101000151611ace565b9050611568565b60008751600181111561153a57fe5b1415611550576115248585896101000151611c49565b60405162461bcd60e51b81526004016103269061301a565b6040516370a0823160e01b81526000906001600160a01b038716906370a0823190611597903090600401612dca565b60206040518083038186803b1580156115af57600080fd5b505afa1580156115c3573d6000803e3d6000fd5b505050506040513d601f19601f820116820180604052508101906115e79190612c2d565b9050838110156116095760405162461bcd60e51b81526004016103269061307a565b61161d6001600160a01b0387163386611725565b856001600160a01b03167f225e94d7746fdb574aa7d9b5f49a354df34409388d4f4a2799fe421a1b5f55f285604051611656919061332d565b60405180910390a2600061166a8286611a4e565b90508015611711577f00000000000000000000000000000000000000000000000000000000000000006001600160a01b0316876001600160a01b03167ff8c1ab10239f6f37a13f2905c9b042c4c7ff13bcbf485c543d2a9ecbc5c18afa836040516116d5919061332d565b60405180910390a36117116001600160a01b0388167f000000000000000000000000000000000000000000000000000000000000000083611725565b505060016000555050505050505050505050565b604080516001600160a01b038416602482015260448082018490528251808303909101815260649091019091526020810180516001600160e01b031663a9059cbb60e01b179052611777908490611d1e565b505050565b60008082511161179e5760405162461bcd60e51b8152600401610326906131ba565b6000826000815181106117ad57fe5b6020026020010151602001516001600160a01b03166370a08231306040518263ffffffff1660e01b81526004016117e49190612dca565b60206040518083038186803b1580156117fc57600080fd5b505afa158015611810573d6000803e3d6000fd5b505050506040513d601f19601f820116820180604052508101906118349190612c2d565b90508060005b845181101561192357600085828151811061185157fe5b602002602001015190506000831161187b5760405162461bcd60e51b815260040161032690613118565b60208101517f0000000000000000000000000000000000000000000000000000000000000000906118ad90828661198e565b60a082015160ff16611901576118da83600101836020015184604001518560600151888760800151611dcf565b9350600084116118fc5760405162461bcd60e51b815260040161032690613158565b611919565b60405162461bcd60e51b815260040161032690612f5c565b505060010161183a565b509392505050565b600082820183811015611985576040805162461bcd60e51b815260206004820152601b60248201527f536166654d6174683a206164646974696f6e206f766572666c6f770000000000604482015290519081900360640190fd5b90505b92915050565b604051636eb1769f60e11b81526000906001600160a01b0385169063dd62ed3e906119bf9030908790600401612dde565b60206040518083038186803b1580156119d757600080fd5b505afa1580156119eb573d6000803e3d6000fd5b505050506040513d601f19601f82011682018060405250810190611a0f9190612c2d565b905081811015611a48578015611a3457611a346001600160a01b038516846000611f7c565b611a486001600160a01b0385168484611f7c565b50505050565b600082821115611aa5576040805162461bcd60e51b815260206004820152601e60248201527f536166654d6174683a207375627472616374696f6e206f766572666c6f770000604482015290519081900360640190fd5b50900390565b6000611ab7838361208f565b9050336001600160a01b0382161461198857600080fd5b60008082806020019051810190611ae59190612aae565b9050846001600160a01b031681606001516001600160a01b031614611b1c5760405162461bcd60e51b815260040161032690613179565b611b47857f00000000000000000000000000000000000000000000000000000000000000008661198e565b6000611b6160018784608001518560c00151896000611dcf565b905060008111611b835760405162461bcd60e51b815260040161032690613199565b611bb282608001517f00000000000000000000000000000000000000000000000000000000000000008361198e565b6000611bd0600284608001518560a001518660e00151866000611dcf565b905060008111611bf25760405162461bcd60e51b815260040161032690612f3b565b611c218360a001517f00000000000000000000000000000000000000000000000000000000000000008361198e565b611c3e60038460a001518986610100015185886101200151611dcf565b979650505050505050565b60008082806020019051810190611c609190612b74565b9050611c8d857f00000000000000000000000000000000000000000000000000000000000000008661198e565b6000611caa60018784600001518560400151898760a00151611dcf565b905060008111611ccc5760405162461bcd60e51b8152600401610326906131fa565b8151611cf9907f00000000000000000000000000000000000000000000000000000000000000008361198e565b611d1460028360000151888560800151858760c00151611dcf565b9695505050505050565b6000611d73826040518060400160405280602081526020017f5361666545524332303a206c6f772d6c6576656c2063616c6c206661696c6564815250856001600160a01b03166121739092919063ffffffff16565b80519091501561177757808060200190516020811015611d9257600080fd5b50516117775760405162461bcd60e51b815260040180806020018281038252602a8152602001806134aa602a913960400191505060405180910390fd5b60408051610100810182526001600160a01b038088168252868116602083015262ffffff86168284015230606083015242603c01608083015260a0820185905260c08201849052600060e08301819052925163414bf38960e01b81527f00000000000000000000000000000000000000000000000000000000000000009091169063414bf38990611e6490849060040161321a565b602060405180830381600087803b158015611e7e57600080fd5b505af1925050508015611eae575060408051601f3d908101601f19168201909252611eab91810190612c2d565b60015b611f1f57611eba6133b6565b80611ec55750611f06565b611ece8961218c565b81604051602001611ee0929190612d45565b60408051601f198184030181529082905262461bcd60e51b825261032691600401612f08565b611f0f8861218c565b604051602001611ee09190612d92565b809250866001600160a01b0316886001600160a01b03168a7fc320f2cc808ecb8cf34ad2d8535065e4d4a766f7526f00abc0acd2a19c8beeb18887604051611f68929190613336565b60405180910390a450509695505050505050565b801580612002575060408051636eb1769f60e11b81523060048201526001600160a01b03848116602483015291519185169163dd62ed3e91604480820192602092909190829003018186803b158015611fd457600080fd5b505afa158015611fe8573d6000803e3d6000fd5b505050506040513d6020811015611ffe57600080fd5b5051155b61203d5760405162461bcd60e51b81526004018080602001828103825260368152602001806134d46036913960400191505060405180910390fd5b604080516001600160a01b038416602482015260448082018490528251808303909101815260649091019091526020810180516001600160e01b031663095ea7b360e01b179052611777908490611d1e565b600081602001516001600160a01b031682600001516001600160a01b0316106120b757600080fd5b50805160208083015160409384015184516001600160a01b0394851681850152939091168385015262ffffff166060808401919091528351808403820181526080840185528051908301206001600160f81b031960a085015294901b6bffffffffffffffffffffffff191660a183015260b58201939093527fe34f199b19b2b4f47f68442619d555527d244f78a3297ea89325f843f87b8b5460d5808301919091528251808303909101815260f5909101909152805191012090565b6060612182848460008561226f565b90505b9392505050565b6060816121b157506040805180820190915260018152600360fc1b602082015261226a565b8160005b81156121c957600101600a820491506121b5565b6000816001600160401b03811180156121e157600080fd5b506040519080825280601f01601f19166020018201604052801561220c576020820181803683370190505b509050815b851561226457600019016000600a8704600a028703603001905060008160f81b90508084848151811061224057fe5b60200101906001600160f81b031916908160001a905350600a880497505050612211565b50925050505b919050565b6060824710156122b05760405162461bcd60e51b81526004018080602001828103825260268152602001806134846026913960400191505060405180910390fd5b6122b9856123bf565b61230a576040805162461bcd60e51b815260206004820152601d60248201527f416464726573733a2063616c6c20746f206e6f6e2d636f6e7472616374000000604482015290519081900360640190fd5b600080866001600160a01b031685876040518082805190602001908083835b602083106123485780518252601f199092019160209182019101612329565b6001836020036101000a03801982511681845116808217855250505050505090500191505060006040518083038185875af1925050503d80600081146123aa576040519150601f19603f3d011682016040523d82523d6000602084013e6123af565b606091505b5091509150611c3e8282866123c5565b3b151590565b606083156123d4575081612185565b8251156123e45782518084602001fd5b8160405162461bcd60e51b81526004018080602001828103825283818151815260200191508051906020019080838360005b8381101561242e578181015183820152602001612416565b50505050905090810190601f16801561245b5780820380516001836020036101000a031916815260200191505b509250505060405180910390fd5b803561226a8161345a565b805161226a8161345a565b60008083601f840112612490578182fd5b5081356001600160401b038111156124a6578182fd5b60208301915083602080830285010111156124c057600080fd5b9250929050565b600082601f8301126124d7578081fd5b813560206124ec6124e783613367565b613344565b8281528181019085830183850287018401881015612508578586fd5b855b858110156125265781358452928401929084019060010161250a565b5090979650505050505050565b60008083601f840112612544578182fd5b5081356001600160401b0381111561255a578182fd5b6020830191508360208285010111156124c057600080fd5b600082601f830112612582578081fd5b81356001600160401b0381111561259557fe5b6125a8601f8201601f1916602001613344565b8181528460208386010111156125bc578283fd5b816020850160208301379081016020019190915292915050565b80356002811061226a57600080fd5b803561226a81613472565b805161226a81613472565b803560ff8116811461226a57600080fd5b60006020828403121561261d578081fd5b81356119858161345a565b600060208284031215612639578081fd5b81516119858161345a565b60008060008060006080868803121561265b578081fd5b85356126668161345a565b9450602086013593506040860135925060608601356001600160401b0381111561268e578182fd5b61269a88828901612533565b969995985093965092949392505050565b600080600080600080600080600060a08a8c0312156126c8578687fd5b89356001600160401b03808211156126de578889fd5b6126ea8d838e0161247f565b909b50995060208c0135915080821115612702578889fd5b61270e8d838e0161247f565b909950975060408c0135915080821115612726578586fd5b6127328d838e0161247f565b909750955060608c013591506127478261345a565b90935060808b0135908082111561275c578384fd5b506127698c828d01612533565b915080935050809150509295985092959850929598565b60008060008060608587031215612795578182fd5b84356001600160401b03808211156127ab578384fd5b818701915087601f8301126127be578384fd5b813560206127ce6124e783613367565b82815281810190858301838502870184018d10156127ea578889fd5b8896505b848710156128155780356128018161345a565b8352600196909601959183019183016127ee565b509850508801359250508082111561282b578384fd5b612837888389016124c7565b9450604087013591508082111561284c578384fd5b5061285987828801612533565b95989497509550505050565b60006020808385031215612877578182fd5b82356001600160401b038082111561288d578384fd5b818501915060408083880312156128a2578485fd5b805181810181811084821117156128b557fe5b82528335838111156128c5578687fd5b8401601f810189136128d5578687fd5b80356128e36124e782613367565b8181528781019083890160c080850286018b018e1015612901578b8cfd5b8b95505b8486101561299d5780828f03121561291b578b8cfd5b87518181018181108b8211171561292e57fe5b8952823561293b8161345a565b8152612948838d01612469565b8c820152612957898401612469565b8982015260606129688185016125e5565b908201526080838101359082015260a06129838185016125fb565b90820152845260019590950194928a019290810190612905565b50508452506129b0915050848601612469565b85820152809550505050505092915050565b6000602082840312156129d3578081fd5b81356001600160401b03808211156129e9578283fd5b81840191506101208083870312156129ff578384fd5b612a0881613344565b9050612a13836125d6565b81526020830135602082015260408301356040820152612a3560608401612469565b6060820152612a4660808401612469565b6080820152612a5760a08401612469565b60a0820152612a6860c08401612469565b60c0820152612a7960e084016125e5565b60e08201526101008084013583811115612a91578586fd5b612a9d88828701612572565b918301919091525095945050505050565b6000610140808385031215612ac1578182fd5b612aca81613344565b9050612ad583612474565b8152612ae360208401612474565b6020820152612af460408401612474565b6040820152612b0560608401612474565b6060820152612b1660808401612474565b6080820152612b2760a08401612474565b60a0820152612b3860c084016125f0565b60c0820152612b4960e084016125f0565b60e0820152610100612b5c8185016125f0565b90820152610120928301519281019290925250919050565b600060e08284031215612b85578081fd5b60405160e081018181106001600160401b0382111715612ba157fe5b604052612bad83612474565b8152612bbb60208401612474565b6020820152612bcc604084016125f0565b6040820152612bdd60608401612474565b6060820152612bee608084016125f0565b608082015260a083015160a082015260c083015160c08201528091505092915050565b600060208284031215612c22578081fd5b815161198581613472565b600060208284031215612c3e578081fd5b5051919050565b60008060008060608587031215612c5a578182fd5b843593506020850135925060408501356001600160401b03811115612c7d578283fd5b61285987828801612533565b6001600160a01b03169052565b6000815180845260208085019450808401835b83811015612cc557815187529582019590820190600101612ca9565b509495945050505050565b60008284528282602086013780602084860101526020601f19601f85011685010190509392505050565b60008151808452612d12816020860160208601613384565b601f01601f19169290920160200192915050565b60028110612d3057fe5b9052565b61ffff169052565b62ffffff169052565b60006346533a5360e01b82528351612d64816004850160208801613384565b61231d60f11b6004918401918201528351612d86816006840160208801613384565b01600601949350505050565b60006346533a5360e01b82528251612db1816004850160208701613384565b61119360f21b6004939091019283015250600601919050565b6001600160a01b0391909116815260200190565b6001600160a01b0392831681529116602082015260400190565b6001600160a01b03898116825260e060208084018290528a519184018290526000928b820192909190610100860190855b81811015612e47578551851683529483019491830191600101612e29565b50508581036040870152612e5b818d612c96565b93505050508281036060840152612e728189612c96565b9050612e816080840188612c89565b82810360a0840152612e94818688612cd0565b915050612ea460c0830184612d34565b9998505050505050505050565b600060018060a01b038616825284602083015283604083015260806060830152611d146080830184612cfa565b901515815260200190565b60608101612ef78286612d26565b602082019390935260400152919050565b6000602082526121856020830184612cfa565b60208082526006908201526523299d212a2160d11b604082015260600190565b60208082526007908201526623299d2a29992d60c91b604082015260600190565b6020808252600690820152651194ce95511560d21b604082015260600190565b60208082526005908201526446533a4e4160d81b604082015260600190565b6020808252600690820152651194ce96905560d21b604082015260600190565b60208082526006908201526546533a415a4160d01b604082015260600190565b60208082526006908201526546533a42414f60d01b604082015260600190565b602080825260059082015264046533a45560dc1b604082015260600190565b6020808252600690820152651194ce9550d560d21b604082015260600190565b60208082526006908201526546533a53414160d01b604082015260600190565b60208082526006908201526546533a43424160d01b604082015260600190565b60208082526006908201526523299d24a32960d11b604082015260600190565b602080825260059082015264046533a49560dc1b604082015260600190565b60208082526005908201526446533a4d4160d81b604082015260600190565b60208082526006908201526546533a424e4160d01b604082015260600190565b60208082526006908201526546533a43425760d01b604082015260600190565b60208082526006908201526546533a415a5360d01b604082015260600190565b60208082526006908201526546533a414c4160d01b604082015260600190565b60208082526007908201526623299d2b19a9ad60c91b604082015260600190565b60208082526006908201526546533a54504160d01b604082015260600190565b60208082526007908201526623299d2a2998ad60c91b604082015260600190565b602080825260069082015265046533a4553560d41b604082015260600190565b60208082526006908201526546533a49464960d01b604082015260600190565b60208082526006908201526523299d2998ad60d11b604082015260600190565b81516001600160a01b03908116825260208084015182169083015260408084015162ffffff16908301526060808401518216908301526080808401519083015260a0838101519083015260c0808401519083015260e09283015116918101919091526101000190565b600060208252613297602083018451612d26565b602083015160408301526040830151606083015260608301516132bd6080840182612c89565b5060808301516132d060a0840182612c89565b5060a08301516132e360c0840182612c89565b5060c08301516132f660e0840182612c89565b5060e083015161010061330b81850183612d3c565b840151610120848101529050613325610140840182612cfa565b949350505050565b90815260200190565b918252602082015260400190565b6040518181016001600160401b038111828210171561335f57fe5b604052919050565b60006001600160401b0382111561337a57fe5b5060209081020190565b60005b8381101561339f578181015183820152602001613387565b83811115611a485750506000910152565b60e01c90565b600060443d10156133c657610260565b600481823e6308c379a06133da82516133b0565b146133e457610260565b6040513d600319016004823e80513d6001600160401b0381602484011181841117156134135750505050610260565b8284019250825191508082111561342d5750505050610260565b503d8301602082840101111561344557505050610260565b601f01601f1916810160200160405291505090565b6001600160a01b038116811461346f57600080fd5b50565b62ffffff8116811461346f57600080fdfe416464726573733a20696e73756666696369656e742062616c616e636520666f722063616c6c5361666545524332303a204552433230206f7065726174696f6e20646964206e6f7420737563636565645361666545524332303a20617070726f76652066726f6d206e6f6e2d7a65726f20746f206e6f6e2d7a65726f20616c6c6f77616e6365a2646970667358221220e08abbbf7447709532bf311f8d1e2b5105d717a51f0388ab826dd6fe014cd38f64736f6c63430007060033",
  "linkReferences": {},
  "deployedLinkReferences": {}
}